:020000040800F2
:10000000180600209D010008FD1400083D1400089A
:10001000F9140008A9020008151B000800000000E0
:100020000000000000000000000000003115000882
:1000300089030008000000002D1500086515000860
:10004000B7010008B7010008B7010008B7010008B0
:10005000B7010008B7010008B7010008B7010008A0
:10006000B7010008B7010008B7010008B701000890
:10007000B7010008B7010008B7010008B701000880
:10008000B7010008B7010008B7010008B701000870
:10009000B7010008B7010008B7010008B701000860
:1000A000B7010008B7010008B7010008B701000850
:1000B000B7010008B7010008B7010008B701000840
:1000C000B7010008B7010008B7010008B701000830
:1000D000B7010008FD1A0008B7010008B7010008C1
:1000E000B7010008B7010008B7010008B701000810
:1000F000B7010008B7010008B7010008B701000800
:10010000B7010008B7010008B7010008B7010008EF
:10011000B7010008B7010008B7010008B7010008DF
:10012000B7010008B7010008B7010008B7010008CF
:10013000B7010008B7010008B7010008B7010008BF
:10014000B7010008B7010008B7010008B7010008AF
:10015000AD020008B7010008BD020008B7010008A1
:10016000B7010008B7010008B7010008B70100088F
:10017000B7010008B7010008B7010008000000003F
:10018000B7010008B7010008DFF80CD000F07AF8DA
:10019000004800478D1B00081806002006488047CD
:1001A00006480047FEE7FEE7FEE7FEE7FEE7FEE75C
:1001B000FEE7FEE7FEE7FEE70D16000889010008EE
:1001C0002DE9F05F0546002092469B46884606468C
:1001D000814640241BE0284641464746224600F01F
:1001E00041F853465A46C01A914110D31146184659
:1001F000224600F028F82D1A67EB01084F462246E8
:100200000120002100F01FF817EB00094E41201ECD
:10021000A4F10104DFDC484631462A464346BDE8E6
:10022000F09FD2B201E000F8012B491EFBD27047CB
:100230000022F6E710B513460A4604461946FFF7B2
:10024000F0FF204610BD202A04DB203A00FA02F11C
:10025000002070479140C2F1200320FA03F31943B4
:1002600090407047202A04DB203A21FA02F0002156
:10027000704721FA02F3D040C2F1200291400843B6
:1002800019467047064C074D06E0E06840F0010350
:1002900094E8070098471034AC42F6D3FFF778FF94
:1002A0001C1C00083C1C0008FEE7000080B540F262
:1002B0001010C2F2000000F0C1F880BD80B540F21D
:1002C0007010C2F2000000F0B9F880BDD0F800C094
:1002D0006FF00F024AF6AB2352FA8CF2CAF6AA2349
:1002E0000146A2FB0330000905A31B5C40F2FF306E
:1002F0002CEA00005F2A88BF0430C1E9160370476A
:1003000000061016000610168269816AB2F5005FB9
:1003100006D06AB9022912D0012914D0D1B90EE051
:10032000032917D8DFE801F0020B020F0120704704
:1003300003293CBF012070471CBF00207047C06AE2
:10034000C0F300607047C06AA0F1C070B0FA80F0DE
:10035000400970470020704780B5D0F800C0D0F841
:1003600008E0DCF80000BEF1400F20F48020CCF85B
:1003700000000846CCF8043004BF10460A46CCF80A
:100380000800CCF80C2080BD70470000EFF310800F
:1003900072B600BFFEE7000070B5866D044600F03F
:1003A0008FFA94F83510022925D105462068216C72
:1003B000026822F016020260426922F08002426165
:1003C00009B9A16C19B1016821F008010160016847
:1003D00021F00101016000BF20680068C0070ED055
:1003E00000F06EFA401B0628F6D32020606503203B
:1003F00084F835000CE080206065012008E0E06DA5
:100400003F2101FA00F0B060012084F8350000209F
:10041000002184F8341070BD90F83510022909D1FC
:10042000052180F835100068016821F001010160A4
:10043000002070478021416501207047F0B581B0F0
:1004400004460020009040F20000C2F20000026862
:10045000D4E9166048F2B51337680821C1F64E3367
:1004600081403942A2FB03250CD0226813685B0748
:1004700008D5136823F004031360B160616D41F087
:100480000101616501218140394208D02268526929
:10049000120604D5B160616D41F00201616504216D
:1004A0008140394208D022681268920704D5B160B1
:1004B000616D41F00401616510218140394215D020
:1004C00020680268120711D5B16002680168520302
:1004D00006D4C90506D4016821F00801016001E0D5
:1004E000080342D4216C09B120468847E16D2020E1
:1004F00000FA01F23A4244D020680368DB0640D596
:10050000B26094F835300268052B1ED122F0160235
:100510000260426922F080024261226C0AB9A26C38
:100520001AB1026822F0080202603F208840B060E1
:10053000012084F83500216D0020002984F8340062
:1005400040D02046884701B0F0BD0168520310D466
:10055000C90512D4016821F010010160012084F85E
:100560003500002084F8340007E0A16C0029BBD1DD
:10057000BCE7080301D4616C00E0E16B09B12046DF
:100580008847606DF0B1606DC00717D0052084F812
:1005900035002068A90A026822F00102026000BF4B
:1005A000009A01328A42009202D80268D207F7D13B
:1005B000012084F83500002084F83400E16C09B192
:1005C0002046884701B0F0BD2DE9F041044600F017
:1005D00077F9C4B10546022084F83500002021686F
:1005E00084F83400086820F001000860266830684C
:1005F000C0070BD000F064F9401B0528F6D9032191
:100600002022032042E00120BDE8F081306848F25A
:100610003F01CFF21001251D00EA010C2ECDD4E9D7
:10062000050E41EA0C01114319432943D4E9077827
:10063000084340EA0E01606A3943042841EA080190
:1006400003D1D4E90B2311431943316071690428A4
:1006500021F0070141EA00050CD1D4E90A1045EA6E
:10066000010538B12046FFF74FFE18B101214022A5
:1006700001200BE020467561FFF728FEE16D3F2267
:1006800002FA01F18160002201210020626584F8F4
:100690003510BDE8F0810000B0B5044690F8340094
:1006A000012828D0012084F83400A56D94F8350085
:1006B00001281DD1022084F8350000206065204605
:1006C000FFF74AFEE26D3F23206803FA02F2216C35
:1006D000AA60026842F01602026019B1016841F096
:1006E00008010160016841F0010101600020B0BD16
:1006F000002084F834000220B0BD0000B0B50446EC
:1007000000F0DEF8054640F20410C2F20000007866
:10071000611C18BF044400BF00F0D2F8401BA04287
:10072000FAD3B0BD2DE9F04F83B000F13E4202F1A3
:10073000FF724FEAB22241F600470192C4F202076B
:1007400008224FF0010E00254FF0000A4FF000087C
:10075000B84208BF072200920AE000BF08F1010872
:100760000AF1040AB8F1100F05F1020500F0A480A7
:100770000C680EFA08FB14EA0B09EFD04C6804F081
:10078000030CACF1010EBEF1010F11D803228768F2
:1007900002FA05F6CA68B743AA403A438260426843
:1007A000C4F3001722EA0B0207FA08F73A43426043
:1007B000BCF1030F1CD0C26803238E6803FA05F74F
:1007C000BA4306FA05F73A43BCF1020FC2600FD1F3
:1007D0006FF0030202EA580202440AF01C060F23DB
:1007E000176A03FA06F40B69A743B3403B4313624D
:1007F000026803234F68AB409A4307F00303AB4002
:100800001A4317F4403F4FF0010E0260A6D00022B9
:1008100043F644030292C4F202031A6843F600440A
:1008200042F480421A601A68C4F2010402F4804261
:100830000292029A28F003024FF6084B2244CFF6A8
:10084000FF7B52F80B300AF00C070F26BE4023EA5C
:10085000060C019B009E072B38BF1E4606FA07F7C1
:1008600047EA0C0342F80B30A2684B6842EA0907DA
:1008700043F60C4CDE0258BF22EA0907A760C4F217
:10088000010CDCF800209E0242EA090758BF22EA68
:100890000907CCF8007062689E0342EA090758BF56
:1008A00022EA090767602268DB0342EA090358BFAE
:1008B00022EA0903236051E703B0BDE8F08F00008E
:1008C00040F21420C2F200000068704740F20410A9
:1008D00040F21421C2F20000C2F2000100780A685E
:1008E000104408607047000080B543F60040C4F231
:1008F0000200016841F400710160016841F4806107
:100900000160016841F480710160032000F060F82B
:100910000F2000F005F800F02BF8002080BD00004B
:10092000B0B540F20412C2F2000240F200011278A7
:10093000C2F200014FF47A730968B3FBF2F2044685
:10094000B1FBF2F1084600F0F9FA0F2C4FF0010567
:100950000CD858B94FF0FF3021460022002500F096
:1009600027F840F20810C2F2000004602846B0BD2B
:1009700082B0002043F640010190C4F202014A68AF
:1009800042F480424A604A6802F480420192019A2D
:100990000090086840F080500860086800F08050BF
:1009A0000090009802B0704780B501F0B5F880BDA6
:1009B00070B514460D46064601F0BEF8294622469B
:1009C00000F09EFD0146304601F0BEF870BD00000B
:1009D00080B501F0CBF880BD2DE9F041002800F092
:1009E0008B8043F60808C4F202080446D8F8F803DE
:1009F0000D4600F00700884207D288F8F853D8F86F
:100A0000F80300F00700A84276D12068810717D5C7
:100A1000410705D5D8F8001041F4E051C8F800109E
:100A2000010705D5D8F8001041F46041C8F800105E
:100A3000D8F80010A26821F0F0011143C8F80010A6
:100A4000C0073FD1D8F8F80300F00700A84207D943
:100A500088F8F853D8F8F80300F00700A8424BD103
:100A60002068410707D5D8F80010E26821F4E0516A
:100A70001143C8F80010000708D5D8F80000216914
:100A800020F4604040EAC100C8F8000000F07EF8A1
:100A9000D8F8001041F60242C1F30311C0F600027B
:100AA000515C40F2000220FA01F140F20810C2F25B
:100AB00000000068C2F200021160FFF731FF002061
:100AC000BDE8F0816068811E022907D258F8081C31
:100AD00089015CBF0120BDE8F08110E0012807D149
:100AE00058F8081C89035CBF0120BDE8F08106E0CE
:100AF00058F8081C890702D40120BDE8F081D8F815
:100B0000001021F003010843C8F80000FFF7D8FEE9
:100B1000064641F2883700BFD8F80000616800F04F
:100B20000C00B0EB810F8DD0FFF7CAFE801BB842DE
:100B3000F2D90320BDE8F08140F20000C2F20000CB
:100B40000068704780B5FFF7F7FF43F60801C4F26D
:100B50000201096841F61242C1F38221C0F6000287
:100B6000515CC84080BD000080B5FFF7E5FF43F64B
:100B70000801C4F20201096841F61242C1F3423190
:100B8000C0F60002515CC84080BD000010B543F6BD
:100B90000404C4F20204606800F00C0008280AD0C3
:100BA000042819BF42F20040C0F2F40047F64000AA
:100BB000C0F27D1010BD206821682368490247F605
:100BC0004001C0F27D1100F03F02C3F388105CBF0A
:100BD00042F20041C0F2F401A1FB00010023FFF743
:100BE000EFFA21680222C1F3014102EB4101B0FB9F
:100BF000F1F010BD2DE9F04182B0002800F0A28094
:100C00000446007843F60006C007C4F2020643D04B
:100C1000B06800F00C00042805D1306880033BD593
:100C20006068C8BB8EE0B06800F00C00082802D1F4
:100C300070684002F1D46568B5F5A02F0AD0B5F50B
:100C4000803F0BD0306820F480303060306820F472
:100C5000802006E0306840F480203060306840F446
:100C600080303060FFF72CFE002D054611D000BF0C
:100C70003068800310D4FFF723FE401B6428F7D9A7
:100C800022E100BFFFF71CFE401B64284FF0030069
:100C900055D830688003F5D4207880071AD5B0681D
:100CA00010F00C0F09D0B06800F00C00082840F0DC
:100CB0008A807068400200F186803068800702D523
:100CC000E06801283ED13068216920F0F80040EA50
:100CD000C10030602078000738D4207840074CD419
:100CE000A5695DB3B06800F00C00082840F09E8054
:100CF000012D27D07068E16900F480028A4221D179
:100D0000216A00F03F028A421CD147F6C071626A34
:100D10000140B1EB821F15D1A26A0023CFF6FF7309
:100D200003EBC23200F440316FF30F02914209D15C
:100D3000E16A00F07060B0EB016F03D1002002B0F7
:100D4000BDE8F081012002B0BDE8F08160690028B3
:100D500040F20000C4F2472057D00121C0F8801EA5
:100D6000FFF7AEFD054600BF706F8007B5D4FFF7F3
:100D7000A7FD401B0228F7D9A6E0306C10F0805880
:100D80000AD100200190306C40F080503064306C0B
:100D900000F080500190019847F20007C4F200076C
:100DA0003868C00524D4386840F480703860FFF794
:100DB00087FD05463868C0051AD4FFF781FD401B42
:100DC0000228F7D980E0E068002851D00020C4F262
:100DD000472001210160FFF773FD05463068800759
:100DE0003FF571AFFFF76CFD401B0228F6D96BE0B1
:100DF000A568052D50D0012D52D0306F20F0010094
:100E00003067306F20F004004DE00021C0F8801EF4
:100E1000FFF756FD054600BF706F80077FF55DAF99
:100E2000FFF74EFD401B0228F6D94DE00027C4F223
:100E3000472700203866FFF743FD022D05460BD1FA
:100E40003068800158D5FFF73BFD401B02284FF06A
:100E50000300F5D973E700BF306880017FF56EAFFE
:100E6000FFF72EFD401B02284FF00300F4D966E780
:100E70000020C4F2472000210160FFF721FD054654
:100E8000306880077FF526AFFFF71AFD401B022868
:100E90004FF00300F4D952E7306F40F004003067A0
:100EA000306F40F001003067FFF70AFD002D054666
:100EB00041F2883714D000BF306F800713D4FFF79A
:100EC000FFFC401BB842F7D9032002B0BDE8F08117
:100ED000FFF7F6FC401BB8424FF003003FF62FAF80
:100EE000306F8007F4D4B8F1000F7FF4F9AE306CA6
:100EF00020F080503064F3E604F11C052FCD084348
:100F00000021CFF6FF7140EA821001EBC3316FF38D
:100F10000F0140EA05600843706001203866FFF762
:100F2000CFFC0446306880013FF508AFFFF7C8FCEE
:100F3000001B02284FF00300F4D900E780B500F051
:100F4000F9FA80BD7047000010B50446006840699A
:100F500094F83D10212915D110F0800012D000BF67
:100F6000206850E8050F216820F0800041E8050264
:100F7000002AF5D1606B002818BFFFF70DFA204654
:100F800000F024FC2068406994F83E10222915D115
:100F900010F0400012D000BF206850E8050F216813
:100FA00020F0400041E80502002AF5D1A06B00289E
:100FB00018BFFFF7F1F9204600F0D4FB002010BD68
:100FC00070470000B0B582B0036804461868D9685D
:100FD0005A6900F02F05202D01F0200505D125B11B
:100FE000204600F043FC02B0B0BD5FEA007C1EBFAB
:100FF00002F0010E01F4907212EB0E0248D1226B46
:101000000840C1063BD5012A39D10020019018685B
:1010100001905868019001985869400640D4A08D0D
:10102000E18DE28D002A1CBF401A5FEA004101D128
:1010300002B0B0BD216851E8031F226821F490710D
:1010400042E80313002BF5D1216851E8051F2268FF
:1010500021F0010142E80513002BF5D1202184F88D
:101060003E100021216300BF216851E8031F226860
:1010700021F0100142E80313002BF5D152E00106E4
:1010800056D44006D4D5204600F094FB02B0B0BD43
:10109000C20718BF11F480724FD1420753D459E0F0
:1010A000A06B016849688AB2002AC1D0A38D9A4218
:1010B000BED2E185C069B0F5807F30D0206850E8AD
:1010C000030F216820F4807041E80302002AF5D163
:1010D000206850E8050F216820F0010041E8050272
:1010E000002AF5D1206850E8050F216820F0400063
:1010F00041E80502002AF5D1202084F83E000020B6
:10110000206300BF206850E8030F216820F0100022
:1011100041E80302002AF5D1A06BFFF73DF9A08D4D
:10112000E18D401A81B22046FFF70CFF02B0B0BD3E
:10113000204600F0B9FC02B0B0BD226C42F00102C2
:101140002264420706D5BEF1000F03D0226C42F0A4
:1011500002022264820706D5BEF1000F03D0226C82
:1011600042F004022264BCF1000F06D55EEA0502DB
:1011700003D0226C42F008022264226C002A3FF461
:1011800057AF0840800602D5204600F06FFB20686C
:101190004069216C00F0400001F00801401827D0A0
:1011A000204600F0DFFA2068406940061BD500BFEA
:1011B000206850E8050F216820F0400041E8050252
:1011C000002AF5D1A06B70B141F22161C0F6000197
:1011D0000165FFF721F900283FF42AAFA06B016DEC
:1011E000884702B0B0BD2046FFF7EAFE02B0B0BDAE
:1011F0002046FFF7E5FE0020206402B0B0BD0000ED
:10120000002804BF0120704710B5044690F83D0047
:1012100028B9002084F83C00204600F021F8242062
:1012200084F83D002068C16821F40051C160204667
:1012300000F07EFB2068016921F490410161416961
:1012400021F02A014161C16841F40051C1600020D0
:101250002021206484F83D1084F83E1010BD000069
:101260002DE9F04387B0044641F200002168C4F242
:101270000100002681420696CDE904660396029697
:1012800002D007B0BDE8F08343F630010196C4F206
:1012900002014A6946F2884842F010024A614A69EE
:1012A00000F5704002F010020192019A01960A685E
:1012B000C4F2020842F001020A60096801F001016B
:1012C000019101994FF4C06102910221CDE9031609
:1012D000032105910721069102A9FFF723FA40F2A5
:1012E0001015C2F200054FF480704FF000674FF404
:1012F0008069C5E906602846C5E90087C5E9026638
:10130000C5E90496C5E90866FFF75EF9002818BF2D
:10131000FFF73CF8A563AC6340F2701508F13000AC
:10132000C2F200054021C5E9000705F108000022CE
:1013300080E806022846C5E90522C5E907226A6257
:10134000FFF742F9002818BFFFF720F825200021F9
:1013500000226563AC63FFF72BFB2520FFF724FB1E
:1013600007B0BDE8F083000010B590F83E30202BA8
:101370000BD100294FF0010418BF002A01D12046EB
:1013800010BD90F83C30012B01D1022010BD01238B
:10139000002480F83C30046300F038FB204610BD88
:1013A000704700007047000070B5044690F83D009B
:1013B00020280AD14FF00100D9B3002A134608BFF4
:1013C00070BD94F83C00012801D1022070BD0120BD
:1013D00084F83C00002621202162A384E384266453
:1013E00084F83D002268606B41F2197C41F2597E1D
:1013F00041F23165C0F6000CC0F6000EC0F60005E3
:101400000432C0E90FCEC0E91356FFF745F9206852
:101410006FF04001016084F83C6000BF206850E834
:10142000050F216840F0800041E80502002AF5D14F
:10143000002070BD7047000070470000FEE700000C
:1014400080B582B00020019043F63000C4F2020063
:101450000168002241F4800101600068002100F46D
:101460008000019001984420FFF7A2FA4420FFF782
:101470009BFA462000210022FFF79AFA4620FFF748
:1014800093FA02B080BD000082B0002043F6300124
:101490000190C4F202010A6842F080020A600A6800
:1014A00002F080020192019A0090086840F0010069
:1014B0000860086800F001000090009802B07047D2
:1014C00080B540F2D01041F20001C2F20000C4F237
:1014D000010100234FF00C0C4FF4E13280E80E00C4
:1014E000C0E90333C0E905C3C361FFF789FE0028E3
:1014F00008BF80BDFEF74AFFFEE70000FEE70000E0
:1015000000F0070080F00703042B28BF04234FF0EE
:10151000FF3C03380CFA03F338BF002099438140A5
:101520000CFA00F022EA0000084370477047000000
:1015300070470000B0B501380024B4EB106F1CBF39
:101540000120B0BD4EF21005CEF2000568604FF0EC
:10155000FF300F2100F0F8FA0720AC602860204629
:10156000B0BD000080B5FFF7B1F980BD70B592B095
:1015700006AC20463021FEF75BFE002543F6400016
:101580000595CDE90355CDE901550095C4F202005A
:101590000168022641F080510160006800F080502F
:1015A0000090009847F200000095C4F20000016826
:1015B00041F480410160006800F480400090009890
:1015C0000120099010200A9008200E90A820CDE953
:1015D0000F060420119020460696CDE90C65FFF712
:1015E00009FB88B90F20CDE901064FF4A050049003
:1015F0004FF48050059001A805210395FFF7ECF901
:10160000002804BF12B070BDFEF7C0FE4EF6885031
:10161000CEF20000016841F47001016070470000E3
:1016200080B5806B0021C185C184FFF7C9FC80BDF6
:1016300010B5846B2068406994F83D10212907D1CA
:1016400010F0800004D00020E084204600F0BEF8B6
:101650002068406994F83E10222907D110F040001C
:1016600004D00020E085204600F07CF8206C40F09B
:10167000100020642046FFF7A3FC10BD80B5016870
:10168000806B0968C9052FD40021C185016851E824
:10169000031F026821F4807142E80313002BF5D187
:1016A000016851E8051F026821F0010142E80513B5
:1016B000002BF5D1016851E8051F026821F04001B7
:1016C00042E80513002BF5D1202180F83E10016B74
:1016D000012909D1016851E8031F026821F01001B6
:1016E00042E80313002BF5D1016B012903D1818D51
:1016F000FFF728FC80BDFFF753FE80BD80B5806BEF
:10170000016B012904D1818D4908FFF71BFC80BDC5
:10171000FFF748FE80BD000080B50168806B096856
:10172000C90516D40021C184016851E8051F02686B
:1017300021F0800142E80513002BF5D1016851E842
:10174000031F026841F0400142E80313002BF5D16A
:1017500080BDFFF76FFE80BD80B5806BFFF76CFE2C
:1017600080BD0000016851E8031F026821F49071F8
:1017700042E80313002BF5D1016851E8051F026808
:1017800021F0010142E80513002BF5D1016B01297D
:101790000AD100BF016851E8031F026821F010015F
:1017A00042E80313002BF5D1202180F83E100021E0
:1017B0000163704780B50168CA6822F04002CA60C0
:1017C000202180F83D10FFF735FE80BD016851E80B
:1017D000031F026821F0C00142E80313002BF5D17A
:1017E000202180F83D10704710B582B040F2D01033
:1017F000C2F20000006841F20001C4F20101884217
:1018000001D002B010BD0968C906FAD500210191C6
:101810000168019140680190019840F21010C2F2F5
:1018200000000068446840F2D010C2F20000FFF7E8
:101830008BFB20060BD06042C2B240F2D01040F2C7
:101840000401C2F20000C2F20001FFF7ADFD40F258
:10185000D01040F20401C2F20000C2F200014FF4C5
:101860008072FFF781FD02B010BD000080B582B02C
:1018700090F83E1022291ED18268B2F5805F02D115
:101880000169002948D0816AB2F5805F07D00AB9A2
:10189000026922B10268526802F07F0201E0026828
:1018A00052680A700121826A11448162C18D013936
:1018B0000A04C18501D002B080BD0168CA6822F067
:1018C0002002CA60CA6822F48072CA604A6922F0A3
:1018D00001024A61202180F83E10016B012923D1C9
:1018E00000210163016851E8031F026821F0100123
:1018F00042E80313002BF5D101680A68D20606D529
:10190000002201920A680192496801910199818D32
:10191000FFF718FB02B080BD0168826A49686FF367
:101920005F2111800221BEE7FFF73AFD02B080BDC2
:1019300010B504460068D4E902C22369016921F4A4
:10194000405111430161626943EA0C01E3691143AB
:10195000C268194349F20C639A431143C16041695B
:10196000A26921F4407141F20043114340F48062C6
:10197000C4F201039A42416102D1FFF7F5F801E098
:10198000FFF7E0F8E16963681922B1F5004FA0FBA9
:1019900002011CD15A00DB0FFEF712FC48F21F5166
:1019A000C5F2EB11A0FB01235A096FF0630302FBA0
:1019B0000300322303EBC000A0FB01014FF4F870D9
:1019C00000EA111000EB0210C1F342111AE09A0074
:1019D0009B0FFEF7F5FB48F21F51C5F2EB11A0FB80
:1019E00001235A096FF0630302FB0300322303EB68
:1019F0000010A0FB0101F02000EA511000EB0210E2
:101A0000C1F3431122680843906010BD70B582B0E5
:101A1000134600260446816283850664222084F8EA
:101A20003E000A462168A06B41F27D6C41F2FD6EDA
:101A300041F23165C0F6000CC0F6000EC0F600059C
:101A40000431C0E90FCEC0E91356FEF725FE01961A
:101A5000206801680191406801900198206984F82C
:101A60003C6048B1206850E8030F216840F4807062
:101A700041E80302002AF5D1206850E8050F2168EB
:101A800040F0010041E80502002AF5D1206850E845
:101A9000050F216840F0400041E80502002AF5D119
:101AA000002002B070BD000090F83D10212923D124
:101AB0008168B1F5805F01D1016931B1016A0268C5
:101AC0004B1C03620978516007E0016A036831F832
:101AD000022B6FF35F225A600162C18C01390A0444
:101AE000C18418BF70470068C16821F08001C160DF
:101AF000C16841F04001C1607047000010B540F27C
:101B0000D014C2F200042046FFF75CFA2046FFF72B
:101B10006BFE10BDFEE70000002848BF704700F0D4
:101B20001F01012202FA01F14EF200124009CEF229
:101B3000000242F8201070474EF60C50CEF2000022
:101B40000068C0F3022070474EF6145300F00F02F5
:101B5000CEF2000309011A4400F16043B0F1FF3FE7
:101B6000C8BF03F564421170704700004EF60C5177
:101B7000CEF200010A684FF6FF031A4060F30A2212
:101B800042F0806040F0FD7008607047FEF7ACFEE8
:101B9000FFF7ECFCFFF778FCFFF752FCFFF790FC37
:101BA00040F2D014C2F2000420684FF48072C16881
:101BB00041F01001C16040F20401C2F20001204670
:101BC000FFF7D2FB05A500BF204629460722FFF7F5
:101BD000EBFB6420FEF792FDF6E700BF68656C6CD6
:101BE0006F0D0A0002E008C8121F08C1002AFAD1CE
:101BF00070477047002001E001C1121F002AFBD18D
:101C00007047000000000000000001020304060706
:101C1000080900000000010203040000401C000845
:101C20000000002010010000E41B0008501D000807
:101C30001001002008050000F41B0008000000004F
:101C40000024F400313233000000000000000000E6
:101C50000000000000000000000000000000000084
:101C60000000000000000000000000000000000074
:101C70000000000000000000000000000000000064
:101C80000000000000000000000000000000000054
:101C90000000000000000000000000000000000044
:101CA0000000000000000000000000000000000034
:101CB0000000000000000000000000000000000024
:101CC0000000000000000000000000000000000014
:101CD0000000000000000000000000000000000004
:101CE00000000000000000000000000000000000F4
:101CF00000000000000000000000000000000000E4
:101D000000000000000000000000000000000000D3
:101D100000000000000000000000000000000000C3
:101D200000000000000000000000000000000000B3
:101D300000000000000000000000000000000000A3
:101D40000000000001000000100000000000000082
:040000050800018965
:00000001FF
