:020000040800F2
:1000000030290020A1010008E5540008D35200085F
:10001000E15400086F030008776A00080000000040
:10002000000000000000000000000000FB65000868
:10003000CD36000800000000F9650008FD650008E5
:10004000BB010008BB010008BB010008BB010008A0
:10005000BB010008BB010008BB010008BB01000890
:10006000BB010008BB010008BB010008BB01000880
:10007000BB010008BB010008BB010008BB01000870
:10008000BB010008BB010008BB010008A503000874
:10009000750300088503000895030008BB010008EC
:1000A000BB010008BB010008BB010008BB01000840
:1000B000BB010008BB010008BB010008BB01000830
:1000C000BB010008BB010008BB010008BB01000820
:1000D000BB010008BB010008BB010008BB01000810
:1000E000BB010008BB010008BB010008BB01000800
:1000F000BB010008BB010008BB010008BB010008F0
:10010000BB010008BB010008BB010008BB010008DF
:10011000BB010008BB010008D1660008BB01000854
:10012000BB010008BB010008BB010008BB010008BF
:10013000BB010008BB010008BB010008E503000883
:10014000B5030008C5030008D5030008BB0100087B
:10015000BB010008BB010008BB010008BB0100088F
:10016000BB010008BB010008BB010008BB0100087F
:10017000BB010008BB010008BB0100080000000033
:10018000BB010008BB010008DFF810D000F0B2F896
:100190000048004799740008AFF300803029002020
:1001A0000648804706480047FEE7FEE7FEE7FEE711
:1001B000FEE7FEE7FEE7FEE7FEE7FEE7BD660008B6
:1001C000890100082DE9F05F0546002092469B4614
:1001D00088460646814640241BE02846414647465D
:1001E000224600F076F853465A46C01A914110D381
:1001F00011461846224600F05DF82D1A67EB0108FB
:100200004F4622460120002100F054F817EB000968
:100210004E41201EA4F10104DFDC484631462A4647
:100220004346BDE8F09F10B5431A934209D28318A4
:10023000881803E010F8011D03F8011D521EF9D2C1
:1002400010BD40EA01039B0703D009E008C9121F53
:1002500008C0042AFAD203E011F8013B00F8013B80
:10026000521EF9D210BDD2B201E000F8012B491E96
:10027000FBD270470022F6E710B513460A46044643
:100280001946FFF7F0FF204610BD421C10F8011B75
:100290000029FBD1801A704710B54843044607F087
:1002A0006DF9002805D00021002C02D0641E0155F4
:1002B000FAE710BD202A04DB203A00FA02F1002000
:1002C00070479140C2F1200320FA03F31943904094
:1002D0007047202A04DB203A21FA02F000217047FF
:1002E00021FA02F3D040C2F120029140084319469E
:1002F00070470000064C074D06E0E06840F001033F
:1003000094E8070098471034AC42F6D3FFF740FF5B
:1003100080810008A081000870B58C1810F8015B7E
:1003200015F0070301D110F8013B2A1106D110F88E
:10033000012B03E010F8016B01F8016B5B1EF9D192
:100340002B0705D40023521E0DD401F8013BFAE718
:1003500010F8013BCB1A921C03E013F8015B01F883
:10036000015B521EF9D5A142D8D3002070BD00BF59
:10037000FEE7000010B5024803F0D7FB10BD0000F7
:100380002004002010B5024803F0CFFB10BD000090
:100390002004002010B5024803F0C7FB10BD000088
:1003A0002004002010B5024803F0BFFB10BD000080
:1003B0002004002010B5024803F0B7FB10BD000078
:1003C0004804002010B5024803F0AFFB10BD000048
:1003D0004804002010B5024803F0A7FB10BD000040
:1003E0004804002010B5024803F09FFB10BD000038
:1003F0004804002030B5002200BF00BFEFF3108199
:10040000C16272B600BFC16911B10021C161012290
:10041000818C00291EDD018A1AE001EB4104C368CA
:1004200003EBC4031B698BB101EB4104C36803EB0D
:10043000C4035B6953B1002301EB4105C46804EBBD
:10044000C5042361838C5B1E838402224B1E99B2F8
:100450000029E2D1C16A81F3108800BF1AB1418A34
:1004600041F08001418230BDFEB504460D4616467E
:1004700014B94FF0FF30FEBD002061684861284686
:1004800000F0CAFA0921E0688DE8430011232946EB
:10049000D4E9010200F03EF807463846EBE72DE9C3
:1004A000F04104460F4600202062E061A08C20B39A
:1004B000E56800BF00BFEFF31080E06272B600BFD6
:1004C000268A10E0286958B12946204607F014F919
:1004D00030B100202861A08C401EA0846869E061D2
:1004E000701E86B21835002EECD10EB90020A08403
:1004F000E06A80F3108800BF00BFBDE8F08110B54E
:1005000004462CB1206818B12168886803F010FEF9
:1005100010BD00002DE9F0478AB004460E4615468E
:100520001F46DDE9139ADDF848801CB115B1B8F11A
:10053000000F04D14FF0FF300AB0BDE8F08726600D
:100540003348046065602781C4F80C80A4F81090DB
:10055000002060826061A061E061012020620020D3
:10056000A084A06200BF18E0002100EB400225F843
:1005700022104FF6FF7100EB400205EB8202518022
:10058000002100EB400205EB8202516000EB4002CB
:1005900005EB82029160411C88B2B842E4DB002086
:1005A00007E0002100EB400208EBC2021161411C90
:1005B00088B24845F5DBF0688047206880680068AD
:1005C0001449884202D10020059001E00E200590D8
:1005D00000200690012007900020009001900290DA
:1005E00003900490012008900E2009906946B0689D
:1005F00003F030F910B14FF0FF309DE71321B068E0
:1006000003F068F810B14FF0FF3095E7002093E752
:100610002C000020006400400021026892681268EB
:10062000926902F00701826A8A4218D0428A816286
:1006300001F0040313B142F004020EE04FF6F84358
:100640001A4001F0010313B140F201131A4301F003
:10065000020313B140F202231A43428200BF7047E3
:100660002DE9F04F89B0044691469A46DDE91867B6
:100670000CB100BF04E04FF0FF3009B0BDE8F08FCF
:10068000B9F1000F01D1D4F81C9000202060FF2E9A
:1006900002D10120206006E0012E01DB7F2E02DD69
:1006A0004FF0FF30E9E7A06B00F0F4FC05460DB118
:1006B0002846E2E7206810B16FF01200DDE75B48E2
:1006C000006840681830012103AAC1C2029157484E
:1006D000006840686C301121CDE90010DFF84CC192
:1006E000236ADCF800C0DCF804C00CF10C0261687D
:1006F000E06900F0C3F905460DB12846BDE706F5EF
:10070000E06007226168CDE90707CDE90512002204
:1007100060681499CDE90202049201911398434A4A
:1007200000901268526802F1900133464A462069EF
:1007300001F048F805460DB128469EE708223B49DE
:10074000606809684968843101AB85C3009108235A
:100750004946D4E9050200F01BFB05460DB12846C9
:100760008BE732480068406800F1B40B4FF0000896
:1007700024E008F1060080B208F1070292B2616835
:10078000CDE90407CDE90221606815995A460BF1BD
:100790000C0BCDE90010C8EBC80303EB4303616AFF
:1007A00001EBC3003346514601F08AFB05460DB10B
:1007B000284662E708F101000FFA80F8B8F1010F4E
:1007C000D7DB0097194B62681B685B6803F1600117
:1007D0000223A06A02F058F905460DB128464CE7FD
:1007E00000210122606804AB83C303920F49606853
:1007F00009684968A8310D4A126852683C32CDE94F
:100800000021029009490968496801F1300307494C
:100810000968496801F124024946E06A01F08EFF47
:1008200005460DB1284628E7002026E710040020E1
:100830002DE9F04F89B00446884691461E46DDF802
:1008400048A024B94FF0FF3009B0BDE8F08F012E69
:1008500003DB7F2E01DC206838B1206810B16FF017
:100860001200F1E74FF0FF30EEE73C4800684068C7
:1008700000F1CC0B394800684068FC300890002536
:100880002DE000200790042D06DA4FF4007000EBF5
:100890000520304480B20790E81C81B26268089855
:1008A00000F10C03CDE9041A0893CDE90202584681
:1008B0000BF10C0B0799CDE90010C5EB451202EBCB
:1008C0004202216B01EB820042464946E36A01F095
:1008D00003F907460FB13846B6E7681C05B2042D88
:1008E000CFDB1E480068406800F5967B1B48006817
:1008F000406800F5AE70089000252BE000200790BE
:10090000042D06DA4FF4C07000EB0520304480B2AD
:100910000790A81C81B26268089800F10C03CDE929
:10092000041A0893CDE9020258460BF10C0B079903
:10093000CDE900105B216943626B02EB8100424606
:100940004946E36A02F066F907460FB138467BE78D
:10095000681C05B2042DD1DB002075E710040020CF
:100960002DE9F0430446DDE90775099E4FF0000CC0
:100970002CB325B31EB32089884220DD01EB410949
:10098000D4F8048008EB890045608660C2F30A0849
:1009900017B14FF4004901E04FF0000948EA090897
:1009A000A0F80080C3F30A0848F40048A0F80280C9
:1009B000D4F81880B8F1000F00D000BF01E04FF06C
:1009C000FF3C6046BDE8F08370B504460D46002646
:1009D000286938B1206A18B9608A40F0080060823E
:1009E0006FF0080600BF00BFEFF31080E06272B640
:1009F00000BF2946204606F07FFE10B16869E0611D
:100A000004E001202861A08C401CA084E06A80F3EF
:100A1000108800BF304670BD10B5044614B1A06800
:100A200003F086FB10BD10B50446206830B1216884
:100A3000886803F04EFB08B90120606110BDF0B575
:100A40000446DDE905560020B4B1278A8F4213DD44
:100A500001EB410CE76807EBCC00C2F30A0713B1C6
:100A60004FF4004C01E04FF0000C47EA0C07076020
:100A70000571002707614661F0BD00002DE9F04FC8
:100A800087B004460F4692469B46DDE91495DDF893
:100A9000448000200690A4B1BAF1000F11D0BBF140
:100AA000000F02D1109802280BDAB8F1000F08D01D
:100AB0003FB1B9F1010F04DBB9F17F0F01DC1398ED
:100AC00020B94FF0FF3007B0BDE8F08F502120462D
:100AD000FFF7D0FB6761002301221946504604F05E
:100AE0006BFDE060E06838B91DB1504604F046FD8A
:100AF00028606FF00B00E6E70020E1680870C4F89A
:100B000018B0109820770020019005A802900120CD
:100B100003900398042300904046DDE9011204F09D
:100B200043FE064600BF1EB923490598084040B160
:100B30001DB1404604F022FD286016B16FF00B0095
:100B4000C1E709F1800004900121059801EBE070F4
:100B500060622463194961631949A16304F130019A
:100B6000404604F0C1FC06463EB11DB1404604F0CB
:100B700005FD28606FF00B00A5E784F828900020A1
:100B800008210346CDE900103846049A1299FFF770
:100B900056FFE062E06A10B94FF0FF3093E724643B
:100BA000084961640849A16404F14001139804F004
:100BB0009BFC069887E7000000F8FF7F09590008B2
:100BC000655A000871580008DD5A00082DE9F84FF1
:100BD0000446884691469A466069458A208AA8421A
:100BE00064D0208A80EA0506258240F20110304058
:100BF00070B10020009040F20110284008B101209F
:100C000000E00020014600230122204602F074FA91
:100C100006F0020048B1002048F220130722C5F375
:100C200040010090204602F067FA06F0040048B147
:100C3000002048F240131222C5F3800100902046A4
:100C400002F05AFA06F0080048B1002048F21013EA
:100C50001422C5F3C0010090204602F04DFA06F0C0
:100C6000800048B100204FF401431522C5F3C011A4
:100C70000090204602F040FA06F4007048B10020CF
:100C800048F220130622C5F340210090204602F0CE
:100C900033FA06F4006040B1002013231A46C5F36E
:100CA000C0210090204602F027FA00BF002760799B
:100CB00008B147F00107A07808B9E07808B147F01B
:100CC0001007207A08B9607A08B147F08007E06819
:100CD0000770B8F1000F01D1BDE8F88F207F02281E
:100CE00045DBA67F607FB04240D0E06A006960BB10
:100CF000A06950F8360040EA0740A16941F8360083
:100D0000A06900EBC600E16A026841F8052F40685F
:100D10004860E16A6069FFF757FE701CC0B2064682
:100D2000217F884201DA304600E00020A077E07F92
:100D300001280BD10220E07700204FF480532022BD
:100D400001210090204602F0D7F90FE0E07F022851
:100D50000CD1A07F617F884208D10020E077034654
:100D6000202201460090204602F0C6F900BF00BFD5
:100D7000B2E730B502460B794C1D012B06D1257820
:100D80006DB2557000BF0125D56000BF30BD0000B9
:100D90002DE9FF4F87B004468A469346179E149D5F
:100DA00044B1BAF1000F05D0BBF1000F02D00DB174
:100DB000159820B94FF0FF300BB0BDE8F08F30210F
:100DC0002046FFF757FAC4F800A0C4F804B01598FD
:100DD000A0611698A083A878401E0A99884202DA7A
:100DE000A878401E00E00A9820724FF0000839E011
:100DF00008F10100C0B2019006A802900120039002
:100E00000398042300902846DDE9011204F0CCFC8D
:100E1000074600BF3FB11EB1284604F0B5FB306065
:100E20006FF00B00C8E70698C0F3074005900698DE
:100E300080B2049041462046DDE9043200F032F8E9
:100E40008146B9F1000F09D01EB1284604F09CFB81
:100E5000306009F10C0008B14846ADE708F1010027
:100E600000F0FF08207A4045C2DC24620B49616231
:100E70000B49A162284604F1200108B9052201E0CE
:100E80008160002217463FB11EB1284604F07CFB6A
:100E900030606FF00B008FE700208DE701580008ED
:100EA000E15C00082DE9FF4705460E4617469846C7
:100EB0004FF0000A15B1287AB04204DC4FF0FF3041
:100EC00004B0BDE8F087B8F1000F1CD0DFB10020FE
:100ED00016E0696801EB0014D4E901132268E468A4
:100EE000CDE90234CDE90021864207D0029929B12B
:100EF0009DF80010B94201D16FF00B0A411CC8B235
:100F0000297A8142E5DCBAF1000F30D1686800EB44
:100F1000061427704FF47A7008FB00F0A060FF20E1
:100F2000607000BF0020E06000BF207838B1A0688A
:100F300028B1207800F5E0690120A07004E04FF0AE
:100F400000090020A060A0700A49686800EB061044
:100F50000022CDE900200291AA8B324491B240F2E6
:100F6000FF734A46A869FFF7FBFC824600BF504664
:100F7000A6E70000730D00082DE9F84F05460F465F
:100F800090464FF00109CA46002F4DD068690028ED
:100F90004AD0002644E0C346686800EB0614A078F7
:100FA00000B93BE0E068C0B1607868B9A078022879
:100FB00007D1009648F230131C220121286802F064
:100FC0009BF80120A07004E00220A0700020606067
:100FD000834600BF0020E06000BFA078022812D145
:100FE000606858446060D4E9010188420BD30096E0
:100FF00048F230131B220121286802F07DF8FF20FF
:1010000060700320A070A078022801D04FF0000982
:101010006078052801D04FF0000A00BF701CC6B2EE
:10102000287AB042B7DC19E00FB96869B0B1002185
:101030000EE06A6802EB0110FF22427000BF00223E
:10104000C26000BF82780AB101228270481CC1B21E
:10105000287A8842EDDC4FF00009CA46E86890B96A
:10106000B9F1000F0FD00020009000231B22194679
:10107000286802F041F80020009000231C22194645
:10108000286802F039F8C5F80C90C5F810A06F6117
:10109000BDE8F88F0146002209B9501E70470020B4
:1010A0000860486088601046F8E72DE9F04F0D466B
:1010B00014469946DDE90BC8DDE9096700210022E5
:1010C0008B4603682B440360C7E090F809A00AF040
:1010D000010A8AF001034FF0010BD0F800A0AAF535
:1010E000404AAAF5547AC0F800A090F804A00AF18A
:1010F000010A0AF0FF0A80F804A0BAF1030F73DDB9
:101100004FF0000A80F804A05246514690F809A01A
:101110000AF0020ABAF1000F02D141F0020101E027
:1011200042F0020290F805A00AF1010A0AF0FF0A53
:1011300080F805A0BAF1010F06D0BAF1020F06D06F
:10114000BAF1060F0BD105E041F0040108E042F0CE
:10115000040205E04FF0000A80F805A000E000BF9F
:1011600000BF90F806A00AF1010A0AF0FF0A80F811
:1011700006A0BAF1090F13D2DFE80AF0120509063A
:101180000A1212120D0000BF41F0080109E000BF71
:1011900042F0080205E04FF0000A80F806A000E0E7
:1011A00000BF00BF90F807A00AF1010A0AF0FF0A89
:1011B00080F807A0BAF10B0F17D2DFE80AF0160685
:1011C0000B070C080D161616100000BF00BF41F0EB
:1011D00010010BE000BF00BF42F0100206E04FF02C
:1011E000000A80F807A001E028E000BF00BF90F8E7
:1011F00008A00AF1010A0AF0FF0A80F808A0BAF173
:101200000D0F19D2DFE80AF018070D080E090F0AB2
:1012100010181818130000BF00BF00BF41F02001D4
:101220000BE000BF00BF00BF42F0200205E04FF01E
:10123000000A80F808A000E000BF07E090F809A0CD
:101240000AF07E0190F80AA00AF07E0213B141F084
:10125000010101E042F0010200BF4CF2503A036884
:101260005345BFF432AFBBF1000F51D00EB1012393
:1012700024E014B901F0010320E0BCF1000F02D01A
:1012800001F020031AE0B8F1000F02D001F01003C2
:1012900014E0DDF834E0BEF1000F02D001F00803E5
:1012A0000CE017B101F0040308E0DDF838E0BEF10E
:1012B000000F02D001F0020300E00023B9F1000F9B
:1012C00002D002F0010A18E0DDF83CE0BEF1000FA8
:1012D00002D002F0100A10E0042C02D102F0040A3D
:1012E0000BE07F2C02D102F0020A06E0052C02D1AD
:1012F0004FF0010A01E04FF0000A0BB141F080010C
:10130000BAF1000F01D042F080024172827200BF38
:10131000BDE8F08F2DE9F04186B0044688461546B9
:101320001E4604B104E04FF0FF3006B0BDE8F08186
:1013300040F2E47108224B1C6068CDE90230CDE92F
:10134000042110216068CDE900012B463246414658
:10135000E06B00F003F807463846E6E72DE9FF5F4B
:101360000446884616461D46DDE90FABDDF8389089
:10137000119F0020039074B16EB165B1B9F1000FF7
:1013800009D047B12878012802DB28787F2807DDBB
:101390002878FF2804D04FF0FF3004B0BDE8F09F5C
:1013A00074212046FEF766FF98E80F0084E80F00DE
:1013B0000020207484F83400A663E563287884F85C
:1013C000400000BF0020606400BF1048002140F2D0
:1013D000FF735A46CDE90014029051464846FFF784
:1013E000BFFA0390E766002008210346CDE900100C
:1013F0003846DDE91212FFF722FB2067206F10B993
:101400004FF0FF3003900398C7E700001116000863
:101410002DE9FE4F044600200290606C002872D037
:10142000002001900021206F40F8051F416094F8D2
:101430004800512868D00EDC152866D006DC042848
:1014400011D0112818D0132872D12BE0172871D091
:101450004328F9D10AE05A38052869D2DFE800F0BC
:1014600089949FAAB50001200290C0E04420216F1A
:10147000487101200190BAE04A20075D0026012F43
:1014800001DB7F2F01DDFF2F02D1E06B077000E051
:10149000012694F84800216F4871206F8671012061
:1014A0000190A4E0606D00B9A1E094F84AA094F81E
:1014B0004B800026B146BAF1000F17D1B8F1050FE5
:1014C00014D0B8F1090F11DC504830F818B0594663
:1014D000D4E9152090470090009818B1A06BA0F8AF
:1014E00000B002E0FF264FF0010900E0012694F869
:1014F0004800216F4871206F8671206F80F8079037
:101500000120019073E07EE06AE0606D00B96EE05A
:10151000E06D60B14B20005D4FEA002B4A20005D7A
:1015200040EA0B0B5946D4E91720904700BF5EE014
:101530005CE0FFE70026606E08B9012610E0D4F8F1
:1015400038C0BCF80020D4F83CC09CF80010D4E9A6
:10155000193098478346BBF1000F00D1022600BF27
:1015600094F84800216F4871206F86710120019026
:101570003DE094F84800216F48712568206FC0F85D
:1015800006500120019032E094F84800216F487124
:101590006568206FC0F806500120019027E094F89C
:1015A0004800216F4871A568206FC0F806500120DF
:1015B00001901CE094F84800216F4871E568206FA5
:1015C000C0F806500120019011E094F84800216F06
:1015D000487194F84010206F81710120019006E05D
:1015E0004F20216F48710120019000E000BF00BF33
:1015F000019818B1D4E91B01FFF7E6F900BF0020FC
:10160000606400BF00BF0298BDE8FE8FC87A000882
:101610002DE9FC4F84460D466046297901910199D8
:10162000082972D1416C0029FBD100230093691D68
:101630000A78042A20D14B7813B1012B19D115E077
:10164000047C012C0BD190F84040FF2C07D1C46BD7
:101650002478FF2C03D080F8482001240094002433
:10166000047444618461C461046203E0012404746D
:1016700000E000BF00BF94E0037C002B7DD1422A34
:1016800012D004DC402A07D0412A7ED108E0432A48
:101690000ED0512A79D124E0D1F80130436175E0B0
:1016A000D1F80130836171E0D1F80130C3616DE0A0
:1016B000D1F80130036246688469A64210D1866879
:1016C000C469A6420CD1C668046AA64208D146691C
:1016D0000468B44204D10124047480F848200094C2
:1016E00054E0C36B1B78FF2B4ED190F84030FF2B9A
:1016F0004AD14B798C79CE791F2B01DD802B03D118
:10170000032C01DC032E01DD40E051E0D1F8018023
:1017100047464FF00009802B0ED14FF001094FF0E2
:10172000000A80F834A0C0F824A0C0F828A0C0F8AF
:101730002CA0C0F830A01AE090F834A0A24516D131
:101740004FF0FF3B0BFA03FA50F824B00BEA0A0BF8
:1017500007EA0A0EF34509D14FF0010980F8346019
:1017600023B9A64202DACB4680F810B000BFB9F127
:10177000000F08D080F8482001E008E005E04FF0B5
:10178000010ACDF800A000BF00E000BF09E00B682F
:10179000C0F849304B68C0F84D3080F8482001232C
:1017A0000093009B1BB100BF0123436400BF00BF37
:1017B000BDE8FC8F014609B90020704791F900008F
:1017C000FBE700002DE9FF4F85B004460D4690462B
:1017D000DDF85C901A9F0020049044B13DB1B8F14F
:1017E000000F04D0149810B1B9F1000F04D14FF0DC
:1017F000FF3009B0BDE8F08F2C212046FEF73AFDFE
:101800000020207060700898E0701298A080C4F8E2
:1018100020804FF47A7113984843E0604FF0000A3B
:1018200003A84FF0010B02900223CDF800B05146FF
:101830002846029A03F0B8FF064600BF3EB11FB12A
:10184000284603F0A7FE38606FF00B00D1E7BDF823
:101850000C004FF47A714843A06024611F49616114
:101860001F49A161284604F1100108B9052201E0D1
:101870008160002216463EB11FB1284603F08AFE61
:1018800038606FF00B00B4E7D4E90210884201D948
:10189000A068E0601348002140F2FF73CDE9001416
:1018A000029014A807C8FFF75BF80490049808B1E9
:1018B00004989EE7C4F82490002001210346CDE956
:1018C00000104846DDE91812FFF7B9F8A062A06AD7
:1018D00010B94FF0FF308CE704988AE701580008F0
:1018E000555D00082D1A00082DE9F05F04460E46EC
:1018F000174694F900504FF0000A0DB9012000E09E
:1019000000208346E068B84202D9E068C01B00E0CE
:101910000020E060BBF1000F07D1A068B8B1E0681B
:1019200018B194F90100A84211D0A16A4D71D4E90F
:101930000901FFF749F845B9A08800F4807008B1A3
:10194000052000E07F20054601E0A068E0606570AA
:10195000A078E8B1A07880280ED004DC012807D058
:10196000022811D106E0812808D082280CD108E095
:1019700005250AE0042508E07F2506E04FF0020A6D
:1019800003E04FF0010A00E000BF00BF0020A0709C
:10199000A08800F4805080B11221206A01F05EFC22
:1019A00048B91B21206A01F059FC20B91C21206A8A
:1019B00001F054FC08B1012000E000208046A0881E
:1019C00000F4005060B1206A08B1C16809B9002173
:1019D00001E0C1680978A088014009B1012000E058
:1019E00000208146052D0ED1B8F1000F02D1B9F1CA
:1019F000000F08D0A08800F4804008B1042000E067
:101A00007F2005460CE0A08800F4004040B17F2D07
:101A100006D1B8F1000F03D1B9F1000F00D10525AF
:101A2000257006B135705046BDE8F09FF0B50D79D0
:101A30004A1D167853780446022D04D113B1E77875
:101A40009F4200D1A670F0BD2DE9F04102460C4640
:101A5000104601462679671D90F860318D689DB368
:101A60000D7BB54231DC91F80CC0B44503D1012B9C
:101A700003D10B2301E003B90D230025D0F868C181
:101A8000BCF1000F0CD0D0F864C1BCF1000F07D03E
:101A9000D0F864C1DCF80CC0BCF1000F00D0012507
:101AA00000F5A87C0CEBC50CD7F80080CCF80080C2
:101AB000D7F80480CCF8048000BF4FF0010800F58F
:101AC000A47C4CF8258000BF01E003B90C2380F80A
:101AD0006031BDE8F08100002DE9FF4F87B0054679
:101AE0008B46199F2C4655B1BBF1000F07D00998C2
:101AF00028B1159818B1169808B1179820B94FF069
:101B0000FF300BB0BDE8F08F4FF4BA712846FEF7F6
:101B1000B1FB09982060179860600020069006A825
:101B20000123CDE9007059462046169A04F068FC5E
:101B30008046B8F1000F01D04046E2E70020059052
:101B4000012305AA1946159803F007FE8146B9F14D
:101B5000000F0AD037B1159803F022FD012101EBE7
:101B6000002038606FF00B00CBE70121059801EBF6
:101B7000E07A0598C0F30A06BAF1000F08D0607B3E
:101B800000B12EB94FF0000A069808B9012006905E
:101B9000069868B10698012801D0069800E00598DB
:101BA00000904FF402431A220121206801F0A4FAA8
:101BB000BAF1000F00D1002636B14FF680711498AB
:101BC0000840B04200D1149E3748002140F2FF7314
:101BD0003246CDE900150290DDE91701FEF7C0FE9F
:101BE0008046B8F1000F01D040468AE7C4F808A04B
:101BF000FE200490012304AA0221159803F0C7FDDA
:101C00008146B9F1000F0AD037B1159803F0C8FC2E
:101C1000022101EB002038606FF00B0071E70A9899
:101C2000C5F864019DF81000F02801DC012000E0F7
:101C30000020C5F8680100200390012303AA0521B4
:101C4000159803F07DFDBDF80C004FF47A71484300
:101C5000C5F86C01012004F58C742060C4F804B050
:101C60001898208114986081A6812561A4F58C7450
:101C70000E494FF4967001510D49001D0151C4F8F1
:101C800038510C494FF49E7001510B49001D015110
:101C900004F59471159803F02EFC04F59C711698C8
:101CA00003F029FC00202CE7491A000855590008C8
:101CB000CD5F0008015800082D6300082DE9FF4F93
:101CC00087B0044699462546A86800287ED0B9F119
:101CD000000FFBD0149818B9D4F86801002875D10A
:101CE00094F860010A2820DD94F860010B2801D0E7
:101CF000012000E00020074694F860010C2802D182
:101D000048F2102001E048F220208046287B009015
:101D1000434604223946286801F0EEF90FB101204C
:101D200000E0002084F8600100BF0026D4F86801BC
:101D300038B1D4F8640120B1D4F86401C06800B9A6
:101D400001260020069048E00120069004F5A870C6
:101D500000EBC60A00BF0021083840F8261000BF7B
:101D60008B4636E0CBEBCB0105F1100000EB810791
:101D700007F10C000590059890F80080B868049071
:101D80000498082801D908200490049840450AD9ED
:101D90000020029003904246514602A8FEF743FA03
:101DA00002A8019001E0CDF804A00021059801608F
:101DB0006B46D7F818C03846049A0199E047059851
:101DC000C0F80080C2440BF1010000E043E000F0E5
:101DD000FF0B687B5845C5DC00BF04F5A47050F8C4
:101DE00026000028B0D1D4F86C0198B3069890B1C1
:101DF000D4F86C11D4F87001884208D9D4F8700175
:101E00000090002317221946286801F075F9012077
:101E1000C4F870011EE0D4F87001D8B1D4F86C1188
:101E2000D4F87001884215D2D4F87011089808448B
:101E3000C4F87001D4F86C11D4F87001884209D943
:101E4000D4F87001009048F250231722012128682D
:101E500001F052F912E0A86810B1B9F1000F0DD1EC
:101E600000BF0020C4F8480100BF00BF00214FF4AC
:101E7000A670015100BF0020C4F870010BB0BDE88E
:101E8000F08F2DE9F04106460D4634462F7905F1D5
:101E90000508082F12D198F80000802802D10020F0
:101EA00020750BE0A06B48B93A46414604F13C006E
:101EB000FEF7B9F900BF0120A06300BFBDE8F081C3
:101EC0002DE9F04F8BB004468B4616461D46DDF8D3
:101ED000648034B1BBF1000F03D0159808B1179896
:101EE00020B94FF0FF300BB0BDE8F08FC4F808B058
:101EF00025734FF47A711498484360670020207569
:101F00006EB9012D01DB7F2D02DD4FF0FF30EAE7D6
:101F100005F5C06905F5B06A012020618CE0304606
:101F200008B1018800E000210F46B7F5905F19D194
:101F3000012D01DB7F2D02DD4FF0FF30D3E705F5EA
:101F4000C06905F5B06A0120206101234A4619469F
:101F5000304603F050FD012352460221304603F083
:101F60004AFD68E0B7F5905F62DDB7F5945F5FDA30
:101F7000002001900AA802900120039003980123F9
:101F800000903046DDE9011203F00EFC07900123BA
:101F900009AA1946304603F0EDFB0690012308AA72
:101FA0000221304603F0E6FB0590079858B99DF8EA
:101FB0002800022803D09DF82800032803D10698A2
:101FC00008B9059838B1B8F1000F01D0C8F8007011
:101FD0006FF00B0087E7099800F0004018B90998E6
:101FE000C0F30A0000E000208146089800F000409D
:101FF00018B90898C0F30A0000E000208246646522
:102000001A49A1651A49E165304604F1540108B93D
:10201000052201E0816000220492049838B1B8F1F1
:10202000000F01D0C8F800706FF00B005BE702E012
:102030004FF0FF3057E700BF00BF0020A06300BF94
:10204000159860641698A4F848001898A4F84A00F7
:102050000020E064206517982060CDE9009A2046B2
:10206000189BDDE9151200F005F83CE7015800085F
:10207000315E00082DE9FF4F83B004460F469046BD
:10208000DDE91056E06CA84206D1206DB04203D1C4
:10209000002007B0BDE8F08FE564266505F000403C
:1020A00008B9A8B200E00020814606F0004008B957
:1020B000B0B200E000208246B9F1000F05D0BAF1BD
:1020C000000F02D00120206104E04FF00009CA4651
:1020D000002020610F48002140F2FF734A46CDE9FD
:1020E0000014029041463846FEF73AFC8346002031
:1020F0000821CDE900100023524620680699FEF71A
:102100009EFC6060606818B94FF0FF3B00202061C2
:102110005846BEE7831E00082DE9FF5F0446884647
:10212000914624B96FF0010004B0BDE8F09F01278B
:1021300000200390A06B08B1012000E0002082463F
:10214000206930B1207D20B9BAF1000F01D10027FC
:10215000BAE1B8F1000F01D0206930B90020207534
:1021600000BFA06300BF0027AEE1BAF1000FEFD0BF
:10217000207D002875D1002594F83C0000F0F00087
:10218000202802D1112020750BE094F83C00402853
:1021900003D101252120207503E0F7480390012099
:1021A00020750398A8BB3D20015D3E20005D41EAFB
:1021B0000020A0863F20005D84F83600A18EA06834
:1021C00003F0A7F9834694F83610002304F11802AF
:1021D00003F024FA064636B1304603F011FA0390B4
:1021E0000120207521E02820005D00F0030020B9C7
:1021F000E24803900120207517E05DB12820005DC2
:1022000000F0010030B9DD48401C0390012020752A
:102210000BE00BE04DB92820005D00F0020020B972
:10222000D648801C03900120207500BF1DB3039881
:1022300008BB0020C4F8A000C4F8A400A066206772
:102240000023072203A9204605F0BAFA98B1206FAF
:1022500090B1206A6066606E20B9D4F8A000606614
:1022600013E013E0D4F8A010606E88420DD0C4488B
:1022700003900120207508E02820005D00F0800018
:1022800008B9206A00E00020606600BF207D0028B9
:1022900073D0207D0128FBD0207D112806D0132883
:1022A0006CD021286BD023286AD1E6E094F83C005A
:1022B00000F00200002864D0256A042694F83C004F
:1022C00000F0010028B194F83C00C0F38100361AF8
:1022D00003E015B1042D00D22E460020019002909B
:1022E000324604F1400101A8FDF79DFF2820005D62
:1022F00000F0800058B10DB1AE4208D2A81B0128F1
:1023000001D1012100E002210E4426620EE00DB948
:1023100026620BE0AE4209D0AE4201D9994801E0F5
:102320009848401C039001202075C6E000200090D2
:1023300000BF00BFEFF310802168486372B600BF92
:102340006B46324601A904F11800D4F830C0E047CA
:1023500083462168486B80F3108800BFBBF1000FF3
:1023600006D0584603F04CF9039001202075A4E0F4
:10237000122020750120206729E09FE028E079E005
:1023800096E094F83C0000F00100D0B1206A216C86
:102390006166A8B1626E824204D97A4A0392012230
:1023A00022758AE0626E82420AD22822125D02F011
:1023B00080022AB9734A521C0392012222757CE0E2
:1023C00001E000206066122020750020206774E084
:1023D00094F83C0000F0E00098BB94F83C0000F05A
:1023E0000100206794F83C0000F0100694F86C009F
:1023F000B04204D064480390012020755DE094F859
:102400003C00C0F34200C0F1070504F17C01D4F8A0
:10241000A02050182A463F39FDF705FFD4F8A00048
:102420002844C4F8A000A06E2844A066206A48B1E1
:10243000A16E206A814205D952480390012020757F
:102440003BE012E0206F28B9D4F8A000C0F12000D2
:10245000092807D200231A4603A9204605F02EFAC0
:1024600000B92AE01420207503E0434803900120BE
:10247000207522E0222020751FE094F83C0000F037
:10248000EF0060280FD194F83C1001F0100094F890
:102490006C10814204D03C490391012121750CE06C
:1024A0002421217503E0344803900120207504E0C5
:1024B000314803900120207500BF00BF0020A067B5
:1024C000814600BFA06300BF012F13D1D4E91D10C6
:1024D000884202D2A06F4844A067D4E91D10884208
:1024E00004D32548401E03900120207560680069D0
:1024F00000B10427012F74D10021606840F8051F46
:102500004160207D122806D014282AD022284FD0DE
:10251000242867D18CE060206168487194F83410F9
:1025200060688171A08E01126068C17194F83610E4
:10253000606801720020A067D4E90001FEF744FA48
:10254000206F18B100202075002709E0002084F8D2
:102550006C00A066C4F8A000C4F8A4001320207585
:10256000C5E094F86C0040F020006168487194F870
:102570006C0058B910200AE00100040500000106B3
:10258000470004061200070600000305002084F837
:102590006C000020A067D4E90001FEF715FA206F57
:1025A00018B100202075002701E0132020759EE05F
:1025B000606EC0B1606E042815D8606EC0F1040072
:1025C000432141EA800061684871616801F10900B6
:1025D00004F17C01626EFDF726FE002020750027C5
:1025E00015E085E082E0606E40B1606E01464122F8
:1025F00063685A716268C2F8091002E0402061689D
:102600004871002084F86C00A0672320207594F89E
:10261000341060688171A08E01126068C17194F8F5
:10262000361060680172D4E90001FEF7CDF95EE072
:102630000023072203A9204605F0C2F800B956E09E
:1026400094F86C006168487194F86C0008B9102027
:1026500000E0002004F86C0FD4E90D016C3C451A31
:10266000072D02D3206F70B10DD160684079C5F19C
:102670000701012202EB4101084361684871002013
:102680002075002704E00020A0672320207507257F
:1026900004F17C02D4F8A43099186268901D2A468F
:1026A000FDF7C1FDD4F8A4002844C4F8A400A06E2E
:1026B0002844A066606EA0B1D4E91910884204D9FC
:1026C0001D4803900120207511E057B9D4E9191075
:1026D000884206D21848401C03900127012020752B
:1026E00005E0D4E90001FEF76FF900E000BF00BF8C
:1026F000012F1ED1207D01281BD1039D8020616800
:10270000487194F8341060688171A08E011260687D
:10271000C17194F83610606801726068C0F80950A1
:10272000D4E90001FEF750F9002020756FF0090789
:1027300000BF3846F8E40000120007062DE9F04F0C
:1027400087B00446894616469A46DDE9118B169DE8
:102750005CB1B9F1000F08D03EB1BAF1000F04D05E
:10276000149810B1BBF1000F04D14FF0FF3007B047
:10277000BDE8F08F60212046FDF77CFD80200690AB
:102780000020019006A802900120039003980423E2
:1027900000903046DDE9011203F006F8074600BF5D
:1027A0003FB11DB1304602F001FF28606FF00B0011
:1027B000DDE764635149A1635149E16304F13401E8
:1027C000304602F09FFE002304221946504602F0D4
:1027D000F3FEE061E06938B91DB1504602F0E6FE53
:1027E00028606FF00B00C2E70023042219461098FE
:1027F00002F0E2FE2062109848B1206A38B91DB19B
:10280000109802F0D3FE28606FF00B00AFE70020B5
:102810000590B8F1000F2DD0019005A8029001207D
:1028200003900398012300904046DDE9011202F075
:10283000BBFF07463FB11DB1404602F0B7FE28601E
:102840006FF00B0093E79DF81400012802D10220DD
:10285000059005E09DF81400F02801DDF0200590BA
:102860002465264961652749A16504F15001404668
:1028700002F048FE9DF814006074C4F800900698B9
:10288000C0F3807060620698C0F30A00A4F84400A8
:10289000C4F82CB0139820861498A0641598A4F856
:1028A0004C0019480021CDE9001402900698C0F3AD
:1028B0000A0240F2FF7358461399FEF751F804904C
:1028C000049808B1049852E700209DF8141009B14B
:1028D000012100E00021CDE900100698C0F30A02B2
:1028E0000023DDE91401FEF7AAF8A062A06A10B97E
:1028F0004FF0FF303BE7002039E7000001580008A7
:10290000255B0008A55D00083F2A00082DE9F84F67
:1029100004460F4690469B464FF00009002F74D0A6
:10292000A06900EB080AA069504501D2C4F818A0BC
:10293000606830B10020A0614FF0010900BF606005
:1029400000BFE06910B1E069006800E000200646C1
:10295000002E38D0606AF8B1A069B04233D34FF08E
:1029600001092546A87C401CC0B2A8742C46697C8D
:10297000884201DD0120A8740020A861E86808B938
:10298000012000E00020E860A87CA96A4871A96ADB
:10299000A86CFEF719F816E0207C012813D106EB8D
:1029A0005605B54200D2851EA069A8420AD9A06981
:1029B00000904FF4014318220121206800F09CFB95
:1029C0000220207400BF206A70B1206A006858B1EC
:1029D000216AA0690968884206D9606908B94FF080
:1029E00002090120606101E000206061207A50B19D
:1029F000207A009048F2402319220121206800F03B
:102A00007BFB0020207207E0FFE700BF0020606032
:102A100000BF2072A074A061B9F1010F0CD1207C1D
:102A2000022807D1002000900023182219462068B0
:102A300000F062FB012020744846BDE8F88F70B5B5
:102A400002460B46104619790024457C35B909B970
:102A500001240DE041F04005057209E0012904D18F
:102A60005D1D2E788674012402E041F08005057218
:102A70004CB1C5680DB9012500E00025C56000BF57
:102A80000125456000BF70BD2DE9FF4F85B00446AC
:102A90000D461746DDF848800CB105B127B94FF057
:102AA000FF3009B0BDE8F08F2C212046FDF7E2FB96
:102AB0004FF0000A0DF1100B01200390039804233E
:102AC0005A4651460090284602F06EFE064600BF68
:102AD00066B1B8F1000F06D0284608B1018800E0C1
:102AE0000021C8F800106FF00B00DAE7E461184924
:102AF000216218496162284604F11C0100B901E015
:102B0000816000BF0498C0F30A090498C00F2061D7
:102B10000498C0F38070606100BF0020A06100BF16
:102B2000206990B10C48002140F2FF734A46CDE97C
:102B30000014029038460899FDF712FF8246BAF158
:102B4000000F01D05046ACE700BF0020A9E700000D
:102B500001580008455C0008F52B00082DE9F84FE6
:102B600004460E4615460027EEB12069D8B1A0698B
:102B7000E8B1204600F04DFB824604F10409022230
:102B800049466846FDF74FFBBDF8000083462AF032
:102B90007040A060A4F80CB00020E081012700BFC5
:102BA000A06100BF03E000BF0020A06100BF4FF0A4
:102BB0000008CFB9C5B1E18948194FF47A71B0FB6B
:102BC000F1F8B0FBF1F201FB1201E181A16841448F
:102BD000A160074AA168914205D3A168891AA16042
:102BE000A189491CA18100BF3846BDE8F88F0000CB
:102BF000005C260530B502460B794C1D062B07D12B
:102C000025681560A588958000BF0125956100BFE6
:102C100030BD00002DE9FF4F89B005468A46934636
:102C20001B9F2C465DB1BAF1000F08D0BBF1000F1D
:102C300005D0179818B1189808B1199820B94FF015
:102C4000FF300DB0BDE8F08F4FF4B6712846FDF7A8
:102C500011FBC4F800B0199860600020089008A823
:102C60000023CDE9007051462046189A03F0C8FBB6
:102C70000790079808B10798E3E7FE200690012324
:102C800006AA0221179802F082FD8046B8F1000FD3
:102C90000AD037B1179802F083FC022101EB002023
:102CA00038606FF00B00CCE79DF81800FE2805DABD
:102CB0009DF81800F02801DDFE2006909DF8180010
:102CC00085F84C010120C5F8500100200590012332
:102CD00005AA1946179802F040FD8046B8F1000F8A
:102CE0000AD037B1179802F05BFC012101EB0020FC
:102CF00038606FF00B00A4E70121059801EBE07943
:102D00000598C0F30A06B9F1000F08D0607B00B146
:102D10002EB94FF00009089808B9012008900898CA
:102D200068B10898012801D0089800E00598009043
:102D30004FF402431A220121206800F0DDF9B9F1B5
:102D4000000F00D1002636B14FF68071169808406A
:102D5000B04200D1169E95F84C01F02801DC01210B
:102D600000E00021207B00233246CDE90001DDE9AF
:102D70001901FDF764FEC5F84801D5F8480110B9FE
:102D80004FF0FF305DE7E83444F8E09C0020049009
:102D90000390012304AA0321179802F0D1FC012318
:102DA00003AA0521179802F0CBFCBDF8100064219E
:102DB0004843C5F85C01BDF80C004FF47A714843F4
:102DC000C5F86001002085F85801012305F5AC72B3
:102DD0000621179802F0DBFC0C98C5F85401FF207F
:102DE00085F8590100202063C4F834A01A98208780
:102DF00016986087A6872564E83C0E494FF49670C4
:102E000001510D49001D0151C4F838510B494FF4CF
:102E10009E7001510A49001D015104F594711798E3
:102E200002F069FB04F59C71189802F064FB002025
:102E300007E70000555900086D61000801580008B7
:102E40002D6300082DE9F04704460D4691461F46C4
:102E5000DDF820802646B068002870D0002FFCD016
:102E600094F84C0118B194F84C01FE282DDBD4F8ED
:102E7000600180B1D4F86801A84203D9D4F8680190
:102E8000401B00E00020C4F86801D4F8680110B9C4
:102E90000120C4F85001D4F85001B0B9002010E06E
:102EA00006F1F00252F8201049B10A7806F588734D
:102EB0001B5C1A401AB90122C4F8502104E0411CDD
:102EC000C8B2717B8142EBDC00BF94F84C01FE2854
:102ED00016DBD4F86401A84203D9D4F86401401B7E
:102EE00000E00020C4F86401D4F8500100285CD050
:102EF000D4F86401002858D1204600F058F854E076
:102F0000D4F85401B0B3B8F1000F4ED094F84C018E
:102F100030B9D4F8500168B3204600F048F844E0D6
:102F200094F85901FF2813D1D4F85401407C38B1EA
:102F300094F8580120B1FE2084F8590108E029E0F6
:102F400094F84C0100EBD0714910491C84F85911D8
:102F500094F85901FE280ED1D4F85401807C94F8DD
:102F60005811884221D194F84C0184F85901204627
:102F700000F01DF819E094F85901401EC0B284F821
:102F8000590190B994F84C0184F85901204600F099
:102F90000EF80AE00120C4F850010020C4F86801CE
:102FA000C4F86401FF2084F85901BDE8F0872DE9D9
:102FB000F04F87B004462546D4F84801401D0690DE
:102FC00094F84C0118B194F84C01FE2801DB012063
:102FD00000E000200590002641E0C6EBC60105F1A7
:102FE000100000EB81094F4697F80C80D7F808A035
:102FF000BAF1080F01D94FF0080AC24505D90020DF
:103000000390049003A8029001E00698029000202B
:10301000F86001AB5246D9F814C038460299E0472F
:10302000C7F80C80C24504D9424603A90698FDF7AB
:10303000FAF805F1F00050F826B0BBF1000F09D006
:10304000059838B19BF8000005F58871895D084343
:103050008BF80000069840440690701CC6B2687B4E
:10306000B042BADC002004F5A474A060A06920621C
:103070006069E0612168A4F5A4746868FDF7A4FCA8
:1030800007B0BDE8F08F10B5044604B910BD606804
:10309000FDF735FAE06804F0D7F9A06804F0D4F938
:1030A000606804F0D1F9E06B04F0CEF9A06B04F095
:1030B000CBF9606B04F0C8F9206B04F0C5F9E06A45
:1030C00004F0C2F9A06A04F0BFF9606A04F0BCF928
:1030D000E06904F0B9F9206A04F0B6F9A06904F0D7
:1030E000B3F9606904F0B0F9206904F0ADF9204645
:1030F00004F0AAF900BFC9E72DE9F04F0C46984645
:1031000008B9BDE8F08FD51002F0070C012707FAC7
:103110000CF7FBB20A2D04DB052501234FF4C2484E
:10312000099241190F7807EA03060CB126B1E8E7C6
:1031300006B9E6E74FF0000848EA0269DDF824A086
:1031400000BF00BFEFF31087D0F814C0CCF8307088
:1031500072B600BF1CB10F781F430F7002E00F78EA
:103160009F430F70077F022F2EDB477F07F1010B74
:103170000BF0FF0C90F81CB0E34501DC4FF0000CA5
:1031800090F81EB0E34504D14FF0010B80F81FB05A
:1031900019E0D0F818B04BF83790D0F818B00BEB16
:1031A000C70BCBF804A080F81DC090F820E090F881
:1031B0001CB0ABF1010BDE4505DA90F820B00BF145
:1031C000010B80F820B000BFD0F814C0DCF83070DC
:1031D00087F3108800BF00BF93E738B5044602228A
:1031E00021466846FDF71FF8BDF8000038BD38B528
:1031F0000446042221466846FDF715F8009838BDBC
:1032000038B50446042221466846FDF70CF80098BC
:1032100038BD38B50446042221466846FDF703F858
:10322000009838BD38B50446012221466846FCF7AF
:10323000FAFF9DF8000038BD30B50246CB1001F012
:1032400007050120A840C4B222B10A2B02DAD05CE3
:10325000204008B1012030BD0020FCE730B5024617
:10326000CB1001F007050120A840C4B222B10A2BFF
:1032700002DAD05C204008B1012030BD0020FCE71C
:103280002DE9F04781460F460024A046002500BFE7
:1032900040210120FDF700F8041E01D0403500E078
:1032A00096E02C210120FCF7F7FF206108B12C35B6
:1032B00000E08DE0082630210120FCF7EDFF606181
:1032C00008B1303500E083E010213046FCF7E4FF20
:1032D000A06118B1102000FB065500E078E05021F5
:1032E0000120FCF7D9FFE06108B1503500E06FE044
:1032F0001126022E0ADB08213046FCF7CDFF2062A2
:1033000018B1082000FB065500E061E0A82101206B
:10331000FCF7C2FF606208B1A83500E058E02C213C
:103320000120FCF7B9FFA06208B12C3500E04FE0A6
:1033300060210120FCF7B0FFE06208B1603500E0D9
:1033400046E04FF4BA710420FCF7A6FF206310B1E9
:1033500005F5BA6500E03BE04FF4B6710420FCF7D8
:103360009BFF606310B105F5B66500E030E00C210D
:103370000120FCF791FFA06308B10C3500E027E0C5
:1033800074210120FCF788FFE06308B1743500E088
:103390001EE038210120FCF77FFF606008B138355E
:1033A00000E015E00C211120FCF776FFA06008B1C9
:1033B000CC3500E00CE018210920FCF76DFFE0603F
:1033C00008B1D83500E003E001202060A04600BF2E
:1033D00000BFB8F1000F02D12046FFF754FE07B13D
:1033E0003D604046BDE8F0872DE9F04F8DB00446C2
:1033F0001746984600200C902069FEF7DBF90B90E9
:103400009DF82C007F2803D09DF82C00052801D1C1
:10341000012000E000200A906068FDF7FDF8E06BF5
:10342000FDF7F6FF08B101200C9025686068468A18
:103430004FF00009E06B08B9002100E0017C012990
:1034400000D18946E06908B1C16809B9002101E0ED
:10345000C168097809B1012000E0002082460DB161
:1034600000200CE01B21E069FFF7E6FE20B91C21DB
:10347000E069FFF7E1FE08B1012000E0002083468B
:103480000DB1002003E01821E069FFF7D5FE099097
:103490000020CDE904BACDE90608002240F203314C
:1034A0003140099809B1012300E00023C6F38001EF
:1034B000CDE90132009103900DB1002101E09DF9A9
:1034C0002C100A464B463946A06BFDF7EEFD2068EE
:1034D00018B10C980DB0BDE8F08F43463A46E0694C
:1034E0000A99FDF773FB43463A460BA92069FEF79C
:1034F000FBF90C909DF82C007F2803D09DF82C0040
:10350000052801D1012000E000200A904FF0000AB8
:103510000FE0CAEBCA0202EB4202616A01EBC20091
:1035200043463A460A99FEF7F7FD0AF1010000F01A
:10353000FF0ABAF1010FECDB43463A4660690A998B
:10354000FDF71AFD3A46A06A0A99FFF707FB0C98A7
:10355000C0E72DE9F84304460E4617469846206812
:1035600008B1BDE8F8832069FEF724F9052801D1E8
:10357000012000E00020814600250EE00096C5EB0A
:10358000451202EB4202216B01EB82004B464246A0
:103590003946FEF793FB681C05B2042DEEDB00BF35
:1035A000DFE72DE9F04704460E4617464FF00009C5
:1035B000206830BB00BF2069FEF7FCF88046B8F1F8
:1035C0007F0F02D0B8F1050F01D1012000E00020EB
:1035D00082463B4632465146E06AFFF797F9054678
:1035E000281E04D0012803D0022808D103E006E0F9
:1035F0004FF0010903E06068FCF7FCFE00BF00BF6C
:1036000000BF4846BDE8F0872DE9F84304460E4662
:1036100017469846206808B1BDE8F8832069FEF790
:10362000C9F8052801D1012000E0002081460025CD
:103630000CE000965B216943626B02EB81004B4614
:1036400042463946FFF7FEFB681C05B2042DF0DB4D
:1036500000BFE1E713B50446042201A92046FCF7A8
:10366000E2FD04201CBD13B50446042201A9204636
:10367000FCF7D9FD04201CBD00B589B018220D4906
:1036800003A8FCF7D0FD0C480068007800F5C06086
:1036900003900A480088401C0849088008A103C913
:1036A000CDE9000102AB6A4603A9074800F027F8FC
:1036B00009B000BD307A0008180000200200002088
:1036C000400020000000000048040020704772B64F
:1036D00000BFFEE710B5024692F82030012B01D062
:1036E000022B06D11068406908431468606100200D
:1036F00010BD506A40F4802050620120F8E7F0B518
:1037000004460D461E4694F8207020688368A86819
:1037100000B900E000BF012F01D0022F7CD103F0DF
:10372000806030B903F0006018B903F080500028C1
:1037300073D0C3F30161022905D9606A40F4000027
:1037400060620120F0BD012088403060A86860B947
:10375000B5F800C0E86840EA4C5C206800F5C0702D
:1037600000EB0110C0F800C00FE0D5E901C040EA4D
:10377000CC00D5F80CC040EA0C00D4F800C00CF521
:10378000C07C0CEB011CCCF80000D5F810C0206800
:1037900000F5C07000EB0110C0F804C0287D0128BE
:1037A0000ED1206800F5C07000EB0110406840F4B5
:1037B000807C206800F5C07000EB0110C0F804C0E8
:1037C000D079000692F806C040EA0C4092F805C095
:1037D00040EA0C2C10794CEA000C206800F5C0700F
:1037E00000EB0110C0F80CC0D078000692F802C0BF
:1037F00040EA0C4092F801C040EA0C2092F800C068
:1038000040EA0C00D4F800C00CF5C07C0CEB011CA5
:10381000CCF80800206801E016E00FE000F5C07069
:1038200000EB0110006840F0010C206800F5C0704A
:1038300000EB0110C0F800C0002083E7606A40F48C
:103840000010606201207DE7606A40F480206062C1
:10385000012077E7F0B504460A46216894F8205025
:10386000012D01D0022D7ED1424901F50071086879
:1038700040F001000860086820F47C500860086887
:10388000566A40EA06200860107D00F01F060120FD
:1038900000FA06F3C8699843C861A1F50071D069C0
:1038A000C8B9D1F80C029843C1F80C02908880B2D4
:1038B000968940EA064601F51070576940F837606E
:1038C000108880B2168940EA064601F510705769E3
:1038D00000EBC7004660D069012819D1D1F80C026D
:1038E0001843C1F80C02908880B2168840EA064658
:1038F00001F51070576940F83760908980B21689D9
:1039000040EA064601F51070576900EBC7004660B3
:10391000906928B9D1F804029843C1F8040204E080
:10392000D1F804021843C1F80402106928B9D1F88B
:1039300014029843C1F8140204E0D1F814021843A9
:10394000C1F81402106A012804D1D1F81C021843EE
:10395000C1F81C02D1F8000220F00100C1F80002F9
:103960000020F0BDFFE7606A40F480206062012023
:10397000F7E7000000640040704770B5044694F813
:103980002050012D01D0022D7DD151B92068C06891
:1039900000F0030080B9606A40F40010606201200A
:1039A00070BD2068006900F0030028B9606A40F427
:1039B000001060620120F3E7206800F5D87000EB8A
:1039C0000110006800F004009060906840B9206821
:1039D00000F5D87000EB01100068400D106007E0A2
:1039E000206800F5D87000EB01100068C008506036
:1039F000206800F5D87000EB0110006800F00200AC
:103A0000D060206800F5D87000EB0110406800F02D
:103A10000F001061206800F5D87000EB01104068BD
:103A200000F47F40000A9061206800F5D87000EB38
:103A300001104068000C5061206800F5D87000EB60
:103A4000011080681870206800F5D87000EB011034
:103A5000806800F47F40000A5870206800F5D87034
:103A600000EB0110806800F47F00000C9870206863
:103A700000F5D87000EB01108068000ED870206847
:103A800000F5D87000E02FE000EB0110C06818715D
:103A9000206800F5D87000EB0110C06800F47F408A
:103AA000000A5871206800F5D87000EB0110C0685A
:103AB00000F47F00000C9871206800F5D87000EBCE
:103AC0000110C068000ED87131B92068C06840F09C
:103AD00020002668F06005E02068006940F02000C2
:103AE0002668306100205BE7606A40F480206062F5
:103AF000012055E70146002091F82020012A01D03D
:103B0000022A11D10B689B6803F0806303B1401C4B
:103B10000B689B6803F0006303B1401C0B689B6853
:103B200003F0805303B1401C70472DE9F05F044659
:103B30000025206846692068D0F8049020688768CE
:103B40002068D0F80CA02068D0F810B02068D0F819
:103B5000188006F00100002855D007F00100C0B120
:103B600001202168886007F0020018B1204600F0AB
:103B700015FB0EE007F0040010B145F4006508E005
:103B800007F0080010B145F4805502E0204600F02F
:103B900004FB07F48070C8B14FF48070216888601E
:103BA00007F4007018B1204600F004FB0EE007F4A3
:103BB000806010B145F4005508E007F4006010B1D2
:103BC00045F4804502E0204600F0F2FA07F4803028
:103BD000C8B14FF480302168886007F4003018B114
:103BE000204600F0F3FA0EE007F4802010B145F40F
:103BF000004508E007F4002010B145F4803502E0EC
:103C0000204600F0E1FA06F0080038B10AF0100092
:103C100020B145F4007510202168C86006F004004A
:103C200040B10AF0080028B108202168C860204689
:103C300000F03CFA06F0020038B12068C06800F0DD
:103C4000030010B1204600F032FA06F0400038B10F
:103C50000BF0100020B145F4806510202168086148
:103C600006F0200040B10BF0080028B108202168C0
:103C70000861204600F023FA06F0100038B12068F1
:103C8000006900F0030010B1204600F019FA06F4B4
:103C9000003040B109F0100028B1102021684860C0
:103CA000204600F015FA06F4803040B109F0080013
:103CB00028B1082021684860204600F091FA06F4F7
:103CC000004088B309F0040078B306F4807020B196
:103CD00008F0010008B145F0010506F4007020B1BC
:103CE00008F0020008B145F0020506F4806020B13A
:103CF00008F0040008B145F0040506F40060A0B126
:103D000008F0700088B108F07000402817D006DC79
:103D100010280BD020280CD0302819D10CE05028C6
:103D200010D0602814D110E01DE019E045F008051E
:103D30000FE045F010050CE045F0200509E045F0E6
:103D4000400506E045F0800503E045F4807500E09D
:103D500000BF00BF2068806920F070002168886182
:103D60000420216848602DB1606A284360622046C3
:103D7000FFF702FEBDE8F09F70B504460CB90120C4
:103D800070BD94F8200010B9204600F0AFF820680C
:103D9000006840F001002168086000F023FB054640
:103DA0000DE000F01FFB401B0A2808D9606A40F4B0
:103DB00000306062052084F820000120E0E72068E0
:103DC000406800F001000028EBD02068006820F077
:103DD00002002168086000F005FB05460DE000F0D8
:103DE00001FB401B0A2808D9606A40F40030606279
:103DF000052084F820000120C2E72068406800F018
:103E000002000028EBD1207E012806D1206800683E
:103E100040F080002168086005E02068006820F01C
:103E2000800021680860607E012806D12068006853
:103E300040F040002168086005E02068006820F03C
:103E4000400021680860A07E012806D12068006833
:103E500040F020002168086005E02068006820F03C
:103E6000200021680860E07E012806D120680068F3
:103E700020F010002168086005E02068006840F02C
:103E8000100021680860207F012806D120680068A2
:103E900040F008002168086005E02068006820F014
:103EA000080021680860607F012806D1206800684A
:103EB00040F004002168086005E02068006820F0F8
:103EC000040021680860D4E902010843216908431D
:103ED000616908436168491E08432168C861002080
:103EE0006062012084F82000002049E710B586B008
:103EF0000446142101A8FCF7BDF9664920688842F0
:103F000059D165480068401C63490860084600684C
:103F100001280FD100BF002000906048006840F0E9
:103F200000705E4908600846006800F0007000906C
:103F300000BF00BF00BF0020009058481038006844
:103F400040F008005549103908600846006800F044
:103F50000800009000BF00BF0320019002200290E3
:103F600000200390032004900920059001A94C48EB
:103F700000F038F900221146132000F0BDFA13209A
:103F800000F0AAFA00221146142000F0B5FA14201D
:103F900000F0A2FA00221146152000F0ADFA15201B
:103FA00000F09AFA00221146162000F0A5FA162019
:103FB00000F092FA6CE03B492068884268D100BF6B
:103FC000002000903548006840F080603349086068
:103FD0000846006800F08060009000BF00BF2E48D7
:103FE0000068401C2C4908600846006801280FD171
:103FF00000BF002000902948006840F00070274969
:1040000008600846006800F00070009000BF00BF24
:1040100000BF0020009021481038006840F00200E6
:104020001E49103908600846006800F00200009040
:1040300000BF00BF6020019002200290002003908A
:10404000032004900920059001A9174800F0CAF840
:10405000002211463F2000F04FFA3F2000F03CFACA
:1040600000221146402000F047FA402000F034FAC8
:1040700000221146412000F03FFA412000F02CFAC6
:1040800000221146422000F037FA422000F024FAC4
:1040900006B010BD0064004004000020403802401B
:1040A000000C02400068004000040240704710B558
:1040B000044600221146204603F096FA10BD7047D0
:1040C00010B5044600220121204603F08DFA10BDF0
:1040D000704770B5044694F82000012822D10220D0
:1040E00084F820002068006820F001002168086042
:1040F00000F078F905460DE000F074F9401B0A283D
:1041000008D9606A40F400306062052084F820001D
:10411000012070BD2068406800F001000028EBD14C
:104120006062F6E7606A40F4002060620120F0E718
:1041300070B5044694F82000022828D12068006851
:1041400040F001002168086000F04CF905460DE0E0
:1041500000F048F9401B0A2808D9606A40F4003092
:104160006062052084F82000012070BD206840684E
:1041700000F001000028EBD02068006820F0020069
:1041800021680860012084F820000020EDE7606AC3
:1041900040F4801060620120E7E7704710B50446E4
:1041A000012102480068FCF77AF910BD2C000020BC
:1041B0007047000010B50446022102480068FCF771
:1041C0006EF910BD2C0000207047000010B50446A9
:1041D000042102480068FCF762F910BD2C000020A1
:1041E00070470000F8B502460B4600250024002069
:1041F0000021D6E0012606FA01F51E6806EA05044C
:10420000AC4274D11E7906F00306012E04D01E794B
:1042100006F00306022E13D190684F000326BE401D
:10422000B0434F00DE68BE403043906050680126C6
:104230008E40B0431E79C6F300168E403043506066
:104240001E7906F00306032E09D0D0684F0003261E
:10425000BE40B0434F009E68BE403043D0601E79E0
:1042600006F00306022E13D1CF0802F1200656F8FD
:1042700027004E07F70E0F26BE40B0434F07FF0E34
:104280001E69BE403043CF0802F1200646F82700E1
:1042900010684F000326BE40B0431E7906F00306A7
:1042A0004F00BE40304310605E6806F44036002E7A
:1042B00076D000BF002600963C4E366846F4804615
:1042C0003A4F3E603E46366806F48046009600BF90
:1042D00000BF374E8F0856F827008E07370F0F267E
:1042E000BE40B043334EB24202D1002624E057E034
:1042F000314EB24201D101261EE0304EB24201D110
:10430000022619E02E4EB24201D1032614E02D4EB2
:10431000B24201D104260FE02B4EB24201D1052654
:104320000AE02A4EB24201D1062605E0284EB242EA
:1043300001D1072600E008268F073F0FBE4030431B
:104340001B4E8F0846F82700224E3068A0435E6857
:1043500006F4801606B120431E4E3060361D3068CC
:10436000A0435E6806F4001606B12043194E361DC0
:104370003060184E361F3068A0435E6806F4003681
:1043800006B12043134E361F3060361F3068A043FD
:104390005E6806F4803606B120430E4E083E30605B
:1043A000491C1029FFF426AFF8BD00004438024034
:1043B00008380140000002400004024000080240AA
:1043C000000C02400010024000140240001802409D
:1043D000001C0240083C01400AB1816101E00B046D
:1043E00083617047014800687047000008000020A2
:1043F0000348006803490978084401490860704788
:10440000080000201000002010B50D48006840F49E
:1044100000700B4908600846006840F4806008603E
:104420000846006840F480700860032000F0A2F89D
:104430000F2000F007F800F02BF8002010BD00005E
:10444000003C024070B504460E4800784FF47A7183
:10445000B1FBF0F00C490968B1FBF0F5284600F01B
:104460004DFC08B1012070BD102C07D2002221465E
:10447000501E00F041F80548046001E00120F2E719
:104480000020F0E710000020140000200C000020A5
:1044900008B500BF002000900E48006840F480403E
:1044A0000C4908600846006800F48040009000BF96
:1044B00000BF00BF00200090081F006840F080503F
:1044C000091F08600846006800F08050009000BF97
:1044D00000BF08BD4438024001460846002809DBF9
:1044E00000F01F0301229A4043099B0003F1E023DF
:1044F000C3F8002100BF70472DE9F05F80460D46EC
:104500001646002702F0CAFA074639462A463346BD
:1045100001F00700C0F1070ABAF1040F02D94FF009
:10452000040A01E0C0F1070AD14600F1040ABAF119
:10453000070F02D24FF0000A01E0A0F1030AD446AF
:104540004FF0010A0AFA09FAAAF1010A0AEA020A74
:104550000AFA0CFA4FF0010B0BFA0CFBABF1010B52
:104560000BEA030B4AEA0B042146404602F09EFA8E
:10457000BDE8F09F00BF00F00702064B19684FF638
:10458000FF031940044B0B4343EA0221014B19601E
:1045900000BF70470CED00E00000FA0500BF00BF4F
:1045A00000BF00BF00BFBFF34F8F00BF00BF00BF01
:1045B0000948006800F4E06008490843001D064906
:1045C000086000BF00BF00BFBFF34F8F00BF00BF38
:1045D00000BF00BF00BFFDE70CED00E00000FA05E2
:1045E00070B504460D460CB9012070BD58480068EE
:1045F00000F00700A84209D255490D70084600682E
:1046000000F00700A84201D00120EEE7207800F07A
:10461000020002281DD1207800F00400042805D1F2
:104620004C48006840F4E0504A490860207800F0A7
:104630000800082805D14748006840F46040454913
:1046400008604448006820F0F000A1680843414930
:104650000860207800F00100A8B36068012807D145
:104660003C4808380068C0F34040B8B90120BCE7B6
:104670006068022802D06068032807D135480838EE
:104680000068C0F3406048B90120AEE731480838FF
:104690000068C0F3400008B90120A6E72D48006873
:1046A00020F00300616808432A490860FFF79AFE7A
:1046B000064609E0FFF796FE801B41F288318842EA
:1046C00002D9032091E707E02248006800F00C00BF
:1046D0006168B0EB810FEDD11D48006800F0070064
:1046E000A84209D91A490D700846006800F0070071
:1046F000A84201D0012078E7207800F004000428C7
:1047000007D11448006820F4E050E16808431149DB
:104710000860207800F00800082808D10D480068DB
:1047200020F46040216940EAC1000A49086000F0B5
:104730003FF808490968C1F30311074A515CC840B2
:104740000649086006480068FFF77CFE00204CE739
:10475000003C024008380240487A0008140000205B
:104760000C00002001480068704700001400002081
:1047700000B5FFF7F7FF04490968C1F38221034A36
:10478000515CC84000BD000008380240587A00085B
:1047900000B5FFF7E7FF04490968C1F34231034A56
:1047A000515CC84000BD000008380240587A00083B
:1047B0002DE9F047002400250026A1462548006881
:1047C00000F00C0020B1042805D008283AD105E0FB
:1047D000DFF8849039E0DFF8849036E01D48001F50
:1047E000006800F03F041B48001F006800F48000D0
:1047F00078B11A481749091F0968C1F38811A0FB4D
:1048000001700146224600233846FBF7DBFC0546D3
:104810000EE011480F49091F0968C1F38811A0FB78
:1048200001700146224600233846FBF7CBFC0546C3
:104830000848001F0068C0F30140401C4600B5FB5B
:10484000F6F902E0DFF8109000BF00BF4846BDE86F
:10485000F0870000083802400024F40040787D0111
:10486000F8B504460CB90120F8BD207800F001002D
:10487000002874D0F948006800F00C0004280DD01E
:10488000F648006800F00C00082813D1F348001F18
:10489000006800F48000B0F5800F0BD1EF480838B5
:1048A0000068C0F34040002859D06068002856D105
:1048B0000120D9E700BF6068B0F5803F08D1E74824
:1048C0000838006840F48030E449083908601EE088
:1048D0006068B0F5A02F0DD1E0480838006840F4BA
:1048E0008020DE49083908600846006840F48030BE
:1048F00008600CE0D9480838006820F48030D749B7
:10490000083908600846006820F48020086000BF6D
:10491000606890B1FFF766FD054606E0FFF762FDAF
:10492000401B642801D903209EE7CC480838006862
:10493000C0F340400028F1D011E0FFF753FD0546D9
:1049400006E0FFF74FFD401B642801D903208BE7E9
:10495000C24808380068C0F340400028F1D12078F0
:1049600000F0020002285FD1BC48006800F00C0093
:1049700058B1BA48006800F00C0008281CD1B748AC
:10498000001F006800F48000B0B9B448083800681F
:10499000C0F3400020B1E068012801D0012063E7A6
:1049A000AE480838006820F0F800216940EAC100EC
:1049B000AA490839086037E0E06800B30120A84937
:1049C0000860FFF70FFD054606E0FFF70BFD401BF3
:1049D000022801D9032047E7A04808380068C0F33F
:1049E00040000028F1D09D480838006820F0F80009
:1049F000216940EAC10099490839086014E00020A3
:104A000097490860FFF7EEFC054606E0FFF7EAFC71
:104A1000401B022801D9032026E790480838006887
:104A2000C0F340000028F1D1207800F008000828E9
:104A30002CD16069A8B101208A490860FFF7D2FC37
:104A4000054606E0FFF7CEFC401B022801D90320F3
:104A50000AE782486C300068C0F340000028F1D0BB
:104A600014E000207F490860FFF7BCFC054606E023
:104A7000FFF7B8FC401B022801D90320F4E6774871
:104A80006C300068C0F340000028F1D1207800F0BD
:104A90000400042870D1002770483830006800F006
:104AA000805090B900BF002000906C4838300068FA
:104AB00040F080506949383108600846006800F0CD
:104AC0008050009000BF00BF01276748006800F4D5
:104AD0008070B0B96448006840F480706249086032
:104AE000FFF780FC054606E0FFF77CFC401B022830
:104AF00001D90320B8E65C48006800F48070002803
:104B0000F2D000BFA068012808D15448683000687E
:104B100040F001005149683108601DE0A068052897
:104B20000DD14E486830006840F004004B496831B0
:104B300008600846006840F0010008600CE0474843
:104B40006830006820F00100444968310860084678
:104B5000006820F00400086000BFA068A8B1FFF75B
:104B600041FC054609E0FFF73DFC401B41F288315E
:104B7000884202D9032077E626E03848683000688A
:104B8000C0F340000028EED013E0FFF72BFC0546F1
:104B900008E0FFF727FC401B41F28831884201D929
:104BA000032061E62D4868300068C0F3400000280B
:104BB000EFD1012F07D129483830006820F080500C
:104BC00026493831086000BFA069002845D0234835
:104BD000006800F00C0008285DD0A069022845D1CB
:104BE00000201F490866FFF7FDFB054606E0FFF7BA
:104BF000F9FB401B022801D9032035E61748083885
:104C00000068C0F340600028F1D1D4E907010843EF
:104C1000616A40EA81110122A06AC2EB500041EAB8
:104C200000412C20005D41EA00600C49091F08602A
:104C300001200B490866FFF7D5FB054606E0FFF7A4
:104C4000D1FB401B022801D903200DE60348083898
:104C50000068C0F340600028F1D049E00838024005
:104C600000004742800E474200700040002021496A
:104C70000866FFF7B7FB054606E0FFF7B3FB401BEE
:104C8000022801D90320EFE51B480068C0F340600B
:104C90000028F2D12CE0A069012800D1E4E51648F3
:104CA000001D0668A069012820D006F48001E06993
:104CB00081421BD106F03F01206A814216D147F69E
:104CC000C0703040616AB0EB811F0FD106F44031F3
:104CD0000122A06AC2EB5000B1EB004F06D106F0F2
:104CE00070612C20005DB1EB006F01D00120BBE5AD
:104CF0000020B9E5000047420038024070B5044684
:104D00002546681EB0F1807F01D301200FE0681EA8
:104D10004FF0E02148610F214FF0FF3001F0C6FE57
:104D200000204FF0E021886107200861002070BD5D
:104D30007047704730B502460B4600BF92F83C0002
:104D4000012801D1022030BD012082F83C0000BFC3
:104D5000022082F83D00106844681068816824F0E1
:104D600070041868044310684460184D1068A84225
:104D70001BD01068B0F1804F17D0154D1068A842B5
:104D800013D0144D1068A8420FD0134D1068A842DC
:104D90000BD0124D1068A84207D0114D1068A842E0
:104DA00003D0104D1068A84205D121F08001586849
:104DB000014310688160012082F83D0000BF00209F
:104DC00082F83C0000BF00BFBDE7000000000140CA
:104DD0000004004000080040000C004000040140B6
:104DE000004001400018004010B504460CB90120F5
:104DF00010BD94F83D0028B9002084F83C002046FE
:104E000000F026F8022084F83D00211D206801F002
:104E100067FC012084F8460000BF84F83E000121B1
:104E20003F200155402001554120015500BF00BFE2
:104E3000012084F8420043200155442001554520BB
:104E4000015500BF012084F83D000020D0E700009C
:104E500038B504460E492068884217D100BF0020AB
:104E600000900C48006840F010000A4908600846AD
:104E7000006800F01000009000BF00BF0022114643
:104E80003620FFF739FB3620FFF726FB38BD000040
:104E90000010004040380240014691F83D000128D2
:104EA00001D001207047022081F83D000868C068E9
:104EB00040F001000B68D8601A4B086898421BD07C
:104EC0000868B0F1804F17D0174B0868984213D08C
:104ED000164B086898420FD0154B086898420BD0C3
:104EE000144B0868984207D0134B0868984203D0C7
:104EF000124B086898420CD10868806800F00702DD
:104F0000062A0CD00868006840F001000B681860A1
:104F100005E00868006840F001000B681860002098
:104F2000C0E700000000014000040040000800400D
:104F3000000C004000040140004001400018004007
:104F4000704710B5044620680069C0F34000D8B12E
:104F50002068C068C0F34000B0B16FF00200216863
:104F60000861012020772068806900F0030018B1F3
:104F70002046FFF7E5FF05E0204600F0ADF82046AB
:104F800000F0ABF80020207720680069C0F38000B3
:104F9000D8B12068C068C0F38000B0B16FF00400E1
:104FA00021680861022020772068806900F4407041
:104FB00018B12046FFF7C4FF05E0204600F08CF84A
:104FC000204600F08AF80020207720680069C0F3AE
:104FD000C000D8B12068C068C0F3C000B0B16FF0A5
:104FE000080021680861042020772068C06900F06B
:104FF000030018B12046FFF7A3FF05E0204600F0AC
:105000006BF8204600F069F80020207720680069DE
:10501000C0F30010D8B12068C068C0F30010B0B170
:105020006FF0100021680861082020772068C069AF
:1050300000F4407018B12046FFF782FF05E02046DB
:1050400000F04AF8204600F048F800202077206859
:10505000006900F0010058B12068C06800F001004C
:1050600030B16FF0010021680861204600F036F889
:1050700020680069C0F3C01058B12068C068C0F350
:10508000C01030B16FF08000216808612046FFF742
:105090004FFE20680069C0F3801058B12068C068D6
:1050A000C0F3801030B16FF04000216808612046E5
:1050B00000F028F820680069C0F3401058B120685B
:1050C000C068C0F3401030B16FF020002168086163
:1050D0002046FFF72EFE10BD7047704710B50446FE
:1050E00006480088401C054908800548006840685B
:1050F000A04201D101F072FF10BD000000000020AD
:1051000018000020704710B504460CB9012010BDEE
:10511000A06900B100E000BF94F83D0028B900206C
:1051200084F83C00204600F027F8242084F83D0055
:105130002068C06820F400502168C860204601F053
:105140003BFB2068006920F49040216808612068DA
:10515000406920F02A00216848612068C06840F456
:1051600000502168C86000202064202084F83D00A1
:1051700084F83E000020CAE710B586B0044614212A
:1051800001A8FBF777F81B492068884230D100BF9F
:10519000002000901848006840F010001649086090
:1051A0000846006800F01000009000BF00BF00BF7C
:1051B0000020009010481438006840F001000E49AB
:1051C000143908600846006800F00100009000BF34
:1051D00000BF4FF4C06001900220029001200390B4
:1051E000032004900720059001A90448FEF7FAFF68
:1051F00006B010BD001001404438024000000240DB
:105200002DE9F84F04460E46174699464FF0000A1E
:1052100094F83D0020285AD106B117B90120BDE805
:10522000F88F00BF94F83C00012801D10220F6E776
:10523000012084F83C0000BF00202064212084F875
:105240003D00FFF7CFF88246A784E784A068B0F559
:10525000805F04D1206910B90025B04602E03546D0
:105260004FF0000800BF002084F83C0000BF1BE0A6
:105270005346002280212046CDF8009001F0B2FB79
:1052800008B10320CBE745B9B8F80000C0F3080027
:105290002168486008F1020803E028782168486026
:1052A0006D1CE08C401EE084E08C0028E0D1534669
:1052B000002240212046CDF8009001F093FB08B178
:1052C0000320ACE7202084F83D000020A7E702205F
:1052D000A5E700BFFEE7000010B5104810490860C0
:1052E0001520486000210E4881604FF08071C16038
:1052F0004FF4402101614FF480114161002101769A
:1053000001214176002181760121C1760177417723
:10531000FEF732FD08B1FEF7DAF910BD0064004077
:105320002004002010B5104810490860152048607E
:1053300000210E4881604FF08071C1604FF4402120
:1053400001614FF480114161002101760121417614
:1053500000218176C17601774177FEF70DFD08B116
:10536000FEF7B5F910BD00000068004048040020B9
:1053700000B587B0142102A8FAF77CFF00BF002017
:1053800001903448006840F08000324908600846C7
:10539000006800F08000019000BF00BF00BF002047
:1053A00001900846006840F0100008600846006858
:1053B00000F01000019000BF00BF00BF002001906E
:1053C0000846006840F0010008600846006800F0E8
:1053D0000100019000BF00BF00BF002001900846FF
:1053E000006840F0080008600846006800F0080007
:1053F000019000BF00BF00BF002001900846006878
:1054000040F0020008600846006800F002000190C9
:1054100000BF00BF00224FF460410F48FEF7DCFFE1
:105420004FF4E0500290002003900120049002A964
:105430000948FEF7D7FE4FF4604002900120039028
:1054400004900020059002A90348FEF7CBFE07B0A8
:1054500000BD000030380240001002401CB50020A2
:10546000009001900E480F490860A7204860002175
:105470000C48816040F2F311C16080218161FFF727
:10548000B3FC08B1FEF723F90020009001906946B3
:105490000448FFF74FFC08B1FEF719F91CBD0000E6
:1054A000001000407004002010B50B480B49086044
:1054B0004FF4E1304860002108488160C16001611B
:1054C0000C21416100218161C161FFF71CFE08B11F
:1054D000FEF7FDF810BD000000100140B8040020E8
:1054E00000BFFEE700BFFEE702460AB9052070478D
:1054F00091600020FBE702460AB9052070479160E1
:105500000020FBE702460AB90520704791600020A1
:10551000FBE7F0B502460B460AB1108808B9002037
:10552000F0BD00211088401E84B217E00E197510DE
:1055300005EB4507566806EB870006889E4200D1BA
:10554000EEE706889E4206DD002D01DD6E1E00E0BE
:105550002E46B4B201E06E1CB1B200BFA142E5DB41
:10556000A14209D101EB4106556805EB860005888B
:105570009D4200D1D4E700BF0020D1E7014609B128
:10558000088870470020FCE7014609B10888704789
:105590000020FCE7014609B1088870470020FCE7BD
:1055A000014609B1088870470020FCE7014609B1AF
:1055B000088870470020FCE72DE9F04387B080465B
:1055C000894615461E466C4601236A4649464046B2
:1055D00000F024F8074657B9206808B1A06808B958
:1055E000092704E01DB1A068A84200D00B2706B12E
:1055F00037701FB9206807B0BDE8F0830020FAE7D4
:105600000146002901DB1A2902DB0348406A704782
:10561000014850F82100FAE7607A0008F0B5044626
:105620000D461E460CB1606808B90520F0BD0AB9E8
:105630000920FBE71146E07800F00F00012804D0B4
:1056400002280ED003284ED129E0002D01DD0E20C6
:10565000ECE76368187908741868086098688860CF
:1056600043E0A078A84201DC0E20DFE7636835B98B
:10567000187A087418680860012088600EE05F7A64
:105680000F74586808B9074604E06F1ED3F810C0BD
:105690000CFB07070F60DF688F6000BF25E06768BD
:1056A0000023002010E000EB400C07EB8C0C9CF872
:1056B00004C0AC4504D100EB400C07EB8C0307E0C1
:1056C00000F1010C0CF0FF0094F802C08445EADC04
:1056D00000BF0BB90E20A9E7587908741868086054
:1056E0009868886001E00920A0E700BFA06800B1C9
:1056F00036B10F4850610F4890610020486012E0B9
:10570000A068406810B1A068406800E00A48506195
:10571000A068806810B1A068806800E007489061C8
:10572000A068006848600020C8604D7400BF7DE735
:1057300001580008655A0008F95700085D5A00082A
:10574000F8B505460E4617461C4602233A46314632
:105750002846009400F028F8F8BDF8B505460E4636
:1057600017461C4604233A4631462846009400F06A
:105770001BF8F8BDF8B505460E4617461C4604232F
:105780003A4631462846009400F00EF8F8BDF8B5C8
:1057900005460E4617461C4601233A463146284622
:1057A000009400F001F8F8BD2DE9F04788B080467C
:1057B000894614461D46DDF840A01CB9092008B0F2
:1057C000BDE8F08701AE00200090534601AA49468B
:1057D0004046FFF723FF07460FB13846EFE7B068B2
:1057E000A84201D00B20EAE76B462A462146304604
:1057F000DDF818C0E047E2E710B50446022010BD0E
:105800002DE9F04704468846164699462CB1B8F172
:10581000000F02D0B9F1000F02D10920BDE8F087D6
:10582000A56827680FB90E20F8E74FF0000AE06876
:1058300008B9B54213D9E068A84201D30920EDE7C1
:10584000E0682D1AE0680744B54206D93546E0689D
:105850002844E0604FF0FF3A01E00020E0602A4673
:1058600039464046FAF7DFFCC9F800505046D5E704
:105870002DE9F84305460E4691461F4655B14EB1F7
:1058800047B1B9F1040F02D2687C002802DCB9F1FB
:10589000000F02D10920BDE8F8836C68207F022840
:1058A00001DA0920F7E7687C60B994F820000090DD
:1058B000012269463046FAF7B6FC00BF0120386085
:1058C0000020E8E7687C94F8201088421ADC607FAA
:1058D000697CA0EB0108B8F1000F04DA207F404496
:1058E0000FFA80F804E0207F404501DC0920D2E770
:1058F000A06950F838103046FDF7ACFE042038603F
:105900000020C8E71920C6E72DE9F04704460D46F8
:1059100090461E4634B1607C20B91DB1B8F1040F29
:1059200000D316B90920BDE8F0876768786A08B126
:10593000002001E04FF00040814697F828008030B9
:1059400040EA090949462846FDF784FE04203060F4
:105950000020E8E72DE9F05F05460F46934698469C
:1059600043465A4639462846FFF74AFF8146B9F171
:10597000000F26D1687C012823D1D8F80000042824
:105980001FD16E683846FDF732FC0446C4F30A0A9C
:10599000BAF1000F0CD0B6F822014FF68071084022
:1059A000504505D1200C0004B6F8221140EA01044C
:1059B000B06808B944F0004421463846FDF753FE6C
:1059C00000BF4846BDE8F09F2DE9F04104460E4671
:1059D00015461F460EB104B117B90920BDE8F08184
:1059E000A068A84200D2A56829463046FAF742FCD2
:1059F0003D600020F2E77FB582B005460E461C46AA
:105A0000042304AA31462846009400F002F806B0A8
:105A100070BD2DE9F04788B08046894615461C4682
:105A2000DDF840A001AE00200090534601AA49468F
:105A30004046FFF7F3FD07461FB1384608B0BDE802
:105A4000F087B068A04201D00B20F7E76B462246F2
:105A500029463046DDF81CC0E047EFE710B50446A4
:105A6000022010BD2DE9F0470446894616469846A7
:105A70002CB1B9F1000F02D0B8F1000F02D109200A
:105A8000BDE8F087A56827680FB90E20F8E74FF04A
:105A9000000AE06808B9B54213D9E068A84201D30A
:105AA0000920EDE7E0682D1AE0680744B54206D901
:105AB0003546E0682844E0604FF0FF3A01E00020FE
:105AC000E060B54201D20C20DAE72A464946384662
:105AD000FAF7A9FBC8F800505046D1E72DE9F84382
