:020000040800F2
:1000000028290020A1010008634700082F460008A6
:10001000614700086F030008015800080000000055
:10002000000000000000000000000000F75400087D
:10003000792C000800000000F5540008F95400086D
:10004000BB010008BB010008BB010008BB010008A0
:10005000BB010008BB010008BB010008BB01000890
:10006000BB010008BB010008BB010008BB01000880
:10007000BB010008BB010008BB010008BB01000870
:10008000BB010008BB010008BB0100089503000884
:10009000710300087D03000889030008BB01000804
:1000A000BB010008BB010008BB010008BB01000840
:1000B000BB010008BB010008BB010008BB01000830
:1000C000BB010008BB010008BB010008BB01000820
:1000D000BB010008BB010008BB010008BB01000810
:1000E000BB010008BB010008BB010008BB01000800
:1000F000BB010008BB010008BB010008BB010008F0
:10010000BB010008BB010008BB010008BB010008DF
:10011000BB010008BB010008A1550008BB01000895
:10012000BB010008BB010008BB010008BB010008BF
:10013000BB010008BB010008BB010008C5030008A3
:10014000A1030008AD030008B9030008BB010008C3
:10015000BB010008BB010008BB010008BB0100088F
:10016000BB010008BB010008BB010008BB0100087F
:10017000BB010008BB010008BB0100080000000033
:10018000BB010008BB010008DFF810D000F0B2F896
:1001900000480047FD600008AFF3008028290020D8
:1001A0000648804706480047FEE7FEE7FEE7FEE711
:1001B000FEE7FEE7FEE7FEE7FEE7FEE791550008F3
:1001C000890100082DE9F05F0546002092469B4614
:1001D00088460646814640241BE02846414647465D
:1001E000224600F076F853465A46C01A914110D381
:1001F00011461846224600F05DF82D1A67EB0108FB
:100200004F4622460120002100F054F817EB000968
:100210004E41201EA4F10104DFDC484631462A4647
:100220004346BDE8F09F10B5431A934209D28318A4
:10023000881803E010F8011D03F8011D521EF9D2C1
:1002400010BD40EA01039B0703D009E008C9121F53
:1002500008C0042AFAD203E011F8013B00F8013B80
:10026000521EF9D210BDD2B201E000F8012B491E96
:10027000FBD270470022F6E710B513460A46044643
:100280001946FFF7F0FF204610BD421C10F8011B75
:100290000029FBD1801A704710B54843044605F089
:1002A000C9FF002805D00021002C02D0641E015592
:1002B000FAE710BD202A04DB203A00FA02F1002000
:1002C00070479140C2F1200320FA03F31943904094
:1002D0007047202A04DB203A21FA02F000217047FF
:1002E00021FA02F3D040C2F120029140084319469E
:1002F00070470000064C074D06E0E06840F001033F
:1003000094E8070098471034AC42F6D3FFF740FF5B
:10031000486D0008686D000870B58C1810F8015B16
:1003200015F0070301D110F8013B2A1106D110F88E
:10033000012B03E010F8016B01F8016B5B1EF9D192
:100340002B0705D40023521E0DD401F8013BFAE718
:1003500010F8013BCB1A921C03E013F8015B01F883
:10036000015B521EF9D5A142D8D3002070BDFEE733
:10037000014802F07BBE000018040020014802F092
:1003800075BE000018040020014802F06FBE000096
:1003900018040020014802F069BE00001804002083
:1003A000014802F063BE000040040020014802F052
:1003B0005DBE000040040020014802F057BE00006E
:1003C00040040020014802F051BE0000400400201B
:1003D000F0B50025EFF31081C16272B6C1692E46F7
:1003E00009B1C6610125818CD9B1018A10274FF06E
:1003F000140C14E001EB4103C26807EBC30452F88C
:1004000004E0BEF1000F08D00CEBC303D35823B1B6
:100410001651828C521E82840225491E89B20029FF
:10042000E8D1C16A81F31088002D03D0418A41F0E0
:1004300080014182F0BDFEB516460D46040010D085
:10044000616800204861284600F043FAE06809210D
:100450008DE84300D4E901021123294600F036F863
:10046000FEBD4FF0FF30FEBD2DE9F04100270446F0
:100470000762C761808C00281CD0EFF31080E5680C
:10048000E06272B6268A0FE0286950B129462046FC
:1004900005F07AFF28B12F61A08C401EA084686906
:1004A000E061761EB6B21835002EEDD1A784E06A61
:1004B00080F31088BDE8F081002805D0006800288E
:1004C00002D0806803F089B8704700002DE9F0473A
:1004D0008AB00E46DDE9127C04004FF0FF3A52D09C
:1004E000DAB3D7B32A48266000250460626023810E
:1004F000E760A4F810C065826561A561E5614FF011
:100500000109C4F82090A58428464FF6FF78A5621B
:100510000BE000EB4001401C22F8215002EB81016E
:1005200080B2A1F802804D608D609842F1D3002026
:1005300006E000EB400107EBC1010D61401C80B2F9
:100540006045F6D3F06880472068124A0E21806823
:100550000068904202D1059501E014E00591CDE9D3
:10056000065903950495CDE90891009501950295EA
:100570006946B06802F016FC28B91321B06802F091
:100580007CFB002800D050460AB0BDE8F087000090
:1005900020000020006400400168896809688969BA
:1005A00001F00702816A914214D0418A82625307A6
:1005B00002D541F004010CE04FF6F8431940D3078F
:1005C00002D040F201131943920702D540F20222F1
:1005D00011434182704700002DE9FF4F89B09146D9
:1005E000DDE91C87DDF864A004004FF0FF310ED078
:1005F000B9F1000F01D1D4F81C9000250126256027
:10060000B8F1FF0F07D0A8F101007F2804D30846F6
:100610000DB0BDE8F08F2660A06B00F013FC002841
:10062000F6D1206810B16FF01200F1E743480123C2
:1006300011210068426802F11800CDE902305430FF
:10064000CDE90010CDE90487D4E907030C326168D5
:1006500000F070F90028DBD1606808F5E06107223E
:10066000CDE906210897CDE90205189AAB46049515
:100670000590324D179801920090286843464A46EB
:1006800041682069903100F073FE0028C0D12968CC
:10069000606801AB496808228431009183E88500D5
:1006A0001346D4E90502494600F08CFA0028AFD180
:1006B0002846002500684668B436A81D81B26068E7
:1006C00003ABCDF800A083E88300EA1D92B2CDE928
:1006D0000102C5EBC500616A00EB400001EBC00000
:1006E00032460C3643460C9901F016F900288FD19A
:1006F0006D1C2DB2012DE0DB104D0097626828685B
:1007000002234168A06A603101F0A8FD00288CD165
:1007100060680122CDE90320CDE905B729684A6860
:10072000029002F1A80102F13C03CDE900310C3B3B
:1007300049462432E06A01F04BFC69E7FC030020E3
:100740002DE9FF4F87B00500DDF85090984693469D
:100750004FF0FF300BD0A8F101017F2902D22868A9
:1007600018B907E02968002901D06FF012000BB01A
:10077000BDE8F08FDFF8BCA00024DAF8000046687E
:1007800006F1CC07FC360020042C04DA08EB042028
:1007900000F5007080B2E11C8BB23146D5F804C080
:1007A0000C36CDE9021C3946CDE90001CDE904390A
:1007B000C4EB4410296B00EB400001EB80000C37C8
:1007C000EB6A5946089A00F005FF0028CFD1641C57
:1007D00024B2042CD7DBDAF800000024466806F5C2
:1007E000967706F5AE760020042C04DA08EB042098
:1007F00000F5C07080B2A11C8BB23146D5F804C0A0
:100800000C36CDE9021C3946CDE90001CDE90439A9
:100810005B20696B604301EB80000C37EB6A594643
:10082000089A01F0ABFD0028A1D1641C24B2042C6D
:10083000D9DB9CE7FC030020F0B50024DDE9066568
:10084000059FF8B1F6B1EDB1B0F808C08C4519D9E3
:10085000D0F804C001EB41010CEB8101C1E9016555
:10086000C2F30A0517B14FF4004200E0002215431D
:10087000C3F30A020D8042F400424A80806918B135
:1008800000BF01E04FF0FF342046F0BD70B50446D4
:1008900008690D46002638B1206A18B9608A40F010
:1008A000080060826FF00806EFF31080E06272B615
:1008B000204605F069FD10B16869E06104E001209F
:1008C0002861A08C401CA084E06A80F31088304628
:1008D00070BD002802D0806802F07FBE704710B55E
:1008E00001680446002906D0886802F044FE00280A
:1008F00001D10120606110BDF0B50400DDE905659E
:100900004FF0000014D0278A8F4211D9E06801EB24
:10091000410100EBC100C2F30A0213B14FF40041E0
:1009200000E000210A430260067100210161456177
:10093000F0BD00002DE9FF4F85B00400DDE916563B
:10094000DDE912B74FF00000DDF8549098468A4672
:10095000039071D0079800286ED0B8F1000F02D133
:10096000BBF1020F68D2002F66D0BAF1000F63D03E
:10097000002D61D07F2D5FD85FEA09005CD0502147
:100980002046FFF777FC0023C4F814A00122194683
:10099000079803F02AFFE06000B300210170C4F85B
:1009A000188084F81CB001230093384602AA04235F
:1009B00003F0CAFF804622480299014051EA08012B
:1009C00013D01EB1384603F0FCFE3060B8F1000FC2
:1009D0000BD06FF00B0009B0BDE8F08F002EF8D0FF
:1009E000079803F0EEFE3060F3E70298012101EB77
:1009F000E070606213480021C4E90C401248A06313
:100A000004F13000B86084F828500820CDE90001D6
:100A10000B4605F1800250461499FFF76DFFE06226
:100A200048B10A48C4E910400948A0644034C9F8F4
:100A300008400398CFE7FFE74FF0FF30CBE7000017
:100A400000F8FF7F4B4A0008554B0008DD490008BD
:100A5000B14B00082DE9F84304464069268A002777
:100A6000458A8846AE4251D06E4040F20110258240
:100A700006420AD00542009701D0012100E0002182
:100A800000230122204601F092FEB00748F220190F
:100A900007D54B460722C5F340012046009701F0D9
:100AA00086FE700708D548F240131222C5F3800174
:100AB0002046009701F07BFE300708D548F210135E
:100AC0001422C5F3C0012046009701F070FE3006E5
:100AD00008D54FF401431522C5F3C01120460097F5
:100AE00001F065FEB00507D54B460622C5F340214F
:100AF0002046009701F05BFE300507D513231A4608
:100B0000C5F3C0212046009701F051FE6179002015
:100B100001B10120A17809B9E17809B140F01000D4
:100B2000217A09B9617A09B140F08000E168B8F131
:100B3000000F087034D0217F022931D3A57F617F57
:100B4000A9422DD0E16A0969002929D1A16951F88A
:100B5000352042EA004041F83500A16901EBC502A9
:100B6000E16A41F8050F50684860E16A6069FFF783
:100B70008DFE6D1C217FE8B2884200D30020A07753
:100B8000E17F01290ED002290AD1617F884207D175
:100B90000023E777202219460097204601F007FE40
:100BA000BDE8F8830220E077C302202201210097EC
:100BB000F3E70A79491D012A03D10978417001211F
:100BC000C16070472DE9FC5F9846DDE90EB5DDE9AF
:100BD0000C7A16468946040018D0B9F1000F15D0DA
:100BE000A6B19FB15FEA0A0010D030212046FFF77E
:100BF00041FBC4F818A0C4E90096A4F81CB0B8786A
:100C00004246411E414505DA401E04E04FF0FF30E8
:100C1000BDE8FC9F1046207200266FF00B0928E00B
:100C2000012006F10108009008F0FF0101AA042349
:100C3000384603F089FE30B11DB1384603F0C5FDDA
:100C400028604846E4E701983146C0F3074283B282
:100C5000204600F023F8060009D01DB1384603F005
:100C6000B4FD286016F10C0F01D03046D0E708F033
:100C7000FF06207AB042D3D80648C4E908400648A7
:100C8000A062203427B10020BC600028D4D1BFE787
:100C90000520FAE7874900085D4D00082DE9FE436D
:100CA00000254FF0FF3818B190F808C08C4502D8E5
:100CB0004046BDE8FE83ABB1A2B100246FF00B0942
:100CC0000DE04668A14206EB04173E68BF6804D0F9
:100CD0001FB1F6B2964200D14D46641CE4B2A44561
:100CE000EFD82DBB44684FF47A7504EB01146B43C5
:100CF0002270A36084F801800025E5602AB123B149
:100D00000123A37002F5E06202E0A5600022A57055
:100D10004368084C03EB01130095CDE90134838B44
:100D20008069194489B240F2FF73FFF785FD0546DB
:100D30002846BEE7B30B00082DE9FF4F81B00546FA
:100D40004FF0010802994069C1464FF0000AC346BE
:100D5000F1B3F0B300263FE06868039F00EB061490
:100D6000A078A0B3E16841B1617851B10220A070D0
:100D70000027C4F804A0C4F80CA0A07802280DD065
:100D80001EE0022807D1009648F230131C220121F0
:100D9000286801F00CFD84F802B0ECE76068384484
:100DA0006060A16888420DD3009648F230131B2280
:100DB0000121286801F0FBFCFF2060700320A07077
:100DC0004FF000086078052801D04FF0000901E0DD
:100DD00006E006E0761CF6B2287AB042BCD815E0F0
:100DE000A0B1002152464B1E5C4609E0686800EB4A
:100DF00001104370C260867806B18470491CC9B284
:100E0000287A8842F2D84FF00008C146E86890B9C5
:100E1000B8F1000F0FD0CDF800A0002354461B22DC
:100E20001946286801F0C3FC009400231C221946CF
:100E3000286801F0BCFCC5E903890298686105B027
:100E4000BDE8F08F28B10146002008604860886046
:100E500070474FF0FF3070472DE9F04F9946DDE9BC
:100E60000CEA06680023DDF82CB0314401601C4612
:100E70001D4619464CF2503875E0477AACF5404CA7
:100E8000ACF5547CC0F800C0037947F300065B1C46
:100E9000DBB20125761C0371032B59D900230171A4
:100EA0001C46BF0701D4022300E0022447797F1CBF
:100EB000FFB24771012F04D0022F05D0062F07D1B2
:100EC00005E043F0040303E044F0040400E0417152
:100ED00087797F1CFFB28771092F0DD2DFE807F0F9
:100EE0000C050805080C0C0C0B0043F0080303E08C
:100EF00044F0080400E08171C7797F1CFFB2C7711C
:100F00000B2F0ED2DFE807F00D0609060906090DC2
:100F10000D0D0C0043F0100303E044F0100400E05A
:100F2000C171077A7F1CFFB207720D2F15D2DFE85F
:100F300007F014070A070A070A070A1414140D0019
:100F400043F0200309E044F0200406E0017204E0CD
:100F5000847A07F07E0304F07E0416B143F00103A7
:100F600001E044F00104D0F800C0C44585D2002D52
:100F70003CD0099909B101211EE02AB1BBF1000F53
:100F800005D003F0200117E003F0010114E0BEF1E9
:100F9000000F02D003F010010EE0BAF1000F02D0F2
:100FA00003F0080108E00A9911B103F0040103E01D
:100FB0000E9909B103F00201B9F1000F02D004F05B
:100FC00001020BE00F9D15B104F0100206E0042AA7
:100FD0000ED07F2A0FD0052A10D0002209B143F08D
:100FE00080030AB144F0800443728472BDE8F08F3C
:100FF00004F00402F2E704F00202EFE70122EDE759
:10100000F0B51C4687B0134688B140F2E4754268DB
:1010100008266F1CCDE904651025CDE90272CDE9E3
:101020000025C06B224600F005F807B0F0BD4FF078
:10103000FF30FAE72DE9FE4F1D46DDE90EB6DDF87B
:10104000309090460F4604004FF0FF3A0DD0B8F1B3
:10105000000F0AD04DB15FEA090006D02EB1287802
:10106000411E7F2904D3FF2802D05046BDE8FE8FE1
:1010700074212046FFF7FEF897E80F0084E80F0080
:101080000027277484F83470C4E90E85287884F822
:1010900040000E4867640097CDE9014040F2FF73BD
:1010A0005A4648460D99FFF7C7FB05460820E666F5
:1010B000CDE90007DDE9101200233046FFF71CFCE4
:1010C000206700B955462846D0E700003D120008C9
:1010D0002DE9F0470446406C4FF00008002876D018
:1010E000216F0022914641F8052F4A6094F848008C
:1010F00051286DD00EDC152851D006DC042812D002
:10110000112815D0132810D125E0172854D04328D2
:101110000BD10BE0A0F15A0105296FD2DFE801F0F5
:1011200063676F7377004FF0010880E0442076E03A
:1011300094F84A000021421E7E2A09D9FF2807D0D0
:101140000121226F94F848005071206F81716AE08C
:10115000E26B1070F5E7626D6AB394F84A1094F888
:101160004B0000252E4681B905280ED009280CD841
:10117000314931F81070A06D3946904710B1A06B1D
:10118000078003E0FF25012600E00125216F94F888
:1011900048004871206F8571206FC67143E0606D13
:1011A00048B1E26D3AB194F84B0094F84A1041EA24
:1011B0000021206E90473AE0636E00254BB1A06B92
:1011C0000288E06B0178A06E984720B104E030E01F
:1011D00024E0012500E00225216F94F848004871C1
:1011E000206F85711FE0216F4871206802E0216F38
:1011F00048716068216FC1F8060014E012E0216FA9
:101200004871A068F6E7216F4871E068F2E7216F46
:101210004871216F94F84000887104E04F20216FDD
:10122000487100E01AB1D4E91B01FFF72FFBC4F8A5
:1012300044904046BDE8F08790660008F0B50A7912
:10124000082A17D1426C002A14D1002311F8052F67
:1012500001261D46042A08D0037C0BB30B68C0F896
:1012600049304968C0F84D1078E0497819B1012932
:1012700000D10674F0BD017C01290AD190F840101C
:10128000FF2906D1C16B0978FF2902D080F84820D8
:101290000123057445618561C5610562C3BBF0BD6D
:1012A000422A3AD007DC402A33D0412AF7D1D1F87C
:1012B00001108161F0BD432A33D0512AFAD1C36BAA
:1012C0001B78FF2BF6D190F84030FF2BF2D14B79F1
:1012D0008C79CF791F2B01D9802BEBD1032CE9D846
:1012E000032FE7D8D1F801C0802B2ED090F834100E
:1012F000A142DFD14FF0FF31994050F824500CEA61
:10130000010C0D406545D5D180F8347023B325E03C
:1013100026E0D1F801104161F0BDD1F80110C161A2
:10132000F0BDD1F80110016284694368A342F7D18E
:10133000C4698368A342F3D1C3688B42F0D1436987
:1013400001689942ECD1067408E080F83450456297
:101350008562C562056301E0A742F4D380F84820A6
:101360004664F0BD002801D090F9000070470000ED
:101370002DE9FF5F9B46DDF85880139E17460D460A
:1013800004004FF0FF3A62D0002D60D0002F5ED0F5
:10139000109800285BD0002E59D02C212046FEF753
:1013A00069FF4FF0000984F8009084F8019084F8F8
:1013B00003B00E98A08027620F984FF47A725043C2
:1013C000E060012300934946284603AA022303F064
:1013D000BBFA60B1B8F1000F04D0284603F0F9F968
:1013E000C8F800006FF00B0004B0BDE8F09FBDF836
:1013F0000C004FF47A714843A0601648C4E90440D9
:101400001548A06104F11000A860D4E902018142EE
:1014100000D9E0601148CDF80090CDE9014010AD51
:101420004F4695E8070040F2FF73FFF705FA050005
:10143000DAD101206662CDE90007DDE9141200234C
:101440003046FFF759FAA06208B12846CCE750466B
:10145000CAE7000087490008BD4D00086315000871
:101460002DE9F04190F900500F46044600262DB1B9
:101470000021E068904203D9801A02E00121F8E7D8
:101480000020E06031B9A16869B118B194F9010098
:10149000A84208D0A06A4571D4E90901FFF7F6F91E
:1014A00065B1A068E0606570A078F0B1802815D0C3
:1014B0000BDC01280ED0022815D10DE0A088C00554
:1014C00001D50525EFE77F25EDE7812808D08228A3
:1014D00009D107E0052506E0042504E07F2502E0A8
:1014E000022600E001260020A070A088C00410D5CC
:1014F0001221206A01F0E6F948B91B21206A01F0A7
:10150000E1F920B91C21206A01F0DCF908B10121C0
:1015100000E00021A08882040AD5226A32B1D26894
:1015200022B11278024203D0012202E00022F9E740
:101530000022052D08D151EA020305D0400401D54F
:10154000042508E07F2506E0000404D57F2D02D1A4
:1015500009B902B90525257007B13D703046BDE8CF
:10156000F0810A794B798979022A04D111B1C278C4
:101570008A4200D18370704730B50B7990F86021B2
:101580008468491D04B3047B9C421ED803D1012A00
:1015900003D10B2201E002B90D22D0F868410023EB
:1015A0002CB1D0F8644114B1E46804B1012300EB1C
:1015B000C3040D68C4F850514968C4F8541100EBD5
:1015C00083030121C3F8481101E002B90C2280F81D
:1015D000602130BD2DE9FF4F87B01546DDF85CA0D6
:1015E000DDF85080199F8B4604002ED0BBF1000F10
:1015F0002BD055B3159840B3169830B35FEA0A0064
:1016000023D04FF4BA712046FEF734FEC4E9005AE5
:1016100003A8CDE900700025012303955946204613
:10162000169A03F08CFE002811D10123049004AA1D
:101630001946159803F076F9012558B1F7B31598B6
:1016400003F0CBF805EB00204BE04FF0FF300BB080
:10165000BDE8F08F0498A946294615EBE076C0F363
:101660000A0502D0607B28B125B1039880B101281A
:1016700006D104E0039800260028F8D103910498CD
:1016800000904FF402431A220121206801F08FF8E4
:101690005EB325B128F07F00A84200D14546002066
:1016A000324A0090CDE9014240F2FF732A4650468B
:1016B0001899FFF7C1F80028C9D100E012E0FE2018
:1016C000A6608DF81400012305AA0221159803F0E5
:1016D00035F960B137B1159803F07FF8022101EBBD
:1016E000002038606FF00B00B1E70025D7E70A98BB
:1016F000C4F864019DF81400F02801D8012000E02E
:101700000020C4F868010020ADF81800012306AAE3
:101710000521159803F000F9BDF818004FF47A710F
:101720004843C4F86C01C4E9469B1898A4F820010A
:10173000A4F82281A4F82451C4F828410C49C4F823
:101740002C110C490C48C4F83011C4E94E400B4828
:10175000C4F8400104F59471159803F003F804F5FA
:101760009C71169802F0FEFF002070E779150008C2
:101770008B4A0008C54F0008874900088D520008B1
:101780002DE9FF4F044687B0A16814984FF0000B75
:1017900000297DD0002B7BD018B9D4F8680100282F
:1017A00077D194F860010A2818D90B2801D00125B7
:1017B00000E000250C280BD048F22023207B00906D
:1017C00004222946206800F0F2FF25B1012003E041
:1017D00048F21023F2E7002084F860010020029014
:1017E000D4F8680130B1D4F8640118B1C06808B900
:1017F0000120029000200490029804EB80000390E6
:101800003BE0012004900298039904EBC00000F52E
:10181000A87A0025C1F848B12BE0C5EBC50104EB5F
:10182000810707F11C0697F81C90D7F8188010372D
:10183000B8F1080F01D94FF008084946C8450AD940
:101840000A46CDF800B051466846CDF804B0FEF720
:10185000EAFC694600E05146C6F800B0D7F818C067
:1018600005AB42463846E0476D1CCA44EDB2C6F8A7
:101870000090607BA842D0D80398D0F84801002897
:10188000BFD1D4F86C01002825D00499002901E0CB
:1018900024E020E0D4F870110AD0814206D90091EA
:1018A000002317221946206800F081FF01201AE06A
:1018B000002910D081420ED2089A11442246C4F861
:1018C0007011814207D90091106848F25023172205
:1018D000012100F06CFF0BB0BDE8F08FC4F848B1F7
:1018E0005846C4F84CB1C4F87001F4E710B50A7951
:1018F000491D0446082A0BD10878802809D0A06B1E
:10190000002805D104F13C00FEF78DFC0120A06306
:1019100010BD0020207510BD2DE9FF5F0400DDE93A
:101920000E091746DDF844B0DDF84CA04FF0FF3249
:101930007ED000297CD05FEA090579D05FEA0B05EB
:1019400076D0A1604FF47A7123734843606700201A
:101950002075012103F5C066581E03F5B0630FB36F
:10196000B7F80080B8F5905F21D06FF490504044F4
:101970007E286ED801233846002101AA009302F088
:10198000E3FF0546012302AA1946384602F0D0FFBC
:101990000646012303AA0221384602F0C9FF014688
:1019A000F5B915E07F2854D21D46216138E07F2823
:1019B0004FD21D460123216132461946384603F0B5
:1019C000A2F801232A460221384603F09CF827E0BA
:1019D0009DF80400022801D0032801D106B949B1BD
:1019E000BAF1000F01D0CAF800806FF00B0004B00C
:1019F000BDE8F09F0298002802DBC0F30A0600E071
:101A000000260398002802DBC0F30A0500E0002549
:101A10001148C4E915401148E06504F15400B8606C
:101A20000020C4F84490A0631099A4F8481000E086
:101A30000FE01299A4F84A10E064C4F800B02065E1
:101A4000CDE9006549462046129B109A00F008F83F
:101A5000CDE71046CBE7000087490008954E000807
:101A60002DE9FE4304468C461646DDE90A10E26C79
:101A700098468A4205D1226D824202D10020BDE8FB
:101A8000FE83C4E91310002901DB8AB200E00022C2
:101A9000002801DB85B200E0002500271AB115B14E
:101AA0000120206102E00022154627610D480097C1
:101AB000CDE9014040F2FF7331466046FEF7BCFEBF
:101AC00006460820CDE9000700232A464146206843
:101AD000FEF712FF606010B94FF0FF362761304605
:101AE000CDE70000ED1800082DE9F04F85B00400A7
:101AF0000CD04FF00009CDF80090A06B012500B18B
:101B00000120236943B1267D2EB105E06FF001006D
:101B100005B0BDE8F08F80B189B183B1DFF874B44E
:101B2000012604F17C0A002871D0217DDFF8688449
:101B300004F11800039039B16CE0002546E284F806
:101B40001490C4F83890F8E794F83C00002702217C
:101B5000B1EB101F01D1112006E0402802D0CDF8D2
:101B600000802DE0012721202075B4F83D10A186CA
:101B700094F83F0084F83600A06802F0F9FD94F86C
:101B800036100023039A02F057FE10B102F048FE0F
:101B900008E094F82800810703D067B1C00707D098
:101BA00003E0FE480090267587B3009850B131E0FD
:101BB000FA48401C1FE080072CD4F848801C1AE02B
:101BC000267527E0C4F8A090C4F8A490C4F86890E3
:101BD0000023072269462046C4F8709004F02EFCCA
:101BE000A0B1206F60B1206A606630B1D4F8A01057
:101BF00088420FD0EA480090E2E7D4F8A00008E05D
:101C000094F82800000603D4206A02E002E0C8E04D
:101C100000206066207D00285DD0207D01285AD0FC
:101C2000207D112807D0DF4A132872D021286ED0DA
:101C300023286DD1A7E094F83C0081074CD50427F8
:101C4000D4F82080C10704D0C0F38100C0F104079C
:101C500004E0A8F10100032800D24746CDF8049023
:101C60003A4604F1400101A8CDF80890FEF7DBFAEE
:101C700094F8280000060BD5B8F1000F01D04745B5
:101C800009D2A8EB0700012800D00220074408E091
:101C9000B8F1000F05D0474504D02DD95846009023
:101CA00079E02762EFF31080CDF810902168486347
:101CB00072B604ABD4F830C03A4601A90398E047A5
:101CC0002168496B81F3108810B102F0A9FDE6E7A5
:101CD0001220207526675FE0C00710D0216C206AB3
:101CE000616670B1814202D9CDF800B053E008D2EC
:101CF00094F82800000604D4A648401CCFE7C4F896
:101D0000649012202075C4F8709045E001E038E03E
:101D10003FE094F83C0041093BD100F0010121670C
:101D200094F86C3000F010018B4201D0009232E048
:101D3000C0F34200C0F10707D4F8A0103A4601EB07
:101D40000A0004F13D01FEF76EFAD4F8A000384411
:101D5000C4F8A000A16E3944A166226A0AB191427A
:101D6000C2D8216F19B9C0F12000092806D200237A
:101D70001A466946204604F0C7FB68B11420207556
:101D80000AE02220FBE794F83C0000F0EF01602914
:101D900018D0CDF800802675C4F878900022C4F8D9
:101DA0003890D4E91D10884201D21044A0678842BF
:101DB00003D37948401E009026756068016949B1D7
:101DC000042503E194F86C1000F010008142ADD1BD
:101DD0002420D4E740F8059FC846C0F80490207D31
:101DE0001327122808D0142826D04FF023092228C0
:101DF0003DD024283AD16DE06168602046464871A4
:101E0000616894F834008871A08E6168000AC87116
:101E1000616894F836000872C4F87880D4E900014B
:101E2000FEF734FD206FE0B984F86C60A666C4F854
:101E3000A060C4F8A46018E094F86C00616840F0F9
:101E40002000487194F86C0068B1002084F86C00A0
:101E5000C4F87880D4E900014646FEF717FD206FEC
:101E600018B1267569E61020F0E7277585E0606EE9
:101E7000411E032910D8C0F10400432141EA80002B
:101E800061684871606851460930626EFEF7CBF9AF
:101E900084F81480002510E030B16268412151714E
:101EA0006168C1F8090002E061684020487184F867
:101EB0006C80C4F8788084F81490616894F83400D9
:101EC0008871A08E6168000AC871616894F8360054
:101ED00008724DE0002307226946204604F0AEFA5E
:101EE00080B3616894F86C00487194F86C0038B362
:101EF000002084F86C00D4E92801471A072F22D368
:101F0000206F00B11FD0C4F8788084F814900727A0
:101F1000D4F8A410606851443A46801DFEF783F956
:101F2000D4F8A4003844C4F8A400A06EC119A16676
:101F3000606EE8B1814212D9CDF800B026751BE081
:101F40001020D6E719E06068C7F1070246EA4202AE
:101F500041791143417184F814800025D8E73DB9D7
:101F6000814205D20B48401C00900125267504E0F3
:101F7000D4E90001FEF78AFC45B3207D012825D174
:101F80006268802100985171626894F834109171F0
:101F9000A18E09E0120007060100040500000106F9
:101FA00047000406000003056268090AD1716268EF
:101FB00094F8361011726168C1F80900D4E9000183
:101FC000FEF764FC84F814806FF0090528469FE54D
:101FD0002DE9FF4F85B01646DDE9137ADDF858800C
:101FE000189D894604007CD0B9F1000F79D0002EED
:101FF00077D00898002874D05FEA080071D05FEAB3
:102000000A006ED060212046FEF734F980200123BB
:10201000049000933046002104AA042302F094FCAB
:1020200010B185B330462BE042486463DFF800B15D
:10203000C4E90EB004F134000023B0600422194654
:10204000089802F0D2FBE061C0B1002304221946D7
:10205000129802F0CAFB2062129901B1A0B10026C9
:102060008DF80C6047B301233846002103AA009382
:1020700002F06AFC80B135B1384601E01DB1089824
:1020800002F0AFFB286002E00DB10846F8E76FF000
:102090000B0009B0BDE8F08F9DF80C00012841D07D
:1020A000F02802D9F0208DF80C0023482465C4E9FB
:1020B00015B004F15000B8609DF80C006074C4F8CD
:1020C00000900498C0F38071C0F30A026162A4F822
:1020D0004420C4F82CA015982086C4F8488017988E
:1020E00000E021E0A4F84C0014480096CDE901403E
:1020F00040F2FF7350461599FEF79EFB0028C8D1A9
:102100009DF80C0000B10120CDE9000604980023E1
:10211000C0F30A0240461799FEF7EEFBA06218B121
:102120000020B6E70220BEE74FF0FF30B1E7000025
:1021300087490008E94B00080B4E00082B220008D5
:10214000F8B5002504462E4600295CD0A169881800
:10215000814200D2A061606810B1A661012566606D
:10216000E06900B10068012790B3616AD1B1A1694B
:1021700081422DD3A07C0125401CC0B2A074617C9B
:10218000884200D9A774A661E06848B10020E060E9
:10219000A06AA17C4171A16AA06CFEF777FB17E0F1
:1021A0000120F4E7217C012912D100EB500181428A
:1021B00001D24FF0FF31A069884209D900904FF455
:1021C000014318220121206800F0F1FA0220207456
:1021D000206A48B1006838B1A169814204D96069B8
:1021E00000B90225676100E06661207A40B1009085
:1021F00048F2402319220121206800F0D8FA267203
:10220000012D05D00FE066602672A67486610AE093
:10221000207C022806D10096002318221946206847
:1022200000F0C5FA27742846F8BD0A79437C2BB123
:10223000012A07D042F080010172704722B142F0BA
:102240004001F9E749798174C16821B10021C16079
:102250000121416070470121F9E700002DE9FF41AC
:1022600098460A9F16460D46040015D0A5B19EB1AA
:102270002C21FDF7FFFF012300932846002103AA2C
:10228000042302F061FB50B10FB1288838606FF071
:102290000B0004B0BDE8F0814FF0FF30F9E71148C2
:1022A000C4E907401048606204F11C00A86003986C
:1022B000C0F30A02C10FC0F38070C4E904104FF0EC
:1022C0000000A0610BD009490090CDE9014140F226
:1022D000FF7341463046FEF7AFFA0028D9D10020FF
:1022E000D7E7000087490008DD4C00086523000897
:1022F000F8B50446002015460646A1B1216991B102
:10230000A16989B1204600F0BEFA0746211D0222CC
:102310006846FDF788FFBDF8000027F07041A16016
:10232000A081E6810120A661002818D1002D16D0D9
:10233000E1894FF47A722944B1FBF2F3B1FBF2F573
:1023400002FB1511E181A168054A1944A16091427F
:1023500005D352421144A160A189491CA181F8BD55
:10236000005C26050A79491D062A05D10A68026023
:102370008988818001218161704700002DE9FF4F2C
:1023800087B01646DDF85C90149F199D8A460400BC
:102390007ED0BAF1000FFBD0002EF9D0159800289E
:1023A000F6D016980028F3D05FEA0900F0D04FF479
:1023B000B6712046FDF75EFFC4E9006904A8CDE9C7
:1023C00000504FF0000B5B46CDF810B05146204650
:1023D000169A02F0B4FF002832D1FE268DF8146060
:1023E000012305AA0221159802F0A8FA38B12DB3ED
:1023F000159802F0F2F9022101EB00201DE09DF892
:102400001400F1380D2801D28DF814609DF81410D5
:102410004FF0010884F84C11C4F85081CDF818B081
:10242000434606AA4146159802F07CFA58B12DB1F0
:10243000159802F0D2F908EB002028606FF00B002D
:102440000BB0BDE8F08F069818EBE076C0F30A05F4
:1024500002D0607B28B125B1049888B1012807D14A
:1024600005E0049800260028F8D1CDF810800698E1
:1024700000904FF402431A220121206800F097F9DE
:102480006EB125B127F07F00A84200D13D4600E0A3
:1024900051E094F84C01F02803D8012002E0002517
:1024A000F5E70020217BCDE9001000232A464846AD
:1024B0001899FEF721FAC4F84801E0B3A6605E4619
:1024C000ADF808B0ADF80CB0012302AA03211598AD
:1024D00002F022FA012303AA0521159802F01CFA42
:1024E000BDF8080064214843C4F85C01BDF80C0045
:1024F0004FF47A714843C4F8600184F858610123AD
:1025000004F5AC720621159802F018FA0A98FF211A
:10251000C4F8540184F85911C4F81CA1C4F8186116
:102520001898A4F82001A4F82271A4F82451C4F842
:1025300028410E4900E016E0C4F82C110C490D4862
:10254000C4F83011C4E94E400B48C4F8400104F50A
:102550009471159802F006F904F59C71169802F032
:1025600001F900206CE74FF0FF3069E78B4A000863
:1025700011510008874900088D520008F0B48268A4
:10258000049E0125A2B39BB390F84C310BB1FE2BF6
:1025900039D3D0F860214AB1D0F868218A4201D9F4
:1025A000521A00E00022C0F8682192B1D0F8502100
:1025B000B2B90022477B11E000EB8204D4F8F0406E
:1025C00054B100EB020C24789CF810C114EA0C0FF3
:1025D00002D1C0F8505103E0521CD2B29742EBD85E
:1025E000FE2B10D3D0F864218A4202D9511A01E09F
:1025F0003BE00021C0F86411D0F85021002A00D03F
:1026000089B1F0BC7047D0F854110029F9D0002EE0
:10261000F7D023B190F85921FF2A07D013E0D0F862
:1026200050110029EDD0F0BC00F02AB84A7C32B13C
:1026300090F858211AB1FE2280F859210FE005EBDD
:10264000530280F85921D2B2FE2A08D0521E12F04D
:10265000FF0180F85911D4D180F85931E3E7897C22
:1026600090F858219142F7D0CBE70021C0F86811CB
:10267000C0F85051C0F86411FF2180F85911C0E72B
:102680002DE9FE4F0546D0F8480100F1050995F8FF
:102690004C0108B1FE2801D3012000E000200024F5
:1026A0008346A24635E0C4EBC40105EB810696F8EB
:1026B0001C80B7691036082F00D90827474505D96F
:1026C000CDF800A06946CDF804A000E04946C6F860
:1026D0000CA0D6F814C0304602AB3A46E047C6F824
:1026E0000C80474504D9424669464846FDF79BFDA4
:1026F00005EB8400D0F8F00040B1BBF1000F05D02D
:102700002A19017892F8102111430170641CC14408
:10271000E4B2687BA042C6D8C5F850A1D5F86011D4
:10272000C5F86811D5F85C11C5F86411D5F84811E1
:10273000686803B0BDE8F04FFEF7A8B810B5040014
:1027400034D06068FDF7B8FEE06803F0AFFCA06825
:1027500003F0ACFC606803F0A9FCE06B03F0A6FC9E
:10276000A06B03F0A3FC606B03F0A0FC206B03F0F4
:102770009DFCE06A03F09AFCA06A03F097FC606A93
:1027800003F094FCE06903F091FC206A03F08EFCF6
:10279000A06903F08BFC606903F088FC206903F0FA
:1027A00085FC2046BDE8104003F080BC10BDF0B5AC
:1027B0000028059E4DD0D40802F00705012707FA2E
:1027C00005F5EDB20A2C04D3052401254FF4C243CC
:1027D0001646044494F800C00CEA050C19B1BCF18B
:1027E000000F36D103E0BCF1000F32D0002343EAE2
:1027F000026CEFF3108243691A6372B600292178E4
:1028000001D0294300E0A9432170027F022A1CD392
:10281000437F591CC9B28A4200D80021827F8A4274
:1028200001D1C77711E08269042442F833C082697C
:1028300004EBC303D6504177027F90F82010521E5C
:10284000914202DA491C80F820104069006B80F345
:102850001088F0BD08B5014602226846FDF7E3FC8A
:10286000BDF8000008BD08B5014604226846FDF722
:10287000DAFC009808BD08B5014604226846FDF759
:10288000D2FC009808BD08B5014604226846FDF751
:10289000CAFC009808BD08B5014601226846FDF74C
:1028A000C2FC9DF8000008BDCA0801F00703012121
:1028B0009940C9B220B10A2A02D2805C084000D0F7
:1028C00001207047CA0801F0070301219940C9B2ED
:1028D00020B10A2A02D2805C084000D00120704753
:1028E0002DE9F0410F460026354640210120FDF735
:1028F000D3FC040072D040252C210120FDF7CCFC34
:10290000206100287DD06C254FF00808302101207F
:10291000FDF7C2FC6061002873D09C251021404661
:10292000FDF7BAFCA06100286BD04FF48E755021E2
:102930000120FDF7B1FCE061002862D04FF4B678C9
:10294000454611200821FDF7A7FC2062002858D039
:102950004FF4FA75A8210120FDF79EFC6062E8B3F0
:102960004FF427752C210120FDF796FCA062A8B337
:102970004FF4327560210120FDF78EFCE06268B3F0
:102980004FF44A754FF4BA710420FDF785FC2063BB
:1029900020B340F6F80541460420FDF77DFC606356
:1029A000E0B140F6A8650C210120FDF775FCA0639D
:1029B000A0B140F6B46574210120FDF76DFCE06321
:1029C00060B140F6287538210120FDF765FC606094
:1029D00020B10C214FF47665112000E011E0FDF7E5
:1029E0005BFCA06068B141F22C0518210920FDF7BD
:1029F00053FCE06028B1012041F204152646206016
:102A000002E02046FFF79AFE07B13D603046BDE880
:102A1000F0812DE9FF4F044689B04FF000080069AE
:102A2000FEF7A0FC8DF820007F2816D0052814D0D2
:102A3000002083466068FDF7AFFDE06BFEF748FBC2
:102A400008B14FF00108D4E900500027468AE06B36
:102A500030B1007C012802D002E00120E9E7012723
:102A6000E06928B1C16819B1097809B1012100E014
:102A7000002189460DB1002009E01B21FFF714FF5A
:102A800020B91C21E069FFF70FFF00B10120824649
:102A90000DB1002003E01821E069FFF705FF0C9954
:102AA0000022CDE90621CDE904A940F203313140ED
:102AB00000D00121C6F38003CDE90220CDE9003129
:102AC0000DB1002201E09DF920203B46A06B0B993F
:102AD000FEF7C2F9206818B140460DB0BDE8F08F8E
:102AE000DDE90B235946E069FDF7B4FFDDE90B236F
:102AF00008A92069FEF7B4FC06469DF920007F284E
:102B000020D005281ED000270025616AC5EBC5002E
:102B100000EB4000DDE90B2301EBC0003946FEF776
:102B2000E3FF6D1C15F0FF05EFD0DDE90B233946FF
:102B30006069FEF701F9A06A39460B9AFFF7D8FBE6
:102B40003046CAE70127DFE72DE9F843054600686C
:102B5000984691460E46002817D12869FEF702FCD8
:102B6000052814D0002700240096C4EB4410296BDC
:102B700000EB400001EB80003B4642464946FEF731
:102B8000FFFD641C24B2042CEEDBBDE8F8830127B2
:102B9000E9E72DE9F0410446006816460F46002596
:102BA000C8B92069FEF7DEFB7F280DD005280BD0C1
:102BB000002133463A46E06AFFF7C2FA58B10128CD
:102BC00004D0022807D103E00121F2E7012502E049
:102BD0006068FDF7FDFB2846BDE8F0812DE9F8436C
:102BE00005460068984691460E46002815D128698A
:102BF000FEF7B8FB052812D00027002400965B20C2
:102C0000696B604301EB80003B4642464946FFF753
:102C1000B5FC641C24B2042CF0DBBDE8F88301276A
:102C2000EBE7000000B589B018220D496846FDF7B2
:102C3000FAFA0C4808AB06AA0068007800F5C060F4
:102C4000009009484188491C418008A0D0E9001043
:102C5000CDE906106946074800F021F809B000BD2B
:102C6000F86500081400002000000020400020004B
:102C70000000000040040020704790F82020012A46
:102C800007D0022A05D0416A41F480214162012027
:102C9000704700684269114341610020704770B479
:102CA00090F82040D0F800C0DCF808C0012C08D013
:102CB000022C06D0416A41F48021416270BC01209F
:102CC00070470CF080640CF000652C4302D11CF0BE
:102CD000805F5FD0CCF3016CBCF1020F06D9416A72
:102CE00041F40001416270BC01207047012404FAE4
:102CF0000CF41C608B684FF4C0749BB1CD6804EB7E
:102D00000C162B434D6843EAC5030568AB514FF4DD
:102D1000C273066803EB0C130D69F550097D012998
:102D200009D00DE00D88CB6804EB0C1643EA45533F
:102D30000568AB51EBE70168CD5845F48075CD507F
:102D40001179D379557941EA036193791B0443EAF8
:102D5000052319434FF4C675036805EB0C1559514B
:102D60001178D37841EA0361937852781B0443EADF
:102D7000022211434FF4C473026803EB0C13D150C9
:102D8000016804EB0C100A5842F001020A5070BCB2
:102D900000207047416A41F40011416270BC01207B
:102DA0007047000090F82020012A07D0022A05D0A1
:102DB000416A41F480214162012070474248D0F8C5
:102DC000002242F00102C0F80022D0F8002222F4D2
:102DD0007C52C0F80022D0F800224B6A42EA03225B
:102DE000C0F800220A7D012302F01F0203FA02F25A
:102DF000D0F81C329343C0F81C32CB69D3B9D0F859
:102E00000C329343C0F80C32B1F80CC04B686CF331
:102E10001F43D1F814C000EBCC0CCCF84032B1F811
:102E200008C00B686CF31F43D1F814C000EBCC0C46
:102E3000CCF84432CB69012B1AD1D0F80C321343B1
:102E4000C0F80C32B1F800C04B686CF31F43D1F8E6
:102E500014C000EBCC0CCCF84032B1F808C0CB6801
:102E60006CF31F43D1F814C000EBCC0CCCF8443207
:102E70008B697BB1D0F804321343C0F804320B697C
:102E800073B1D0F814321343C0F81432096A01291F
:102E90000CD010E0D0F804329343C0F80432EEE7CF
:102EA000D0F814329343C0F81432EFE7D0F81C1274
:102EB0001143C0F81C12D0F8001221F00101C0F833
:102EC000001200207047000000640040704710B4FA
:102ED00090F820C0BCF1010F09D0BCF1020F06D060
:102EE000416A41F48021416210BC0120704739B130
:102EF000D0F800C0DCF810C01CF0030F7DD006E055
:102F0000D0F800C0DCF80CC01CF0030F7BD04FF4ED
:102F1000D87C04680CEB011C54F80C4004F0040449
:102F20009460002C7DD0046854F80C40E408546090
:102F3000046854F80CC00CF0020CC2F80CC04FF43A
:102F4000DA7C04680CEB011C54F80C4004F00F040C
:102F50001461046854F80C40C4F3072494610468B5
:102F600054F80CC04FEA1C4CC2F814C04FF4DC7289
:102F7000D0F800C002EB01125CF802C083F800C078
:102F8000D0F800C05CF802C04FEA1C2C83F801C0E6
:102F9000D0F800C05CF802C04FEA1C4C83F802C0B5
:102FA000D0F800C05CF80220120EDA704FF4DE7226
:102FB000D0F800C002EB01125CF802C083F804C034
:102FC000D0F800C05CF802C04FEA1C2C83F805C0A2
:102FD000D0F800C05CF802C04FEA1C4C83F806C071
:102FE000D0F800C05CF80220120EDA71F9B1006866
:102FF000016941F02001016102E00BE003E010E013
:1030000010BC00207047416A41F40011416210BCBD
:1030100001207047416A41F40011416210BC012057
:103020007047046854F80C40640D146080E7006831
:10303000C16841F02001C160DEE70246002092F83D
:103040002010012901D002290FD111688A6812F0DD
:10305000806F00D001208A6812F0006F00D0401C01
:10306000896811F0805F00D0401C70472DE9F05F47
:103070000546002428684669D0F804908768D0F88F
:103080000CA0D0F810B0D0F8188016F0010F54D072
:1030900017F0010F17D00121816017F0020F03D044
:1030A000284600F0D1FA0EE017F0040F02D04FF4DA
:1030B000006408E017F0080F02D04FF4805402E0DB
:1030C000284600F0C0FA17F4807F19D029684FF421
:1030D0008070886017F4007F03D0284600F0BEFAA5
:1030E0000EE017F4806F02D044F4005408E017F4A7
:1030F000006F02D044F4804402E0284600F0ACFAAD
:1031000017F4803F19D029684FF48030886017F495
:10311000003F03D0284600F0ABFA0EE017F4802FF2
:1031200002D044F4004408E017F4002F02D044F425
:10313000803402E0284600F099FA16F0080F07D014
:103140001AF0100F04D044F4007429681020C860ED
:1031500016F0040F4FF0080707D01AF0080F04D03C
:103160002868C760284600F0FBF916F0020F07D068
:103170002868C06810F0030F02D0284600F0F1F96B
:1031800016F0400F07D01BF0100F04D044F48064F9
:1031900029681020086116F0200F07D01BF0080FD7
:1031A00004D028680761284600F0DFF916F0100FF8
:1031B00007D02868006910F0030F02D0284600F0FD
:1031C000D5F916F4003F08D019F0100F05D0296882
:1031D00010204860284600F0CDF916F4803F07D053
:1031E00019F0080F04D028684760284600F048FA14
:1031F00016F4004F4AD019F0040F44D016F4807F23
:1032000004D018F0010F01D044F0010416F4007F3F
:1032100004D018F0020F01D044F0020416F4806FBD
:1032200004D018F0040F01D044F0040416F4006F29
:1032300029D018F0700F26D008F07000402815D063
:1032400006DC102809D020280AD0302816D10AE040
:1032500050280ED0602811D10EE044F008040DE093
:1032600044F010040AE044F0200407E044F0400475
:1032700004E044F0800401E044F48074286881692B
:1032800021F070018161296804204860002C05D07C
:10329000686A204368622846FFF718FEBDE8F09F81
:1032A00070B50446002C03D094F8200010B104E05F
:1032B000012070BD204600F0A7F82068016841F0A9
:1032C0000101016000F0FCFA0546206840684FF0FB
:1032D000050610F0010F11D100F0F2FA401B0A2888
:1032E00007D9606A40F40030606284F820600120F1
:1032F00070BD2068406810F0010FEDD020680168B3
:1033000021F00201016000F0DBFA05462068406808
:1033100010F0020F11D000F0D3FA401B0A2807D991
:10332000606A40F40030606284F82060012070BD63
:103330002068406810F0020FEDD1207E01283FD0B8
:103340002068016821F080010160607E01283DD085
:103350002068016821F040010160A07E01283BD077
:103360002068016821F020010160E07E012839D049
:103370002068016841F010010160207F012837D0EA
:103380002068016821F008010160607F012835D0C4
:103390002068016821F004010160E168A0686269A9
:1033A00008432169114308436168491E08432168A5
:1033B000C86100206062012084F82000002070BDF8
:1033C0002068016841F080010160BEE72068016863
:1033D00041F040010160C0E72068016841F0200130
:1033E0000160C2E72068016821F010010160C4E7B4
:1033F0002068016841F008010160C6E720680168A3
:1034000041F004010160C8E7F0B587B0044614211B
:103410006846FCF72FFF4D494D4ADFF82CE108685C
:10342000D4F800C04A4B0324022509261032002795
:10343000401CF44539D10860012807D1106840F0DC
:1034400000701060106800F000700590186840F07F
:103450000800186018688DE8B00000F00800CDE999
:103460000460694603943B4800F00CF900221146C1
:10347000132000F095FA132000F084FA0022114680
:10348000142000F08DFA142000F07CFA002211467E
:10349000152000F085FA152000F074FA002211467C
:1034A000162000F07DFA162049E0DFF8ACE0F44584
:1034B00047D1D2F800C04CF0806CC2F800C0D2F8FE
:1034C00000C001280CF0806CCDF814C0086007D152
:1034D000106840F000701060106800F000700590F7
:1034E000186840F0020018601868694600F0020091
:1034F000059060208DE8A100CDE90346174800F053
:10350000C1F8002211463F2000F04AFA3F2000F0A7
:1035100039FA00221146402000F042FA402000F023
:1035200031FA00221146412000F03AFA412000F021
:1035300029FA00221146422000F032FA422000F01F
:1035400021FA07B0F0BD0000006400400400002034
:1035500030380240000C0240006800400004024085
:1035600070470022114602F09BBE704700220121E5
:1035700002F096BE704770B5044694F8200001280A
:1035800005D0606A40F400206062012070BD022016
:1035900084F820002068016821F00101016000F03A
:1035A0008FF905462068406810F0010F12D000F036
:1035B00087F9401B0A2808D9606A40F4003060622D
:1035C000052084F82000012070BD2068406810F0BC
:1035D000010FECD10020606270BD70B5044694F814
:1035E0002000022805D0606A40F48010606201204B
:1035F00070BD2068016841F00101016000F060F9D0
:1036000005462068406810F0010F12D100F058F90B
:10361000401B0A2808D9606A40F400306062052027
:1036200084F82000012070BD2068406810F0010F70
:10363000ECD02068016821F002010160012084F8CB
:103640002000002070BD7047024801210068FCF78F
:103650000BBF00002000002070470000024802213C
:103660000068FCF701BF0000200000207047000048
:10367000024804210068FCF7F7BE0000200000208B
:10368000704700002DE9F84F0022DFF818A2DFF89C
:1036900010924FF0010E03274FF00F08AAF1040B10
:1036A0000EFA02FC0B6803EA0C0363457DD10C792A
:1036B00004F00304012C01D0022C14D185685400BD
:1036C00007FA04F6B543CE6806FA04F42C43846086
:1036D000446824EA0C0C0C79C4F30014944044EAC6
:1036E0000C0CC0F804C0D1F804C037EA0C0C0CD0A4
:1036F000C4684FEA420C07FA0CF5AC438D6805FA32
:103700000CFC4CEA040CC0F80CC091F804C00CF09E
:10371000030CBCF1020F12D14FEAD20C00EB8C0467
:10372000256A4FEA427C4FEADC6C08FA0CF6B54396
:103730000E6906FA0CFC4CEA050CC4F820C00468BB
:103740004FEA420C07FA0CF5AC430D7905F003057E
:1037500005FA0CFC4CEA040CC0F800C0D1F804C017
:103760001CF4403F7DD0D9F800C04CF4804CC9F81F
:1037700000C0D9F800C00CF4804CCDF800C022F095
:10378000030C0CF1804505F59835D5F808C8940769
:10379000240F08FA04F62CEA0606A0F1804CBCF5CA
:1037A000003C64D0A0F1804C00E05AE0BCF5013C44
:1037B00060D0A0F1804CBCF5023C5ED0A0F1804C02
:1037C000BCF5033C5CD0A0F1804CBCF5043C5AD065
:1037D000A0F1804CBCF5053C58D0A0F1804CBCF564
:1037E000063C56D0A0F1804CBCF5073C54D04FF0BD
:1037F000080C0CFA04FC4CEA060CC5F808C8DAF808
:1038000000C02CEA030C4C6814F4801F01D04CEA71
:10381000030CCAF800C0244CD4F800C02CEA030CF6
:103820004D6815F4001F01D04CEA030CC4F800C029
:10383000DBF800C02CEA030C4C6814F4003F01D004
:103840004CEA030CCBF800C0184CD4F800C02CEAAA
:10385000030C4D6815F4803F01D04CEA030CC4F80A
:1038600000C0521C102AFFF41BAFBDE8F88F4FF0C8
:10387000000CBEE74FF0010CBBE74FF0020CB8E7BD
:103880004FF0030CB5E74FF0040CB2E74FF0050C16
:10389000AFE74FF0060CACE74FF0070CA9E70000CC
:1038A00044380240083C01400C3C0140003C0140CF
:1038B000002A01D0816170470904816170470000CE
:1038C00001488068704700000004002002488168B9
:1038D00002781144816070470004002010B50B4845
:1038E000016841F400710160016841F48061016088
:1038F000016841F480710160032000F085F80F2019
:1039000000F006F800F026F8002010BD003C024050
:1039100070B504460D4D4FF47A712878B1FBF0F084
:103920000B490968B1FBF0F000F0F0FB08B1012091
:1039300070BD102C07D200222146501E00F030F836
:103940006C60002070BD012070BD000000040020EC
:10395000080000200A4808B5016841F48041016070
:10396000006800F4804000900548001F016841F0A5
:1039700080510160006800F08050009008BD000098
:103980004438024000280ADB00F01F01012202FA3D
:1039900001F14009800000F1E020C0F800117047FB
:1039A00010B4184B1B68C3F30223C3F1070CBCF11E
:1039B000040F01D94FF0040C1C1D072C01D2002369
:1039C00000E0DB1E012404FA0CFCACF1010C0CEA53
:1039D0000101994004FA03F35B1E1A4011430028C9
:1039E00006DB00F1E020090180F8001410BC7047EC
:1039F00000F00F0000F1E020090180F8141D10BC58
:103A0000704700000CED00E000F00700064A116866
:103A10004FF6FF03194041EA002040F0FD7040F0EE
:103A200080601060704700000CED00E0BFF34F8F26
:103A300005480168054A01F4E06111430160BFF3E4
:103A40004F8F00BFFDE700000CED00E00400FA0519
:103A50002DE9F04704460D46002C13D0DFF85491B1
:103A6000D9F80000EFB200F00700A8420DD289F8A3
:103A70000070D9F8000000F00700A84205D001202E
:103A8000BDE8F0870120BDE8F08720684A4E10F0BD
:103A9000020F14D010F0040F03D0306840F4E0504F
:103AA0003060207810F0080F03D0306840F4604098
:103AB00030603068A16820F0F00008433060207862
:103AC00010F0010F3ED060683C49012808D0022860
:103AD0000DD003280BD0096811F0020F28D00AE09E
:103AE000096811F4003F06D10120BDE8F08709689C
:103AF00011F0007F19D0316821F0030108433060D4
:103B0000FFF7DEFE80463068616800F00C00B0EB25
:103B1000810F17D041F2883AFFF7D2FEA0EB0800E0
:103B2000504508D90320BDE8F0870120BDE8F087A3
:103B30000120BDE8F0873068616800F00C00B0EB50
:103B4000810FE9D1D9F8000000F00700A8420AD996
:103B500089F80070D9F8000000F00700A84202D0F0
:103B60000120BDE8F087207810F0040F05D0306800
:103B7000E16820F4E05008433060207810F0080F2E
:103B800006D03068216920F4604040EAC10030600E
:103B900000F042F831680A4AC1F30311515CC84091
:103BA0000849086008480068FFF7B2FE0020BDE839
:103BB000F0870000003C0240083802400038024014
:103BC0001066000808000020040400200148006876
:103BD000704700000800002000B5FFF7F7FF044918
:103BE0000968044AC1F38221515CC84000BD00004D
:103BF000083802402066000800B5FFF7E7FF0449D7
:103C00000968044AC1F34231515CC84000BD00005C
:103C1000083802402066000810B51748006810F008
:103C20000C01164816D0164B042912D0082911D1C0
:103C3000144C216801F03F02216811F4800F0AD072
:103C40002068C0F38810A0FB03010023FCF7BAFA38
:103C500009E0184610BD21680023C1F38811A1FBBB
:103C60000001FCF7AFFA2168C1F30141491C49008A
:103C7000B0FBF1F010BD0000083802400024F40051
:103C800040787D01043802402DE9F84F0446002CAD
:103C900012D02078FB4E10F0010FA6F1040563D07E
:103CA000301D016801F00C0104290CD0006800F0FF
:103CB0000C00082803D010E00120BDE8F88F306820
:103CC00010F4800F09D0286810F4003F4CD06068D1
:103CD000002849D10120BDE8F88F6068B0F5803F29
:103CE00014D0B0F5A02F16D0286820F480302860BA
:103CF000286820F480202860606810B3FFF7E0FD9A
:103D00000746286810F4003F0ED02DE0286840F4E4
:103D100080302860F0E7286840F480202860286818
:103D200040F480302860E7E7FFF7CAFDC01B642835
:103D300002D90320BDE8F88F286810F4003FF3D0C3
:103D400012E0FFF7BDFD0746286810F4003F0BD0D6
:103D5000FFF7B6FDC01B642802D90320BDE8F88F29
:103D6000286810F4003FF3D12078C74F10F0020FFD
:103D70004FF0000957D0C548016811F00C0F14D05E
:103D8000006800F00C00082803D1306810F4800FA0
:103D90000BD0E06880B301203860FFF791FD8046CA
:103DA000286810F0020F12D01EE0286810F0020FF1
:103DB00005D0E068012802D00120BDE8F88F28680E
:103DC000216920F0F80040EAC10028602BE0FFF7ED
:103DD00077FDA0EB0800022802D90320BDE8F88F88
:103DE000286810F0020FF2D02868216920F0F8004E
:103DF00040EAC100286016E0FFE7C7F80090FFF72F
:103E00005FFD8046286810F0020F0CD0FFF758FDC8
:103E1000A0EB0800022802D90320BDE8F88F28682B
:103E200010F0020FF2D1207810F0080F35D098482A
:103E3000DFF860A26169C1B101210160FFF740FDB7
:103E40008046DAF8000010F0020F26D1FFF738FDA7
:103E5000A0EB0800022802D90320BDE8F88FDAF8A9
:103E6000000010F0020FF1D017E0C0F80090FFF74B
:103E700027FD8046DAF8000010F0020F0DD0FFF7A2
:103E80001FFDA0EB0800022802D90320BDE8F88F2F
:103E9000DAF8000010F0020FF1D1207810F0040FD2
:103EA00071D04FF000087C48006810F0805F0AD1A4
:103EB0007948016841F080510160006800F080504D
:103EC00000904FF00108DFF8D4B1DBF8000010F4E7
:103ED000807F1BD1DBF8000040F48070CBF800003D
:103EE000FFF7EEFC8246DBF8000010F4807F0DD176
:103EF000FFF7E6FCA0EB0A00022802D90320BDE888
:103F0000F88FDBF8000010F4807FF1D0A068DFF8B4
:103F100090B1012818D005281DD0DBF8000020F052
:103F20000100CBF80000DBF8000020F00400CBF823
:103F30000000A06840B3FFF7C3FC8246DBF8000036
:103F400010F0020F14D03EE0DBF8000040F001005A
:103F5000CBF80000EDE7DBF8000040F00400CBF800
:103F60000000DBF8000040F00100CBF80000E0E7C3
:103F7000FFF7A6FCA0EB0A0141F28830814204D988
:103F80000320BDE8F88F26E005E0DBF8000010F024
:103F9000020FEDD017E0FFF793FC8246DBF800003C
:103FA00010F0020F0FD0FFF78BFCA0EB0A0141F2DB
:103FB0008830814202D90320BDE8F88FDBF8000089
:103FC00010F0020FEFD1B8F1010F04D132480168AF
:103FD00021F080510160A069F0B32C4909684FF0CD
:103FE000FF3801F00C01082966D0022810D0C7F86C
:103FF0006090FFF765FC0446286810F0007F2BD026
:10400000FFF75EFC001B022851D90320BDE8F88FA2
:10401000C7F86090FFF754FC8146286810F0007FD5
:104020000CD0FFF74DFCA0EB0900022802D90320B9
:10403000BDE8F88F286810F0007FF2D1216AE069AE
:10404000A26A0843616A08EB5202890141EA02410F
:10405000084394F82C1000E055E040EA016030601D
:1040600001203866FFF72CFC0446286810F0007F1A
:1040700049D1FFF725FC001B022813D90320BDE816
:10408000F88F000004380240000047420838024020
:10409000800E4742743802404038024000700040B1
:1040A00070380240286810F0007FE2D02BE02868CA
:1040B00010F0007FA4D126E0012822D03068E26908
:1040C00000F4800191421AD1226A00F03F0191422E
:1040D00015D147F6C071626A0140B1EB821F0ED163
:1040E000A26A00F4403108EB5202B1EB024F06D154
:1040F00094F82C1000F07060B0EB016F03D0012039
:10410000BDE70120BBE70020B9E70000401EB0F189
:10411000807F01D3012070474FF0E0214861044ABD
:10412000F02010700020886107200861002070478F
:1041300023ED00E07047704730B490F83C20012A2E
:1041400044D0012480F83C40022280F83D200268DF
:10415000D2F804C093682CF0700C0D6845EA0C0C82
:10416000C2F804C00268A2F1804CBCF5803C20D0AB
:10417000B2F1804F1DD0A2F1804CBCF5806C18D0FC
:10418000A2F1804CBCF5006C13D0A2F1804CBCF5C0
:10419000406C0ED0A2F1804CBCF5823C09D0A2F15B
:1041A000804CBCF5A03C04D0A2F1804CBCF5C05CB6
:1041B00004D123F0800349681943916080F83D40A1
:1041C000002180F83C1030BC0020704730BC022039
:1041D000704710B50446002C03D094F83D0010B190
:1041E00007E0012010BD002084F83C00204600F0CC
:1041F0001FF8022084F83D00211D206801F0D6F947
:10420000012084F8460084F83E0084F83F0084F8DA
:10421000400084F8410084F8420084F8430084F8A8
:10422000440084F8450084F83D00002010BD0000E3
:1042300008B500680B49884212D10B48016841F06B
:10424000100101600068002200F01000009011468B
:104250003620FFF7A5FBBDE808403620FFF792BBEC
:1042600008BD0000001000404038024090F83D10AA
:10427000012901D001207047022180F83D1001681A
:10428000CA6842F00102CA600068A0F18041B1F53D
:10429000803126D0B0F1804F23D0A0F18041B1F51C
:1042A00080611ED0A0F18041B1F5006119D0A0F16C
:1042B0008041B1F5406114D0A0F18041B1F5823167
:1042C0000FD0A0F18041B1F5A0310AD0A0F180411A
:1042D000B1F5C05105D0016841F001010160002035
:1042E0007047816801F007010629F8D0016841F0A4
:1042F00001010160F3E7704770B504462068016969
:104300004FF0000511F0020F17D0C16811F0020F35
:1043100013D0E91E0161012020772068806910F028
:10432000030F03D02046FFF7E6FF05E0204600F02C
:104330009DF8204600F09BF825772068016911F070
:10434000040F18D0C16811F0040F14D06FF00401ED
:104350000161022020772068806910F4407F03D03B
:104360002046FFF7C8FF05E0204600F07FF8204612
:1043700000F07DF825772068016911F0080F18D04A
:10438000C16811F0080F14D06FF00801016104201A
:1043900020772068C06910F0030F03D02046FFF794
:1043A000AAFF05E0204600F061F8204600F05FF823
:1043B00025772068016911F0100F18D0C16811F03D
:1043C000100F14D06FF010010161082020772068D1
:1043D000C06910F4407F03D02046FFF78CFF05E052
:1043E000204600F043F8204600F041F82577206889
:1043F000016911F0010F09D0C16811F0010F05D05A
:104400006FF001010161204600F032F82068016977
:1044100011F0800F09D0C16811F0800F05D06FF046
:10442000800101612046FFF785FE2068016911F0D7
:10443000400F09D0C16811F0400F05D06FF0400166
:104440000161204600F024F82068016911F0200F76
:104450000BD0C16811F0200F07D06FF0200101616F
:104460002046BDE87040FFF766BE70BD70477047DC
:10447000054A1188491C118004490968496881422C
:1044800001D101F04BBC7047000000201400002057
:10449000704770B50446002C04D094F83D00002508
:1044A00010B106E0012070BD84F83C50204600F0B9
:1044B00023F8242084F83D002068C16821F40051CD
:1044C000C160204601F0D8F82068016921F49041CC
:1044D00001612068416921F02A0141612068C168B9
:1044E00041F40051C1602564202084F83D0084F827
:1044F0003E00002070BD000010B586B004461421B7
:104500006846FBF7B7FE14492068884221D113485A
:10451000016841F010010160006800F01000059092
:104520000E481438016841F00101016000686946D5
:1045300000F0010005904FF4C0600090022001904F
:104540000120029003200390072004900448FFF705
:1045500099F806B010BD0000001001404438024038
:10456000000002402DE9F84304460E4615461F465A
:1045700094F83D00202802D00220BDE8F883C6B19F
:10458000BDB194F83C00012816D0012084F83C000D
:104590004FF00009C4F84090212084F83D00FFF757
:1045A0008FF98046A584E584A068B0F5805F06D0C9
:1045B00007E00120BDE8F8830220BDE8F883206908
:1045C00080B13546002684F83C90E08CB8B1434673
:1045D000002280212046009701F0CCF820B1032072
:1045E000BDE8F8830025EEE7A5B12168287848608A
:1045F0006D1CE08C401EE084E08C0028E7D143462F
:10460000002240212046009701F0B4F848B1032071
:10461000BDE8F88330882168C0F308004860B61C04
:10462000E7E7202084F83D000020BDE8F883FEE79E
:10463000104810B50E4901601521416000214FF06E
:104640008072C0E902124FF4402202614FF48012DE
:1046500042610176012242768176C1760277427705
:10466000FEF71EFE002801D072B6FEE710BD000066
:104670000064004018040020104810B50E49016085
:104680001521416000214FF08072C0E902124FF401
:10469000402202614FF4801242610176012242768B
:1046A0008176C17601774177FEF7FAFD002801D0C7
:1046B00072B6FEE710BD0000006800404004002014
:1046C000F0B587B014216846FBF7D4FD22480025D9
:1046D000016841F080010160016801F080010591ED
:1046E000016841F010010160016801F010010591BD
:1046F000016841F001010160016801F001010591CB
:10470000016841F008010160016801F008010591AC
:10471000016841F0020101600068104F00F00200E2
:104720004FF460460590002231463846FFF7C0F846
:10473000F010CDE900050124694602943846FEF7E1
:10474000A1FFCDE9006469463846CDE90245FEF790
:1047500099FF07B0F0BD0000303802400010024061
:10476000FEE7FEE710B1816000207047052070472A
:1047700070B520B3028812B300230DE01A19520855
:10478000456802EB420605EB86052E888E4201D174
:10479000284670BD04D90AB1A2F1010294B202E028
:1047A00002F1010293B2A342E8D3A34207D14068C9
:1047B00003EB430200EB820002888A42E9D000202A
:1047C00070BD002800D000887047002800D0008805
:1047D0007047002800D000887047002800D000886B
:1047E0007047002800D00088704730B587B01C465D
:1047F000154601236A4600F01FF838B9009959B1EF
:10480000029949B115B1A94200D00B2004B1207022
:1048100020B1002007B030BD0920F7E70098F9E784
:104820001A2801D302487047024951F82000704706
:104830004700040628660008F0B568B145685DB118
:1048400042B1C47804F00F04012C07D0022C0CD024
:10485000032C29D00920F0BD0520F0BDA9BB2E797D
:1048600016742E681660AD680DE084788C4238D9D5
:10487000A1B16E7A16746C681CB12F694E1E07FBCD
:1048800006441460ED6895608568002405B153B353
:104890001D4B53611D4B5460936130E02E7A1674AA
:1048A0002D6815600125EEE70026344687780FE075
:1048B00004EB440C05EB8C0C9CF804C08C4505D132
:1048C00004EB440405EB840604E00AE0641CE4B253
:1048D000A742EDD82EB17579157435681560B568A5
:1048E000D1E70E20F0BD6B6803B9094B53618368B3
:1048F0009B6803B9074B9361806800685060D4607F
:1049000051740020F0BD000087490008554B000895
:1049100083490008514B000808B50093022300F0BA
:1049200013F808BD08B50093042300F00DF808BD86
:1049300008B50093042300F007F808BD08B50093FC
:10494000012300F001F808BDF0B589B01C460E9BAC
:1049500015000DD000226E4607923246FFF76CFF1D
:10496000002803D10298A04204D00B2009B0F0BD6A
:104970000920FBE7059F07AB224629463046B8478A
:10498000F4E7022070472DE9F0411E4617460B461A
:1049900078B173B16EB18468016819B1C26800253D
:1049A0002AB902E00E20BDE8F081BC420FD9A24234
:1049B00001D30920F7E7A41A1144BC4205D93C46AB
:1049C00022444FF0FF35C26001E00022C26022465F
:1049D0001846FBF728FC28463460E4E738B51D4646
:1049E00010B309B305B3042A01D2437CE3B9DAB1A9
:1049F0004468237F022B17D3407C40B194F82020D9
:104A0000904220D8627F121A0CD51A440EE0084654
:104A100094F820108DF8001001226946FBF703FC82
:104A200001200DE0934201DC092038BD0846A16950
:104A300051F83210009104226946FBF7F4FB042080
:104A40002860002038BD192038BD38B51C4650B14B
:104A5000437C43B939B1042A05D324B14068426A82
:104A60001AB1002203E0092038BD4FF0004290F84F
:104A70002830084680331343042269460093FBF72D
:104A8000D2FB04202060002038BDF8B51F460E463A
:104A90000446FFF778FF05001FD1607C01281CD178
:104AA0003868042819D164683046FDF7DCFE4105FA
:104AB000490D08D0B4F8222122F07F038B4202D1A5
:104AC0006FF30F001043A16809B940F00040009057
:104AD000042269463046FBF7A6FB2846F8BD70B5B0
:104AE00014461D460A000CD058B155B18068A0424A
:104AF00000D2044621461046FBF7BCFB00202C6088
:104B000070BD092070BD0FB581B003AA00930423C6
:104B100000F002F805B000BDF0B589B007460020EE
:104B20001C4616466D4607900E9B2A463846FFF7F0
:104B300083FE002803D10298A04202D00B2009B0C6
:104B4000F0BD069F07AB224631462846B847F6E738
:104B5000022070472DE9F0411E46174678B171B129
:104B60006EB1846803681BB1C26800252AB902E0EF
:104B70000E20BDE8F081BC420FD9A24201D309202A
:104B8000F7E7A41A1344BC4205D93C4622444FF02F
:104B9000FF35C26001E00022C260BC4201D20C209D
:104BA000E7E722461846FBF73EFB28463460E0E77D
:104BB00038B51D4604000DD0607C58B951B1012AAA
:104BC00008D13DB16846FBF72EFB9DF8000018B1F7
:104BD0000F2038BD092038BD6068002180F8201002
:104BE00001202860084638BD2DE9FE4F9A469346BD
:104BF0008846070049D0787C98BBB8F1000F44D0B4
:104C0000BBF1040F41D1BAF1000F3ED0414604225E
:104C100068467C68FBF707FB00982E49C0F30A053D
:104C2000C0F38076084219D17F2D17D9A5F2011063
:104C30007F2813D9A5F281507E280FD980387E288D
:104C40000CD9DF381F2809D9B5F5E06F06D8606A9E
:104C500040B13EB1B4F84400A84203D00F20BDE8F3
:104C6000FE8F12E0B4F844004FF00009A8421ED0B5
:104C70001949CDF80090CDE90141218E40F2FF7332
:104C80002A46E06AFBF7D8FD08B10920E7E7607C17
:104C900000B10120CDE90009B4F84C1000232A46E8
:104CA000A06CFBF729FEA06280B1A4F844506662B4
:104CB0001EB184F81290C4F8189003B053465A46B7
:104CC00041463846BDE8F04FFFF744BFC4F8249092
:104CD000DBE7000000F8FFBF2B2200082DE9F041C0
:104CE0001F46904604000E4626D0607C20BB1EB3B3
:104CF000B8F1040F20D1FFB108466568FDF7C3FD88
:104D00000146154AC0F30A00114212D17F2810D97A
:104D1000A0F201127F2A0CD9A0F281527E2A08D972
:104D2000803A7E2A05D9DF3A1F2A02D9B0F5E06F12
:104D300004D90F20BDE8F0810920FBE7C80F2861E6
:104D4000C1F3807068613B46424631462046BDE86B
:104D5000F041FFF7FFBE000000F8FF3F2DE9F843E8
:104D6000050098466E6891460F461CD0DFB16C7CFA
:104D7000CCB1307A844216D8B9F1040F13D1B8F10E
:104D8000000F10D004226846FBF74DFA0098641E0D
:104D9000C0F3074283B2E1B23046FBF77FFF20B198
:104DA0000820BDE8F8830920FBE701B043464A46E6
:104DB00039462846BDE8F043FFF7CCBE2DE9F8435D
:104DC0001F46904604000D461CD0607CD0B9CDB182
:104DD000B8F1020F16D1AFB1022268466668FBF740
:104DE00022FABDF800004FF47A714843B060002009
:104DF000F06001B03B46424629462046BDE8F043FC
:104E0000FFF7A8BE0920BDE8F8832DE9FC479946C5
:104E1000924606000F4616D0707CA0B99FB1BAF139
:104E2000010F10D1B9F1000F0DD00122684674684E
:104E3000FBF7F9F99DF80050012D01D0F02D04D9B0
:104E40000F20BDE8FC870920FBE7E069006808B196
:104E50001720F6E74FF000080DB1012000E0002018
:104E6000CDE90008B4F84420B4F84C100023A06C3D
:104E7000FBF742FDA06248B1657402B04B46524652
:104E800039463046BDE8F047FFF764BEC4F82480D9
:104E9000D9E700002DE9FC5F9A46934605000E46CF
:104EA00014D09EB1BAF1000F10D0687C6C6878B154
:104EB0000127DFF80C814FF4E06901280AD00228AD
:104EC00032D0032862D00E20BDE8FC9F0920FBE70A
:104ED0000420F9E70846FDF7CEFC0146B4F84C2063
:104EE000C0F30A00C2F30A0307EBE17211EA080FEC
:104EF0005AD1AAB122690AB1984255D17F2853D913
:104F0000A0F201127F2A4FD9A0F281527E2A4BD9FA
:104F1000803A7E2A48D9DF3A1F2A45D9484543D8E6
:104F2000206DCDE9001028E00846FDF7A4FC0146FD
:104F3000B4F85020C0F30A00C2F30A0207EBE17391
:104F400011EA080F30D1ABB123690BB190422BD1DC
:104F50007F2829D9A0F201127F2A25D9A0F28152F7
:104F60007E2A21D9803A7E2A1ED9DF3A1F2A1BD9F0
:104F7000484519D8E06CCDE90001B4F84A30B4F8DE
:104F800048202046616CFCF76BFD0FE0BBF1010F80
:104F900001D00B2098E701226846FBF744F99DF801
:104FA0000000401E7F2801D30F208DE702B053463A
:104FB0005A4631462846BDE8F05FFFF7CBBD0000FA
:104FC00000F8FF3F2DE9FF5F9A46934607000D4624
:104FD0006AD0002D68D0BAF1000F65D0BBF1040F84
:104FE00062D85A4603A87C68FBF71DF9787C4FF01D
:104FF0000008012804D0022860D005287DD174E083
:105000002846FDF730FC40494FF00109C0F30A057E
:1050100009EBE076084258D1D6B1A16819B1B4F8CD
:105020002411A94251D17F2D4FD9A5F201117F2919
:105030004BD9A5F281517E2947D980397E2944D99F
:10504000DF391F2941D9B5F5E06F3ED8617B79B3CF
:10505000A168B14203D1B4F82411A9424DD0B4F8EB
:105060002211A94208D120F07F0003AB0090042256
:1050700069461846FBF7D7F806B90025234ACDF84C
:105080000080CDE90142B4F8201140F2FF732A46B6
:105090006068FBF7D1FB06B158B1C4F80880C4F8CA
:1050A0004881C4F84C8140B1092004B0BDE8F09FAC
:1050B0000BE0C4F80890A4F824511EE02846FDF740
:1050C000EAFBA0F1F1010D2901D20F20EDE7F02854
:1050D00001D8012000E00020D4F86811814201D0FD
:1050E000C4F84C81C4F8680107E02846FDF7B2FB1C
:1050F0004FF47A714843C4E95B0853465A4603A902
:105100003846FFF727FDD0E700F8FF3F7915000884
:105110002DE9FE4F99469246884607006FD0B8F1B8
:10512000000F6CD0B9F1000F69D0BAF1040F66D846
:105130005246414602A87C68FBF775F8787C00254A
:105140000126072858D2DFE800F098045D7698829F
:105150008D004046FDF787FB4B49C0F30A0506EB7F
:10516000E076084249D1D6B1A16819B1B4F824114A
:10517000A9427ED17F2D7CD9A5F201117F2978D952
:10518000A5F281517E2974D980397E2971D9DF3900
:105190001F296ED9B5F5E06F6BD8617B69B3A16843
:1051A000B14203D1B4F82411A94266D0B4F8221157
:1051B000A94208D120F07F0002AB0090042269468A
:1051C0001846FBF730F806B9002594F84C01F02892
:1051D00001D8012000E00020217BCDE90010B4F8C7
:1051E000201100232A466068FBF786FB30B1A660D9
:1051F000C4F84801A4F824513FE03AE0FFE7092051
:10520000BDE8FE8F4046FDF746FBA0F1F1010D29F8
:105210002FD3F02801D8012100E00021D4F8482143
:105220005161FF2184F8591184F84C01C4F8506190
:10523000C4F8685108E0A068D8B94046FDF70AFBF9
:1052400064214843C4F85C01C4F8645115E0404649
:10525000FDF700FB4FF47A714843C4F86851C4F875
:1052600060010AE04046FDF716FBA16809B9F02885
:1052700001D90F20C4E784F858014B46524602A9D1
:105280003846FFF767FCBBE700F8FF3F2DE9F8431E
:105290001F4690460E46050004D01EB117B1687C2B
:1052A000082802D90920BDE8F8836C68A16811B903
:1052B000617B11B1E0B10220F5E7C8B13046FDF7DE
:1052C000D2FA0146D4F81C010090687CD4F8183159
:1052D000401EC2B2204600F09FF80028E3D101B082
:1052E0003B46424631462846BDE8F043FFF732BC14
:1052F0003046FDF7D0FA00210246082812D80020D7
:105300000CE0C0EBC00304EB8303D3E906C36345A1
:1053100001D90620C7E7401C1944C0B29042F0D31F
:10532000082901D90720BEE711B90AB10F20BAE751
:1053300021736273D3E703B11A60002070472DE92F
:10534000FF4F83B00025DDE9109782462E468DF889
:105350000450012301AA29460598FFF7EFFA38B156
:10536000B9F1000F23D00598FFF737FA01021CE0CE
:105370000024B346C4EBC4010AEB810604F1010822
:1053800008F0FF01012302AACDF808B010360598F5
:10539000FFF7C8FA0E2825D070B1B9F1000F06D07A
:1053A0000598FFF71AFA44EA0021C9F800106FF0D7
:1053B0000B0007B0BDE8F08F0498009022465046DD
:1053C000069B029900F028F830B1FF20C6E902B030
:1053D000386808B9029838609DF80400844201D208
:1053E000F068054408F0FF04082CC3D3082D03D847
:1053F0003DB99DF8040020B1386850B901203860EB
:1054000007E0386828B98AF80C509DF804108AF82B
:105410000D100020CDE700002DE9F04F17469A4609
:10542000804687B0C7EBC70301F0FF0908EB830490
:10543000080C4FEAD9061034109AC1F30725082E3C
:1054400003D9072007B0BDE8F08F202800D285B12E
:1054500001461046FFF78CF9834600236A46294629
:10546000FFF7EAF90028EDD1BAF1000F0CD00820BF
:105470000BE014212046FAF7FDFEE6601B48A6600B
:1054800060611B48A0612EE004209DF810100142CD
:1054900005D05FEA497002D10298B04201D20620DD
:1054A000D0E71C2269462046FAF7BDFEE660BAF155
:1054B000000F18D108EB8700202D11D2DBF808105F
:1054C00071B10C2202EBD5021144C0F8F01005F0C6
:1054D00007010120884008EB070181F8100102E074
:1054E0000021C0F8F0100020ACE70000DF4A0008FF
:1054F0003753000870477047FEF7E8B930B593B0EE
:1055000030216846FAF7B6FE14210CA8FAF7B2FE6D
:105510001D480025016841F080510160006800F0DD
:10552000805011901948016841F480410160006881
:10553000022400F480401190012003901020049078
:10554000009406940820CDE90750A820CDE909046D
:1055500004200B906846FEF797FB08B172B6FEE791
:105560000CA90F2081E831004FF4A0500F904FF4A8
:105570008050109005210CA8FEF76AFA002801D08F
:1055800072B6FEE713B030BD4038024000700040F4
:105590000248016841F470010160704788ED00E045
:1055A0000148FEF7A9BE000068040020F0B40268BC
:1055B0002C4B2D4C2D4D2E4EDFF8B8C098420AD002
:1055C000B0F1804F07D0A04205D0A84203D0B0422E
:1055D00001D0604503D122F070024F683A439842EF
:1055E00028D0B0F1804F25D0A04223D0A84221D0AE
:1055F000B0421FD060451DD0A0F18044B4F5A03466
:1056000018D0A0F18044B4F5A23413D0A0F18044A6
:10561000B4F5A4340ED0A0F18044B4F5C05409D040
:10562000A0F18044B4F5E05404D0A0F18044B4F576
:10563000005403D122F44072CC6822434C6922F01A
:105640008002224302608A68C2620A6882629842CB
:1056500001D0604501D10969016301214161F0BCBC
:1056600070470000000001400004004000080040B6
:10567000000C0040000401402DE9F0410446206880
:105680000169E26821F44051114301612169A06878
:10569000E26908436169114301432068C26822F44A
:1056A000037222F414421143C16020684169A26967
:1056B00021F44071114341612068A0F18041B1F5AE
:1056C00088312ED0A0F18041B1F58A3129D0FEF782
:1056D00083FA8446E16900201927254D3226B1F569
:1056E000004F22D06068830F8200ACFB0701FAF7FD
:1056F00069FD0146A5FB002040097A42424301EBC7
:10570000820106EB0111A5FB0121490901F0F0021C
:1057100002EB001001F00F01084421688860BDE829
:10572000F081FEF769FA8446D4E761684A1840EBD5
:105730000003ACFB0701FAF745FD0346A5FB00108B
:10574000410918460A016FF01803594300EB810024
:1057500006EBC000A5FB0010400900F0F80102EBC9
:10576000410100F00700084421688860BDE8F0812D
:105770001F85EB512DE9F0410446069D88461646EB
:105780001F462068006838EA00002AD00020B04296
:1057900031D1B5F1FF3F26D025B1FEF791F8C01BFE
:1057A000A84220D920680C3050E8001F21F4D071A5
:1057B00040E80012002AF5D12068143050E8001F9C
:1057C00021F0010140E80012002AF5D1202084F8E0
:1057D0003D0084F83E00002084F83C000320BDE832
:1057E000F0810120D3E72068006838EA000005D086
:1057F0000020B042CDD00020BDE8F0810120F8E7C4
:10580000FEE700000FB4054B10B503A9044A029847
:1058100000F018F810BC5DF814FB0000956000085B
:105820000C04002002E008C8121F08C1002AFAD1A7
:1058300070477047002001E001C1121F002AFBD110
:10584000704700002DE9FF4F8DB00F46054600263A
:1058500006E025280BD0DDE90F1290476D1C761C61
:1058600028780028F5D111B03046BDE8F08F00242B
:10587000A246A1460122E94900E0044315F8013F90
:10588000203B02FA03F00842F7D128782A2810D0EA
:105890006FF02F022878A0F13001092914D80AEB03
:1058A0008A0102EB410144F0020400EB010A6D1C85
:1058B000F0E701CF5FEA000A03D544F40054CAF1CF
:1058C000000A44F002046D1C28782E2817D115F820
:1058D000010F44F004042A280ED06FF02F0228781C
:1058E000A0F1300109290AD809EB890102EB410135
:1058F00000EB01096D1CF2E757F8049B6D1C28783A
:105900006C280FD006DC4C2817D068280DD06A28E8
:1059100014D104E0742810D07A280FD10DE044F49B
:1059200000140AE044F4801401E044F4401469785F
:10593000814202D104F580146D1C6D1C28786E28FC
:105940001ED00CDC632830D004DC00288BD0582813
:1059500011D19FE0642867D069280CD164E07328D6
:105960002DD004DC6F2872D0702804D194E0752803
:105970006ED078286DD0DDE90F129047761C4BE190
:10598000C4F30250022806D0032809D0042801CF0E
:1059900009D0066040E101CFF117C0E900613BE1A9
:1059A00001CF068038E1067036E117F8040B8DF858
:1059B000000000208DF80100EB46012003E057F8BD
:1059C00004BB4FF0FF3061074FF0000102D40DE03F
:1059D00008F10101884649450FDA8045F8DB1BF8DC
:1059E00008100029F4D108E008F10101884681423D
:1059F000FADB1BF808100029F6D1DDE90F23AAEB2A
:105A000008008146214600F031F9304400EB0806D9
:105A100004E0DDE90F121BF8010B9047B8F1010813
:105A2000F7D221464846F2E00A21C4F302524FF071
:105A3000000B0891022A04D001CFC117032A09D014
:105A40000AE0FF1D27F00707F7E8020108E02CE055
:105A50001EE01FE000B2C117042A01D140B2C117F5
:105A6000021E71F1000206DA0023D0EB030063EBA3
:105A700001012D2202E0220504D52B228DF82420DD
:105A8000012203E0E20701D02022F7E7904653E02D
:105A90000A210BE0102109E010214FF0000B44F027
:105AA00004044FF00809089103E008214FF0000BAF
:105AB0000891C4F30252022A04D001CF0021032A24
:105AC00006D006E0FF1D27F00707F7E8020103E014
:105AD00080B2042A00D1C0B24FF0000822072BD5B3
