:020000040800F2
:10000000D04A0020A10100087B320008612C0008C2
:1000100079320008CF0F00087D5A00080000000068
:10002000000000000000000000000000B73D0008D4
:100030006510000800000000F7330008C33D000809
:10004000BB010008BB010008BB010008BB010008A0
:10005000BB010008BB010008BB010008BB01000890
:10006000BB010008BB010008BB010008BB01000880
:10007000BB010008BB010008BB010008BB01000870
:10008000BB010008BB010008BB010008BB01000860
:10009000BB010008BB010008BB010008BB01000850
:1000A000BB010008BB010008BB010008BB01000840
:1000B000BB010008BB010008BB010008BB01000830
:1000C000BB010008BB010008BB010008BB01000820
:1000D000BB01000815410008BB010008BB01000876
:1000E000BB010008BB010008BB010008BB01000800
:1000F000BB010008BB010008BB010008BB010008F0
:10010000BB010008BB010008BB010008BB010008DF
:10011000BB010008BB010008BB010008BB010008CF
:10012000BB010008BB010008BB010008BB010008BF
:10013000BB010008BB010008BB010008BB010008AF
:10014000BB010008BB010008BB0100087D320008AC
:10015000D10F0008BB010008DD0F0008BB0100083B
:10016000BB010008BB010008BB010008BB0100087F
:10017000BB010008BB010008BB0100080000000033
:10018000BB010008BB010008DFF810D000F030FC14
:10019000004800471D200108AFF30080D04A00202E
:1001A0000648804706480047FEE7FEE7FEE7FEE711
:1001B000FEE7FEE7FEE7FEE7FEE7FEE7613E00083A
:1001C000890100080C49087820B1401E0870491CBC
:1001D000085C704700210720ABBE7047064A1178C3
:1001E000022902D34FF0FF307047034B5B1C585479
:1001F000491C1170704700004C0100202DE9F05F90
:100200000546002092469B46884606468146402485
:100210001BE0284641464746224600F0A6F95346D1
:100220005A46C01A914110D311461846224600F092
:100230008DF92D1A67EB01084F4622460120002157
:1002400000F084F917EB00094E41201EA4F10104CF
:10025000DFDC484631462A464346BDE8F09F0000B1
:1002600000487047BC57010810B50446FFF7F8FF77
:100270000068005D00F0010010BDA0F161011929C6
:1002800000D820387047000000487047C057010868
:1002900040EA01039B0703D009E008C9121F08C008
:1002A000042AFAD203E011F8013B00F8013B521E88
:1002B000F9D27047D2B201E000F8012B491EFBD2FF
:1002C00070470022F6E710B513460A460446194661
:1002D000FFF7F0FF204610BDCAB2401E10F8011F04
:1002E0008A4202D00029F9D100207047421C10F840
:1002F000011B0029FBD1801A704710B5002200E0D5
:10030000521C835C8C5CA34201D1002BF8D1D8B283
:10031000E1B2401A10BD30B504460020034600E0AB
:100320005B1C934203D2E05CCD5C401BF8D030BD37
:10033000FFF7E3BF034611F8012B00F8012B002A59
:10034000F9D11846704730B505460020034600E055
:100350005B1C934205D2EC5CC85C201A01D1002CD6
:10036000F6D130BD30B503461D783DB10A4612F8CE
:10037000014B1CB1AC42FAD15B1CF5E7181A30BD39
:1003800010B508E00A4602E0A34208D0521C1378D8
:10039000002BF9D1401C0478002CF3D1002010BDB3
:1003A00007280FD2DFE800F00406080E0E0C0A0042
:1003B00005A070470AA0704713A070471DA07047A2
:1003C00022A070472BA070474E6F206572726F722B
:1003D00020286572726E6F203D20302900000000D9
:1003E00045444F4D202D2066756E6374696F6E20F5
:1003F000617267756D656E74206F7574206F66200D
:1004000072616E67650000004552414E4745202DE0
:100410002066756E6374696F6E20726573756C7497
:10042000206E6F7420726570726573656E746162A0
:100430006C650000454E4F4D454D202D206F757465
:10044000206F66206D656D6F7279000045494E56CC
:10045000414C202D20696E76616C69642061726761
:10046000756D656E7420746F2066756E6374696F48
:100470006E000000556E6B6E6F776E206572726F46
:100480007200000000F0004230F000400AD0C10DC0
:1004900001F56071C0F3160042EA0151C20840073D
:1004A0001143704700200146704701F0004330B40B
:1004B00021F0004150EA010206D00A0DA2F5607257
:1004C000C1F31301002A02DC30BC00207047440F46
:1004D00044EAC104C100E01830BC00EBC25000F097
:1004E00061B8A0E8004FF0C040F804DB01B5AFF3FD
:1004F0000080BDE8024001C10020704700F12C08D7
:100500000C4658F8040DAFF3008058F8040D8546EA
:10051000200008BF012038E9F00018E9004F7047BB
:1005200030B50B46014600202022012409E021FAC3
:1005300002F59D4205D303FA02F5491B04FA02F5C0
:100540002844151EA2F10102F1DC30BD202A04DB93
:10055000203A00FA02F1002070479140C2F12003D6
:1005600020FA03F3194390407047202A04DB203A15
:1005700021FA02F00021704721FA02F3D040C2F1C3
:10058000200291400843194670477CB50023CDE90D
:1005900000330546684600F06AFA6946284606F0C8
:1005A0000DF87CBD0029A8BF7047401C490008BF5A
:1005B00020F00100704710B4B0FA80FC00FA0CF093
:1005C00050EA010404BF10BC704749B1CCF12004CB
:1005D00021FA04F411FA0CF118BF01212143084358
:1005E000A3EB0C01CB1D4FEA00614FEA102042BF84
:1005F000002010BC704700EBC35010440029A4BF7A
:1006000010BC7047401C490008BF20F0010010BC1E
:100610007047420005D0C0F3C7525242914201DCFC
:100620000020704700EBC1507047F0B400F000426A
:1006300021F0004120F00040CE0DC30DC1F31601A2
:1006400041F40001C0F316004C42154640F400008E
:10065000761E09E010EB440002D582F000424042D1
:100660008842F7D840005B1EB342F9DA18B1F0BCFB
:100670000021FFF7A0BF2846F0BC70472DE9FE4FD0
:10068000804681EA0300C00F0C46009021F0004133
:1006900023F00045B8EB0200A94105D240462146AF
:1006A00090461C460B46024623F00040104347D0BC
:1006B000270DC7F30A00C3F30A510290401A0190B4
:1006C00040286BDAC3F3130040F4801B0098924675
:1006D00020B10023D2EB030A63EB0B0B01985946C0
:1006E000C0F140025046FFF731FF06460D46504626
:1006F0005946019A00F08EF910EB08006141002480
:1007000087EA115284EAE7731A4340D0009A62B331
:10071000019A012A4FEA075215DC001B61EB020126
:100720004FF0004202EA0752CDE90042001C41F5B9
:10073000801132462B4600F0DCF903B0BDE8F08FA3
:1007400040462146F9E7001B61EB0201001C41F520
:10075000801300185B412018A2F5001747EB030136
:1007600040EAD570B6196D4111E06D084FEA3606C2
:1007700045EAC0754FEA0752001B61EB0201001CFD
:1007800041F5801149084FEA3000001951413246C5
:100790002B4603B0BDE8F04F00F09CB90098012251
:1007A00040000023D0EB020263EBE0730098214687
:1007B0004FEAE074B8EB000061EB0401E9E783F075
:1007C00000435BE781F0004158E72DE9FE4F81EAE5
:1007D000030404F0004421F0004100944FF0000BAA
:1007E00023F0004350EA01045ED052EA03045BD0D8
:1007F000C3F30A54C1F30A552C44A4F2F334019410
:10080000A0FB0254C1F3130141F48011C3F313039D
:1008100043F4801301FB024400FB034E840A970A51
:1008200044EA815447EA8357A4FB076802958D0A7E
:1008300005FB07854FEA932C04FB0C542705029D0A
:100840004FEA065847EA1637B5EB08056EEB070C7A
:10085000870E920E47EA811742EA8312A7FB020134
:10086000B6EB0B0164EB00042B0D43EA0C335E186E
:1008700044EB1C50DA465146E7FB0201C5F3130472
:100880004FEA0B3343EA14534FEA0432019C43EA24
:100890000603A4F10C040294009CCDE900B400F01E
:1008A00028F903B0BDE8F08F00200146F9E72DE9F3
:1008B000F04D81EA030404F0004B21F0004514469A
:1008C0004FF0000A23F0004150EA050220D054EA1C
:1008D00001021DD0C5F30A570246C5F31303C1F345
:1008E0001300C1F30A5640F4801543F48013A7EBBC
:1008F0000608101BD64608F2FD3873EB050002D33C
:1009000008F1010801E092185B41B8F1000F03DA29
:1009100000200146BDE8F08D00204FF4801106460E
:1009200084460EE0171B73EB050705D3121B63EB20
:10093000050306434CEA010C49084FEA30009218BF
:100940005B4150EA0107EDD152EA030012D082EA7E
:10095000040083EA0501084305D0101BAB4106D211
:100960000122002306E000224FF0004302E06FF076
:10097000010253101AEB06004CEB085110EB0A0071
:1009800041EB0B01BDE8F04D00F0A4B8C1F30A52F1
:10099000C1F3130140F2FF3341F480119A4202DAAD
:1009A00000200146704740F233439A42A2F233429C
:1009B00002DC5242FFF7D9BDFFF7C8BD30B5041EB7
:1009C00071F1000404DB4FF00044404264EB01018C
:1009D000141E73F1000405DB1C464FF00043524225
:1009E00063EB0403994208BF904230BD002070477A
:1009F000064C074D06E0E06840F0010394E807006C
:100A000098471034AC42F6D3FFF7C2FB685B01088D
:100A1000885B0108202A06DBCB17203A41FA02F056
:100A200043EAE07306E041FA02F3D040C2F120024B
:100A300091400843194670470FB4002300B589B0B0
:100A40000CA900910B996FF00042CB601E4B0693EE
:100A50001E4B07930423CDE901321D4A089202463A
:100A60006B46002000F028F909B05DF814FB70B562
:100A700086B006464FF0FF300091CDE9010100201D
:100A800015460C4604903246694604A8FFF7D4FF89
:100A900002460498211825B108B1084600E0204616
:100AA0002860049800280DD0002A02DD00988842B2
:100AB00008D0081B0094CDE901043246694604A819
:100AC000FFF7BAFF06B070BDF10E00080F0F000867
:100AD0006902000810B5141E73F1000408DA401C06
:100AE00041F1000192185B411A4301D120F001004D
:100AF00010BD2DE9F04D92469B4611B1B1FA81F23D
:100B000002E0B0FA80F220329046FFF71FFD044663
:100B10000F4640EA0A0041EA0B0153465A46084391
:100B200013D0114653EA010019D0C8F140025046D3
:100B3000FFF71BFD05460E46504659464246FFF755
:100B400005FD084305D0012004E020463946BDE8F4
:100B5000F08D0020054346EAE0762C4337430A989F
:100B60006305E40AA0EB08000022FD0A44EA4754AA
:100B70000A3002D500200146E9E701051019694154
:100B8000DDE9084500196941BDE8F04DA2E7000024
:100B90002DE9FF4F087883B09946FF2805D0491CFE
:100BA0002D2804D00024002008E000200BE00124C0
:100BB000F9E700EB800003EB4000491C0B78FF2BAA
:100BC000F7D104B1404200230293147819461D4620
:100BD0002D2C01D02B2C04D1521C2D2C13D00024F1
:100BE0000294AA461478FF2C0FD00A25A3FB05789F
:100BF00001FB05814FF0000C03FB0C11521CE319A3
:100C00004AEB0101EEE70124EAE7814453EA0100DF
:100C100002D019F5C87F06DA03980021C0E9001157
:100C200007B0BDE8F08F0025AE4E2F46DFF8B88242
:100C3000184600F095F9CDE90001B9F1000002DA9B
:100C4000C9F1000400E004460023A74A1AEB030B95
:100C500042EB045A12E0E00707D02A4633463846F2
:100C60004146FFF7B2FD074688462A4633461046FE
:100C70001946FFF7AAFD05460E466410002CEAD17E
:100C8000DDE90001B9F1000F5A46534606DAFFF7D5
:100C90000EFE3A464346FFF70AFE05E0FFF795FDD4
:100CA0003A464346FFF791FD029A0AB181F00041AE
:100CB000039AC2E90001B3E72DE9FF4F1F468DB04B
:100CC000D7E901464FF0FF382E2045464FF0000986
:100CD0000B90B9696D1C0E988847396A824688471F
:100CE0000028F6D1BAF1FF3F0AD024F4D064002ED8
:100CF00011DDBAF12B0F08D0BAF12D0F0BD102E0A4
:100D0000404611B08DE744F48064B9696D1C0E98BB
:100D100088478246761E6946600501D52D2000E091
:100D20002B208DF8000001F1010B0DF1200809E0E6
:100D3000B9696D1C0E98884782460F9844F4007478
:100D4000761E0560002E02DDBAF1300FF0D00B994F
:100D50008A453ED144F0800406E00F99681CA9F151
:100D6000010944F400740860B9696D1C761E0E9880
:100D7000884782463028F0D02BE00B998A4505D170
:100D8000200603D444F08004761E18E0504605F097
:100D9000F5FC08B30DF11301761E44F400748B4585
:100DA00008D2AAF130000BF8010B200607D5A9F1F3
:100DB000010003E0200602D409F101008146A005EC
:100DC00002D50F99681C0860B9696D1C0E98884798
:100DD0008246002ED1DC53E0002E51DDBAF1650FC2
:100DE00002D0BAF1450F4BD1A00549D5B9696D1CA8
:100DF00024F44074761E0E9888478246002E0CDD3F
:100E00002B2804D0BAF12D0F07D144F48074B969AE
:100E10006D1C0E9888478246761EE00501D52D216F
:100E200000E02B2108F8011BCDF82C8021E00DF10A
:100E30002901761E44F4007488450CD2AAF13000D2
:100E400010F0FF0088F8000002D10B99884509D9FD
:100E500008F1010806E0E00501D5244801E042F26E
:100E60000F708146B9696D1C0E98884782460F98AD
:100E70000560002E04DD504605F080FC0028D6D128
:100E8000F9690E988847FF208BF8000088F8000069
:100E90000020069007904B466A4608A906A8FFF76F
:100EA00077FEA00502D46FF001002AE714F0240FAA
:100EB0000AD0E00714D1DDE906123868031D3B6053
:100EC0000068C0E900120BE0DDE90601FFF7EDFA6A
:100ED0000146E00704D13868021D3A6000680160ED
:100EE00028460EE7000014400000F03FF1D8FFFF55
:100EF000426842B1016811F8013B23B1521EC0E9BA
:100F00000012184670470121C160881E7047426870
:100F10005AB1C368016843B983688B4205D0491E42
:100F2000521CC0E90012002070474FF0FF3070479C
:100F300030B5041E71F1000404DB4FF00044404260
:100F400064EB0101141E73F1000405DB1C464FF035
:100F50000043524263EB04038B4208BF824230BD20
:100F60000EB540F2334202920022CDE90022134630
:100F7000FFF7BFFD03B000BD70B58C1810F8015B22
:100F800015F0070301D110F8013B2A1106D110F822
:100F9000012B03E010F8016B01F8016B5B1EF9D126
:100FA0002B0705D40023521E0DD401F8013BFAE7AC
:100FB00010F8013BCB1A921C03E013F8015B01F817
:100FC000015B521EF9D5A142D8D3002070BDFEE7C7
:100FD000014800F013B90000AC010020014800F006
:100FE0000DB900000C02002001681823CAB2103AA3
:100FF000B2FBF3F2054B6FF30901032A9B5CC36557
:1010000000D9091D8165084670470000C6500108D7
:1010100010B5014600208B698A6A4FF0C07453B145
:10102000B3F5005F15D072B1012A0CD0022A0AD0A4
:10103000032A09D104E01AB1012A06D0022A03D1F9
:10104000C96AC90100D5012010BDC96AA142FAD000
:1010500010BD002AF7D0012AF2D0022AF3D0032AC9
:10106000F3D010BD704772B6FEE70000FEB505690B
:101070000446686E01686966696C0160686441795C
:1010800001F0BF01417195F83920D21E032A08D81A
:1010900095F8382021F0380102F01802114341710F
:1010A00004E001F00701032900D1A867019000794D
:1010B000022240F040008DF8080001A920460EF001
:1010C00072F90179090736D015F83E6FE77946F0D5
:1010D000020129700022E271E16801F10803E36076
:1010E00003680B6000790871E06800F10801E160B5
:1010F000019901609DF8081001716069418C41F00F
:10110000800141840092E169E068431A0A4920465F
:10111000103B0BF02CF8616900284A8C22F0800209
:101120004A84E7712E7006D004A120460BF058FBCC
:10113000E0680838E060FEBDDB8700085F5F67633A
:10114000000000002DE9F0410446876D00F0A0FA90
:10115000064694F835000025022806D080206065F8
:1011600084F834500120BDE8F0812068016821F046
:10117000160101602068416921F080014161206C05
:1011800008B9A06C20B12068016821F00801016055
:101190002068016821F0010101600CE000F078FA9C
:1011A000801B052807D920206065032084F83500BE
:1011B00084F83450D7E720680068C007EED194F86F
:1011C0005C103F208840B860012084F8350084F826
:1011D00034500020C7E790F83510022903D0802151
:1011E000416501207047052180F8351000680168CD
:1011F00021F0010101600020704700002DE9F84353
:1012000004464FF00009CDF8009063484FF41651A2
:10121000A56D0068B0FBF1F72E6894F85C1008200B
:1012200000FA01F131420FD021680A6852070BD54C
:101230000A6822F004020A6094F85C108840A860F2
:10124000606D40F00100606594F85C104FF001089B
:1012500008FA01F0304208D021684969090604D52E
:10126000A860606D40F00200606594F85C10042096
:101270008840304208D021680968890704D5A860F1
:10128000606D40F00400606594F85C1010208840A8
:10129000304218D021680968090714D5A860206871
:1012A0000168490304D50068000308D5A16C07E074
:1012B0000168C90503D4016821F008010160216CAF
:1012C00009B12046884794F85C10202088403042BD
:1012D00031D021680968C9062DD5A86094F8350079
:1012E00005282068016806D0490347D50068000337
:1012F0001DD4616C1CE021F0160101602068416979
:1013000021F080014161206C08B9A06C20B12068F7
:10131000016821F00801016094F85C103F208840CA
:10132000A86084F8358084F83490216D1FE0E16B6B
:1013300009B120468847606D00282BD0606DC0073A
:1013400014D0052084F835002068016821F00101DF
:1013500001600098401C0090B84203D820680068E3
:10136000C007F6D184F8358084F83490E16C002908
:1013700010D001B02046BDE8F04308470168C90518
:10138000D5D4016821F01001016084F8358084F81B
:101390003490CCE7BDE8F8837C0000202DE9F041D3
:1013A000044600F075F906465CB1022084F8350069
:1013B000002584F834502068016821F001010160A3
:1013C0000DE00120BDE8F08100F062F9801B0528E6
:1013D00005D920206065032084F83500F2E72068F5
:1013E0000068C007F0D12268116820480140D4E9A4
:1013F00001031843D4E903363343184363691843A0
:10140000A3691843E3691843236A18430843616AD0
:10141000042903D1D4E90B13194308431060206851
:101420004069666A20F0070130460E430127042810
:101430000CD1A06A0643E06A40B12046FFF7E8FD00
:1014400020B14020606584F83570BAE720684661B5
:101450002046FFF7C9FD94F85C203F219140816050
:10146000656584F835700020ACE700003F8010F01F
:1014700070B5044600F00CF90546601C02D0044823
:101480000078044400F004F9401BA042FAD370BD78
:10149000700000202DE9F84FDFF8BCA100220125E3
:1014A00003264FF00F090AF1040BAAF1040E00BF46
:1014B0000B6805FA02F42340A34270D10F7907F0BC
:1014C0000307012F01D0022F16D187684FEA420887
:1014D00006FA08FC27EA0C07D1F80CC00CFA08FC45
:1014E0004CEA070CC0F808C04768A7430C79C4F35E
:1014F000001494403C4344600C79E443A4070AD0B0
:10150000C4684FEA420C06FA0CF7BC438F6807FA2E
:101510000CF72743C7600C7904F00304022C12D1A6
:10152000D40800EB840CDCF820405707FF0E09FAC2
:1015300007F824EA0804D1F8108008FA07F848EA06
:101540000408CCF8208004684FEA420C06FA0CF735
:10155000BC430F7907F0030707FA0CF7274307602E
:101560004C6814F4403F70D03C4C276847F48047E7
:101570002760246822F0030704F480440094384C68
:1015800007EB040CDCF8084897074FEA177809FACC
:1015900008F7BC43334FB84202D1002724E054E09F
:1015A000314FB84201D101271EE0304FB84201D17E
:1015B000022719E02E4FB84201D1032714E02D4F26
:1015C000B84201D104270FE02B4FB84201D10527C3
:1015D0000AE02A4FB84201D1062705E0284FB84259
:1015E00001D1072700E0082707FA08F72743CCF8BE
:1015F0000878DAF800405746D1F804C09C435FEA07
:10160000CC2C00D51C433C60DBF800405F46D1F891
:1016100004C09C435FEA8C2C00D51C433C60DEF880
:1016200000407746D1F804C09C435FEA8C3C00D56B
:101630001C433C60084F083F3C68D1F804C09C4301
:101640005FEACC3C00D51C433C60521C102AFFF4DE
:101650002FAFBDE8F88F0000083C0140443802403D
:101660000030014000000240000402400008024037
:10167000000C02400010024000140240001802401A
:10168000001C02400AB1816170470904FBE70000B9
:10169000014880687047000070000020024881689F
:1016A0000278114481607047700000200B4810B52B
:1016B000016841F400710160016841F480610160DA
:1016C000016841F480710160032000F06FF80F2081
:1016D00000F006F800F024F8002010BD003C0240A5
:1016E00070B50D4D04464FF47A712878B1FBF0F0D7
:1016F0000A490968B1FBF0F001F066F848B9102C0E
:1017000007D200222146501E00F030F800206C6005
:1017100070BD012070BD0000700000207C00002022
:101720000A4808B5016841F480410160006800F48E
:10173000804000900548001F016841F08051016021
:10174000006800F08050009008BD0000443802405E
:10175000002809DB00F01F020121914040098000B0
:1017600000F1E020C0F8001170470000F0B40E4B0B
:101770001B680C46C3F30223C3F10705042D00D9EF
:101780000425191D072901D2002300E0DB1E0126D4
:1017900006FA05F1491E214099409E40761E1640EA
:1017A0003143F0BC04F0B7B90CED00E0064900F09D
:1017B000070208684FF6FF03184040EA0220034A78
:1017C00010430860704700000CED00E00000FA05CF
:1017D00070470068416200207047F0B50368586A9E
:1017E00039B19C6A4FF4827600EB144400204D1E00
:1017F0000AE040EA024098620FE006EB8007DF59FA
:10180000401C04EB1744C0B2A842F6D344EA02409D
:101810004FF4807202EB810158500020F0BDD0F8E7
:10182000080502F0C9BE01EBC10200EB8202D0F84C
:101830000805D26C02F01EBE01EBC10200EB820271
:10184000D0F80805D2F88C2202F06FBED0F8080557
:1018500002F0B4BE0A0601F00F0101EBC10100EB7A
:10186000810101D53C3101E001F51F71006803F0F1
:101870004DBF70B504460B0601F00F0000EBC00130
:1018800004EB81014FF001024FF0000503D581F810
:101890003D203C3103E081F87D5201F51F71087055
:1018A00094F8BC04012808D084F8BC24206803F014
:1018B000E7FB84F8BC54002070BD022070BD70B5F9
:1018C000044601F00F006268904201D9012070BD0A
:1018D0000B0601F00F0101EBC10104EB81014FF098
:1018E00001024FF0000503D581F83D203C3103E0B3
:1018F00081F87D5201F51F718D70087094F8BC0459
:10190000012808D084F8BC24206803F0B5FD84F8D1
:10191000BC54002070BD022070BD10B5044690F884
:10192000BC0401280AD0012084F8BC04080607D5AD
:1019300001F00F01206803F05DFF04E0022010BDFC
:10194000206803F039FF002084F8BC0410BD01F0CA
:101950000F0101EBC10100EB8100D0F89C02704740
:101960002DE9F04104460F0601F00F0000EBC00125
:1019700004EB81014FF001064FF0000503D581F81B
:101980003D603C3103E081F87D5201F51F71087024
:10199000CA600B714A7802B10881022B00D14D71E7
:1019A00094F8BC04012809D084F8BC64206803F0D2
:1019B000BFFA284684F8BC54BDE8F0810220FBE75A
:1019C00070B50C4601F00F0505EBC50100EB810178
:1019D000C1F89432C1F88C220023C1F89C3281F8FE
:1019E0007D3281F87C52036901F51F71012B00D112
:1019F0004A612207027C006803D003F095FD0020B5
:101A000070BD03F07FFCFAE770B504460D4601F0A7
:101A10000F006168884201D9012070BD29064FF08E
:101A200000064FF0010207D500EBC00104EB810175
:101A300081F83D203C3107E005EBC50104EB810155
:101A400081F87D6201F51F718A70087094F8BC04FA
:101A5000012807D084F8BC24206803F039FD28074A
:101A600002D007E0022070BD217C04F2C44220684D
:101A700003F0D6FC84F8BC64002070BD70B50C4641
:101A800001F00F0505EBC50100EB81014B65CA6450
:101A90000023CB65012381F83D3001F83C5F0369E9
:101AA000012B00D14A612207027C006803D003F0B9
:101AB0003BFD002070BD03F025FCFAE72DE9FC5F3B
:101AC00005680446284603F0C2FE00287DD1206840
:101AD00003F0E9FE002878D0D5F80808C0F30D20FF
:101AE000C4F8FC04206803F0DEFE800704D52068FB
:101AF000416901F002014161206803F0D4FEC10692
:101B000004F2C440009034D52068816921F01001AE
:101B100081612F6A07F00F0000EBC00004EB800624
:101B2000C7F3434006F51F76022802D0062811D0DD
:101B30001AE047F6F070074216D0C7F30A121746AC
:101B40002846316903F0B3FE306938443061306AA9
:101B5000384408E008222846009903F0A8FE306ABD
:101B6000C7F30A11084430622068816941F010010E
:101B70008161206803F097FE00034FF0080B4FF0DF
:101B8000000A4FF001097CD50026206803F06AFEA8
:101B9000074674E0F80770D0F1B2206803F07BFECE
:101BA0008046C00707D005EB4611C1F8089B3146B7
:101BB000204601F069FB5FEA087024D505EB461169
:101BC000C1F808BB2068016C00E025E200EB46107C
:101BD0000191D0F8082BFC4B994205D9110403D58B
:101BE0004FF40041C0F8081B204600F005FBF64901
:101BF0000198884207D92069012804D12068012171
:101C0000009A03F00DFC5FEAC86004D505EB4611AD
:101C10001020C1F8080B5FEA88701DD568690006BE
:101C200005D5D5F8040840F48061C5F8041806EB22
:101C3000C60004EB800090F87F1200F51F700129A8
:101C400005D180F803A0F1B2204600F0EBF905EBD6
:101C500046110220C1F8080B5FEA886004D505EB45
:101C600046102021C0F8081B5FEA884005D505EB27
:101C700046104FF40051C0F8081B7F08761C002F57
:101C800088D1206803F00FFE40036FD5206803F071
:101C9000E2FD0746002667E0F80763D0F1B220684E
:101CA00003F0E7FD8046C00723D006F00F0209FAD3
:101CB00002F0D5F834288243C5F8342805EB4610E5
:101CC000C0F80899206901280FD106EBC60004EB83
:101CD0008000D0E912211144C16436B9606D20B989
:101CE00020680121009A03F09BFBF1B22046FFF728
:101CF0009AFD5FEA087003D505EB4611C1F808B9F3
:101D00005FEAC86004D505EB46111020C1F8080948
:101D10005FEA486004D505EB46104021C0F8081979
:101D20005FEA887017D53146284603F063FD06EB5D
:101D3000C60004EB800090F83F103C30012905D12B
:101D400080F803A0F1B2204600F068F905EB4611D7
:101D50000220C1F808095FEA086003D53146204631
:101D600001F0F8FA7F08761C002F95D1206803F067
:101D70009AFD002811DAD5F8040820F00101C5F811
:101D8000041894F8F40401282BD0204600F018FA27
:101D90002068416901F000414161206803F083FD42
:101DA00000050BD5D5F80808C00702D0204600F082
:101DB0004BFA2068416901F400614161206803F039
:101DC00072FDC00466D5D5F8040820F00100C5F8FE
:101DD00004081021206803F00DFD00214FF67F322A
:101DE0001FE084F8F4A400212046FFF7F1FCCFE7C0
:101DF00005EB4110C0F80829D0F8003923F400138E
:101E0000C0F80039C0F8082BD0F8003B23F40013C9
:101E1000C0F8003BD0F8003B43F00063C0F8003B43
:101E2000491C60688842E3D8D5F81C0840F00111CD
:101E3000C5F81C18206B002828460DD0D0F884085F
:101E400040F00B01C5F88418D5F8440840F00B01A8
:101E50002846C5F844180DE0D0F8140842F22B01CA
:101E60000843C5F81408D5F8100840F00B012846BF
:101E7000C5F81018D0F8000820F4FE61C5F8001865
:101E8000217C2068009A03F0CBFA2068416901F4B4
:101E900080514161206803F006FD800415D520685B
:101EA00003F086F8206803F0C5FCE06000F07EFADD
:101EB0000146227B206803F059FD204600F06AF9B4
:101EC0002068416901F400514161206803F0EBFC96
:101ED000000707D5204600F077F92068416901F036
:101EE00008014161206803F0DEFC000616D5A869F0
:101EF00020F08000A86101260DE000BF06EBC600BF
:101F000004EB800090F87F02012803D1F1B2204653
:101F1000FFF7A0FC761C6068B042EFD8206803F0A1
:101F2000C2FCC00221D501264F4616E005EB461043
:101F3000D0F8001906EBC60004EB800090F84020B2
:101F4000012A09D1002907DA80F83F70F0B240F089
:101F500080012046FFF77EFC761C6068B042E5D821
:101F60002068416901F480114161206803F09BFC05
:101F7000800234D501204B4629E000BF05EB40111B
:101F8000D1F8001B00EBC00204EB820696F8802219
:101F9000012A1BD1002919DA94F8FC2401F48031BC
:101FA00002F00102914211D186F87F32A96941F015
:101FB0008002AA616969090608D4D5F8040840F4CA
:101FC0000070C5F8040805E00A30544F401C6168F1
:101FD0008142D3D82068416901F400114161206831
:101FE00003F061FC400007D52046FFF718FC20688D
:101FF000416901F080414161206803F054FC4007D1
:102000000AD520684568680702D52046FFF71EFC00
:102010002068416829434160BDE8FC9FD0F808056D
:1020200002F028BBD0F8080502F038BB2DE9F041DA
:102030008AB0040005D094F8BD042668002520B1BC
:1020400008E001200AB0BDE8F08184F8BC542046C5
:1020500000F05EF8032084F8BD04F06BC00500D4E6
:102060002561206803F048F904F110012822884610
:102070006846FEF70DF994E80F0002F0A7FF02266C
:10208000C8BB0021206803F031FC002001270EE0CE
:1020900000EBC00104EB810181F83D7001F83C0FB9
:1020A00008810D71CD600D61401CC0B28D61616809
:1020B0008142EDD8002011E000EBC00104EB81016A
:1020C00081F87D5281F87C0281F88052C1F88852F3
:1020D000C1F88C52401CC0B2C1F894526168814270
:1020E000EAD8282241466846FEF7D2F894E80F0065
:1020F00003F048F810B184F8BD64A2E784F83850C2
:1021000084F8BD74206803F02FF800209AE70000DF
:1021100010B586B0044614216846FEF7D2F8206850
:10212000B0F1A04F2FD119480021026842F00102FE
:102130000260006800F0010005904FF4C05000906C
:102140000220CDE90101032003900A200490694692
:102150000F48FFF79FF90D48001D016841F080010D
:1021600001600A481430016841F480410160006850
:10217000002200F48040059011464320FFF7F6FA54
:102180004320FFF7E5FA06B010BD000030380240EA
:102190000000024070B50446C068012570B10228F5
:1021A00001D0FEF760FF2946D4F8080502F0E4FAF2
:1021B000D4F80805BDE8704002F099BA0025F2E7AE
:1021C000D0F8080502F0C1BAD0F8080502F0C7BA85
:1021D00010B5044690F8BC0401280BD0012084F807
:1021E000BC0484F83810206803F0AEFB002084F8AB
:1021F000BC0410BD022010BDD0F8082500F2C44177
:10220000104602F0C5BA10B50446006894F8BC1434
:10221000012906D0012184F8BC14A16A012902D049
:1022200008E0022010BDA169012903D0816B41F4AF
:1022300080318163206803F0B8FA206802F086FFDD
:10224000002084F8BC0410BD10B50446D0F8080581
:1022500002F0E0FA2068D0F8001E41F00101C0F859
:10226000001E206A002804D00248016841F00601DF
:10227000016010BD10ED00E02DE9F0470E460500AD
:1022800065D0DFF81481D8F80000F7B200F007003D
:10229000B04207D288F80070D8F8000000F00700BC
:1022A000B04254D128683D4C810712D5400703D570
:1022B000206840F4E05020602878000703D52068AB
:1022C00040F4604020602068A96820F0F0000843D6
:1022D00020602878C0072DD0304968680839012867
:1022E00012D0022813D0032811D0096889070029C9
:1022F0002DDA216821F0030101432160FFF7C8F9BD
:10230000814641F2883A0EE009688903EFE70968DF
:102310008901ECE7FFF7BCF9A0EB0901514502D9AF
:102320000320BDE8F0872068696800F00C00B0EB7E
:10233000810FEFD1D8F80010404601F00701B142FB
:1023400007D90770006800F00700B04201D00120F3
:10235000E7E72878400705D52068E96820F4E050D1
:10236000084320602878000706D52068296920F4F2
:10237000604040EAC100206000F03EF82168084A51
:10238000C1F30311515CC840064908600648006863
:10239000FFF7A6F90020C4E7003C024008380240DD
:1023A000CE5001087C000020740000200148006825
:1023B000704700007C000020044805490068096857
:1023C000044AC1F38221515CC84070477C00002060
:1023D00008380240DE5001080448054900680968D1
:1023E000044AC1F34231515CC84070477C00002070
:1023F00008380240DE500108154810B5006810F09A
:102400000C02144813D01449042A0FD0082A0ED104
:102410000F4C241F2268236802F03F025B0207D59D
:102420002068C0F38810A0FB010106E0084610BD3B
:102430002168C1F38811A1FB00010023FDF7DEFE36
:102440002168C1F30141491C4900B0FBF1F010BD06
:10245000083802400024F40040787D012DE9F84F4F
:1024600004006ED02078DFF84C93C007A9F1040572
:102470004AD009F104000168C1F38101012908D0A3
:102480000068C0F3810002280AD1D9F80000400298
:1024900006D52868800337D560680028E1D033E08E
:1024A0006068B0F5803F10D0B0F5A02F286810D03C
:1024B00020F480302860286820F48020286060683C
:1024C000A8B1FFF7E5F806460DE0286840F4803033
:1024D000F4E740F480202860F7E700BFFFF7D8F862
:1024E000801B642873D828688003F7D50CE0FFF7B9
:1024F000CFF8064605E000BFFFF7CAF8801B642846
:10250000F0D828688003F7D42078DFF8AC82800701
:102510004FF0000A3ED5A748001D016811F00C0FCE
:1025200008D00068C0F3810002280BD1D9F8000060
:10253000400207D42868800716D5E068012800D13A
:1025400012E033E1E068B8B10120C8F80000FFF7FD
:102550009FF8064605E000BFFFF79AF8801B0228A7
:10256000C0D828688007F7D52868216920F0F800CE
:1025700040EAC10028600DE0C8F800A0FFF788F825
:10258000064604E0FFF784F8801B02281FD828685D
:102590008007F7D42078000722D5864F87486169E5
:1025A000703771B101210160FFF772F8064604E04F
:1025B000FFF76EF8801B022809D838688007F7D526
:1025C0000EE0C0F800A0FFF763F8064605E082E0E1
:1025D000FFF75EF8801B02287DD838688007F7D4A3
:1025E0002078400768D5DFF8CCB100270BF13C0B11
:1025F000DBF80000C0000BD4DBF8001041F0805184
:10260000CBF80010DBF80000012700F080500090AC
:102610006B4E3068C00510D4306840F48070306074
:10262000FFF736F8009005E0FFF732F80099401AFE
:10263000022850D83068C005F6D55E4EA0686C36CA
:1026400001280FD00528306810D020F0010030603C
:10265000306820F004003060A068B8B1FFF718F8C7
:1026600000900FE0306840F00100F4E740F0040013
:102670003060F7E7FFF70CF80099411A41F2883013
:10268000814266D830688007F4D50EE0FFF700F885
:10269000009007E0FEF7FCFF0099411A41F28830F4
:1026A000814256D830688007F4D42FB1DBF800108F
:1026B00021F08051CBF80010A069C8B33D49091D35
:1026C0000968C1F3810102294AD00228504607D087
:1026D000C8F8600000E03CE0FEF7DAFF04463BE0AB
:1026E0004746C8F86000FEF7D3FF064605E000BF86
:1026F000FEF7CEFF801B02282BD828688001F7D474
:10270000D4E907010843A16A2E4A490802EB0141B6
:10271000626A41EA8211084394F82C1040EA016190
:10272000C9F8001001203866FEF7B2FF044606E043
:102730003EE000BFFEF7ACFF001B022809D8286866
:102740008001F7D534E000BFFEF7A2FF001B02288E
:1027500002D90320BDE8F88F28688001F4D427E06F
:102760000128F7D0D9F80000E26900F48001914215
:102770001CD1226A00F03F01914217D147F6C07187
:10278000626A0140B1EB821F10D1A26A4FF0FF33A1
:1027900000F4403103EB5202B1EB024F06D194F842
:1027A0002C1000F07060B0EB016F01D00120D1E778
:1027B0000020CFE70438024000004742800E474225
:1027C000007000400000FFFF10B5401EB0F1807F98
:1027D00001D3012010BD4FF0E02460610F2160178C
:1027E00003F099F90020A06107202061002010BDAE
:1027F00070477047F8B5016804460868CA684B69B5
:1028000010F00F0F4FF0000559D003F0010602F44D
:102810009077374365D0C10705D0D10503D5216C2A
:1028200041F001012164410705D5D90703D0216C8E
:1028300041F002012164810705D5D90703D0216C3D
:1028400041F004012164010707D502F02001314362
:1028500003D0216C41F008012164216C00293AD099
:10286000800604D5900602D5204601F030FB206892
:102870004069216CC0F38010090700D460B3204682
:1028800001F0FEFA20684069400621D52068143026
:1028900050E8001F21F0400140E80012002AF5D165
:1028A000A06BA8B16C490165A06BFEF794FC0028F1
:1028B00011D0A06B016D01B0BDE8F0400847830660
:1028C0000FD593060DD52046BDE8F84001F0FFBABC
:1028D0002046FFF78EFFF8BD2046FFF78AFF2564EC
:1028E000F8BD266B2023012E79D1C60677D5D606F2
:1028F00075D50868486800904869400640D5A16BC6
:10290000086840680004000CEAD0A28D8242E7D932
:10291000E085C869B0F5807F2DD020680C3050E884
:10292000001F21F4807140E80012002AF5D12068D0
:10293000143050E8001F21F0010140E80012002A85
:10294000F5D12068143050E8001F21F0400140E824
:102950000012002AF5D184F83E30256320680C303F
:1029600050E8001F21F0100140E80012002AF5D1C4
:10297000A06BFEF7E7FBA08DE18D401A81B229E044
:10298000A08DE18D401A81B2E08D0028A8D00029E9
:10299000A6D020680C3050E8002F22F4907240E856
:1029A0000026002EF5D12068143050E8002F22F0C8
:1029B000010240E80026002EF5D184F83E30256360
:1029C00020680C3050E8002F22F0100240E800236D
:1029D000002BF5D12046FFF70BFFF8BDFFE70506FA
:1029E0002BD5150629D594F83D002128F5D1A068EE
:1029F000B0F5805F01D12069B0B1206A411C21622D
:102A0000216800784860E08C401E0004000CE084DF
:102A1000E3D12068C16821F08001C1602068C168ED
:102A200041F04001C160D8E7206A0088C0F3080087
:102A30004860206A801C2062E5E74006CDD550063C
:102A4000CBD5CA68204622F04002CA6084F83D30E7
:102A500000F005F9C1E70000713E000870B5040000
:102A600004D094F83D00002510B106E0012070BDAF
:102A700084F83C50204600F023F8242084F83D00E0
:102A80002068C16821F40051C160204601F080FA3D
:102A90002068016921F4904101612068416921F0B9
:102AA0002A0141612068C16841F40051C160256478
:102AB000202084F83D0084F83E00002070BD000016
:102AC0002DE9F04186B0064614216846FDF7F9FB72
:102AD0002F493068884258D12E480024016841F0BF
:102AE00010010160006800F01000059029481438BA
:102AF000016841F0010101600068694600F00100D1
:102B000005904FF4C06000900220CDE9010403203D
:102B10000390072004902048FEF7BCFC204D1F487E
:102B20004FF000672860C5E901744FF48068C5E97B
:102B3000034880156C61C5E906402C6228466C622A
:102B4000FEF72CFC08B1FEF78EFAB563AE631348AE
:102B5000144D3030E5E802074020A5E81101114886
:102B600045F81449AC61EC612C626C62FEF716FC0E
:102B700008B1FEF778FA7563002211462520AE638E
:102B8000FEF7F4FD2520FEF7E3FD06B0BDE8F08179
:102B900000100140443802400000024088640240B6
:102BA000AC0100200C020020704700002DE9F84322
:102BB000044690F83D001F4616460D4620284CD18D
:102BC000C5B1BEB194F83C00012846D0012084F87C
:102BD0003C004FF00008C4F84080212084F83D00FC
:102BE000FEF756FDA6848146E684A068B0F5805FB6
:102BF00003D004E00120BDE8F883206928B12E4607
:102C00005FF0000584F83C800EE00026FAE78021A2
:102C1000204601F043FAA0B9AEB116F8010B2168C5
:102C20004860E08C401EE084E08C4B464FF0000290
:102C300000970028EBD14FF04001204601F02EFA1A
:102C400030B10320D7E735F8020BC0F30800E6E700
:102C5000202084F83D000020CDE70220CBE770471C
:102C6000FEE70000F0B500230A24302537261F4672
:102C700011E000BFB4EB107F02D905EB107C01E03E
:102C800006EB107C01F813C001EB430C00015B1C48
:102C90008CF80170DBB29342ECD3F0BD10B54FF06D
:102CA00000732DED028B82B004790A79032C12D0C7
:102CB00090ED008A132A36D00C6804F18070984297
:102CC00039D800EE104AB8EEC00AB4EEC08AF1EE70
:102CD00010FA40D944E00468032A0FD091ED008A2D
:102CE00004F1807098420DD800EE104AB8EEC00A88
:102CF000B4EEC80AF1EE10FA2DD931E00868A0420E
:102D000029DA2DE001216846B0EE480A0EF0ACF851
:102D100018B1009884421EDD22E0B5EEC08AF1EEC3
:102D200010FA18DC1CE091ED000AB4EEC80AF1EECE
:102D300010FA10DA14E002216846B0EE480A0EF0EC
:102D400093F818B10098A04205DD09E0B5EEC08AFD
:102D5000F1EE10FA04D2012002B0BDEC028B10BDDE
:102D60000020F9E710B54FF000732DED028B82B013
:102D700004790A79032C12D090ED008A132A36D0F8
:102D80000C6804F18070984239D800EE104AB8EE11
:102D9000C00AB4EEC08AF1EE10FA40D344E00468F1
:102DA000032A0FD091ED008A04F1807098420DD86B
:102DB00000EE104AB8EEC00AB4EEC80AF1EE10FAFE
:102DC0002DD331E00868A04229DC2DE002216846BD
:102DD000B0EE480A0EF048F818B1009884421EDBA5
:102DE00022E0B5EEC08AF1EE10FA18DC1CE091ED9D
:102DF000000AB4EEC80AF1EE10FA10DC14E001216A
:102E00006846B0EE480A0EF02FF818B10098A042BC
:102E100005DB09E0B5EEC08AF1EE10FA04D201201C
:102E200002B0BDEC028B10BD0020F9E72DE9F041A6
:102E30000546D0F8D40205EB8000D0F8C042002C43
:102E40001ED094F81C020F4E40B9D4F8180228B1D5
:102E5000607A18B93178284601F0CAFC0A4F284632
:102E6000397801F0C5FC607A022809D13978284602
:102E700001F0BEFC31782846BDE8F04101F0B8BC55
:102E8000BDE8F081BD000020BC00002070B5054603
:102E9000D0F8D40205EB8000D0F8C042002C65D0F9
:102EA000D4F81402C4F83402D4F81802C4F8380272
:102EB0002F480178284601F099FB1F280DD12D4994
:102EC000D4F81002884208D194F81D12012904D8C0
:102ED00094F81E0208B1102809D994F81D12202375
:102EE0000522284600F004FE0220607209E004F288
:102EF0001F22284600F0D6FA0028207A08DA052892
:102F000004D02846BDE87040FFF790BF012128E0BB
:102F100002282BD0012829D0032827D0E668FEB14B
:102F2000D5F8D412284605EB810104F11002D1F83E
:102F3000C01200291AD0D1F81832B34200D3334658
:102F4000D1F83842A41BC1F83842002481F83C4231
:102F500004240C7208490978BDE8704001F063BC94
:102F600000212846BDE8704000F0DCB870BD0000CC
:102F7000BD00002055534243BC00002010B504465C
:102F8000D0F8D40204EB8000D0F8C002002818D09A
:102F9000407A022809D0090613D5012811D020460D
:102FA000BDE81040012100F0BDB806480178204678
:102FB00001F01EFC044801782046BDE8104001F0F5
:102FC00017BC10BDBC000020BD00002010B5044699
:102FD000D0F8D40204EB8000D0F8C022002A17D029
:102FE000107A022805D0032801D0042810D100212E
:102FF00009E092F81D12204602F21F2200F052FA58
:10300000002805DA01212046BDE8104000F08AB80A
:1030100010BD10B50446D0F8D40204EB8000D0F8FF
:10302000C022002A17D0107A80B1012813D192F85B
:103030001D12204602F21F2200F034FA00280ADA9C
:103040002046BDE81040012100F06CB82046BDE8E4
:103050001040FFF71BBF10BDD0F8D41200EB810069
:10306000D0F8C002002801D0002101727047000092
:1030700070B50546D0F8D40205EB8000D0F8C04208
:10308000002C24D000202072607284F8610284F841
:10309000600284F86202D5F8D40205EB8000D0F813
:1030A000C402016800208847094E2846317801F0A3
:1030B00094FA08480178284601F08FFA04F5047262
:1030C00031782846BDE870401F2301F007BB70BD72
:1030D000BD000020BC00002070B50546D0F8D40229
:1030E00005EB8000D0F8C042002C16D000202072E2
:1030F0000120607209480178284601F0A9F9084EBC
:103100002846317801F0A4F904F504723178284694
:10311000BDE870401F2301F0E1BA70BDBC00002083
:10312000BD00002070B50546D0F8D40205EB800044
:10313000D0F8C042002C18D00C48C4F8300284F8F3
:103140003C12002020720A480D2304F50C7201780D
:10315000284601F068FB074804F504721F23017834
:103160002846BDE8704001F0B9BA70BD55534253CE
:10317000BC000020BD0000202DE9F04186B01421E4
:103180006846FDF79EF824484FF00008016841F0BA
:1031900080010160016801F080010591016841F042
:1031A00010010160016801F010010591016841F012
:1031B00001010160016801F001010591016841F020
:1031C000080101600068154F00F008004FF46046E8
:1031D0000590012231463846FEF754FAF0104FF4BC
:1031E0008815CDE900050124694602943846FEF7AA
:1031F00051F90220CDE90240CDE900646946384624
:10320000FEF748F908208DE8210169460448FEF7D9
:1032100041F906B0BDE8F0813038024000100240AC
:10322000000C024010B500220F49104801F0FDF8D3
:1032300008B1FDF718FF0E490C4801F070FC08B109
:10324000FDF711FF0B49094801F0DAFB08B1FDF762
:103250000AFF064801F0E6FC002803D0BDE8104054
:10326000FDF701BF10BD0000000000206C0200202F
:103270008400002050000020FEE7FEE70148FEF732
:103280001DBC0000C00900202DE9F04103680D4677
:1032900004461E6C03EB4511D1F8080BD4F810E07E
:1032A0004FF400474FF0200C04F2C442BEF1010F6E
:1032B00009D0DFF898E0764539D1020432D500BF55
:1032C000C1F8087B3FE0224B5FEA007E04D59E42B6
:1032D00039D90004F4D436E05FEA806E02D5C1F833
:1032E00008CB30E010F0280F2DD19E4201D9000408
:1032F000E6D405EBC50004EB8000D1F8101BD0F834
:103300009832C1F31201591AC0F89C1200F51F70CF
:10331000ADB983691BB10269114401610FE001215C
:1033200020680AE080060AD5C1F808CB07E035B965
:10333000D4F8940218B90021184602F071F8E9B2E5
:103340002046FEF779FA0020BDE8F0810A31544F9B
:103350000A30544F2DE9F84F0E4601EBC60100EB41
:10336000810481460568616DE06D3C34884202D974
:103370000120BDE8F88F081AE168814200D20846B2
:10338000C01C870805EB46181BE000BFA0EB010A34
:10339000E068504500D282460AF10300870899F898
:1033A000100000901FFA8AF3F2B22846216902F059
:1033B00051FB216901EB0A002061216A01EB0A003F
:1033C0002062D8F8180980B2B84205D3216AA069F2
:1033D000814201D20028D9D1216AA069884208D847
:1033E00006F00F0101208840D5F834188143C5F854
:1033F00034180020BDE7704730B5D0F8D4424FF004
:10340000FF3500EB8404D4F8C04244B11A44D4F828
:1034100068329A4205D92123052200F069FB28462B
:1034200030BD002030BD000070B50446D0F8D40295
:10343000134604EB80024FF0FF35D2F8C00280B192
:10344000D0F818627EB15E78F60716D0997871B11F
:1034500080290FD090F81D1224230522204600F069
:1034600047FB284670BD90F81D122023F5E7062281
:103470000A490FE008220A490CE0D2F8C42201EB05
:10348000C1011B79D26902EB81010A79521D934275
:1034900000D81A4600F082FB002070BDEA00002030
:1034A000F00000202DE9F041D0F8D4324FF0FF3683
:1034B00000EB8303D3F8C05255B3137802270024DE
:1034C000252B70D00FDC1A2B53D005DC0BB3032B4C
:1034D00023D0122B17D124E01B2B26D01E2B3FD03C
:1034E000232B10D15BE05A2B4ED006DC282B62D068
:1034F0002A2B68D02F2B06D16DE09E2B57D0A82BFE
:103500005DD0AA2B63D02023052200F0F1FA6F7260
:1035100020E0BDE8F04100F011BBBDE8F04100F053
:10352000A3BABDE8F041FFF77FBF95F86232012BE7
:1035300004D1137903F00303022B4FD0117901F06A
:103540000300012812D0022807D0C84380070DD0FD
:10355000EC6017E03046BDE8F08185F86272F7E76D
:10356000107918B1012085F86202F1E785F862420E
:10357000EEE7117917232846172900D80B461A467B
:103580001D4909E02046E6E7117A1B2328461B293E
:1035900000D80B461A46194900F000FBF2E7BDE8D7
:1035A000F04100F01EBABDE8F04100F08AB9BDE874
:1035B000F04100F0C1B9BDE8F04100F0CFB8BDE87E
:1035C000F04100F022B9BDE8F04100F0F7BABDE8E3
:1035D000F04100F065BB5278920704D52423052200
:1035E00000F086FAB6E7D5E99B23FFF705FF002830
:1035F000B0DB2046EC60AEE7F80000200F010020B1
:103600002DE9F0470646D0F8D402884606EB800044
:103610004FF0FF37D0F8C042FCB1B4F86412D4F8D0
:1036200070524FF400724D43954200D31546B5FBDE
:10363000F1F1D0F8C4028BB204F11001D0F810C03F
:10364000D4F86C2289464046E047002808DA112366
:1036500004224146304600F04BFA3846BDE8F08778
:1036600010482B464A460178304601F0DCF8B4F8A1
:103670006402D4F86C22B5FBF0F1B5FBF0F0114414
:10368000C4F86C12D4F87012081AC4F87002D4F896
:103690003812A1EB0501C4F8381201D103202072C1
:1036A0000020DBE7BC0000202DE9F0470746D0F8FA
:1036B000D402894607EB80004FF0FF38D0F8C042B3
:1036C000FCB1B4F86412D4F870624FF400754E4344
:1036D000AE4200D32E46B6FBF1F1D0F8C4028BB255
:1036E00004F11001D0F814C0D4F86C228A46484680
:1036F000E047002808DA032304224946384600F050
:10370000F7F94046BDE8F087B4F86402D4F86C22BB
:10371000B6FBF0F11144C4F86C12B6FBF0F1D4F82A
:103720007022531AC4F87032D4F83812A1EB060193
:10373000C4F838120BD04343AB4200D32B460648A3
:1037400052460178384600F0C9FF0020DAE7002130
:103750003846FFF7E7FCF8E7BD0000202DE9F0410F
:103760000646D0F8D402154606EB80008846D0F80D
:10377000C0424FF0FF375CB3217AD1BB94F81C12E2
:10378000090631D594F86212022905D0D0F8C40296
:1037900081684046884730B13A230222414630468C
:1037A00000F0A6F914E06888297940BA000440EADC
:1037B0000122687941460243C4F86C22B5F807003B
:1037C00043BA3046C4F87032FFF716FE002802DA1A
:1037D0003846BDE8F081B4F86412D4F8700248436A
:1037E000D4F81812884205D0202394F81D1205221F
:1037F000D5E701E0022020724FF40070E0604146FE
:103800003046BDE8F041FFF7FBBE2DE9F04106462A
:10381000D0F8D402154606EB80008846D0F8C042A6
:103820004FF0FF3784B3217A89BB94F81C12090644
:1038300037D594F86212022905D0D0F8C402816805
:103840004046884730B13A2302224146304600F0D4
:103850004FF919E06888297940BA000440EA01224A
:1038600068790243C4F86C22E888297A40BA0004D7
:1038700040EA0123687A414603433046C4F8703277
:10388000FFF7BAFD002803DA3846BDE8F0810FE003
:10389000B4F86412D4F870024843D4F8181288427D
:1038A00004D0202394F81D120522CFE702202072B5
:1038B0004FF40070E06041463046BDE8F041FFF74C
:1038C0009FBE2DE9F0410546D0F8D4020F4605EB26
:1038D00080004FF0FF36D0F8C0424CB1D0F8C4029F
:1038E00004F51972111D436838469847E8B902E09B
:1038F0003046BDE8F08194F86202022815D0D4F871
:103900006802401E010E2174010C6174010AA17449
:10391000E074002020756075B4F86402010AA17596
:10392000E0750820E0600020E3E73A2302223946F0
:10393000284600F0DDF8DBE72DE9F0410646D0F837
:10394000D402154606EB80008846D0F8C0424FF0FE
:10395000FF374CB1D0F8C40204F51972111D436849
:103960004046984798B902E03846BDE8F08194F89F
:10397000620202280BD06889297B40BA000440EA21
:103980000120697B0843E060002001460AE03A23F9
:1039900002224146304600F0ABF8E5E72218401C11
:1039A0001174C0B2E2688242F8D8D4F86802401EAE
:1039B000020E2275020C6275020AA275E07521766C
:1039C0006176B4F86402010AA176E0766889297B01
:1039D00040BA000440EA0120697B0843E06000200F
:1039E000C3E72DE9FC410546D0F8D4020F4605EBAC
:1039F00080004FF0FF36D0F8C04244B1D0F8C40286
:103A00006A4601A943683846984730BB02E0304611
:103A1000BDE8FC8194F8620202281ED00020014615
:103A20002218401C80B211740C28F9D30820E074CD
:103A30000198401E020E2275020C6275020AA275E0
:103A4000E075022020766176BDF80000010AA176BB
:103A5000E0760C20E0600020DAE73A2302223946C3
:103A6000284600F045F8D2E730B5D0F8D4124FF030
:103A7000FF3400EB8101D1F8C01231B3D1F8183214
:103A80002BB3002004460B18401CC0B21C74122833
:103A9000F9D3702008740C20C87591F8600291F871
:103AA000613298421CD001EBC003401C93F8405295
:103AB0008D7493F844520D7793F84532C0B24B772A
:103AC00081F86002042809D00AE0204630BD91F850
:103AD0001D122023052200F00BF8F6E781F8604262
:103AE0001220C8601079122800D8C860002030BDAC
:103AF000D0F8D41200EB8100D0F8C00200281CD00E
:103B000090F8611200EBC10181F8402290F8611237
:103B100000EBC10181F8443290F86122002100EBF2
:103B2000C20282F8451290F86122521CD2B280F88B
:103B30006122042A01D180F8611270472DE9F04119
:103B40000546D0F8D402884605EB80004FF0FF37D9
:103B5000D0F8C042E4B1D4F8181239B194F81D126B
:103B6000202305222846FFF7C3FF11E094F86212D4
:103B70000526022905D0D0F8C4028168404688474E
:103B800048B13A23022241462846FFF7B1FF267288
:103B90003846BDE8F0810020E060FAE710B508B1D2
:103BA000C26007E04FF0FF3010BD521E92B2841881
:103BB0008B5C2374002AF8D1002010BD2DE9F04160
:103BC0000546D0F8D402164605EB80008846D0F8AA
:103BD000C0424FF0FF37ECB3217A29B14146284665
:103BE000BDE8F041FFF760BDD4F8181299B394F81E
:103BF0001C1209063DD4D0F8C402816840468847AB
:103C000028B13A230EE02846FFF772FF25E0D5F8E9
:103C1000D40205EB8000D0F8C402C1684046884752
:103C200018B1272302224146EDE77088317940BA66
:103C3000000440EA0122707941460243C4F86C2234
:103C4000B6F8070043BA2846C4F87032FFF7D4FB31
:103C5000002801E001E00CE002DA3846BDE8F0811E
:103C6000B4F86402D4F870324343D4F8180298428E
:103C700004D0202394F81D120522C4E74FF40070ED
:103C8000834200D3034601202072044804F110024D
:103C90000178284600F022FD0020DFE7BD0000206B
:103CA0002DE9F0470646D0F8D402154606EB800011
:103CB0008946D0F8C0424FF0FF3884B3217A29B149
:103CC00049463046BDE8F047FFF7EEBCD4F818127D
:103CD00019B194F81C12090607D594F81D12202377
:103CE00005223046FFF704FF34E0D0F8C4028168B3
:103CF00048468847052708B13A230AE0D6F8D40297
:103D000006EB8000D0F8C402C1684846884738B145
:103D10002723022249463046FFF7EAFE277219E0C0
:103D20006888297940BA000440EA01226879024390
:103D3000C4F86C22E888297A40BA000440EA0123DA
:103D4000687A494603433046C4F87032FFF754FBA3
:103D5000002802DA4046BDE8F087B4F86402D4F8DF
:103D600070324343D4F818029842B6D14FF4007031
:103D7000834200D3034601202072044804F110025C
:103D80000178304600F0AAFC0020E4E7BD000020E6
:103D90004FF480300860C011108000207047002070
:103DA00070470020704700207047002070470020B7
:103DB00070470020704770470178407841EA002042
:103DC0007047FDF76BBC000030B593B030216846FA
:103DD000FCF777FA14210CA8FCF773FA1E480025AB
:103DE000016841F080510160006800F0805011903E
:103DF0001A48016841F4804101600068022400F41F
:103E00008040119001200090000401908001CDE9D4
:103E10000640192008904FF4A870CDE90904072046
:103E20000B906846FEF71AFB08B172B6FEE70CA9C4
:103E30000F2081E831004FF4A0500F904FF48050D4
:103E4000109005210CA8FEF717FA002801D072B6D1
:103E5000FEE713B030BD0000403802400070004063
:103E60000248016841F470010160704788ED00E08C
:103E700010B5806B0021C185C184FEF7BAFC10BD6E
:103E800001680C3151E8002F22F4907241E80023C0
:103E9000002BF5D10168143151E8002F22F0010206
:103EA00041E80023002BF5D1016B012909D10168FC
:103EB0000C3151E8002F22F0100241E80023002BC2
:103EC000F5D1202180F83E1000210163704708B52C
:103ED00090F83E10222901D0022008BD82684FF4DC
:103EE00080539A4201D1016921B1816A9A421BD063
:103EF0004AB10AE00268816A5268C2F308020A8085
:103F0000816A891C08E0026972B10268526802F095
:103F10007F020A70816A491C8162C18D491E0904B1
:103F2000090CC18503D019E002685268F1E7016805
:103F3000CA6822F02002CA600168CA6822F480724E
:103F4000CA6001684A6922F001024A61202180F8B2
:103F50003E10016B012903D0FEF726FE002008BDAC
:103F60000021016301680C3151E8002F22F010029A
:103F700041E80023002BF5D101680A68D20602D57A
:103F80000A6849680091818DFEF732FCE6E700007F
:103F900070B5044600680169E26821F4405111439C
:103FA00001612169A068E26908436169114308431E
:103FB0002168CA6849F20C639A430243CA602068C8
:103FC0004169A26921F4407111434161314920687E
:103FD000884202D03049884202D1FEF7FDF901E063
:103FE000FEF7EAF9E2690023192164253226B2F5C9
:103FF000004F626828D0A0FB0101930F9200FCF7EC
:10400000FDF80146B0FBF5F06FF01802504301EBEC
:10401000800006EB0010B0FBF5F000F0F002B1FB01
:10402000F5F002EB0012B1FBF5F06FF01803584306
:1040300001EB800006EB0010B0FBF5F000F00F0084
:1040400021681044886070BDA0FB010192185B419B
:10405000FCF7D4F80146B0FBF5F00201B1FBF5F036
:104060006FF01803584301EB800006EBC000B0FB73
:10407000F5F000F0F80002EB4002B1FBF5F0584318
:1040800001EB800006EBC000B0FBF5F000F007008C
:10409000D6E7000000100140001401402DE9F04176
:1040A000984617460E460446069D27E0681C25D014
:1040B0002DB1FDF7EDFAA0EB0800A8421ED920684B
:1040C0000C3050E8001F21F4D07140E80012002AA3
:1040D000F5D12068143050E8001F21F0010140E8BC
:1040E0000012002AF5D1202084F83D0084F83E001B
:1040F000002084F83C000320BDE8F08120680068BF
:1041000036EA000004D00020B842CFD00020F3E708
:104110000120F9E70148FEF76DBB000068010020AF
:1041200010B5D0F8B82200245268904700B103249B
:10413000204610BD0020704700207047134610B580
:104140000A46002100F0CAFA002010BD134610B53F
:104150000A46002100F067FB002010BD10B50446A0
:10416000802100F045FB2046BDE81040002100F012
:104170003FBB10B50521C0F8941200231A4619461A
:1041800000F0ACFA002010BD10B50223C0F8943244
:1041900082611346C2610A46002100F044FB002000
:1041A00010BD10B50421C0F8941200231A46194618
:1041B00000F039FB002010BD10B50A46024903A0EB
:1041C00000F003F9004810BD480500204D5343207E
:1041D000436F6E66696700001220088000487047D0
:1041E0002000002010B50A46024903A000F0EDF8B7
:1041F000004810BD480500204D534320496E7465AA
:104200007266616365000000042008800048704702
:104210001C00002010B50A46024903A000F0D5F8A2
:10422000004810BD4805002053544D6963726F6506
:104230006C656374726F6E696373000010B50A4633
:10424000024903A000F0C1F8004810BD4805002055
:1042500053544D3332204D6173732053746F726128
:104260006765000010B51A2008800A480168001D23
:104270000468001D0068081809D008220649FEF7E6
:10428000F1FC0549042210312046FEF7EBFC024800
:10429000801E10BD107AFF1F36000020F8B50446BE
:1042A0000020ADF8000048880D46010A08295FD2B9
:1042B000DFE801F05E0409175E5E3C45D4F8B412F5
:1042C000207C0A6819E0207C02260028D4F8B80275
:1042D00005D0C16A684688470146467039E0816A60
:1042E000F8E7C0B2062843D2DFE800F0030A101452
:1042F000181CD4F8B402426805E0694690471CE0F7
:10430000D4F8B402826892B3207CF6E7D4F8B40201
:10431000C268F8E7D4F8B4020269F4E7D4F8B4024A
:104320004269F0E7D4F8B4028269ECE7207CF0B986
:10433000D4F8B802416B68468847014609E0207C02
:10434000A8B9D4F8B802016B68468847014607202F
:104350004870EA888AB1BDF8000040B1824200D9B5
:104360000246ADF800202046FFF70EFFF8BDFFE73C
:1043700029462046FFF7F2FEF8E72046FFF711FF37
:10438000F4E778B50E4642880178002504468A4253
:1043900012D9ADF800100AE0694600F00FF8417834
:1043A000052904D181780546B14205D000256188F0
:1043B000BDF800209142EFD8284678BD0A880378DE
:1043C0001A440A8001780844704770B50023002819
:1043D0001ED00025044602E06D1CEDB2641C267858
:1043E000002EF9D1022404EB450414801278CA543B
:1043F0005B1C0322CA5400245B1C06E0CA545B1CED
:10440000DAB28C54521CD3B2401C0278002AF5D187
:1044100070BD01004FF0000004D0012901D0022935
:1044200001D0032070470120704778B10023C0F805
:10443000B832C0F8C432C0F8D03209B1C0F8B412F2
:10444000012180F89C12027000F0D4B8032070475C
:1044500010B5D0F8C802FDF732FABDE81040FFF7FA
:10446000D8BF10B5D0F8C802FDF703FABDE8104078
:10447000FFF7CFBF2DE9F04117460446002521B1D3
:1044800094F89C02032842D04CE0D4F8941204F132
:104490001400022935D1D0E902639E4206D9F21AEE
:1044A000826039462046FFF751FE0FE0B34214D137
:1044B0004068984211D3D4F8981288420DD2002255
:1044C00011462046FFF742FEC4F8985200231A46D0
:1044D0001946204600F002F913E094F89C020328E4
:1044E00008D1D4F8B802C16821B1C4F8D452C16867
:1044F000204688478021204600F07AF92046FFF7C1
:1045000038FE94F8A00268B184F8A0520AE0D4F80A
:10451000B802426932B1C4F8D45242692046904789
:10452000002800D10020BDE8F08170B51346044694
:10453000002221B194F89C02032830D03AE0D4F84C
:10454000941204F5AA70032934D1D0E902518D42A6
:104550000AD96A1A82600846824200D30246194686
:104560002046FFF7EBFD25E094F8AA0210F01F00AB
:1045700003D0012802D0022800D0002294F89C0227
:10458000032808D1D4F8B802016921B1C4F8D422B3
:104590000169204688472046FFF703FE0AE0D4F869
:1045A000B802836933B1C4F8D422826920469047A7
:1045B000002800D1002070BD0020704710B50024F5
:1045C000012180F89C12D0F8B82222B152680179FA
:1045D000904700B10324204610BD10B5D0F8C802A2
:1045E000FDF79BF9BDE81040FFF713BFD0F8C802F4
:1045F000FDF7ADB910B5017839BB15490222C1F8F4
:104600000805C0F8C8124FF0A040086004204860B8
:104610000020C1E90320C1E9062008624862C8629F
:1046200008630846FDF702FD08B1FCF71CFD802178
:104630000748FDF7CEF8402200210548FDF7CDF8E8
:10464000802201210248FDF7C8F8002010BD0000BB
:10465000C00900200A0601F07F01D0F8C80201EB72
:10466000C10100EB810002D590F83E00704790F840
:104670007E02704710B5D0F8D42200EB8202D2F847
:10468000B82222B190F89C32032B02D004E0032020
:1046900010BD126A02B19047002010BD10B5D0F8CD
:1046A000D42200EB8202D2F8B82222B190F89C32D8
:1046B000032B02D004E0032010BD526A02B19047E0
:1046C000002010BD10B51C461346D0F8C802224683
:1046D000FDF746F9BDE81040FFF79BBE10B5D0F8D6
:1046E000C802FDF76DF9BDE81040FFF792BE2DE955
:1046F000F04100260125044680F89C52C4F89462DB
:104700006660C4F8A46280F8A062D0F8B80230B144
:10471000426822B100212046904700B103260022C2
:10472000402311462046FFF7CDFF4027A4F86451EF
:104730003B46002280212046C4F86071FFF7C2FF8B
:10474000A58430462762BDE8F08190F89C120429C8
:1047500003D190F89D1280F89C120020704710B58C
:1047600090F89C12032905D1D0F8B81211B1C9698B
:1047700001B18847002010BD01740020704710B5BA
:10478000D0F8C802FDF724FDBDE81040FFF741BE98
:1047900070B5044600F2AA20054600F0AAF90120EF
:1047A000C4F89402B4F8B002C4F8980294F8AA02CB
:1047B00010F01F010AD001290ED0022912D000F0FA
:1047C00080012046BDE8704000F012B8294620461E
:1047D000BDE8704000F028BA29462046BDE8704088
:1047E00000F068BB29462046BDE8704000F0B2BA30
:1047F00010B5D0F8C802FDF707F9BDE81040FFF783
:1048000008BE10B5D0F8C802FDF7FDFCBDE81040A9
:10481000FFF7FFBD90F89C1280F89D12042180F8EC
:104820009C120020704710B5D0F8C802FDF726F999
:10483000BDE81040FFF7EDBD10B5FEF7C7FB002047
:1048400010BD10B5FEF7E5FB002010BD70B51B4D87
:1048500004466978FFF705FE6878002600F00F002F
:1048600000EB800004EB8000A0F86461297820460A
:10487000FFF7F7FD287800F00F0000EB800004EB55
:1048800080008684D4F8D40204EB8000D0F8C00203
:1048900090B12046FEF7E0FBD4F8D40204EB800090
:1048A000D0F8C00200F03FFBD4F8D40204EB800043
:1048B000C0F8C062C4F8BC62002070BDBC0000201B
:1048C0000A21018000487047E000002070B50546CD
:1048D00081210848FFF755FD044601210548FFF7EF
:1048E00050FD402104B1A18000B1818020202880AA
:1048F000004870BDC000002070B505468121094800
:10490000FFF73FFD044601210648FFF73AFD4FF44B
:10491000007104B1A18000B181802020288001486D
:1049200070BD0000C000002070B505468121084818
:10493000FFF727FD044601210548FFF722FD40212E
:1049400004B1A18000B1818020202880004870BD82
:10495000C00000202DE9F04104464FF41D7000F026
:10496000E3FA70B3D4F8D412244D04EB810101268C
:10497000C1F8C002C4F8BC02207C60B3402302220C
:1049800069782046FFF79EFE6878402300F00F000C
:1049900000EB800004EB8000A0F86461022229781B
:1049A0002046FFF78FFE287800F00F0000EB800014
:1049B00004EB800086842046FEF75AFB0020BDE809
:1049C000F081FFE7D4F8D412002004EB8101C1F894
:1049D000C0020220F3E74FF400773B4602226978D9
:1049E0002046FFF76FFE68783B4600F00F0000EBB3
:1049F000800004EB8000A0F86461CFE7BC000020D9
:104A000039B1D0F8D42200EB8200C0F8C4120020E3
:104A1000704703207047F8B50646D0F8D4020C461C
:104A200006EB80010025D1F8C072ADF8005037B117
:104A3000207810F0600223D0202A40D101E003202A
:104A4000F8BD6278FE2A02D0FF2A38D10EE06288D3
:104A500082BBE288012A32D1000630D5D1F8C402E7
:104A6000806980470122394638601FE0618809BBB0
:104A7000E188F9B9000622D43046FEF72DFB23E089
:104A8000607830B1012824D00A2809D00B2816D12B
:104A900011E096F89C02032811D10222694605E034
:104AA00096F89C0203280AD10122391D3046FFF7EF
:104AB0006BFB09E003E096F89C02032806D0214630
:104AC0003046FFF74BFB03252846F8BDA0787860F9
:104AD000FAE796F89C020328F6D160880028F3D103
:104AE00021793046FFF779FD21793046FEF746FA05
:104AF000EAE770B5054611F8010B28700878687070
:104B00004C1C2046FFF758F96880A41C2046FFF78C
:104B100053F9A880A01CFFF74FF9E88070BD38B5A5
:104B200004460020ADF80000A1B1C4F8B812D4F8D2
:104B3000D40204EB8000D0F8B802C16A19B168460B
:104B40008847C4F8D002D4F8D802401CC4F8D80270
:104B5000002038BD032038BD02460020D2F8B8320C
:104B6000002B02D01B681046184770472DE9F04112
:104B700088462B4E8978002504463170012906D9D4
:104B800041462046FFF7EAFA0320BDE8F08194F899
:104B90009C02022702280CD003281DD04146204643
:104BA000FFF7DCFA31782046FFF7BAFA03252846EA
:104BB000EBE789B320466160FFF7CEFF050004D024
:104BC00041462046FFF7CAFA1DE02046FFF7E9FA02
:104BD000032084F89C02EAE7C1B1606888421BD0D8
:104BE000C1B22046FFF79CFA317820466160FFF79A
:104BF000B3FF050010D041462046FFF7AFFA2179F8
:104C00002046FFF78DFA84F89C72D0E784F89C72F6
:104C100020466160FFF784FA2046FFF7C2FAC6E734
:104C200080000020FFF7EDBD2DE9F0410A78002556
:104C300012F060020CD0202A01D0402A7DD1D0F899
:104C4000D42200EB8202D2F8B8229268904731E079
:104C50004B78002201260A2B6FD2DFE803F0416671
:104C60006E586E08056E2D29FFF718FB67E00446A5
:104C70008888D8B9C888C8B94888802816D200F072
:104C80007F0794F89C02032810D084F89E7239465E
:104C90002046FFF774FD2046FFF783FA1FB102207C
:104CA00084F89C024BE084F89C6248E0204644E093
:104CB000FFF75CFF054642E0CB88012B3DD190F821
:104CC0009C32012B04D0022B02D0032B35D104E0FF
:104CD0008260012200F1080116E00122011D13E0AB
:104CE00090F89C22012A03D0022A01D0032A24D161
:104CF000CA88022A21D1C660D0F8A41209B10321C2
:104D0000C160022200F10C01FFF73EFA17E04A8869
:104D1000012A02D0022A03D00FE0C0F8A46216E0F4
:104D20008988090A80F8A01211E090F89C32012BC2
:104D300008D0022B06D0032B04D0FFF70FFA284629
:104D4000BDE8F08149880129F9D1C0F8A422FFF714
:104D500028FAF4E72DE9F041054608780C790E466B
:104D60004FF0000810F060000BD0202801D0402840
:104D70006AD121462846FFF7DDF9FF2800D0D8B3D5
:104D800095E07078C8B3012824D003285CD195F849
:104D90009C02022802D0032856D10CE0002C53D0EC
:104DA000802C51D021462846FFF722FD802128463D
:104DB000FFF71EFD7BE0708840B93CB1802C05D028
:104DC000C88818B921462846FFF712FD2846FFF784
:104DD000E8F96CE095F89C020228DFD0032863D143
:104DE000708880BB600603D021462846FFF730FB61
:104DF0002846FFF7D6F9BCE700E00AE0C5F8D40280
:104E0000D5F8B8028268F2B131462846904780460C
:104E10004DE095F89C020027022802D0032843D1D8
:104E200013E00CB1802C3FD1200604F07F0000EB92
:104E3000800005EB800101D5143101E001F5AA7174
:104E400002220F602CE032E02EE0200604F00F007A
:104E500000EB800005EB800009D5808C20B304F0C6
:104E60007F0000EB800005EB800614360AE0B0F806
:104E70006401C8B104F07F0000EB800005EB800600
:104E800006F5AA764CB1802C07D021462846FFF7BC
:104E9000E1FB10B10120306000E0376002223146B2
:104EA0002846FFF771F902E02846FFF757F9404618
:104EB000BDE8F08170B50546087800240E4610F074
:104EC000600003D0202801D0402827D195F89C020B
:104ED000012803D0022801D003281FD1B088C1B215
:104EE00001291AD8C1B22846FFF726F9FF280CD0AD
:104EF00058B9D5F8B8128A683AB1C5F8D4028A68A8
:104F0000314628469047044600E00324F0882043B9
:104F100007D12846FFF745F903E031462846FFF759
:104F20001DF9204670BD70470048704748070020B3
:104F300070B50A78012302F00F054E78AB401B4C88
:104F4000D0F81C58012E17D045EA0343C0F81C388E
:104F500000EB4210D0F8002B12040BD4D0F8002B39
:104F60008B890979C3F30A031A4344EA81410A434E
:104F7000C0F8002B002070BD9BB21D43C0F81C5828
:104F800000EB4210D0F800391B04F3D4D0F80039FC
:104F90008D890979C5F30A0589042B4341EA8251B9
:104FA0000B432343C0F80039E4E700000080001001
:104FB000D0F800196FF30A01C0F80019D0F80418EE
:104FC00041F48071C0F804180020704770B50446A1
:104FD00006990A9E049D0D98012916D0E06840F0BC
:104FE0004000E060204600F02BF8A16B1EB321F4D6
:104FF0008031A163012D07D1A16841F00601A160B4
:10500000A16841F02001A16070BDA16B21F4803145
:10501000A163E168094A1140E160E16821F44011AF
:10502000E160012803D1E06840F48010E060204690
:1050300000F006F8DEE741F48031DAE7BFFFBDFF9C
:1050400008B500220D490092009B5B1C00938B4227
:105050000CD80369002BF7DA0092026942F00102D2
:105060000261009A521C00928A4201D9032008BDB5
:105070000269D207F5D1002008BD0000400D0300F1
:1050800030B54C780A78012300EB4212012C2CD069
:10509000D2F8004B002C0BDAD2F8004B44F000643D
:1050A000C2F8004BD2F8004B44F08044C2F8004BE9
:1050B000D0F83C580C7804F00F0403FA04F425EA05
:1050C0000444C0F83C48D0F81C48097801F00F01AE
:1050D0008B4024EA0341C0F81C18D2F8000B194990
:1050E0000840C2F8000B002030BDD2F80049002C67
:1050F0000BDAD2F8004944F00064C2F80049D2F853
:10510000004944F08044C2F80049D0F83C480D788A
:1051100005F00F0503FA05F5ADB2AC43C0F83C4805
:10512000D0F81C48097801F00F018B4099B28C43EC
:10513000C0F81C48D2F8000903490840C2F8000929
:10514000D1E700000078F3EF007833ECD0F8001ED0
:1051500021F00301C0F8001ED0F8041821F002016C
:10516000C0F8041800207047D0F8001E21F0030199
:10517000C0F8001ED0F8041841F00201C0F804186D
:10518000002070472DE9F04F00250E460446DDF85B
:105190002CC0DDF824B0109F2846294604EB80027D
:1051A000C2F80411401C0F28F8D32046C7B1806B09
:1051B00020F40012A263A06B40F40022A263084610
:1051C0008846C4F8000ED4F800182046C4F8001829
:1051D000BCF1010F16D0D0F8001841F0030116E021
:1051E000D0F8040840F00202C4F80428A06B40F490
:1051F0000012A263A06B20F40022A263A06B20F433
:105200008022DBE7D0F800180BB141F00101C0F8B3
:105210000018102100F0EEFA00B10125204600F040
:10522000CBFA00B101254046C4F81088C4F81488B0
:10523000C4F81C8800214FF000694FF0904A4FF6E7
:105240007F3314E004EB4112D2F800C9BCF1000F27
:1052500006DA11B1C2F800A904E0C4F8009901E02F
:10526000C2F80009C2F81009C2F80839491C8E4278
:10527000E8D8002115E000BF04EB4112D2F800CBC2
:10528000BCF1000F06DA11B1C2F800AB04E0C4F8BB
:10529000009B01E0C2F8000BC2F8100BC2F8083BFB
:1052A000491C8E42E8D8D4F8101821F48072C4F852
:1052B0001028A0616FF080406061BBF1000F03D146
:1052C000A06940F01000A061A06909490843A061ED
:1052D0000C9818B1A06940F00800A061012F03D11B
:1052E000A06904490843A0612846BDE8F08F00008A
:1052F00000383C8004000040816821F00101816099
:105300000020704770B50D784E78444CEBB200EB3E
:105310004313012E21D0D3F8100B6FF31200C3F802
:10532000100BD3F8100B2040C3F8100B886908B19C
:10533000C8688861C868C861D3F8100B40F40020C1
:10534000C3F8100BD3F8100BCC69C4F3120420433C
:10535000C3F8100B012A55D058E08E69002ED3F8FF
:10536000106932D06FF31206C3F81069D3F81069D0
:105370002640C3F810698E69CC68A64200D98C61BA
:10538000D3F8104944F40024C3F81049D3F8104965
:105390008E69C6F312063443C3F81049012A22D09D
:1053A00000EB4512D2F8003943F00443C2F800394B
:1053B0008A6932B3D0F83428097801F00F0301214B
:1053C00099400A43C0F8342826E02640C3F8106903
:1053D000D3F8104944F40024C3F81049D3F8104915
:1053E0006FF31204D8E7496919B100EB4512C2F80E
:1053F000141900EB4510D0F8001941F00441C0F831
:10540000001909E0086908B1C3F8140BD3F8000BC0
:1054100040F00440C3F8000B002070BDFFFF07E020
:1054200010B5036C134CA34203D9D0F8003B002BFA
:105430001EDB0023C0F8103BD0F8103B43F40023E0
:10544000C0F8103BD0F8103B43F01803C0F8103BF5
:10545000D0F8103B43F0C043C0F8103B012907D1FE
:10546000C0F8142BD0F8001B41F08021C0F8001BBD
:10547000002010BD0A30544F4A780B78012A00EB07
:1054800043100BD0D0F8002B22F40012C0F8002BF0
:105490000979032914D0022912D017E0D0F8002985
:1054A00022F40012C0F800290979032901D0022949
:1054B0000CD1D0F8001941F08051C0F8001905E076
:1054C000D0F8001B41F08051C0F8001B002070474D
:1054D0000A784B78D1B200EB4110012B12D0D0F8F2
:1054E000001B002906DB2AB1D0F8001B21F0804107
:1054F000C0F8001BD0F8001B41F40011C0F8001BDD
:1055000000207047D0F80019002906DB2AB1D0F836
:10551000001921F08041C0F80019D0F8001941F4B9
:105520000011C0F80019EBE7F8B50C784F78764D0C
:10553000E3B26FF0604600EB4313012F27D0D3F89E
:10554000104B6FF31204C3F8104BD3F8104B2C40E0
:10555000C3F8104B8D69002D75D0CC6825446D1EA5
:10556000B5FBF4F5ADB26C43CC61D3F8104B06EA51
:10557000C5452C43C3F8104BD3F8104BCD69C5F388
:1055800012052C43C3F8104B012A71D0A4E08F6997
:105590001FB3D3F810796FF31207C3F81079D3F85B
:1055A00010792F40C3F810798F69CD682F447F1E82
:1055B000B7FBF5F506EAC545D3F810693543C3F8DE
:1055C0001059D3F810598E69C6F312063543C3F843
:1055D00010590D79012D10D01BE0D3F810692E4021
:1055E000C3F81069D3F8105945F40025C3F81059D1
:1055F000D3F810596FF3120509E0D3F8105925F0CC
:10560000C045C3F81059D3F8105945F00055C3F8F8
:105610001059012A18D000EB4413D3F8004944F084
:105620000444C3F800490C79012C2FD08A6962B375
:10563000D0F83428097801F00F03012199400A437A
:10564000C0F834285EE036E04A691AB100EB441332
:10565000C3F81429097901290FD1D0F80818C90510
:1056600000EB4411D1F8002903D442F0005202E0CB
:105670002EE042F08052C1F8002900EB4410D0F82F
:10568000001941F00441C0F800193BE0D0F8084887
:10569000E405D3F8004902D444F0005401E044F09A
:1056A0008054C3F8004900920A8B93B20A780969C2
:1056B00000F0D0F926E0D3F8104BCD68C5F3120501
:1056C0002C43C3F8104BD3F8104B44F4002459E793
:1056D0000A690AB1C3F8142B097901290CD1D0F851
:1056E0000808C005D3F8000B02D440F0005001E0D8
:1056F00040F08050C3F8000BD3F8000B40F004409A
:10570000C3F8000B0020F8BDFFFF07E038B500220A
:10571000009213464D780A7842F2107400EB421260
:10572000012D19D0D2F8005B002D3CDAD2F8005BD5
:1057300045F00065C2F8005B0A7800EB4212D2F82F
:10574000005B45F08045C2F8005B009A521C009255
:10575000A24221D9012326E0D2F80059002D22DAF5
:10576000D2F8005945F00065C2F800590A7800EBFC
:105770004212D2F8005945F08045C2F80059009A0B
:10578000521C0092A242E5D80A7800EB4212D2F8ED
:105790000029002AF3DB06E00A7800EB4212D2F877
:1057A000002B002AD1DB184638BD816841F0010189
:1057B000816000207047000008B500220C4900926B
:1057C000009B5B1C00938B420AD80369002BF7DA1D
:1057D000009210220261009A521C00928A4201D962
:1057E000032008BD0269D206F5D4002008BD0000E0
:1057F000400D030018B500230D4A0093009C641C63
:10580000009494420CD80469002CF7DA009320230A
:1058100043EA811101610099491C0091914201D92B
:10582000032018BD01698906F5D4002018BD0000C9
:10583000400D0300D0F8080810F0060004D002283C
:1058400003D0062801D00F2070470220704740691E
:1058500000F001007047D0F81818D0F81C08084074
:1058600080B27047D0F81818D0F81C080840000C17
:10587000704710B5D0F81038D0F8342801F00F0474
:1058800000EB4110E24002F00102D0F8080943EABF
:10589000C212104010BD00EB4111D1F8081BD0F826
:1058A000140808407047416980690840704730B566
:1058B00003460846940802F00301002203F58053D2
:1058C00003E01D6840F8045B521CA242F9D3002992
:1058D0000BD01C680022D50024FA05F3491E521C87
:1058E000090400F8013B090CF5D130BD70B5044640
:1058F000C068002520F0C040E060012901D079B1E6
:1059000020E0E06840F00050E0600120FBF7B0FDCF
:1059100060696D1C10F0010F10D1322DF5D30DE030
:10592000E06840F08040E0600120FBF7A1FD606985
:105930006D1C10F0010F01D0322DF5D3322D01D0A6
:10594000002070BD012070BDD0F8002822F4FE6256
:10595000C0F80028D0F800284FF4FE6303EA0111D4
:105960000A43C0F80028002070470000022A3ED1F8
:10597000264A274B0A449A4201D20F2138E0254A91
:10598000254B0A449A4201D20E2131E0234A244B8E
:105990000A449A4201D20D212AE0224A224B0A44AB
:1059A0009A4201D20C2123E0204A214B0A449A4218
:1059B00001D20B211CE01F4A1F4B0A449A4201D21C
:1059C0000A2115E01D4A1E4B0A449A420FD31D4A74
:1059D0001D4B0A449A4201D2082109E01B4A114496
:1059E0001B4A914201D2072102E0062100E0092171
:1059F000C26822F47052C260C2684FF4705303EA66
:105A000081210A43C260002070470000405327FFF5
:105A100000350C00401E1BFF40420F0000DC0BFF56
:105A2000804F1200808CF9FE20D6130060B6E5FE90
:105A300060E3160000D3CEFE40771B00C05BB3FED0
:105A4000C091210000CA91FE20753800E05459FE33
:105A5000E09C410010B5029C74B9DB1C9C0800EB73
:105A60000230002300F5805004E000BF51F8042B01
:105A700002605B1CA342F9D3002010BDFEE70000CA
:105A80000FB4024610B504A9034B039800F07EFE44
:105A900010BC5DF814FB0000B99400080FB4054B6E
:105AA00010B503A9044A029800F070FE10BC5DF81E
:105AB00014FB0000B9940008540100200FB47CB519
:105AC0000C0009AD01D0611E00E00021CDE900010C
:105AD000064B6A462946089800F058FE002C02D072
