:020000040800F2
:10000000A0180020A1010008CB310008192D00081C
:10001000C9310008D9080008C765000800000000C1
:10002000000000000000000000000000FB48000885
:1000300071090008000000003D330008074900086E
:10004000BB010008BB010008BB010008BB010008A0
:10005000BB010008BB010008BB010008BB01000890
:10006000BB010008BB010008BB010008BB01000880
:10007000BB010008BB010008BB010008BB01000870
:10008000BB010008BB010008BB010008BB01000860
:10009000BB010008BB010008BB010008BB01000850
:1000A000BB010008BB010008BB010008BB01000840
:1000B000BB010008BB010008BB010008BB01000830
:1000C000BB010008BB010008BB010008BB01000820
:1000D000BB010008594C0008BB010008BB01000827
:1000E000BB010008BB010008BB010008BB01000800
:1000F000BB010008BB010008BB010008BB010008F0
:10010000BB010008BB010008BB010008BB010008DF
:10011000BB010008BB010008BB010008BB010008CF
:10012000BB010008BB010008BB010008BB010008BF
:10013000BB010008BB010008BB010008BB010008AF
:10014000BB010008BB010008BB010008CD3100085D
:10015000DD080008BB010008E9080008BB01000831
:10016000BB010008BB010008BB010008BB0100087F
:10017000BB010008BB010008BB0100080000000033
:10018000BB010008BB010008DFF810D000F002FB43
:100190000048004709830008AFF30080A018002042
:1001A0000648804706480047FEE7FEE7FEE7FEE711
:1001B000FEE7FEE7FEE7FEE7FEE7FEE7A5490008EB
:1001C000890100082DE9F05F0546002092469B4614
:1001D00088460646814640241BE02846414647465D
:1001E000224600F02FF853465A46C01A914110D3C8
:1001F00011461846224600F016F82D1A67EB010842
:100200004F4622460120002100F00DF817EB0009AF
:100210004E41201EA4F10104DFDC484631462A4647
:100220004346BDE8F09F202A04DB203A00FA02F1A1
:10023000002070479140C2F1200320FA03F31943D4
:1002400090407047202A04DB203A21FA02F0002176
:10025000704721FA02F3D040C2F1200291400843D6
:100260001946704740EA01039B0703D009E008C91B
:10027000121F08C0042AFAD203E011F8013B00F86B
:10028000013B521EF9D27047D2B201E000F8012BB7
:10029000491EFBD270470022F6E710B513460A4606
:1002A00004461946FFF7F0FF204610BD421C10F827
:1002B000011B0029FBD1801A7047034611F8012B5E
:1002C00000F8012B002AF9D1184670472DE9FE4F9E
:1002D00081EA030404F0004421F0004100944FF04F
:1002E000000B23F0004350EA01045ED052EA0304FD
:1002F0005BD0C3F30A54C1F30A552C44A4F2F3347F
:100300000194A0FB0254C1F3130141F48011C3F323
:10031000130343F4801301FB024400FB034E840AE1
:10032000970A44EA815447EA8357A4FB0768029579
:100330008D0A05FB07854FEA932C04FB0C54270517
:10034000029D4FEA065847EA1637B5EB08056EEBF3
:10035000070C870E920E47EA811742EA8312A7FB29
:100360000201B6EB0B0164EB00042B0D43EA0C33E6
:100370005E1844EB1C50DA465146E7FB0201C5F318
:1003800013044FEA0B3343EA14534FEA0432019C3F
:1003900043EA0603A4F10C040294009CCDE900B4E6
:1003A00000F064F803B0BDE8F08F00200146F9E7E3
:1003B0000EB540F2334102910021CDE900110A4609
:1003C0000B4600F053F803B000BDC1F30A5210B55C
:1003D000C1F3130140F2FF3341F480119A4201DA74
:1003E000002010BD40F233439A42A2F2334203DCB4
:1003F0005242FFF727FF10BD904010BD00F00042B1
:1004000030F000400AD0C10D01F56071C0F3160054
:1004100042EA0151C20840071143704700200146DB
:10042000704730B50B46014600202022012409E028
:1004300021FA02F59D4205D303FA02F5491B04FA9D
:1004400002F52844151EA2F10102F1DC30BD10B501
:10045000141E73F1000408DA401C41F100019218E7
:100460005B411A4301D120F0010010BD2DE9F04D90
:1004700092469B4611B1B1FA81F202E0B0FA80F2E5
:1004800020329046FFF7CFFE04460F4640EA0A00AE
:1004900041EA0B0153465A46084313D0114653EA2A
:1004A000010019D0C8F140025046FFF7CBFE0546C7
:1004B0000E46504659464246FFF7B5FE084305D062
:1004C000012004E020463946BDE8F08D00200543B8
:1004D00046EAE0762C4337430A986305E40AA0EB2A
:1004E00008000022FD0A44EA47540A3002D50020E1
:1004F0000146E9E7010510196941DDE908450019E0
:100500006941BDE8F04DA2E72DE9FE4F804681EA42
:100510000300C00F0C46009021F0004123F000457D
:10052000B8EB0200A94105D24046214690461C4640
:100530000B46024623F00040104347D0270DC7F377
:100540000A00C3F30A510290401A019040286BDA66
:10055000C3F3130040F4801B0098924620B100239F
:10056000D2EB030A63EB0B0B01985946C0F1400232
:100570005046FFF758FE06460D4650465946019A2A
:1005800000F01AF910EB08006141002487EA1152CB
:1005900084EAE7731A4340D0009A62B3019A012AB1
:1005A0004FEA075215DC001B61EB02014FF00042DD
:1005B00002EA0752CDE90042001C41F580113246A3
:1005C0002B46FFF753FF03B0BDE8F08F40462146AE
:1005D000F9E7001B61EB0201001C41F580130018D4
:1005E0005B412018A2F5001747EB030140EAD570E4
:1005F000B6196D4111E06D084FEA360645EAC0753F
:100600004FEA0752001B61EB0201001C41F580110B
:1006100049084FEA30000019514132462B4603B0D9
:10062000BDE8F04FFFF713BF009801224000002300
:10063000D0EB020263EBE073009821464FEAE074CE
:10064000B8EB000061EB0401E9E783F000435BE7EE
:1006500081F0004158E72DE9F04D81EA030404F0F0
:10066000004B21F0004514464FF0000A23F00041F2
:1006700050EA050220D054EA01021DD0C5F30A5702
:100680000246C5F31303C1F31300C1F30A5640F445
:10069000801543F48013A7EB0608101BD64608F21A
:1006A000FD3873EB050002D308F1010801E0921850
:1006B0005B41B8F1000F03DA00200146BDE8F08D80
:1006C00000204FF48011064684460EE0171B73EBA2
:1006D000050705D3121B63EB050306434CEA010C27
:1006E00049084FEA300092185B4150EA0107EDD10A
:1006F00052EA030012D082EA040083EA05010843AB
:1007000005D0101BAB4106D20122002306E00022D7
:100710004FF0004302E06FF0010253101AEB0600A5
:100720004CEB085110EB0A0041EB0B01BDE8F04D1A
:10073000FFF78DBEC1F30A52C1F3130140F2FF333C
:1007400041F480119A4202DA00200146704740F2DB
:1007500033439A42A2F2334202DC5242FFF772BDA7
:10076000FFF761BD30B5041E71F1000404DB4FF0EA
:100770000044404264EB0101141E73F1000405DBE8
:100780001C464FF00043524263EB0403994208BFFA
:10079000904230BD064C074D06E0E06840F0010392
:1007A00094E8070098471034AC42F6D3FFF7F0FC0A
:1007B0006088000880880008202A06DBCB17203AD2
:1007C00041FA02F043EAE07306E041FA02F3D04056
:1007D000C2F12002914008431946704770B58C1849
:1007E00010F8015B15F0070301D110F8013B2A1145
:1007F00006D110F8012B03E010F8016B01F8016B32
:100800005B1EF9D12B0705D40023521E0DD401F82D
:10081000013BFAE710F8013BCB1A921C03E013F8F6
:10082000015B01F8015B521EF9D5A142D8D300202B
:1008300070BD00000146014801F098BDE8010020AC
:1008400010B5044801F0A4FD042801D0012010BD1A
:10085000002010BDE801002010B500F015F80128B7
:1008600001D0012010BD074801F0ABFD044634B9AA
:100870004FF40061034801F021FC00B1012420463F
:1008800010BD0000E801002081B0012000909DF81B
:10089000000001B07047000038B5002400931346F3
:1008A0000A460146034801F02BFE00B10124204610
:1008B00038BD0000E801002038B50024009313463D
:1008C0000A460146034801F009FF00B10124204611
:1008D00038BD0000E8010020FEE70000014800F0FC
:1008E00029B9000074070020014800F023B9000076
:1008F000D407002001681823CAB2103AB2FBF3F201
:10090000054B6FF30901032A9B5CC36500D9091DE0
:1009100081650846704700008E87000810B50146C3
:1009200000208B698A6A4FF0C07453B1B3F5005F41
:1009300015D072B1012A0CD0022A0AD0032A09D19B
:1009400004E01AB1012A06D0022A03D1C96AC901FA
:1009500000D5012010BDC96AA142FAD010BD002AFD
:10096000F7D0012AF2D0022AF3D0032AF3D010BD27
:10097000704700002DE9F047254D8CB089462A7854
:100980001AB901462348FFF798FC2249684606F049
:10099000A0FF04002DD11F4FA7F1180808F1090A84
:1009A0001C496846183907F0A7F804001ED198F8CA
:1009B00009104046D1B1017AC90621D51548FFF783
:1009C00075FC0646B819524613A105F00DFE2878AD
:1009D0004946484511D2401C287010A0FFF7CAFFB5
:1009E00004002878A0F10100287006D0684606F0BF
:1009F000B5FD0CB02046BDE8F0870020B855CFE724
:100A00005246044906A0D8F8003005F0DDFDC7E7DE
:100A100000000020680100202F2573000000000066
:100A200025732F25732025750D0A000072B6FEE789
:100A3000002200F001B8000010B4844601200E4BE3
:100A40005C7A002C16D1587A1C54587A03EB80003B
:100A5000C0F804C0587A03F1080C00F80C20587A4A
:100A6000421C5A72303008703A2048702F2088702B
:100A7000CC70002010BC7047941400202DE9F04188
:100A80000446876D00F090FA054694F8350000267C
:100A9000022806D08020606584F834600120BDE81B
:100AA000F0812068016821F0160101602068416929
:100AB00021F080014161206C08B9A06C20B1206850
:100AC000016821F0080101602068016821F001013E
:100AD00001600CE000F068FA401B052807D92020CF
:100AE0006065032084F8350084F83460D7E7206817
:100AF0000068C007EED194F85C103F208840B860D1
:100B0000012084F8350084F834600020C7E790F8AD
:100B10003510022903D0802141650120704705214D
:100B200080F835100068016821F0010101600020A3
:100B3000704700002DE9F84304464FF00009CDF856
:100B4000009063484FF41651A56D0068B0FBF1F7B3
:100B50002E6894F85C20082101FA02F030420FD090
:100B60002068026852070BD5026822F00402026076
:100B700094F85C008140A960606D40F00100606500
:100B800094F85C104FF0010808FA01F0304208D0E8
:100B900021684969090604D5A860606D40F002002B
:100BA000606594F85C1004208840304208D02168C9
:100BB0000968890704D5A860606D40F0040060658D
:100BC00094F85C1010208840304218D021680968E1
:100BD000090714D5A86020680168490304D5006896
:100BE000000308D5A16C07E00168C90503D40168BA
:100BF00021F008010160216C09B12046884794F872
:100C00005C1020208840304231D021680968C90634
:100C10002DD5A86094F8350005282068016806D015
:100C2000490347D5006800031DD4616C1CE021F026
:100C3000160101602068416921F080014161206C4A
:100C400008B9A06C20B12068016821F0080101609A
:100C500094F85C103F208840A86084F8358084F8C0
:100C60003490216D1FE0E16B09B120468847606D2B
:100C700000282BD0606DC00714D0052084F8350003
:100C80002068016821F0010101600098401C00907B
:100C9000B84203D820680068C007F6D184F83580D0
:100CA00084F83490E16C002910D001B02046BDE8F2
:100CB000F04308470168C905D5D4016821F0100147
:100CC000016084F8358084F83490CCE7BDE8F8837F
:100CD000900000202DE9F041044600F065F905463A
:100CE0005CB1022084F83500002684F83460206866
:100CF000016821F0010101600DE00120BDE8F081F3
:100D000000F052F9401B052805D92020606503201A
:100D100084F83500F2E720680068C007F0D1216848
:100D20000A6820480240D4E901031843D4E9033596
:100D30002B43184363691843A3691843E3691843B5
:100D4000236A18431043626A042A03D1D4E90B23AF
:100D50001A431043086020684069656A20F0070163
:100D600028460D43012704280CD1A06A0543E06AF8
:100D700040B12046FFF7D2FD20B14020606584F8E5
:100D80003570BAE7206845612046FFF7B3FD94F857
:100D90005C203F2191408160666584F835700020B9
:100DA000ACE700003F8010F070B5044600F0FCF89E
:100DB0000546601C02D004480078044400F0F4F8B2
:100DC000401BA042FAD370BD840000202DE9F84FEB
:100DD000DFF89C910022A9F1040B03274FF00F0CC0
:100DE00009F1040AABF1040E01250B6895402B4074
:100DF000AB426ED10C7904F00304012C01D0022C1B
:100E000015D18668540007FA04F826EA0806D1F8D6
:100E10000C8008FA04F848EA0608C0F8088044681C
:100E2000AC430D79C5F300159540254345600C7919
:100E3000E443A40708D0C568540007FA04F6B54394
:100E40008E68A6402E43C6600C7904F00304022C81
:100E500011D1D40800EB8406356A5407E40E0CFA6D
:100E600004F825EA0805D1F8108008FA04F848EAE1
:100E70000508C6F820800568540007FA04F6B54353
:100E80000E7906F00306A6402E4306604C6814F463
:100E9000403F66D0374C256845F48045256024687E
:100EA00022F0030504F480440094334C05EB04085D
:100EB000D8F808589407260F0CFA06F4A5432F4CCF
:100EC000A04201D1002424E02D4CA04202D10124F3
:100ED0001FE046E02B4CA04201D1022419E02A4C2D
:100EE000A04201D1032414E0284CA04201D10424E3
:100EF0000FE0274CA04201D105240AE0254CA04276
:100F000001D1062405E0244CA04201D1072400E0D1
:100F10000824B4402C43C8F80848D9F800404D468E
:100F20004E689C43F60200D51C432C60DAF8004062
:100F300055464E689C43B60200D51C432C60DBF836
:100F400000405D464E689C43B60300D51C432C60B0
:100F5000DEF8004075464E689C43F60300D51C43FE
:100F60002C60521C102AFFF43FAFBDE8F88F000040
:100F7000083C01404438024000300140000002407B
:100F80000004024000080240000C02400010024031
:100F90000014024000180240001C02400AB18161A6
:100FA00070470904FBE700000148806870470000B3
:100FB00084000020024881680278114481607047F3
:100FC000840000200B4810B5016841F400710160F5
:100FD000016841F480610160016841F48071016041
:100FE000032000F06FF80F2000F006F800F024F85E
:100FF000002010BD003C024070B50D4D04464FF47A
:101000007A712878B1FBF0F00A490968B1FBF0F079
:1010100001F038FC48B9102C07D200222146501E9E
:1010200000F030F800206C6070BD012070BD000041
:1010300084000020900000200A4808B5016841F4AF
:1010400080410160006800F4804000900548001F66
:10105000016841F080510160006800F0805000900C
:1010600008BD000044380240002809DB00F01F02E0
:10107000012191404009800000F1E020C0F80011FA
:1010800070470000F0B40E4B1B68C3F30223C3F19A
:101090000704042C00D904241D1D072D01D20023B0
:1010A00000E0DB1E012606FA04F56D1E0D409D4092
:1010B0009E40761E164045EA0601F0BC05F0A8BA2F
:1010C0000CED00E0064A00F0070110684FF6FF0340
:1010D000184040EA012003490843106070470000AF
:1010E0000CED00E00000FA05704700684162002046
:1010F0007047F0B50368586A39B19C6A4FF482753D
:1011000000EB144400204E1E0AE040EA02409862C0
:101110000FE005EB8007DF59401C04EB1744C0B219
:10112000B042F6D344EA02404FF4807202EB8101F0
:1011300058500020F0BDD0F8080503F0E1BF01EBE6
:10114000C10200EB8202D0F80805D26C03F034BF74
:1011500001EBC10200EB8202D0F80805D2F88C2224
:1011600003F083BFD0F8080503F0CCBF0A0601F0F6
:101170000F0101EBC10100EB810101D53C3101E020
:1011800001F51F71006805F069B870B504460B06DB
:1011900001F00F0000EBC00104EB81014FF00102F0
:1011A0004FF0000503D581F83D203C3103E081F884
:1011B0007D5201F51F71087094F8BC04012808D015
:1011C00084F8BC24206804F001FD84F8BC5400209D
:1011D00070BD022070BD70B5044601F00F0062685A
:1011E000904201D9012070BD0B0601F00F0101EB07
:1011F000C10104EB81014FF001024FF0000503D55E
:1012000081F83D203C3103E081F87D5201F51F71EA
:101210008D70087094F8BC04012808D084F8BC24B0
:10122000206804F0D1FE84F8BC54002070BD022078
:1012300070BD10B5044690F8BC0401280AD0012006
:1012400084F8BC04080607D501F00F01206805F0FA
:1012500077F804E0022010BD206805F053F8002064
:1012600084F8BC0410BD01F00F0101EBC10100EBDB
:101270008100D0F89C0270472DE9F04104460F062A
:1012800001F00F0000EBC00104EB81014FF00106FB
:101290004FF0000503D581F83D603C3103E081F853
:1012A0007D5201F51F710870CA600B714A7802B156
:1012B0000881022B00D14D7194F8BC04012809D09B
:1012C00084F8BC64206804F0D9FB284684F8BC5438
:1012D000BDE8F0810220FBE770B50D4601F00F0478
:1012E00004EBC40100EB8101C1F89432C1F88C22F7
:1012F0000023C1F89C3281F87D3281F87C42036979
:1013000001F51F71012B00D14A612A07027C006898
:1013100003D004F0B1FE002070BD04F09BFDFAE79D
:1013200070B504460D4601F00F006168884201D98E
:10133000012070BD29064FF000064FF0010207D5CD
:1013400000EBC00104EB810181F83D203C3107E056
:1013500005EBC50104EB810181F87D6201F51F7188
:101360008A70087094F8BC04012807D084F8BC2463
:10137000206804F055FE280702D007E0022070BD67
:10138000217C04F2C442206804F0F2FD84F8BC64BD
:10139000002070BD70B50D4601F00F0404EBC401D0
:1013A00000EB81014B65CA640023CB65012381F802
:1013B0003D3001F83C4F0369012B00D14A612A07F7
:1013C000027C006803D004F057FE002070BD04F0DA
:1013D00041FDFAE72DE9F84F05680446284604F078
:1013E000DCFF00287DD1206805F003F8002878D0C4
:1013F000D5F80808C0F30D20C4F8FC04206804F0F8
:10140000F8FF800704D52068416901F002014161BD
:10141000206804F0EEFFC10604F2C440009034D509
:101420002068816921F0100181612F6A07F00F00A7
:1014300000EBC00004EB8006C7F3434006F51F76BF
:10144000022802D0062811D01AE047F6F0700742B1
:1014500016D0C7F30A1217462846316904F0CDFFAB
:10146000306938443061306A384408E00822284640
:10147000009904F0C2FF306AC7F30A1108443062D1
:101480002068816941F010018161206804F0B1FF9A
:1014900000034FF0010B7AD50026206804F088FF86
:1014A0008046DFF87CA46FE05FEAC87069D0F1B2D3
:1014B000206804F096FF0746C00707D005EB4611E9
:1014C000C1F808BB3146204601F086FE380722D518
:1014D00005EB46110820C1F8080B2068D0F84090B1
:1014E00000E01BE200EB4610D0F8082BD14505D9EF
:1014F000110403D54FF40041C0F8081B204600F04A
:10150000FFFAD14507D92069012804D120680121BB
:10151000009A04F02DFDF80604D505EB46111020C5
:10152000C1F8080BB8071DD56869000605D5D5F8C0
:10153000040840F48061C5F8041806EBC60004EB0B
:10154000800090F87F1200F51F70012905D100215D
:10155000C170F1B2204600F0E9F905EB4611022016
:10156000C1F8080BB80604D505EB46102021C0F8D9
:10157000081BB80405D505EB46104FF40051C0F820
:10158000081B4FEA5808761CB8F1000F8CD1206870
:1015900004F02FFF40036ED5206804F002FF804660
:1015A000002665E05FEAC8705FD0F1B2206804F001
:1015B00006FF0746C00723D006F00F020BFA02F021
:1015C000D5F834288243C5F8342805EB4610C0F816
:1015D00008B9206901280FD106EBC60004EB800092
:1015E000D0E912211144C16436B9606D20B9206878
:1015F0000121009A04F0BCFCF1B22046FFF79FFDE8
:10160000380704D505EB46110820C1F80809F8068B
:1016100004D505EB46111020C1F80809780604D559
:1016200005EB46104021C0F80819B80717D5314618
:10163000284604F085FE06EBC60004EB800090F817
:101640003F103C30012905D10021C170F1B2204684
:1016500000F068F905EB46110220C1F808093806C8
:1016600003D53146204601F01DFE4FEA5808761C8E
:10167000B8F1000F96D1206804F0BBFE002811DA03
:10168000D5F8040820F00101C5F8041894F8F40412
:1016900001282BD0204600F017FA2068416901F09C
:1016A00000414161206804F0A4FE00050BD5D5F887
:1016B0000808C00702D0204600F04AFA20684169B5
:1016C00001F400614161206804F093FEC00467D515
:1016D000D5F8040820F00101C5F80418102120688D
:1016E00004F02EFE00214FF67F3220E0002084F827
:1016F000F40401462046FFF7F7FCCEE705EB411066
:10170000C0F80829D0F8003923F40013C0F80039D4
:10171000C0F8082BD0F8003B23F40013C0F8003BBE
:10172000D0F8003B43F00063C0F8003B491C606800
:101730008842E3D8D5F81C0840F00111C5F81C1800
:10174000206B002828460DD0D0F8840840F00B010B
:10175000C5F88418D5F8440840F00B012846C5F8B0
:1017600044180DE0D0F8140842F22B010843C5F8E4
:101770001408D5F8100840F00B012846C5F81018D9
:10178000D0F8000820F4FE61C5F80018217C20681C
:10179000009A04F0EDFB2068416901F48051416139
:1017A000206804F026FE800415D5206804F0A6F910
:1017B000206804F0E5FDE06000F07CFA0146227B41
:1017C000206804F079FE204600F068F9206841693D
:1017D00001F400514161206804F00BFE000707D5B9
:1017E000204600F075F92068416901F00801416167
:1017F000206804F0FEFD000615D5A86920F08001E0
:10180000A96101260CE006EBC60004EB800090F80D
:101810007F02012803D1F1B22046FFF7A7FC761C16
:101820006068B042EFD8206804F0E3FDC00221D523
:1018300001265F4616E005EB4610D0F8001906EBCE
:10184000C60004EB800090F84020012A09D100294D
:1018500007DA80F83F70F0B240F080012046FFF7D1
:1018600085FC761C6068B042E5D82068416901F4C7
:1018700080114161206804F0BCFD800231D5012057
:101880005B4626E005EB4011D1F8001B00EBC002DF
:1018900004EB820292F88062012E19D1002917DA36
:1018A00094F8FC6401F4803106F00106B1420FD1D6
:1018B00082F87F32A96941F08002AA61696909064C
:1018C00006D4D5F8040840F40070C5F8040803E015
:1018D000401C61688142D5D82068416901F400113B
:1018E0004161206804F085FD400007D52046FFF7E0
:1018F00022FC2068416901F080414161206804F0C8
:1019000078FD40070AD520684568680702D520465B
:10191000FFF728FC2068416829434160BDE8F88F43
:101920000A30544FD0F8080503F048BCD0F8080539
:1019300003F058BC2DE9F0418AB0040005D094F8BA
:10194000BD042668002520B108E001200AB0BDE8EA
:10195000F08184F8BC54204600F05EF8032084F83F
:10196000BD04F06BC00500D42561206804F06CFA5A
:1019700004F11001282288466846FEF773FC94E8BB
:101980000F0004F0C9F80227C8BB0021206804F04A
:1019900053FD002101260EE001EBC10004EB8000A5
:1019A00080F83D6000F83C1F01810571C56005614C
:1019B000491CC9B2856160688842EDD8002111E0F8
:1019C00001EBC10004EB800080F87D5280F87C12AE
:1019D00080F88052C0F88852C0F88C52491CC9B2B5
:1019E000C0F8945260688842EAD828224146684686
:1019F000FEF738FC94E80F0004F06CF910B184F89D
:101A0000BD74A2E784F8385084F8BD64206804F0FF
:101A100053F900209AE7000010B586B0044614215F
:101A20006846FEF738FC2068B0F1A04F2FD1194866
:101A30000021026842F001020260006800F001002B
:101A400005904FF4C05000900220CDE90101032021
:101A500003900A20049069460F48FFF7B7F90D4834
:101A6000001D016841F0800101600A4814300168DE
:101A700041F4804101600068002200F4804005903C
:101A800011464320FFF7FEFA4320FFF7EDFA06B0B8
:101A900010BD0000303802400000024070B504461E
:101AA000C068012570B1022801D0FEF7BFFF2946AA
:101AB000D4F8080503F004FCD4F80805BDE870402C
:101AC00003F0B9BB0025F2E7D0F8080503F0E1BB4D
:101AD000D0F8080503F0E7BB10B5044690F8BC0445
:101AE00001280BD0012084F8BC0484F83810206849
:101AF00004F0D0FC002084F8BC0410BD022010BD0E
:101B0000D0F8082500F2C441104603F0E5BB10B53B
:101B10000446006894F8BC14012906D0012184F819
:101B2000BC14A16A012902D008E0022010BDA169FD
:101B3000012903D0816B41F480318163206804F076
:101B4000DBFB206804F0AAF8002084F8BC0410BD78
:101B500010B50446D0F8080503F000FC2068D0F862
:101B6000001E41F00101C0F8001E206A002804D0C8
:101B70000248016841F00601016010BD10ED00E06F
:101B80002DE9F0470D46040065D0DFF81491D9F82F
:101B90000000EFB200F00700A84207D289F80070F9
:101BA000D9F8000000F00700A84254D120683D4E4B
:101BB000810712D5400703D5306840F4E05030600B
:101BC0002078000703D5306840F46040306030680A
:101BD000A16820F0F000084330602078C0072DD0C5
:101BE000304960680839012812D0022813D0032830
:101BF00011D00968890700292DDA316821F0030125
:101C000001433160FFF7D0F9804641F2883A0EE097
:101C100009688903EFE709688901ECE7FFF7C4F970
:101C2000A0EB0801514502D90320BDE8F0873068D8
:101C3000616800F00C00B0EB810FEFD1D9F8001013
:101C4000484601F00701A94207D90770006800F073
:101C50000700A84201D00120E7E72078400705D51A
:101C60003068E16820F4E0500843306020780007D5
:101C700006D53068216920F4604040EAC100306038
:101C800000F03EF83168084AC1F30311515CC840C6
:101C90000649086006480068FFF7AEF90020C4E76F
:101CA000003C02400838024096870008900000205F
:101CB0008800002001480068704700009000002064
:101CC0000448054900680968044AC1F38221515C4F
:101CD000C84070479000002008380240A6870008DE
:101CE0000448054900680968044AC1F34231515C5F
:101CF000C84070479000002008380240A6870008BE
:101D0000154810B5006810F00C01144813D0144B9E
:101D100004290FD008290ED10F4C241F216801F08F
:101D20003F022168490207D52068C0F38810A0FB54
:101D3000030106E0184610BD2168C1F38811A1FB1C
:101D400000010023FEF73EFA2168C1F30141491C5E
:101D50004900B0FBF1F010BD083802400024F40047
:101D600040787D012DE9F84F040075D02078DFF828
:101D700038A3C007AAF1040548D00AF1040001689D
:101D8000C1F38101012908D00068C0F38100022855
:101D90000AD1DAF80000400206D52868800335D55C
:101DA00060680028E1D031E06068B0F5803F10D075
:101DB000B0F5A02F286810D020F480302860286863
:101DC00020F4802028606068A0B1FFF7EDF8064697
:101DD0000CE0286840F48030F4E740F4802028606C
:101DE000F7E7FFF7E1F8801B642871D828688003C3
:101DF000F7D50BE0FFF7D8F8064604E0FFF7D4F874
:101E0000801B6428F1D828688003F7D42078DFF895
:101E10009C9280074FF0000B3DD5A348001D016840
:101E200011F00C0F08D00068C0F3810002280AD11D
:101E3000DAF80000400206D42868800715D5E0686B
:101E4000012809D111E0E068B8B10120C9F800000B
:101E5000FFF7AAF8064605E022E1FFF7A5F8801B88
:101E60000228C2D828688007F7D52868216920F0A1
:101E7000F80040EAC10028600DE0C9F800B0FFF7A3
:101E800093F8064604E0FFF78FF8801B02281FD85E
:101E900028688007F7D42078000722D5824F84482D
:101EA0006169703771B101210160FFF77DF8064665
:101EB00004E0FFF779F8801B022809D8386880070A
:101EC000F7D50EE0C0F800B0FFF76EF8064605E063
:101ED00082E0FFF769F8801B02287DD83868800708
:101EE000F7D42078400765D56F484FF000083C30A4
:101EF0000068C0000BD46C483C30016841F0805150
:101F0000016000684FF0010800F080500090694FB8
:101F10003868C0050FD4386840F480703860FFF727
:101F200043F8064604E0FFF73FF8801B022853D829
:101F30003868C005F7D55C4FA0686C3701280FD012
:101F40000528386810D020F001003860386820F08B
:101F500004003860A068B0B1FFF726F806460EE02E
:101F6000386840F00100F4E740F004003860F7E71B
:101F7000FFF71AF8811B41F28830814263D8386834
:101F80008007F5D50DE0FFF70FF8064606E0FFF7EE
:101F90000BF8811B41F28830814254D838688007A1
:101FA000F5D4B8F1000F05D03F483C30016821F06E
:101FB00080510160A069B8B33B49091D0968C1F3AC
:101FC0008101022946D00228584606D0C9F860008F
:101FD000FEF7EAFF044639E035E04F46C9F86000F5
:101FE000FEF7E2FF064604E0FEF7DEFF801B022854
:101FF00029D828688001F7D4D4E907010843A16AE9
:102000002D4A490802EB0141626A41EA8211084304
:1020100094F82C1040EA0161CAF8001001203866DB
:10202000FEF7C2FF044605E03CE0FEF7BDFF001BE3
:10203000022808D828688001F7D533E0FEF7B4FFFE
:10204000001B022802D90320BDE8F88F2868800110
:10205000F4D427E00128F7D0DAF80000E26900F4B0
:10206000800191421CD1226A00F03F01914217D1B8
:1020700047F6C071626A0140B1EB821F10D1A26ABB
:102080004FF0FF3300F4403103EB5202B1EB024F4B
:1020900006D194F82C1000F07060B0EB016F01D005
:1020A0000120D1E70020CFE704380240000047427A
:1020B000800E4742007000400000FFFF2DE9FE4304
:1020C0000446002603200D4684F83400606C032883
:1020D0005ED0B5F5805F5BD04FF4006700204FF015
:1020E0008068BD421FD18146009001900021206888
:1020F00001F006FE800113D46946204602F04AFA38
:1021000007000DD10198400334D5B4F85000010404
:10211000206801F026FE070002D10221206823E09A
:10212000A06B384328E01DB1A06B40F0006023E0B5
:102130008146009001900021206801F0E1FD8001BE
:10214000EED46946204602F025FA0700E8D101984E
:10215000C0030FD5B4F850000104206801F001FE5F
:102160000700DDD10021206801F046FE0700D7D12D
:102170004F46D5E74746D3E7A063A06B144F4FF017
:10218000010848B12068876384F8348001260EE096
:10219000A06B40F08050EFE7211DD4E9050C0EC97B
:1021A000CDE90050CDF808C0206801F0ACFD4FF437
:1021B0000071206801F008FE28B121688F63A16BCF
:1021C0000143A163012684F834803046BDE8FE83D4
:1021D000FF054000F0B5426E920F0A70426EC2F3E6
:1021E00083624A70426EC2F301628A70426E120CC0
:1021F000CA70B0F86420120A0A7190F864204A711B
:10220000826E120DCA80826EC2F303420A72B0F867
:102210006820C2F3C0324A72B0F86820C2F380323C
:102220008A72B0F86820C2F34032CA72B0F86820EF
:10223000C2F300320A7300264E73436C4FF40075EC
:10224000012463B1012B3AD0026847499163816B45
:1022500041F08051816380F834400120F0BDB0F836
:102260006820C36E9205120D42EA93720A61C26E33
:10227000C2F3C2620A75C26EC2F302624A75C26ECE
:10228000C2F342528A75C26EC2F38242CA75C26EEE
:10229000C2F3C2320A760B695B1C43650A7E02F008
:1022A0000702921C934043650A7A02F00F0704FA72
:1022B00007F28265520A5343C0E917350EE090F8E1
:1022C0006820C36E9206920A42EA13420A610A69C2
:1022D000521C93024365C0E91653056630F86C2F13
:1022E000C2F3803201F8192F0288C2F3C6124A7075
:1022F000027802F07F028A704268D20FCA70426888
:10230000C2F341720A714268C2F382624A71426842
:10231000C2F383528A714268C2F34052CA710E728C
:102320004268C2F300424A728288C2F3C0328A72A3
:102330008288C2F38032CA728288C2F340320A7342
:102340008288C2F300324A738288C2F381228A7380
:102350008288C2F30122CA730079C0F34600087470
:102360004C740020F0BD0000FF054000426C0A6084
:10237000826C4A60C26C8A60026DCA60426D0A61FA
:10238000826D4A61C26D8A61006EC861002070472B
:1023900038B5002504460095B0F8500001042068C7
:1023A00001F00DFE28B90021206801F0A9FC009081
:1023B000284610B1A16B0143A1630098C0F34320EC
:1023C00038BD70B504000ED094F83400002518B95B
:1023D0002577204600F04EF8032084F8340020468C
:1023E00000F00AF808B1012070BDA5632563012043
:1023F00084F83400002070BDFEB500250446762028
:102400000095CDE9015029460B460A46206801F0A7
:102410007AFC40BB154E46F8A05F206801F085FCB1
:10242000012535600220FEF7BFFC204602F096F938
:1024300028B184F83450A16B0143A16313E0204616
:1024400002F015F90028F4D14FF40071206801F072
:10245000BBFC002808D0226805499163A16B0143A9
:10246000A16384F834500120FEBD000000802542A5
:10247000FF054000F0B587B0044614216846FDF71B
:102480000AFF1B49206888422FD11A48016841F48D
:1024900000610160006800F4006005901548143880
:1024A000016841F004010160016801F00401059137
:1024B000016841F00801016000680C2400F0080088
:1024C00005904FF4F85002250126032704948DE867
:1024D000E10069460848FEF779FC042004948DE881
:1024E000E10069460548FEF771FC07B0F0BD000049
:1024F000002C01404438024000080240000C024019
:102500002DE9FF4F87B016460D460446DDF8508092
:10251000FEF74AFD82463DB194F83400012807D009
:10252000A06B40F000500DE0A06B40F0006009E0AF
:102530000020A0630A99E26D3144914204D9A06B56
:1025400040F00070A06385E0032184F83410216816
:10255000C862616C012900D076024FF0FF31009112
:102560000A994FF001094902019102AA902102271C
:102570008346CDF8149082E882086946206801F00D
:10258000A9FB0A98012805D927633146206801F084
:102590008AFC05E0C4F830903146206801F09BFCCD
:1025A00030B122684C499163A16B0143A1634DE0B6
:1025B000019E1FE0406B000413D596B100272068F0
:1025C00001F0B7FB05F8010B010A05F8011B010C2E
:1025D00005F8021B000E361F7F1C05F8010C082FA2
:1025E000EDD3FEF7E1FCA0EB0A0141451FD2B8F1A3
:1025F000000F1CD02068416B40F22A321142D9D022
:10260000416BC90509D50A99012906D9616C0329CD
:1026100003D001F005FD0028C3D12068416B0907F4
:102620001AD52D498163A06B40F0080051E0216864
:1026300029488863A06B40F00040A06384F8349080
:10264000C4F830B003200BB0BDE8F08F84F83490AC
:10265000C4F830B00120F6E7416B890705D51E4963
:102660008163A06B40F0020033E0416B89061CD50A
:1026700019498163A06B40F020002AE001F059FB6A
:1026800005F8010B010A05F8011B010C05F8021BF6
:10269000000E05F8010C361FFEF786FCA0EB0A01C0
:1026A000414510D2B8F1000F0DD02068416B89026E
:1026B00001D5002EE2D1216840F23A50886384F8B7
:1026C00034900020BFE7216803488863A06B40F086
:1026D0000040A063BAE70000FF0540002DE9F04F7D
:1026E00089B09B4615460E460446FEF75DFC0790F2
:1026F0003EB194F83400012807D0A06B40F00050A0
:102700000DE0A06B40F0006009E00021A163E26DE4
:1027100005EB0B00904204D9A06B40F00070A06361
:1027200079E0032084F834002068C162606C0128DD
:1027300000D06D024FF0FF3000904FEA4B204FF079
:1027400001090190CDE904199020CDE902018A46E2
:102750006946206801F0BEFABBF1010F06D92020BE
:1027600020632946206801F075FC05E010202063F5
:102770002946206801F086FC5FEA000806D021683F
:102780003F488863A06B40EA080070E0019F26E0A4
:10279000406B40041BD5D7B1002516F8010B0690FD
:1027A00016F8011B3F1F40EA0120069016F8021B95
:1027B00040EA0140069016F8011C40EA01600690CC
:1027C00006A9206801F0C8FA6D1C082DE5D3FEF7B4
:1027D000EBFB0799411A1298814220D2F8B1206888
:1027E000416B40F21A321142D2D0416BC90523D558
:1027F000BBF1010F20D9616C03291DD001F010FC41
:10280000D0B122681E499163A16B0143A16384F892
:102810003490C4F830A0012009B0BDE8F08F2168E1
:1028200017488863A06B40EA0800A06384F83490DE
:10283000C4F830A00320EFE72068416B090705D5F5
:102840000F498163A06B40F0080010E0416B8907DD
:1028500005D50B498163A06B40F0020007E0416B96
:10286000C90606D506498163A06B40F01000A0633D
:10287000CDE740F23A51816384F834900020CBE7F1
:10288000FF05400010B5401EB0F1807F01D301204C
:1028900010BD4FF0E02460610F21601703F0B8FE17
:1028A0000020A06107202061002010BD7047704704
:1028B000F8B5016804460868CA684B6910F00F0F44
:1028C0004FF0000559D003F0010602F4907737432A
:1028D00065D0C10705D0D10503D5216C41F00101B8
:1028E0002164410705D5D90703D0216C41F00201CD
:1028F0002164810705D5D90703D0216C41F004017B
:102900002164010707D502F02001314303D0216C77
:1029100041F008012164216C00293AD0800604D5D9
:10292000900602D5204602F074F820684069216CB8
:10293000C0F38010090700D460B3204602F042F8CB
:1029400020684069400621D52068143050E8001FF7
:1029500021F0400140E80012002AF5D1A06BA8B197
:102960006C490165A06BFEF7D2F8002811D0A06B6E
:10297000016D01B0BDE8F040084783060FD593060E
:102980000DD52046BDE8F84002F043B82046FFF7D9
:102990008EFFF8BD2046FFF78AFF2564F8BD266B41
:1029A0002023012E79D1C60677D5D60675D50868BD
:1029B000486800904869400640D5A16B08684068A7
:1029C0000004000CEAD0A28D8242E7D9E085C869F4
:1029D000B0F5807F2DD020680C3050E8001F21F426
:1029E000807140E80012002AF5D12068143050E8C8
:1029F000001F21F0010140E80012002AF5D12068F3
:102A0000143050E8001F21F0400140E80012002A75
:102A1000F5D184F83E30256320680C3050E8001F63
:102A200021F0100140E80012002AF5D1A06BFEF75A
:102A300025F8A08DE18D401A81B229E0A08DE18DAD
:102A4000401A81B2E08D0028A8D00029A6D02068C5
:102A50000C3050E8002F22F4907240E80026002E3F
:102A6000F5D12068143050E8002F22F0010240E830
:102A70000026002EF5D184F83E30256320680C3006
:102A800050E8002F22F0100240E80023002BF5D17F
:102A90002046FFF70BFFF8BDFFE705062BD515060F
:102AA00029D594F83D002128F5D1A068B0F5805FC4
:102AB00001D12069B0B1206A411C216221680078EF
:102AC0004860E08C401E0004000CE084E3D12068E4
:102AD000C16821F08001C1602068C16841F04001F7
:102AE000C160D8E7206A0088C0F308004860206A07
:102AF000801C2062E5E74006CDD55006CBD5CA68DC
:102B0000204622F04002CA6084F83D3000F003F90C
:102B1000C1E70000B549000870B5040004D094F87E
:102B20003D00002510B106E0012070BD84F83C5046
:102B3000204600F023F8242084F83D002068C16876
:102B400021F40051C160204601F0C4FF20680169F2
:102B500021F4904101612068416921F02A0141611D
:102B60002068C16841F40051C1602564202084F8C8
:102B70003D0084F83E00002070BD00002DE9F041CA
:102B800086B0044614216846FDF785FB2F4920686E
:102B9000884258D12E480025016841F0100101609B
:102BA000006800F01000059029481438016841F0D1
:102BB000010101600068694600F0010005904FF4D2
:102BC000C06000900220CDE901050320039007209A
:102BD00004902048FEF7FAF8204E1F484FF0006797
:102BE0003060C6E901754FF48068C6E90358801566
:102BF0007561C6E90650356230467562FEF76AF8BF
:102C000008B1FDF713FFA663B4631348144E3030C8
:102C1000E6E802074020A6E82101114846F81459C9
:102C2000B561F56135627562FEF754F808B1FDF7DC
:102C3000FDFE6663002211462520B463FEF722FAEA
:102C40002520FEF711FA06B0BDE8F0810010014022
:102C500044380240000002408864024074070020AB
:102C6000D407002070472DE9F843044690F83D0052
:102C70001F4615460E4620284BD1C6B1BDB194F86B
:102C80003C00012845D0012084F83C004FF00008AA
:102C9000C4F84080212084F83D00FEF785F9A58422
:102CA0008146E584A068B0F5805F03D004E0012090
:102CB000BDE8F883206920B13546002684F83C80C1
:102CC0000EE00025FAE78021204601F089FFA0B937
:102CD000ADB115F8010B21684860E08C401EE0841E
:102CE000E08C4B464FF0000200970028EBD14FF0EC
:102CF0004001204601F074FF30B10320D8E736F8D8
:102D0000020BC0F30800E6E7202084F83D00002015
:102D1000CEE70220CCE77047FEE7F0B500230A2497
:102D2000302537261F4610E0B4EB107F02D905EBA3
:102D3000107C01E006EB107C01F813C001EB430CA2
:102D400000015B1C8CF80170DBB29342ECD3F0BD48
:102D50002DE9F0410546D0F8D40205EB8000D0F80B
:102D6000C042002C1ED094F81C020F4F40B9D4F87A
:102D7000180228B1607A18B93978284602F0DCFACE
:102D80000A4E2846317802F0D7FA607A022809D133
:102D90003178284602F0D0FA39782846BDE8F0416B
:102DA00002F0CABABDE8F081D1000020D0000020B6
:102DB00070B50646D0F8D40206EB8000D0F8C042C9
:102DC000002C65D0D4F81402C4F83402D4F81802E8
:102DD000C4F838022F480178304602F0ABF91F28BA
:102DE0000DD12D49D4F81002884208D194F81D1253
:102DF000012904D894F81E0208B1102809D994F8C2
:102E00001D1220230522304600F014FE02206072BD
:102E100009E004F21F22304600F0E6FA0028207A8A
:102E200008DA052804D03046BDE87040FFF790BFAF
:102E3000012128E002282BD0012829D0032827D0FF
:102E4000E568FDB1D6F8D412304606EB810104F1F5
:102E50001002D1F8C01200291AD0D1F81832AB42B2
:102E600000D32B46D1F83842641BC1F83842002405
:102E700081F83C4204240C7208490978BDE870408E
:102E800002F075BA00213046BDE8704000F0DCB8B1
:102E900070BD0000D100002055534243D0000020F7
:102EA00010B50446D0F8D40204EB8000D0F8C0027C
:102EB000002818D0407A022809D0090613D5012825
:102EC00011D02046BDE81040012100F0BDB80648F1
:102ED0000178204602F030FA044801782046BDE827
:102EE000104002F029BA10BDD0000020D10000200F
:102EF00010B50446D0F8D40204EB8000D0F8C0220C
:102F0000002A17D0117A022905D0032901D00429FB
:102F100010D1002109E092F81D12204602F21F2272
:102F200000F062FA002805DA01212046BDE81040D1
:102F300000F08AB810BD10B50446D0F8D40204EBF6
:102F40008000D0F8C022002A17D0107A80B1012862
:102F500013D192F81D12204602F21F2200F044FA0B
:102F600000280ADA2046BDE81040012100F06CB8C4
:102F70002046BDE81040FFF71BBF10BDD0F8D412AB
:102F800000EB8100D0F8C002002801D000210172BE
:102F90007047000070B50546D0F8D40205EB8000FC
:102FA000D0F8C042002C24D000202072607284F837
:102FB000610284F8600284F86202D5F8D40205EB5D
:102FC0008000D0F8C402016800208847094E2846D6
:102FD000317802F0A6F808480178284602F0A1F8F6
:102FE00004F5047231782846BDE870401F2302F0D2
:102FF00019B970BDD1000020D000002070B5054681
:10300000D0F8D40205EB8000D0F8C042002C16D0D6
:10301000002020720120607209480178284601F0E2
:10302000B9FF084E2846317801F0B4FF04F5047268
:1030300031782846BDE870401F2302F0F3B870BD18
:10304000D0000020D100002070B50546D0F8D40291
:1030500005EB8000D0F8C042002C18D00C48C4F812
:10306000300284F83C12002020720A480D2304F537
:103070000C720178284602F07AF9074804F50472C8
:103080001F2301782846BDE8704002F0CBB870BD20
:1030900055534253D0000020D100002010B5034901
:1030A0000348FDF7C5FC0349087010BD400100202E
:1030B000B08700083F0100202DE9F04186B01421BF
:1030C0006846FDF7E8F828484FF00008016841F02D
:1030D00080010160016801F080010591016841F003
:1030E00010010160016801F010010591016841F0D3
:1030F00004010160016801F004010591016841F0DB
:1031000001010160016801F001010591016841F0D0
:10311000080101600068154F00F008004FF4604698
:103120000590012231463846FDF738FFF0104FF484
:103130008815CDE900050124694602943846FDF75B
:1031400045FE0220CDE90240CDE9006469463846DB
:10315000FDF73CFE08208DE8210169460448FDF793
:1031600035FE06B0BDE8F081303802400010024064
:10317000000C024010B500220F49104801F0F7FE84
:1031800008B1FDF753FC0E490C4802F06EFA08B185
:10319000FDF74CFC0B49094802F0D6F908B1FDF7E0
:1031A00045FC064802F0E4FA002803D0BDE81040D0
:1031B000FDF73CBC10BD00001400002034080020C6
:1031C0009800002064000020FEE7FEE70148FEF7BB
:1031D00001B90000880F00202DE9F041066805467E
:1031E0000C46306C06EB4411D1F8083BD5F810C002
:1031F0004FF400474FF0200E05F2C442BCF1010F1E
:1032000008D0DFF898C0604538D1180431D5C1F82E
:10321000087B3FE0224E5FEA037C04D5B04239D9F7
:103220001804F4D436E05FEA836C02D5C1F808EBE9
:1032300030E013F0280F2DD1B04201D91804E6D4A4
:1032400004EBC40005EB8000D1F8101BD0F89832D5
:10325000C1F31201591AC0F89C1200F51F70ACB9E5
:1032600083691BB10269114401610FE001212868E3
:103270000AE098060AD5C1F808EB07E034B9D5F89A
:10328000940218B90021304602F072FEE1B22846DD
:10329000FDF75EFF0020BDE8F08100000A31544FC9
:1032A0000A30544F2DE9F84F0E4601EBC60100EBF2
:1032B00081048146D0F80080616DE06D3C34884225
:1032C00002D90120BDE8F88F081AE168814200D2D6
:1032D0000846C01C870808EB461A15E0451AE06846
:1032E000A84200D20546E81C870899F81000009013
:1032F000ABB2F2B24046216903F052F9206928448A
:103300002061206A28442062DAF8180980B2B842A5
:1033100005D3216AA069814201D20028DED1216A49
:10332000A069884208D806F00F0101208840D8F82B
:1033300034188143C8F834180020C3E7704730B50B
:10334000D0F8D4424FF0FF3500EB8404D4F8C042EB
:1033500044B11A44D4F868329A4205D9212305228F
:1033600000F068FB284630BD002030BD70B5044633
:10337000D0F8D402134604EB80024FF0FF35D2F8A8
:10338000C00280B1D0F818627EB15E78F60716D020
:10339000997871B180290FD090F81D12242305224D
:1033A000204600F047FB284670BD90F81D122023F0
:1033B000F5E706220A490FE008220A490CE0D2F894
:1033C000C42201EBC1011B79D26902EB81010A79A8
:1033D000521D934200D81A4600F082FB002070BDB7
:1033E000FE000020040100202DE9F041D0F8D43285
:1033F0004FF0FF3600EB8303D3F8C05255B3137878
:1034000002270024252B71D00FDC1A2B55D005DCA8
:103410000BB3032B23D0122B17D124E01B2B26D068
:103420001E2B41D0232B10D15CE05A2B4ED006DC52
:10343000282B63D02A2B69D02F2B06D16EE09E2B30
:1034400058D0A82B5ED0AA2B64D02023052200F0F0
:10345000F1FA6F721FE0BDE8F04100F011BBBDE86A
:10346000F04100F0A3BABDE8F041FFF77FBF95F847
:103470006232012B04D1137903F00303022B50D0E5
:10348000117901F0030001280BD0022806D0C843AF
:10349000800706D00EE03046BDE8F08185F8627204
:1034A00008E085F8624205E010790028F9D0012093
:1034B00085F862022046EC60EEE712791721284673
:1034C000172A00D811460A461C4907E0127A1B2128
:1034D00028461B2A00D811460A46194900F000FB6D
:1034E0002046D9E7BDE8F04100F01DBABDE8F04143
:1034F00000F089B9BDE8F04100F0C0B9BDE8F04185
:1035000000F0CEB8BDE8F04100F021B9BDE8F041CF
:1035100000F0F6BABDE8F04100F064BB52789207C3
:1035200004D52423052200F085FAB4E7D5E99B23CE
:10353000FFF705FF0028BDDAADE700000C01002011
:10354000230100202DE9F0470646D0F8D402884632
:1035500006EB80004FF0FF37D0F8C042FCB1B4F862
:103560006412D4F870524FF400724D43954200D368
:103570001546B5FBF1F1D0F8C4028BB204F110018D
:10358000D0F810C0D4F86C2289464046E0470028A5
:1035900008DA112304224146304600F04BFA38463F
:1035A000BDE8F08710482B464A460178304601F0C6
:1035B000DEFEB4F86402D4F86C22B5FBF0F1B5FB82
:1035C000F0F01144C4F86C12D4F87012081AC4F860
:1035D0007002D4F83812A1EB0501C4F8381201D1F9
:1035E000032020720020DBE7D00000202DE9F04707
:1035F0000746D0F8D402894607EB80004FF0FF3829
:10360000D0F8C042FCB1B4F86412D4F870524FF450
:1036100000764D43B54200D33546B5FBF1F1D0F805
:10362000C4028BB204F11001D0F814C0D4F86C229B
:103630008A464846E047002808DA03230422494620
:10364000384600F0F7F94046BDE8F087B4F8640268
:10365000D4F86C22B5FBF0F11144C4F86C12B5FB40
:10366000F0F1D4F87022531AC4F87032D4F838123A
:10367000A1EB0501C4F838120BD04343B34200D389
:103680003346064852460178384601F0CBFD00200B
:10369000DAE700213846FFF7D7FCF8E7D100002031
:1036A0002DE9F0410646D0F8D402154606EB80001D
:1036B0008846D0F8C0424FF0FF375CB3217AD1BBC7
:1036C00094F81C12090631D594F86212022905D02B
:1036D000D0F8C40281684046884730B13A230222BC
:1036E0004146304600F0A6F914E06888297940BACE
:1036F000000440EA0122687941460243C4F86C2282
:10370000B5F8070043BA3046C4F87032FFF717FE29
:10371000002802DA3846BDE8F081B4F86412D4F823
:1037200070024843D4F81812884205D0202394F838
:103730001D120522D5E701E0022020724FF400702F
:10374000E06041463046BDE8F041FFF7FBBE2DE9A1
:10375000F0410646D0F8D402154606EB80008846B4
:10376000D0F8C0424FF0FF3784B3217A89BB94F878
:103770001C12090637D594F86212022905D0D0F838
:10378000C40281684046884730B13A23022241464C
:10379000304600F04FF919E06888297940BA0004F2
:1037A00040EA012268790243C4F86C22E888297A49
:1037B00040BA000440EA0123687A41460343304698
:1037C000C4F87032FFF7BBFD002803DA3846BDE8C5
:1037D000F0810FE0B4F86412D4F870024843D4F8D2
:1037E0001812884204D0202394F81D120522CFE736
:1037F000022020724FF40070E06041463046BDE880
:10380000F041FFF79FBE2DE9F0410546D0F8D40204
:103810000F4605EB80004FF0FF36D0F8C0424CB1A8
:10382000D0F8C40204F51972111D43683846984750
:10383000E8B902E03046BDE8F08194F8620202285F
:1038400015D0D4F86802401E010E2174010C617479
:10385000010AA174E074002020756075B4F8640258
:10386000010AA175E0750820E0600020E3E73A2333
:1038700002223946284600F0DDF8DBE72DE9F04169
:103880000646D0F8D402154606EB80008846D0F8EC
:10389000C0424FF0FF374CB1D0F8C40204F51972A2
:1038A000111D43684046984798B902E03846BDE884
:1038B000F08194F8620202280BD06889297B40BA13
:1038C000000440EA0120697B0843E06000200146D3
:1038D0000AE03A2302224146304600F0ABF8E5E721
:1038E0002218401C1174C0B2E2688242F8D8D4F8A1
:1038F0006802401E020E2275020C6275020AA27551
:10390000E07521766176B4F86402010AA176E0766A
:103910006889297B40BA000440EA0120697B08439A
:10392000E0600020C3E72DE9FC410546D0F8D40251
:103930000F4605EB80004FF0FF36D0F8C04244B18F
:10394000D0F8C4026A4601A943683846984730BB9C
:1039500002E03046BDE8FC8194F8620202281ED0E5
:10396000002001462218401C80B211740C28F9D3A3
:103970000820E0740198401E020E2275020C627548
:10398000020AA275E075022020766176BDF800007B
:10399000010AA176E0760C20E0600020DAE73A2305
:1039A00002223946284600F045F8D2E730B5D0F873
:1039B000D4124FF0FF3400EB8101D1F8C01231B3C3
:1039C000D1F818322BB3002003460C18401CC0B2AB
:1039D00023741228F9D3702008740C20C87591F84C
:1039E000600291F86142A0421CD001EBC004401C6F
:1039F00094F840528D7494F844520D7794F84542EF
:103A0000C0B24C7781F86002042809D00AE0204651
:103A100030BD91F81D122023052200F00BF8F6E7C7
:103A200081F860321220C8601079122800D8C8606E
:103A3000002030BDD0F8D41200EB8100D0F8C002D5
:103A400000281CD090F8611200EBC10181F84022DF
:103A500090F86112002200EBC10181F8443290F825
:103A6000611200EBC10181F8452290F86112491CF6
:103A7000C9B280F86112042901D180F8612270472F
:103A80002DE9F0410546D0F8D402884605EB8000C8
:103A90004FF0FF37D0F8C042E4B1D4F8181239B172
:103AA00094F81D12202305222846FFF7C3FF11E0DA
:103AB00094F862120526022905D0D0F8C402816864
:103AC0004046884748B13A23022241462846FFF73C
:103AD000B1FF26723846BDE8F0810020E060FAE7C9
:103AE00010B508B1C26007E04FF0FF3010BD521EA4
:103AF00092B284188B5C2374002AF8D1002010BD88
:103B00002DE9F0410546D0F8D402164605EB8000B9
:103B10008846D0F8C0424FF0FF37ECB3217A29B184
:103B200041462846BDE8F041FFF760BDD4F81812C1
:103B300099B394F81C1209063DD4D0F8C4028168E8
:103B40004046884728B13A230EE02846FFF772FF27
:103B500025E0D5F8D40205EB8000D0F8C402C16896
:103B60004046884718B1272302224146EDE7708876
:103B7000317940BA000440EA01227079414602439B
:103B8000C4F86C22B6F8070043BA2846C4F870326D
:103B9000FFF7D5FB002801E001E00CE002DA38462F
:103BA000BDE8F081B4F86402D4F870324343D4F82D
:103BB0001802984204D0202394F81D120522C4E76D
:103BC0004FF40070834200D3034601202072044862
:103BD00004F110020178284601F024FB0020DFE701
:103BE000D10000202DE9F0470646D0F8D402154652
:103BF00006EB80008946D0F8C0424FF0FF3884B30E
:103C0000217A29B149463046BDE8F047FFF7EEBCBE
:103C1000D4F8181219B194F81C12090607D594F8B3
:103C20001D12202305223046FFF704FF34E0D0F8B0
:103C3000C402816848468847052708B13A230AE04C
:103C4000D6F8D40206EB8000D0F8C402C16848461A
:103C5000884738B12723022249463046FFF7EAFE5B
:103C6000277219E06888297940BA000440EA0122E5
:103C700068790243C4F86C22E888297A40BA0004C3
:103C800040EA0123687A494603433046C4F870325B
:103C9000FFF755FB002802DA4046BDE8F087B4F88C
:103CA0006402D4F870324343D4F818029842B6D173
:103CB0004FF40070834200D3034601202072044871
:103CC00004F110020178304601F0ACFA0020E4E77C
:103CD000D10000200A6842624A688262D1E9022368
:103CE0001A43D1E904310B43C16A1A4321F0F701A9
:103CF0001143C16200207047006800F00300704764
:103D000008444069704770B50DF1100C11439CE8F0
:103D100070002343194329434268314347F6FF6348
:103D20009A430A434260002070BD032101600020D5
:103D30007047D0F8800070470A688260D1E901239B
:103D40001A43D1E903310B43C1681A436FF30B01E6
:103D50001143C160002070470968C0F8801000203E
:103D6000704710B585B0044600913721019140217C
:103D70000020CDE902100801049069462046FFF7B3
:103D8000DBFF41F288323721204600F093F905B07D
:103D900010BD000010B50B4A85B004461143292020
:103DA000CDE900104020029000200390500D0490B7
:103DB00069462046FFF7C0FF204600F033FA05B001
:103DC00010BD00000000108010B585B004460091C1
:103DD0001021019140210020CDE90210080104903A
:103DE00069462046FFF7A8FF41F28832102120469D
:103DF00000F060F905B010BD10B585B00446009123
:103E00000621019140210020CDE902100801049013
:103E100069462046FFF790FF41F28832062120468E
:103E200000F048F905B010BD30B585B00025044656
:103E3000009501954FF480600295CDE903506946E5
:103E40002046FFF779FF0B484FF4FA510068B0FBAA
:103E5000F1F141F288304143491E02D24FF0004552
:103E600004E0606B0006F7D5C520A06305B02846C6
:103E700030BD00009000002010B585B04FF4D57122
:103E8000009108210446019140210020CDE9021053
:103E90000801049069462046FFF74EFF204600F0D7
:103EA00027FA05B010BD10B585B004460091122167
:103EB000019140210020CDE90210080104906946DB
:103EC0002046FFF739FF41F288321221204600F0E8
:103ED000F1F805B010BD10B585B004460091112170
:103EE000019140210020CDE90210080104906946AB
:103EF0002046FFF721FF41F288321121204600F0D1
:103F0000D9F805B010BD10B585B004460721402092
:103F10000092CDE90110002003904FF480600490DE
:103F200069462046FFF708FF41F288320721204604
:103F300000F0C0F805B010BD10B585B00021022218
:103F40000446C020CDE90201CDE9001250020490E0
:103F500069462046FFF7F0FE204600F03BF905B029
:103F600010BD10B585B00446009109210191C02112
:103F70000020CDE902104FF480600490694620468D
:103F8000FFF7DAFE204600F025F905B010BD10B5A8
:103F900085B00021044640203322CDE90201CDE95D
:103FA00000120001049069462046FFF7C5FE41F269
:103FB00088323321204600F07DF805B010BD10B5E1
:103FC00085B0044600910D21019140210020CDE9EA
:103FD00002100801049069462046FFF7ADFE41F249
:103FE00088320D21204600F065F805B010BD30B5CF
:103FF00085B0054600230320CDE900304020CDE9FF
:10400000020300010C46049069462846FFF794FE1F
:1040100022460321284600F027F905B030BD0000F4
:1040200010B585B00021044640200C22CDE90201E4
:10403000CDE900120001049069462046FFF77CFE9E
:10404000034A0C21204600F035F805B010BD0000F1
:1040500000E1F50510B585B00446009119210191E4
:1040600040210020CDE90210080104906946204655
:10407000FFF762FE41F288321921204600F01AF85B
:1040800005B010BD10B585B004460091182101910E
:1040900040210020CDE90210080104906946204625
:1040A000FFF74AFE41F288321821204600F002F85C
:1040B00005B010BD454B10B51B684FF4FA54B3FB67
:1040C000F4F353435B1E02D24FF0004010BD426B2D
:1040D00012F0450FF6D01205F4D4426B520703D507
:1040E00004218163084610BD426BD20702D0012132
:1040F000816305E0C52282630269D2B28A4201D09F
:10410000012010BD0021FFF7FBFD3149084201D11C
:10411000002010BD002802DA4FF0007010BD4100F1
:1041200001D5402010BD810001D5802010BDC10007
:1041300002D54FF4807010BD010102D54FF400701C
:1041400010BD410102D54FF4806010BDC10102D500
:104150004FF4006010BD010202D54FF4805010BD35
:10416000410202D54FF4005010BD810202D54FF438
:10417000804010BDC10202D54FF4004010BD410384
:1041800002D54FF4003010BD810302D54FF48020DA
:1041900010BDC10302D54FF4002010BD010402D5AB
:1041A0004FF4801010BD410402D54FF4001010BD33
:1041B000810402D54FF4800010BD000702D54FF4F2
:1041C000000010BD4FF4803010BD000090000020B2
:1041D00008E0FFFD12494FF4FA520968B1FBF2F210
:1041E00041F288314A43521E02D24FF000407047DC
:1041F000416B11F0450FF6D00905F4D4416B490726
:1042000003D50421816308467047416BC90703D079
:104210000121816308467047C521816300207047F2
:10422000900000200F494FF4FA520968B1FBF2F2F6
:1042300041F288314A43521E02D24FF0004070478B
:10424000416B11F0450FF6D00905F4D4416B4907D5
:1042500003D50421816308467047C521816300208E
:10426000704700009000002030B5204B4FF4FA5406
:104270001B68B3FBF4F441F288335C43641E02D242
:104280004FF0004030BD436B13F0450FF6D01B05D7
:10429000F4D4436B5B0703D504218163084630BD2A
:1042A000436BDB0702D00121816303E00369DBB2CA
:1042B0008B4201D0012030BDC52181630021FFF771
:1042C0001FFD10F4604F04D0410406D54FF4005098
:1042D00030BD000C1080002030BD000402D54FF42A
:1042E000805030BD4FF4803030BD00009000002081
:1042F00014494FF4FA520968B1FBF2F241F28831E5
:104300004A43521E02D24FF000407047416B11F0F9
:10431000450FF6D00905F4D4416B490703D50421B4
:10432000816308467047416BC90703D0012181634F
:1043300008467047416B490601D540218163002042
:10434000704700009000002070B52DED028B002218
:1043500053A1544803F0A8F908B1C5217DE0524AA1
:104360004FA0111D03F005F908B1CB2175E04E4CAB
:10437000241F616888694D89801E6843FCF718F81E
:104380009FED4A8B53EC182BFBF7A0FFFCF71DF8B1
:10439000E060A0686843FCF70BF853EC182BFBF7C0
:1043A00095FFFCF712F800EE100AB8EE400A9FEDF8
:1043B000418A206120EE080A10EE100AFCF71EF870
:1043C00041EC100B3CA053EC102B02F0FDF894EDE7
:1043D000030AB8EE400A20EE080A10EE100AFCF7B5
:1043E0000DF841EC100B3AA053EC102B02F0ECF856
:1043F000206938B113223CA13E4803F07DF918B181
:10440000E0212AE0D72128E03A493BA003F09BFABB
:10441000384942A003F097FA364803F08FF808B104
:10442000EA211AE0012230A1324803F065F940B1D7
:10443000F02112E03C493DA002F0C6F83C480020C3
:1044400000BF2C4A6421384803F004F90028F1D158
:10445000284803F073F818B1FD2136A000F090F859
:1044600039A002F0B1F803213AA0FCF783FA36A094
:1044700002F0AAF8022137A0FCF77CFA32A002F081
:10448000A3F8032133A0FCF775FA2FA002F09CF8E3
:10449000BDEC028B0121BDE870402FA0FCF76ABA89
:1044A00000000000B0020020040000200000000016
:1044B0000000E03F0000803A66726565207370611D
:1044C00063653A20252E3266204D420D0A00000019
:1044D000746F74616C2073706163653A20252E32AD
:1044E00066204D420D0A000066697273742E74785E
:1044F00074000000E404002053544D333220534430
:10450000204361726420492F4F204578616D706CA3
:104510006520766961205344494F0A0053617665EE
:10452000204F4B212121000010070020257300009F
:104530004C0100202E2E2F436F72652F5372632F74
:104540006D61696E2E6300000D0A5B7363616E5DC1
:104550003A0D0A00303A0000303A2F6469720000C8
:1045600010B5064C01202070FCF76AF918B92078C4
:1045700020F001002070207810BD00003E010020D6
:104580000A46014601A002F01FF8FEE725733A250E
:10459000640D0A002DE9F04788B00E460446FCF78A
:1045A00003FD0025074606950795A84608212068C3
:1045B000FFF70AFC00282AD1B4F850000104206853
:1045C000FFF7CFFB002822D1401E4FF00809CDE9AC
:1045D000000930204FF0020ACDE9020A0120CDE99E
:1045E000048069462068FFF775FB2068FFF7CFFC61
:1045F00000280CD10DF118082068416B11F02A0F2A
:1046000008D0416B090719D5C0F83890082008B0C8
:10461000BDE8F087416B890205D5FFF78AFB48F8B2
:1046200025006D1C02E0416B8904EAD5FCF7BCFC57
:10463000C01B401CE0D14FF00040E8E7416B890708
:1046400003D5C0F838A00220E1E7416B890603D505
:10465000202181630846DAE740F23A5181630798E6
:1046600000BA3060069800BA70600020CFE710B53D
:1046700090B004460120ADF838002068FFF73CFBFD
:10468000002854D0606C032842D02068FFF754FC07
:1046900000284AD100212068FFF732FB606704211F
:1046A0002068FFF72DFBA06708212068FFF728FB93
:1046B000E0670C212068FFF723FBC4F88000606CE2
:1046C000032825D00EA92068FFF791FC00282CD1E3
:1046D000606C03281CD0BDF83800206501042068F8
:1046E000FFF73FFC002820D100212068FFF708FBDE
:1046F000606604212068FFF703FBA066082120689C
:10470000FFF7FEFAE0660C212068FFF7F9FA206750
:1047100004212068FFF7F4FA000DE06403A92046A5
:10472000FDF758FD30B14FF0805010B010BD4FF084
:104730008060FAE7B4F85000002302042068FFF715
:10474000E2FB0028F1D104F1100007C88DE8070052
:1047500094E80F00FFF7D7FA0020E6E72DE9F84FBD
:10476000002604460096374635460068FFF75CFB96
:10477000002827D12068FFF77FFB4FF0805B4FF0C8
:1047800001094FF6FF7848B1A6642068FFF74CFB9B
:10479000002817D1A06C012802D01FE0C4F848906F
:1047A00000212068FFF7DDFA58B917E000212068E2
:1047B000FFF7D7FA002805D151462068FFF7EAFA3B
:1047C00010B15846BDE8F88F00212068FFF798FA2D
:1047D0000746C50F0098401C009001E0DFF824A0B8
:1047E0000099414501D2002DE0D0414502D34FF060
:1047F0008070E7E7780002D5C4F8449000E0666472
:104800000020DFE7000010C170B50546054C01200F
:104810002070FCF721F818B92846FFF7A1FE207098
:10482000207870BD3E01002010B588B014461748AE
:10483000007810F0010F02D008B0032010BD41B184
:10484000012909D002290FD0032915D0042008B06E
:1048500010BD002008B010BD6846FBF7EBFF0698BE
:104860002060002008B010BD6846FBF7E3FF079802
:104870002080002008B010BD6846FBF7DBFF0798DA
:10488000400A2060002008B010BD00003E0100205A
:10489000084610B511461A460124A31EFBF7FCFF7B
:1048A00020B9FBF7CDFF0028FBD10024204610BD26
:1048B000FFF756BE084610B511461A460124A31E3E
:1048C000FBF7FAFF20B9FBF7BBFF0028FBD1002460
:1048D000204610BD4FF480300860C01110800020C9
:1048E000704700207047002070470020704700206C
:1048F000704700207047002070477047017840786B
:1049000041EA00207047FCF755BB000030B593B07A
:1049100030216846FBF7BFFC14210CA8FBF7BBFC59
:104920001E480025016841F080510160006800F0D8
:10493000805011901A48016841F48041016000687C
:10494000022400F4804011900120009000040190A6
:104950008001CDE90640192008904FF4A870CDE9F8
:10496000090407200B906846FDF7FCF908B172B600
:10497000FEE70CA90F2081E831004FF4A0500F9002
:104980004FF48050109005210CA8FDF7F9F800288D
:1049900001D072B6FEE713B030BD000040380240CF
:1049A000007000400248016841F4700101607047E6
:1049B00088ED00E010B5806B0021C185C184FDF752
:1049C00076FF10BD01680C3151E8002F22F490727F
:1049D00041E80023002BF5D10168143151E8002F84
:1049E00022F0010241E80023002BF5D1016B0129DF
:1049F00009D101680C3151E8002F22F0100241E882
:104A00000023002BF5D1202180F83E100021016306
:104A1000704708B590F83E10222901D0022008BD49
:104A200081684FF48053994201D1026922B1826AB0
:104A300099421BD049B10AE00268816A5268C2F308
:104A400008020A80816A891C08E0016971B1016865
:104A5000496801F07F011170816A491C8162C18D32
:104A6000491E0904090CC18503D019E00168496891
:104A7000F1E70168CA6822F02002CA600168CA68CA
:104A800022F48072CA6001684A6922F001024A6118
:104A9000202180F83E10016B012903D0FEF7E2F8D7
:104AA000002008BD0021016301680C3151E8002F8E
:104AB00022F0100241E80023002BF5D101680A68BA
:104AC000D20602D50A6849680091818DFDF7EEFE95
:104AD000E6E7000070B5044600680169E26821F469
:104AE000405111430161A1682069E2690143606995
:104AF000104301432068C26849F20C639A430A4399
:104B0000C26020684169A26921F44071114341618A
:104B100031492068884202D03049884202D1FDF7ED
:104B2000DFF801E0FDF7CCF8E269002319216425E4
:104B30003226B2F5004F626828D0A0FB0101930F26
:104B40009200FBF73FFB0146B0FBF5F06FF0180257
:104B5000504301EB800006EB0010B0FBF5F000F0D5
:104B6000F002B1FBF5F002EB0012B1FBF5F06FF0D3
:104B70001803584301EB800006EB0010B0FBF5F082
:104B800000F00F0021681044886070BDA0FB010197
:104B900092185B41FBF716FB0146B0FBF5F00201F2
:104BA000B1FBF5F06FF01803584301EB800006EB02
:104BB000C000B0FBF5F000F0F80002EB4002B1FBE2
:104BC000F5F0584301EB800006EBC000B0FBF5F0B8
:104BD00000F00700D6E7000000100140001401407B
:104BE0002DE9F0411E46174688460446069D26E0FC
:104BF000681C24D025B1FCF7D7F9801BA8421ED928
:104C000020680C3050E8001F21F4D07140E80012F9
:104C1000002AF5D12068143050E8001F21F001016E
:104C200040E80012002AF5D1202084F83D0084F8E5
:104C30003E00002084F83C000320BDE8F08120689D
:104C4000016838EA010004D00020B842D0D000202A
:104C5000F3E70120F9E700000148FDF729BE000055
:104C60006C02002010B5D0F8B8220024526890479A
:104C700000B10324204610BD00207047002070477B
:104C8000134610B50A46002100F0CCFA002010BDF2
:104C9000134610B50A46002100F069FB002010BD44
:104CA00010B50446802100F047FB2046BDE81040C7
:104CB000002100F041BB10B50521C0F8941200237B
:104CC0001A46194600F0AEFA002010BD10B50223B6
:104CD000C0F8943282611346C2610A46002100F096
:104CE00046FB002010BD10B50421C0F8941200232B
:104CF0001A46194600F03BFB002010BD10B50A46CD
:104D0000024903A000F003F9004810BD100B002079
:104D10004D534320436F6E66696700001220088080
:104D2000004870473400002010B50A46024903A02D
:104D300000F0EDF8004810BD100B00204D5343204B
:104D4000496E746572666163650000000420088026
:104D5000004870473000002010B50A46024903A001
:104D600000F0D5F8004810BD100B002053544D69D9
:104D700063726F656C656374726F6E696373000054
:104D800010B50A46024903A000F0C1F8004810BD62
:104D9000100B002053544D3332204D617373205358
:104DA000746F72616765000010B51A2008800A48A8
:104DB0000168001D0468001D0068081809D0082259
:104DC0000649FDF7AAFF0549042210312046FDF7E8
:104DD000A4FF0248801E10BD107AFF1F4A00002069
:104DE000F8B504460020ADF8000048880D46010AD9
:104DF00008295FD2DFE801F05E0409175E5E3D45D9
:104E0000D4F8B412207C0A6819E0207C022600281D
:104E1000D4F8B80205D0C16A684688470146467092
:104E200039E0816AF8E7C0B2062843D2DFE800F033
:104E3000030B1115191DD4F8B402426806E0694647
:104E40009047014627E0D4F8B40282688AB3207CF8
:104E5000F5E7D4F8B402C268F8E7D4F8B4020269FE
:104E6000F4E7D4F8B4024269F0E7D4F8B4028269F6
:104E7000ECE7207CE8B9D4F8B802416B6846884773
:104E8000DFE7207CA8B9D4F8B802016B68468847F0
:104E9000014607204870EA888AB1BDF8000040B199
:104EA000824200D90246ADF800202046FFF70EFFEF
:104EB000F8BDFFE729462046FFF7F2FEF8E7204657
:104EC000FFF711FFF4E778B50E4642880178002419
:104ED00005468A4212D9ADF800100AE0694600F092
:104EE0000FF84178052904D181780446B14205D0F4
:104EF00000246988BDF800209142EFD8204678BD93
:104F00000A8803781A440A8001780844704770B50B
:104F1000002300281ED00025044602E06D1CEDB2DF
:104F2000641C2678002EF9D1022404EB4504148079
:104F30001278CA545B1C0322CA5400245B1C06E08E
:104F4000CA545B1CDAB28C54521CD3B2401C027897
:104F5000002AF5D170BD01004FF0000004D00129F6
:104F600001D0022901D0032070470120704778B199
:104F70000023C0F8B832C0F8C432C0F8D03209B14A
:104F8000C0F8B412012180F89C12027000F0D6B86B
:104F90000320704710B5D0F8C802FCF71CF9BDE833
:104FA0001040FFF7D8BF10B5D0F8C802FCF7EDF8F5
:104FB000BDE81040FFF7CFBF70B516460446002588
:104FC00021B194F89C02032842D04CE0D4F894120A
:104FD00004F11400022935D1D0E90232934206D9F6
:104FE0009A1A826031462046FFF752FE0FE09A423D
:104FF00014D14068904211D3D4F8981288420DD24F
:10500000002211462046FFF743FEC4F898520023C1
:105010001A461946204600F005F913E094F89C0260
:10502000032808D1D4F8B802C16821B1C4F8D45219
:10503000C168204688478021204600F07DF920463F
:10504000FFF739FE94F8A00268B184F8A0520AE094
:10505000D4F8B802426932B1C4F8D4524269204649
:105060009047002800D1002070BD70B5134604465B
:105070000A004FF0000004D094F89C12032931D0AC
:105080003CE0D4F8941204F5AA72032936D1D2E98F
:105090000215A9420BD9481B90602A46904200D3C2
:1050A0001046024619462046FFF7EAFD26E094F82E
:1050B000AA1211F01F0103D0012902D0022900D049
:1050C000002094F89C12032908D1D4F8B8120A6978
:1050D00022B1C4F8D4020969204688472046FFF768
:1050E00002FE0BE0D4F8B8128B693BB1C4F8D402CD
:1050F0008B69114620469847002800D1002070BDDA
:105100000020704710B50024012180F89C12D0F8CF
:10511000B82222B152680179904700B10324204699
:1051200010BD10B5D0F8C802FCF783F8BDE81040F8
:10513000FFF711BFD0F8C802FCF795B810B5017899
:1051400039BB15490222C1F80805C0F8C8124FF052
:10515000A0400860042048600020C1E90320C1E9A4
:10516000062008624862C86208630846FCF7E2FB52
:1051700008B1FBF75BFC80210748FBF7B6FF402234
:1051800000210548FBF7B5FF802201210248FBF70B
:10519000B0FF002010BD0000880F00200A0601F0BB
:1051A0007F01D0F8C80201EBC10100EB810002D5FC
:1051B00090F83E00704790F87E02704710B5D0F826
:1051C000D42200EB8202D2F8B82222B190F89C32AD
:1051D000032B02D004E0032010BD126A02B19047F5
:1051E000002010BD10B5D0F8D42200EB8202D2F816
:1051F000B82222B190F89C32032B02D004E00320A5
:1052000010BD526A02B19047002010BD10B51C4677
:105210001346D0F8C8022246FCF72EF8BDE810402D
:10522000FFF799BE10B5D0F8C802FCF755F8BDE8F5
:105230001040FFF790BE2DE9F041002501260446FD
:1052400080F89C62C4F894526560C4F8A45280F857
:10525000A052D0F8B80230B1426822B100212046F5
:10526000904700B103250022402311462046FFF756
:10527000CDFF4027A4F864613B46002280212046F0
:10528000C4F86071FFF7C2FFA68428462762BDE814
:10529000F08190F89C12042903D190F89D1280F8B7
:1052A0009C120020704710B590F89C12032905D17C
:1052B000D0F8B81211B1C96901B18847002010BDFA
:1052C00001740020704710B5D0F8C802FCF704FC48
:1052D000BDE81040FFF73FBE70B5044600F2AA20BB
:1052E000054600F0AAF90120C4F89402B4F8B0020F
:1052F000C4F8980294F8AA2212F01F000AD00128DC
:105300000ED0022812D02046BDE8704002F0800185
:1053100000F012B829462046BDE8704000F02ABAD5
:1053200029462046BDE8704000F06ABB2946204669
:10533000BDE8704000F0B4BA10B5D0F8C802FBF771
:10534000EFFFBDE81040FFF706BE10B5D0F8C80269
:10535000FCF7DDFBBDE81040FFF7FDBD90F89C12A7
:1053600080F89D12042180F89C120020704710B52F
:10537000D0F8C802FCF70EF8BDE81040FFF7EBBD0F
:1053800010B5FDF7B5FD002010BD10B5FDF7D3FD3C
:10539000002010BD70B51B4D04466978FFF703FE71
:1053A0006878002600F00F0000EB800004EB80001E
:1053B000A0F8646129782046FFF7F5FD287800F011
:1053C0000F0000EB800004EB80008684D4F8D40248
:1053D00004EB8000D0F8C00290B12046FDF7CEFD6E
:1053E000D4F8D40204EB8000D0F8C00200F041FBF6
:1053F000D4F8D40204EB8000C0F8C062C4F8BC62E8
:10540000002070BDD00000200A21018000487047B4
:10541000F400002070B5054681210848FFF753FDD0
:10542000044601210548FFF74EFD402104B1A1804B
:1054300000B1818020202880004870BDD400002069
:1054400070B5054681210948FFF73DFD044601215D
:105450000648FFF738FD4FF4007104B1A18000B198
:10546000818020202880014870BD0000D4000020E9
:1054700070B5054681210848FFF725FD0446012146
:105480000548FFF720FD402104B1A18000B18180D3
:1054900020202880004870BDD40000202DE9F04174
:1054A00004464FF41D7000F0E5FA70B3D4F8D4123E
:1054B000244D04EB81010126C1F8C002C4F8BC02EE
:1054C000207C60B34023022269782046FFF79EFECD
:1054D0006878402300F00F0000EB800004EB8000B0
:1054E000A0F86461022229782046FFF78FFE287811
:1054F00000F00F0000EB800004EB80008684204663
:10550000FDF748FD0020BDE8F081FFE7D4F8D41294
:10551000002004EB8101C1F8C0020220F3E74FF440
:1055200000773B46022269782046FFF76FFE6878D5
:105530003B4600F00F0000EB800004EB8000A0F879
:105540006461CFE7D000002039B1D0F8D42200EB5D
:105550008200C0F8C4120020704703207047F8B5DD
:105560000646D0F8D4020C4606EB80010025D1F89F
:10557000C072ADF8005037B1207810F0600223D02F
:10558000202A40D101E00320F8BD6278FE2A02D033
:10559000FF2A38D10EE0628882BBE288012A32D12C
:1055A000000630D5D1F8C40280698047012239460F
:1055B00038601FE0618809BBE188F9B9000622D490
:1055C0003046FDF71BFD23E0607830B1012824D080
:1055D0000A2809D00B2816D111E096F89C0203285E
:1055E00011D10222694605E096F89C0203280AD1EF
:1055F0000122391D3046FFF769FB09E003E096F808
:105600009C02032806D021463046FFF749FB0325BC
:105610002846F8BDA0787860FAE796F89C0203283F
:10562000F6D160880028F3D121793046FFF779FD63
:1056300021793046FDF734FCEAE770B5044611F8ED
:10564000010B207011F8010B60700D460846FFF742
:1056500055F9A91C60800D460846FFF74FF9A08058
:10566000A81CFFF74BF9E08070BD38B50446002058
:10567000ADF80000A1B1C4F8B812D4F8D40204EB1C
:105680008000D0F8B802C16A19B168468847C4F8EA
:10569000D002D4F8D802401CC4F8D802002038BD8B
:1056A000032038BD03460020D3F8B822002A02D0D8
:1056B00012681846104770472DE9F04188462B4E76
:1056C0008978002504463170012906D941462046D3
:1056D000FFF7E6FA0320BDE8F08194F89C02022768
:1056E00002280CD003281DD041462046FFF7D8FAE7
:1056F00031782046FFF7B6FA03252846EBE789B351
:1057000020466160FFF7CEFF050004D041462046E9
:10571000FFF7C6FA1DE02046FFF7E5FA032084F8FC
:105720009C02EAE7C1B1606888421BD0C1B2204642
:10573000FFF798FA317820466160FFF7B3FF050064
:1057400010D041462046FFF7ABFA21792046FFF7FB
:1057500089FA84F89C72D0E784F89C7220466160D4
:10576000FFF780FA2046FFF7BEFAC6E79400002054
:10577000FFF7EBBD2DE9F0410A78002612F0600238
:105780000CD0202A01D0402A7DD1D0F8D42200EBC1
:105790008202D2F8B8229268904731E04A7800231A
:1057A00001250A2A6FD2DFE802F041666E586E08C2
:1057B000056E2D29FFF714FB67E004468888D8B9E9
:1057C000C888C8B94888802816D200F07F0794F8A6
:1057D0009C02032810D084F89E7239462046FFF7B9
:1057E00072FD2046FFF77FFA1FB1022084F89C0269
:1057F0004BE084F89C5248E0204644E0FFF75CFF11
:10580000064642E0CA88012A3DD190F89C22012A2E
:1058100004D0022A02D0032A35D104E0012200F18B
:105820000801836016E00122011D13E090F89C221C
:10583000012A03D0022A01D0032A24D1CA88022ACD
:1058400021D1C560D0F8A41209B10321C1600222A0
:1058500000F10C01FFF73AFA17E04A88012A02D05A
:10586000022A03D00FE0C0F8A45216E08988090A82
:1058700080F8A01211E090F89C22012A08D0022A98
:1058800006D0032A04D0FFF70BFA3046BDE8F081BA
:1058900049880129F9D1C0F8A432FFF724FAF4E7C6
:1058A0002DE9F041054608780C790E464FF00008C6
:1058B00010F060000BD0202801D040286AD121468A
:1058C0002846FFF7D9F9FF2800D0D8B395E07078C3
:1058D000C8B3012824D003285CD195F89C02022883
:1058E00002D0032856D10CE0002C53D0802C51D08C
:1058F00021462846FFF720FD80212846FFF71CFDA2
:105900007BE0708840B93CB1802C05D0C88818B9BC
:1059100021462846FFF710FD2846FFF7E4F96CE022
:1059200095F89C020228DFD0032863D1708880BBE1
:10593000600603D021462846FFF72CFB2846FFF7D8
:10594000D2F9BCE700E00AE0C5F8D402D5F8B80205
:105950008268F2B131462846904780464DE095F87E
:105960009C020027022802D0032843D113E00CB187
:10597000802C3FD1200604F07F0000EB800005EB77
:10598000800101D5143101E001F5AA7102220F60F6
:105990002CE032E02EE0200604F00F0000EB800047
:1059A00005EB800009D5808C20B304F07F0000EB6C
:1059B000800005EB800614360AE0B0F86401C8B137
:1059C00004F07F0000EB800005EB800606F5AA7668
:1059D0004CB1802C07D021462846FFF7DFFB10B1E1
:1059E0000120306000E03760022231462846FFF790
:1059F0006DF902E02846FFF753F94046BDE8F08113
:105A000070B50546087800240E4610F0600003D0FB
:105A1000202801D0402827D195F89C02012803D0E6
:105A2000022801D003281FD1B088C1B201291AD899
:105A3000C1B22846FFF722F9FF280CD058B9D5F893
:105A4000B8128A683AB1C5F8D4028A683146284645
:105A50009047044600E00324F088204307D12846FD
:105A6000FFF741F903E031462846FFF719F92046D0
:105A700070BD704700487047100D002070B50A785F
:105A8000012302F00F054E78AB401B4CD0F81C5898
:105A9000012E17D045EA0343C0F81C3800EB421032
:105AA000D0F8002B12040BD4D0F8002B8B89097985
:105AB000C3F30A031A4344EA81410A43C0F8002BA6
:105AC000002070BD9BB21D43C0F81C5800EB421073
:105AD000D0F800391B04F3D4D0F800398D89097946
