:020000040800F2
:100000000807002029020008311600089D14000886
:100010002D160008210400083D1B00080000000008
:10002000000000000000000000000000651600084D
:100030002504000800000000611600089916000859
:10004000430200084302000843020008430200087C
:10005000430200084302000843020008430200086C
:10006000430200084302000843020008430200085C
:10007000430200084302000843020008430200084C
:10008000430200084302000843020008430200083C
:10009000430200084302000843020008430200082C
:1000A000430200084302000843020008430200081C
:1000B00043020008551700084302000843020008E5
:1000C00043020008430200084302000843020008FC
:1000D00043020008430200084302000843020008EC
:1000E00043020008430200084302000843020008DC
:1000F00043020008430200084302000843020008CC
:1001000043020008430200084302000843020008BB
:1001100043020008430200084302000843020008AB
:10012000430200084302000843020008430200089B
:10013000430200084302000843020008430200088B
:10014000430200084302000843020008430200087B
:10015000430200084302000843020008430200086B
:10016000430200084302000843020008430200085B
:100170004302000843020008430200080000000098
:10018000430200084302000800F002F800F03CF8C7
:100190000AA090E8000C82448344AAF10107DA45E2
:1001A00001D100F031F8AFF2090EBAE80F0013F0F8
:1001B000010F18BFFB1A43F001031847441A00004F
:1001C000641A0000103A24BF78C878C1FAD85207E0
:1001D00024BF30C830C144BF04680C6070470000C1
:1001E0000023002400250026103A28BF78C1FBD840
:1001F000520728BF30C148BF0B6070471FB501F0E0
:10020000EAFC1FBD10B510BD00F0D0F81146FFF795
:10021000F5FF01F0CFFC00F0EEF803B4FFF7F2FFBA
:1002200003BC00F0F5F80000094880470948004782
:10023000FEE7FEE7FEE7FEE7FEE7FEE7FEE7FEE796
:10024000FEE7FEE704480549054A064B70470000F3
:100250004117000889010008080100200807002054
:10026000080300200803002053EA020C00F0698014
:100270002DE9F04B4FF00006002B1FBFB3FA83F5BA
:1002800003FA05F424FA05F65E4012BF1643B2FAEB
:1002900082F502FA05F4C5F120051EBF22FA05FC1D
:1002A00044EA0C04203556EA044C4FEA144418BFC3
:1002B000641C4FF000084FF00009904271EB030CF2
:1002C00039D3002919BFB1FA81F701FA07F6B0FA5C
:1002D00080F700FA07F6C7F120071EBF20FA07FCD7
:1002E00046EA0C062037B6FBF4FCA7EB0507103FE7
:1002F00007F01F0BCBF120062CFA06F60CFA0BFBCD
:1003000044BFB3460026202FA4BF5E464FF0000B2B
:100310005BEA060C08BF4FF0010B19EB0B0948EB29
:100320000608ABFB027C06FB02CC0BFB03CCC01B1C
:1003300071EB0C01C1E70B46024641464846BDE859
:10034000F08B13B5084318BF4FF0FF300146AFF3F1
:100350000080BDE81C4070474FF0000200B5134616
:1003600094469646203922BFA0E80C50A0E80C50D5
:10037000B1F12001BFF4F7AF090728BFA0E80C5086
:1003800048BF0CC05DF804EB890028BF40F8042B7F
:1003900008BF704748BF20F8022B11F0804F18BFEC
:1003A00000F8012B7047704770477047754600F0A2
:1003B0002BF8AE4605006946534620F007008546F7
:1003C00018B020B5FFF73EFFBDE820404FF0000613
:1003D0004FF000074FF000084FF0000BAC46ACE8C0
:1003E000C009ACE8C009ACE8C009ACE8C00921F01C
:1003F00007018D46704710B50446AFF300802046D4
:10040000BDE81040FFF709BF00487047100000200A
:1004100001491820ABBEFEE726000200704700002D
:10042000FEE7000070470000EFF3108072B600BFD7
:10043000FEE7000080B540F2B801C2F200010A6890
:100440000138D062C860084600F0C6FC40F2700077
:10045000C2F200000C2100F001FF80BDB0B50446DF
:1004600000F0DEF8054640F20400C2F20000007819
:10047000611C18BF044400BF00F0D2F8401BA0422A
:10048000FAD3B0BD2DE9F04F83B000F13E4202F146
:10049000FF724FEAB22241F600470192C4F202070E
:1004A00008224FF0010E00254FF0000A4FF000081F
:1004B000B84208BF072200920AE000BF08F1010815
:1004C0000AF1040AB8F1100F05F1020500F0A4804A
:1004D0000C680EFA08FB14EA0B09EFD04C6804F024
:1004E000030CACF1010EBEF1010F11D80322876895
:1004F00002FA05F6CA68B743AA403A4382604268E6
:10050000C4F3001722EA0B0207FA08F73A434260E5
:10051000BCF1030F1CD0C26803238E6803FA05F7F1
:10052000BA4306FA05F73A43BCF1020FC2600FD195
:100530006FF0030202EA580202440AF01C060F237D
:10054000176A03FA06F40B69A743B3403B431362EF
:10055000026803234F68AB409A4307F00303AB40A4
:100560001A4317F4403F4FF0010E0260A6D000225C
:1005700043F644030292C4F202031A6843F60044AD
:1005800042F480421A601A68C4F2010402F4804204
:100590000292029A28F003024FF6084B2244CFF64B
:1005A000FF7B52F80B300AF00C070F26BE4023EAFF
:1005B000060C019B009E072B38BF1E4606FA07F764
:1005C00047EA0C0342F80B30A2684B6842EA09077D
:1005D00043F60C4CDE0258BF22EA0907A760C4F2BA
:1005E000010CDCF800209E0242EA090758BF22EA0B
:1005F0000907CCF8007062689E0342EA090758BFF9
:1006000022EA090767602268DB0342EA090358BF50
:1006100022EA0903236051E703B0BDE8F08F000030
:1006200040F20010C2F200000068704740F204007F
:1006300040F20011C2F20000C2F2000100780A6824
:10064000104408607047000080B543F60040C4F2D3
:100650000200016841F400710160016841F48061A9
:100660000160016841F480710160032000F060F8CE
:100670000F2000F005F800F02BF8002080BD0000EE
:10068000B0B540F20402C2F2000240F2000112785A
:10069000C2F200014FF47A730968B3FBF2F2044628
:1006A000B1FBF2F1084600F0CFFA0F2C4FF0010534
:1006B0000CD858B94FF0FF3021460022002500F039
:1006C00027F840F20800C2F2000004602846B0BDDE
:1006D00082B0002043F640010190C4F202014A6852
:1006E00042F480424A604A6802F480420192019AD0
:1006F0000090086840F080500860086800F0805062
:100700000090009802B0704780B501F019FA80BDE2
:1007100070B514460D46064601F022FA29462246D7
:1007200000F088FF0146304601F022FA70BD00005B
:1007300080B501F02FFA80BD2DE9F041002800F0CE
:100740008B8043F60808C4F202080446D8F8F80380
:100750000D4600F00700884207D288F8F853D8F811
:10076000F80300F00700A84276D12068810717D56A
:10077000410705D5D8F8001041F4E051C8F8001041
:10078000010705D5D8F8001041F46041C8F8001001
:10079000D8F80010A26821F0F0011143C8F8001049
:1007A000C0073FD1D8F8F80300F00700A84207D9E6
:1007B00088F8F853D8F8F80300F00700A8424BD1A6
:1007C0002068410707D5D8F80010E26821F4E0510D
:1007D0001143C8F80010000708D5D8F800002169B7
:1007E00020F4604040EAC100C8F8000000F054F86E
:1007F000D8F8001041F6F032C1F30311C0F6000240
:10080000515C40F2000220FA01F140F20800C2F20D
:1008100000000068C2F200021160FFF731FF002003
:10082000BDE8F0816068811E022907D258F8081CD3
:1008300089015CBF0120BDE8F08110E0012807D1EB
:1008400058F8081C89035CBF0120BDE8F08106E070
:1008500058F8081C890702D40120BDE8F081D8F8B7
:10086000001021F003010843C8F80000FFF7D8FE8C
:10087000064641F2883700BFD8F80000616800F0F2
:100880000C00B0EB810F8DD0FFF7CAFE801BB84281
:10089000F2D90320BDE8F08110B543F60404C4F298
:1008A0000204606800F00C0008280AD0042819BF70
:1008B00042F20040C0F2F40047F64000C0F27D1062
:1008C00010BD206821682368490247F64001C0F244
:1008D0007D1100F03F02C3F388105CBF42F200417B
:1008E000C0F2F401A1FB00010023FFF7BDFC216869
:1008F0000222C1F3014102EB4101B0FBF1F010BD56
:100900002DE9F04182B0002800F0A2800446007872
:1009100043F60006C007C4F2020643D0B06800F0F8
:100920000C00042805D1306880033BD56068C8BB43
:100930008EE0B06800F00C00082802D17068400218
:10094000F1D46568B5F5A02F0AD0B5F5803F0BD07E
:10095000306820F480303060306820F4802006E079
:10096000306840F480203060306840F4803030607F
:10097000FFF756FE002D054611D000BF30688003FA
:1009800010D4FFF74DFE401B6428F7D922E100BFC9
:10099000FFF746FE401B64284FF0030055D830682F
:1009A0008003F5D4207880071AD5B06810F00C0FBA
:1009B00009D0B06800F00C00082840F08A80706808
:1009C000400200F186803068800702D5E068012887
:1009D0003ED13068216920F0F80040EAC100306063
:1009E0002078000738D4207840074CD4A5695DB33F
:1009F000B06800F00C00082840F09E80012D27D040
:100A00007068E16900F480028A4221D1216A00F015
:100A10003F028A421CD147F6C071626A0140B1EBC5
:100A2000821F15D1A26A0023CFF6FF7303EBC232F7
:100A300000F440316FF30F02914209D1E16A00F0F6
:100A40007060B0EB016F03D1002002B0BDE8F0810F
:100A5000012002B0BDE8F0816069002840F200008A
:100A6000C4F2472057D00121C0F8801EFFF7D8FDFF
:100A7000054600BF706F8007B5D4FFF7D1FD401B5E
:100A80000228F7D9A6E0306C10F080580AD1002077
:100A90000190306C40F080503064306C00F0805039
:100AA0000190019847F20007C4F200073868C005BA
:100AB00024D4386840F480703860FFF7B1FD0546F3
:100AC0003868C0051AD4FFF7ABFD401B0228F7D9E0
:100AD00080E0E068002851D00020C4F247200121C6
:100AE0000160FFF79DFD0546306880073FF571AF57
:100AF000FFF796FD401B0228F6D96BE0A568052D8F
:100B000050D0012D52D0306F20F001003067306F8F
:100B100020F004004DE00021C0F8801EFFF780FDAA
:100B2000054600BF706F80077FF55DAFFFF778FD6A
:100B3000401B0228F6D94DE00027C4F247270020C9
:100B40003866FFF76DFD022D05460BD13068800138
:100B500058D5FFF765FD401B02284FF00300F5D97B
:100B600073E700BF306880017FF56EAFFFF758FD77
:100B7000401B02284FF00300F4D966E70020C4F2BE
:100B8000472000210160FFF74BFD054630688007D4
:100B90007FF526AFFFF744FD401B02284FF003000E
:100BA000F4D952E7306F40F004003067306F40F006
:100BB00001003067FFF734FD002D054641F288370C
:100BC00014D000BF306F800713D4FFF729FD401BFE
:100BD000B842F7D9032002B0BDE8F081FFF720FD4D
:100BE000401BB8424FF003003FF62FAF306F800735
:100BF000F4D4B8F1000F7FF4F9AE306C20F08050DF
:100C00003064F3E604F11C052FCD08430021CFF634
:100C1000FF7140EA821001EBC3316FF30F0140EA2C
:100C200005600843706001203866FFF7F9FC044650
:100C3000306880013FF508AFFFF7F2FC001B022887
:100C40004FF00300F4D900E780B500F00DFD80BD42
:100C5000704700007047000010B590F83C20012A52
:100C60004FF0020252D0012380F83C3080F83D2042
:100C70000268D2F804E0D2F808C00C682EF07003C5
:100C8000234341F2FF74C4F20004A24253600DDC1E
:100C900040F2FF73C4F200039A4215DCB2F1804FB8
:100CA00029D040F20043C4F2000322E040F2FF33B7
:100CB000C4F201039A4212DC41F60003C4F20003BD
:100CC0009A4218D0002312E040F60003C4F2000359
:100CD0009A4210D040F60043C4F2000309E044F207
:100CE0000003C4F201039A4205D040F20043C4F26B
:100CF00001039A4204D149682CF0800319439160A2
:100D00000121002280F83D1080F83C20104610BDE3
:100D1000002804BF0120704710B5044690F83D003C
:100D200028B9002084F83C00204600F01FF802207B
:100D300084F83D002068211D00F014FD012084F896
:100D4000460084F83E0084F83F0084F8400084F8B0
:100D5000410084F8420084F8430084F8440084F899
:100D6000450084F83D00002010BD000080B582B031
:100D7000006840F20041C4F20001884213D0B0F193
:100D8000804F27D10020019043F64000C4F20200BA
:100D9000016841F001010160006800F0010001906C
:100DA000019802B080BD0020009043F64000C4F2DC
:100DB00002000168002241F0020101600068002188
:100DC00000F00200009000981D20FFF7A1FC1D20FC
:100DD000FFF79AFC02B080BD90F83D1001291CBFBE
:100DE00001207047022180F83D10006841F2FF7237
:100DF000C168C4F20002904241F00101C1600DDC03
:100E000040F2FF71C4F20001884215DCB0F1804F5E
:100E100029D040F20041C4F2000122E040F2FF314B
:100E2000C4F20101884212DC41F60001C4F2000163
:100E3000884218D0002112E040F60001C4F20001FF
:100E4000884210D040F60041C4F2000109E044F2AB
:100E50000001C4F20101884205D040F20041C4F211
:100E60000101884206D1816801F00701062904BF0B
:100E700000207047016841F00101016000207047C7
:100E80000146006841F21113C26822F00102C260FB
:100E9000026A1A4208D1026A40F244431A4203D15C
:100EA000026822F0010202600122002081F83D2048
:100EB0007047000010B5044690F83C0001284FF040
:100EC000020008BF10BD012284F83C2084F83D00D8
:100ED00020684FF6777382689A4382600A684F2AC7
:100EE0000FDC1F2A22DD202A23D0302A21D0402ADD
:100EF0004DD14B68CA68194600F0FCFD20684021BE
:100F00003BE06F2A17DDB2F5005F20D0B2F5805FBD
:100F10002AD0702A3BD1D1E9012CCB68614600F080
:100F2000C5FC2068816841F077011AE00AB1102AF7
:100F30002DD1114621E0502A18D0602A27D14B68C4
:100F4000CA68194600F0E8FD2068602115E0D1E983
:100F5000012CCB68614600F0A9FC2068816841F44F
:100F60008041816000200BE0002009E04B68CA68E6
:100F7000194600F0BFFD2068502100F0A3FC0020BE
:100F8000012184F83D10002184F83C1010BD01209F
:100F9000F6E700007047000010B5044600680169DC
:100FA000890744BFC1685FEA817138D4206801694C
:100FB000490744BFC1685FEA41713CD420680169B8
:100FC000090744BFC1685FEA017141D42068016923
:100FD000C90644BFC1685FEAC16145D420680169A0
:100FE000C9071CBFC1685FEAC1714AD120680169A5
:100FF000090644BFC1685FEA016149D420680169FC
:10100000490644BFC1685FEA416148D4206801696C
:10101000890644BFC1685FEA816147D410BD6FF0A3
:1010200002010161012121778069800745D02046B6
:10103000FFF7B0FF47E06FF0040101610221217763
:10104000806910F4407F41D02046FFF7A3FF43E0C2
:101050006FF00801016104212177C06980073ED04B
:101060002046FFF797FF40E06FF010010161082173
:101070002177C06910F4407F3AD02046FFF78AFFFD
:101080003CE06FF001010161204600F0BBF9ADE7E3
:101090006FF0800101612046FFF7DAFDAEE76FF0E7
:1010A00040010161204600F0F7F9AFE76FF0200141
:1010B00001612046FFF7CEFD10BD204600F04EF83E
:1010C000204600F0C9F8002020776FE7204600F0A6
:1010D00045F8204600F0C0F8002020776EE7204653
:1010E00000F03CF8204600F0B7F8002020776DE7CC
:1010F000204600F033F8204600F0AEF800202077BC
:101100006CE7000080B586B000680021B0F1804F28
:101110000591CDE903110291019101D006B080BD86
:1011200043F630000091C4F20200026842F001026E
:101130000260006800F00100009000980820019013
:101140000220CDE902010120059000200491C4F2A3
:10115000020001A9FFF796F906B080BD70470000B4
:10116000B0B5044690F83C00012804BF0220B0BD91
:101170000D464FEAB2010120032984F83C0037D81C
:10118000DFE801F0020A12222068294600F0A2FBE3
:10119000206850F8181F0EE02068294600F0CCFBAC
:1011A000206850F8181F16E02068294600F0FAFB66
:1011B000206850F81C1F41F008010160016821F00F
:1011C0000401016029690FE02068294600F01EFC37
:1011D000206850F81C1F41F400610160016821F48F
:1011E00080610160296909020268114301600020E1
:1011F000002184F83C10B0BD002804BF01207047D6
:1012000010B5044690F83D0028B9002084F83C0051
:10121000204600F01FF8022084F83D002068211DC0
:1012200000F0A0FA012084F8460084F83E0084F81B
:101230003F0084F8400084F8410084F8420084F8BC
:10124000430084F8440084F8450084F83D00002001
:1012500010BD0000704700007047000010B5044644
:1012600041B1082909D0042914BF04F1410004F157
:101270003F0004E004F13E0001E004F1400000788A
:1012800001281CBF012010BD022041B1082909D04E
:10129000042914BF84F8410084F83F0004E084F876
:1012A0003E0001E084F840002068012200F0ECFAE2
:1012B000206841F2FF71C4F2000188420FDC40F265
:1012C000FF71C4F20001884217DCB0F1804F49D0B1
:1012D00040F20041C4F20001884243D049E040F2AC
:1012E000FF32C4F20102904214DC41F60003C4F262
:1012F0000003984236D0002314E040F60001C4F207
:10130000000188422ED040F60041C4F2000188421C
:1013100028D02EE044F20003C4F20103984221D009
:1013200040F20043C4F20103984222D1436C884248
:1013300043F400434364C2DD904207DC41F6000100
:10134000C4F2000188420DD0002107E044F2000100
:10135000C4F20101884205D040F20041C4F201010B
:10136000884206D1816801F00701062904BF0020E8
:1013700010BD016841F001010160002010BD0000B6
:10138000B0B50446006800220D4600F07DFA2068E2
:1013900040F2004240F48061C4F2010291420DD15A
:1013A000016A41F21112114208D1016A40F244422D
:1013B000114203D1416C21F400414164016A41F2C0
:1013C0001112114208D1016A40F24442114203D184
:1013D000016821F0010101600120082D09D0042DD0
:1013E0000BD0002D14BF84F8410084F83E0000208B
:1013F000B0BD84F840000020B0BD84F83F0000205C
:10140000B0BD000080B5006840F20041C4F20001A8
:10141000884200D080BD40F2B800C2F200000068EF
:101420000169890758BF80BD6FF00201016140F278
:101430007000C2F200000C21FFF7A2FF40F2B800DA
:10144000C2F20000FFF71CFD80BD0000B0B50446ED
:1014500090F83C0001284FF0020008BFB0BD012504
:1014600084F83C5084F83D00204600F0F7FA00284C
:101470004FF0010009D12068C16821F04001C1602E
:10148000C16821F48041C1600020002184F83D50F2
:1014900084F83C10B0BD000070470000FEE700007B
:1014A00080B586B0002043F630010590CDE90300F9
:1014B000CDE901000090C4F202010A6842F0800206
:1014C0000A600A6802F080020092009A00900A689E
:1014D00042F001020A60096801F0010100910099DF
:1014E0004FF4807101910221CDE902100490012096
:1014F00005900020C4F2020001A9FEF7C3FF06B068
:1015000080BD000080B58EB040F270000021C2F2B4
:1015100000004FF0804253234FF0630C0D91CDE952
:101520000B11CDE90911CDE90711CDE90511CDE97F
:101530000311CDE90111C0E90023C0E9021C0161DA
:101540008161FFF7E5FBA8BB4FF480500A9040F2A1
:101550007000C2F200000AA9FFF7ACFC50BB40F2D9
:101560007000C2F20000FFF747FE18BB2020089071
:101570008020099040F27000C2F2000008A9FFF735
:101580006BFBB8B9602001903220029000200390DC
:10159000059040F27000C2F2000001A90C22FFF792
:1015A000DFFD38B940F27000C2F20000FFF7AAFD7B
:1015B0000EB080BDFEF738FF80B588B040F2B800AD
:1015C00040F200420021C2F20000C4F2000240F2E8
:1015D000FF330791CDE90511CDE90311CDE90011E4
:1015E000C0E90021C0E9021301618161FFF790FBAE
:1015F000D0B9072003901020049040F2B800C2F246
:10160000000003A9FFF722FF70B9402000900020DE
:10161000019040F2B800C2F200006946FFF71CFBDF
:10162000002804BF08B080BDFEF7FEFEFEE7000004
:10163000FEE7000000F0070080F00703042B28BF3E
:1016400004234FF0FF3C03380CFA03F338BF0020AB
:10165000994381400CFA00F022EA000008437047E9
:101660007047000070470000B0B501380024B4EBAB
:10167000106F1CBF0120B0BD4EF21005CEF2000568
:1016800068604FF0FF300F2100F072FA0720AC6065
:1016900028602046B0BD000080B5FEF7C7FF80BDC2
:1016A00070B592B006AC20463021FEF755FE0025FD
:1016B00043F640000595CDE90355CDE90155009568
:1016C000C4F202000168022641F080510160006806
:1016D00000F080500090009847F200000095C4F29E
:1016E0000000016841F480410160006800F480401E
:1016F000009000980120099010200A9008200E9078
:10170000A820CDE90F060420119020460696CDE9C9
:101710000C65FFF7F5F888B90F20CDE901064FF405
:10172000A05004904FF48050059001A80521039526
:10173000FFF702F8002804BF12B070BDFEF774FE78
:101740004EF68850CEF20000016841F4700101604D
:101750007047000080B540F2B800C2F20000FFF709
:101760001BFC80BD10B540F6FF3E0368C4F2000EBE
:1017700040F2004C7045C4F2010C0FDCB0F1804F18
:1017800019D040F20042C4F20002904213D040F659
:101790000002C4F2000290420DD010E040F6004278
:1017A000C4F20002904206D0604504D00022C4F288
:1017B0000102904203D14A6823F07003134341F6BB
:1017C000FF72C4F2000290420DDC70451FDCB0F1E4
:1017D000804F41D040F20042C4F2000290423BD020
:1017E00040F6000221E043F6FF72C4F2010290428B
:1017F00020DC42F20002C4F2000290422CD000220F
:10180000C4F20102904227D0604525D028E040F67E
:101810000042C4F2000290421ED041F60002C4F21F
:101820000002904218D041F60042C4F200029042F9
:1018300012D015E044F20002C4F2010290420BD033
:1018400044F60002C4F20102904205D044F2004284
:10185000C4F20102904203D1CA6823F440731343D7
:1018600023F080024B69D1F800E08C681A430260D3
:10187000C46240F48062C0F828E0624504BF096990
:1018800001630121416110BD80B501F01F014FF0DE
:10189000010CD0F820E00CFA01F32EEA03030362F6
:1018A000036A02FA01F11943016280BDD0F808C051
:1018B00011432CF47F4C41EA032141EA0C01816081
:1018C00070470000826822F07002114341F0070166
:1018D00081607047B0B5026A40F2004522F0010213
:1018E0000262026AD0F804E0D0F818C08C6822F0D6
:1018F000020240F48063C4F20105AB4242EA0402F2
:1019000005D1CC6822F00C0224F0040422430C68B8
:10191000AB4207D1D1E905532EF4407E45EA0E05CE
:1019200045EA030E2CF073032343C0F804E08361FF
:10193000496841630262B0BD70B5026A40F200447A
:1019400022F010020262026AD0F804E0D0F818C057
:101950008D6822F0200240F48063C4F20104A342A7
:1019600042EA051207D1CD686FF0400622F0C002AE
:1019700006EA05152A430D68A34207D1D1E905649B
:101980002EF4406343EA860343EA840E2CF4E643D4
:1019900043EA0523C0F804E0836149688163026279
:1019A00070BD000070B5026A40F2004422F48072FB
:1019B0000262026AD0F804E0D0F81CC08D6822F4FC
:1019C000007240F48063C4F20104A34242EA05229B
:1019D00007D1CD6840F2FF462D0222F44062B543A4
:1019E0002A430D68A34207D1D1E905642EF4405380
:1019F00043EA061343EA041E2CF073032B43C0F89A
:101A000004E0C3614968C163026270BD70B5026AD7
:101A100040F2004622F480520262026A4368D0F823
:101A20001CE00C68D1F808C040F48065C4F20106DF
:101A3000B54204D14D6923F4804343EA85132EF463
:101A4000E64646EA04264360C66122F4005249682D
:101A500042EA0C320164026270BD000080B5006889
:101A60008268D1E900E322F0770C23F0070242EA12
:101A70000C0242EA0E0C4FEA3312072AC0F808C0E3
:101A800009D84FF0000CDFE802F0040404040A1E39
:101A9000252C604680BD4FF0010C604680BDBEF134
:101AA000050F04BF012080BD026A036A23F0010311
:101AB00003628369096923F0F00343EA011181613C
:101AC0000262002080BD8B680A69194600F012F896
:101AD000002080BD8B680A69194600F01DF80020BF
:101AE00080BDD1E9022C0B696146FFF7DFFE0020C3
:101AF00080BD0000D0F820C0036A23F00103036218
:101B0000836923F0F00343EA02122CF00A0319431D
:101B10008261016270470000036A23F010030362D0
:101B20008369D0F820C023F4704343EA02322CF0DA
:101B3000A00343EA0111826101627047FEE70000E1
:101B4000002848BF704700F01F01012202FA01F18E
:101B50004EF200124009CEF2000242F82010704707
:101B60004EF60C50CEF200000068C0F30220704721
:101B70004EF6145300F00F02CEF2000309011A448E
:101B800000F16043B0F1FF3FC8BF03F5644211703C
:101B9000704700004EF60C51CEF200010A684FF675
:101BA000FF031A4060F30A2242F0806040F0FD70AB
:101BB00008607047FEF748FDFFF772FDFFF770FC05
:101BC000FFF7A0FCFFF7F8FC0820FEF733FC6420C9
:101BD000FEF744FCF8E7F1EE100A4FF6FF71C0F291
:101BE000C03120EA010040F04070E1EE100A704779
:101BF00000000000000000000102030406070809BD
:101C0000201C00080000002010000000C401000893
:101C1000301C000810000020F8060000E001000859
:101C20000024F4000100000010000000000000008B
:040000050800018965
:00000001FF
