:020000040800F2
:10000000981100209D0100081D2800089124000877
:1000100019280008A9020008014A00080000000091
:10002000000000000000000000000000552A000849
:100030007903000800000000512A00088D2A0008FA
:10004000B7010008B7010008B7010008B7010008B0
:10005000B7010008B7010008B7010008B7010008A0
:10006000B7010008B7010008B7010008B701000890
:10007000B7010008B7010008B7010008B701000880
:10008000B7010008B7010008B7010008B701000870
:10009000B7010008B7010008B7010008B701000860
:1000A000B7010008B7010008B7010008B701000850
:1000B000B7010008B7010008B7010008B701000840
:1000C000B7010008B7010008B7010008B701000830
:1000D000B7010008C12D0008B7010008B7010008EA
:1000E000B7010008B7010008B7010008B701000810
:1000F000B7010008B7010008B7010008B701000800
:10010000B7010008B7010008B7010008B7010008EF
:10011000B7010008B7010008B7010008B7010008DF
:10012000B7010008B7010008B7010008B7010008CF
:10013000B7010008B7010008B7010008B7010008BF
:10014000B7010008B7010008B70100084D280008F2
:10015000CD020008B7010008DD020008B701000861
:10016000B7010008B7010008B7010008B70100088F
:10017000B7010008B7010008B7010008000000003F
:10018000B7010008B7010008DFF80CD000F07AF8DA
:1001900000480047794A0008981100200648804727
:1001A00006480047FEE7FEE7FEE7FEE7FEE7FEE75C
:1001B000FEE7FEE7FEE7FEE73D2B000889010008A9
:1001C0002DE9F05F0546002092469B46884606468C
:1001D000814640241BE0284641464746224600F01F
:1001E00041F853465A46C01A914110D31146184659
:1001F000224600F028F82D1A67EB01084F462246E8
:100200000120002100F01FF817EB00094E41201ECD
:10021000A4F10104DFDC484631462A464346BDE8E6
:10022000F09FD2B201E000F8012B491EFBD27047CB
:100230000022F6E710B513460A4604461946FFF7B2
:10024000F0FF204610BD202A04DB203A00FA02F11C
:10025000002070479140C2F1200320FA03F31943B4
:1002600090407047202A04DB203A21FA02F0002156
:10027000704721FA02F3D040C2F1200291400843B6
:1002800019467047064C074D06E0E06840F0010350
:1002900094E8070098471034AC42F6D3FFF778FF94
:1002A000144B0008344B0008FEE7000000207047A4
:1002B0000020704780B540F26830C2F2000002F0C2
:1002C000EBFE002818BF4FF0FF3080BD80B540F234
:1002D0009460C2F2000000F0C3F980BD80B540F226
:1002E000F460C2F2000000F0BBF980BDD0F800C09D
:1002F0006FF00F024AF6AB2352FA8CF2CAF6AA2329
:100300000146A2FB0330000905A31B5C40F2FF304D
:100310002CEA00005F2A88BF0430C1E91603704749
:1003200000061016000610168269816AB2F5005F99
:1003300006D06AB9022912D0012914D0D1B90EE031
:10034000032917D8DFE801F0020B020F01207047E4
:1003500003293CBF012070471CBF00207047C06AC2
:10036000C0F300607047C06AA0F1C070B0FA80F0BE
:10037000400970470020704770470000EFF310807D
:1003800072B600BFFEE70000B0B547F61021C1F617
:10039000FF7108688A68801808BFB0BD40F2E405A4
:1003A000C2F200054C68A91C082202F073F805F19E
:1003B00012012046042202F06DF8B0BDB0B5C8B1FC
:1003C000044690F8200010B9204600F071F820682B
:1003D000016841F00101016000F058FB054600BFD3
:1003E00020684168C90707D100F050FB401B0B286B
:1003F000F6D312E00120B0BD016821F002010160D6
:1004000000F044FB054600BF2068416889070DD510
:1004100000F03CFB401B0B28F6D3606A052140F43A
:1004200000306062012084F82010B0BD217E026897
:10043000012922F0800208BF80320260617E0268DA
:10044000012922F0400208BF40320260A17E02680A
:10045000012922F0200208BF20320260E17E0268FA
:10046000012922F0100218BF10320260217F0268B9
:10047000012922F0080208BF08320260617F026889
:10048000012922F0040208BF04320260D4E901C24B
:10049000D4E9033561691A432A431143ACF10102DF
:1004A0001143C16100200121606284F82010B0BDB9
:1004B00080B586B0006846F60002C4F20002002152
:1004C0009042CDE90411CDE90211019133D046F2F9
:1004D0000041C4F2000188426DD140F20811C2F21D
:1004E00000010A6843F64000C4F20200531C0B608E
:1004F00052B900210091016841F00071016001686A
:1005000001F00071009100990021009150F8101C39
:1005100041F0080140F8101C50F8100C00F00800E1
:10052000009000980320019040F20040C4F20200C5
:1005300000F5006034E043F64000C4F20200009190
:10054000016841F080610160016801F08061009103
:10055000009940F20811C2F200010A68531C0B60B6
:1005600052B900210091016841F0007101600168F9
:1005700001F00071009100990021009150F8101CC9
:1005800041F0020140F8101C50F8100C00F002007D
:10059000009000986020019040F20040C4F20200F8
:1005A0000221029100210391032104910921059167
:1005B00001A900F097F906B080BD000070B5866D06
:1005C000044600F063FA94F83510022925D1054657
:1005D0002068216C026822F016020260426922F053
:1005E0008002426109B9A16C19B1016821F00801CA
:1005F0000160016821F00101016000BF206800680E
:10060000C0070ED000F042FA401B0628F6D3202087
:100610006065032084F835000CE0802060650120CF
:1006200008E0E06D3F2101FA00F0B060012084F89D
:1006300035000020002184F8341070BD90F835108A
:10064000022909D1052180F835100068016821F0E0
:100650000101016000207047802141650120704741
:10066000F0B581B004460020009040F23C00C2F298
:1006700000000268D4E9166048F2B5133768082113
:10068000C1F64E3381403942A2FB03250CD02268CB
:1006900013685B0708D5136823F004031360B16087
:1006A000616D41F00101616501218140394208D04D
:1006B00022685269120604D5B160616D41F00201F1
:1006C000616504218140394208D02268126892078E
:1006D00004D5B160616D41F0040161651021814074
:1006E000394215D020680268120711D5B16002683E
:1006F0000168520306D4C90506D4016821F0080137
:10070000016001E0080342D4216C09B1204688470A
:10071000E16D202000FA01F23A4244D020680368DB
:10072000DB0640D5B26094F835300268052B1ED147
:1007300022F016020260426922F080024261226CBD
:100740000AB9A26C1AB1026822F0080202603F20C6
:100750008840B060012084F83500216D0020002918
:1007600084F8340040D02046884701B0F0BD0168CD
:10077000520310D4C90512D4016821F010010160A0
:10078000012084F83500002084F8340007E0A16CD3
:100790000029BBD1BCE7080301D4616C00E0E16B28
:1007A00009B120468847606DF0B1606DC00717D071
:1007B000052084F835002068A90A026822F00102A9
:1007C000026000BF009A01328A42009202D8026899
:1007D000D207F7D1012084F83500002084F83400D6
:1007E000E16C09B12046884701B0F0BD2DE9F04128
:1007F000044600F04BF9C4B10546022084F83500E8
:100800000020216884F83400086820F001000860A6
:1008100026683068C0070BD000F038F9401B052867
:10082000F6D903212022032042E00120BDE8F08117
:10083000306848F23F01CFF21001251D00EA010C9B
:100840002ECDD4E9050E41EA0C0111431943294389
:10085000D4E90778084340EA0E01606A3943042866
:1008600041EA080103D1D4E90B2311431943316054
:100870007169042821F0070141EA00050CD1D4E98F
:100880000A1045EA010538B12046FFF74DFD18B1C1
:100890000121402201200BE020467561FFF726FD73
:1008A000E16D3F2202FA01F1816000220121002066
:1008B000626584F83510BDE8F0810000B0B50446EB
:1008C00000F0E4F8054640F2FE00C2F200000078B5
:1008D000611C18BF044400BF00F0D8F8401BA042C0
:1008E000FAD3B0BD2DE9F04F83B000F13E4202F1E2
:1008F000FF724FEAB22241F600470192C4F20207AA
:1009000008224FF0010E00254FF0000A4FF00008BA
:10091000B84208BF072200920AE000BF08F10108B0
:100920000AF1040AB8F1100F05F1020500F0A480E5
:100930000C680EFA08FB14EA0B09EFD04C6804F0BF
:10094000030CACF1010EBEF1010F11D80322876830
:1009500002FA05F6CA68B743AA403A438260426881
:10096000C4F3001722EA0B0207FA08F73A43426081
:10097000BCF1030F1CD0C26803238E6803FA05F78D
:10098000BA4306FA05F73A43BCF1020FC2600FD131
:100990006FF0030202EA580202440AF01C060F2319
:1009A000176A03FA06F40B69A743B3403B4313628B
:1009B000026803234F68AB409A4307F00303AB4040
:1009C0001A4317F4403F4FF0010E0260A6D00022F8
:1009D00043F644030292C4F202031A6843F6004449
:1009E00042F480421A601A68C4F2010402F48042A0
:1009F0000292029A28F003024FF6084B2244CFF6E7
:100A0000FF7B52F80B300AF00C070F26BE4023EA9A
:100A1000060C019B009E072B38BF1E4606FA07F7FF
:100A200047EA0C0342F80B30A2684B6842EA090718
:100A300043F60C4CDE0258BF22EA0907A760C4F255
:100A4000010CDCF800209E0242EA090758BF22EAA6
:100A50000907CCF8007062689E0342EA090758BF94
:100A600022EA090767602268DB0342EA090358BFEC
:100A700022EA0903236051E703B0BDE8F08F0000CC
:100A8000002A08BF090481617047000040F69450B5
:100A9000C2F2000000687047F0B581B0B0B3044600
:100AA00090F83D0028B9002084F83C00204600F072
:100AB000BFF8242084F83D002068016821F001017E
:100AC0000160016841F400410160016821F40041C6
:100AD000016000F0D5FF48F28041C0F21E0140F6EF
:100AE0000012656888424FF00001C0F23D0248F2F2
:100AF000A16C4FF0000338BF01219042C0F2010CFD
:100B000038BF0123654538BF0B4613B1012001B042
:100B1000F0BD4DF68361C4F21B31A0FB01122168C8
:100B20004FEA924E4B684FF4967623F03F0343EA28
:100B300092434B6044F6D3530F6A0EFB06F6C1F2A4
:100B40006203A6FB033627F03F03B709654538BFAC
:100B5000970C7A1C1A430A62CA6948F2A0674CF6DD
:100B6000FF73C0F20107BD4222EA030C0AD8013824
:100B70006A00B0FBF2F001306FF31F30042898BF19
:100B800004202BE0A368A0F1010E9BB1192068435B
:100B9000BEFBF0F00422013062F31F30000512D0DA
:100BA0009BB119206843BEFBF0F00422013062F3D0
:100BB0001F3011E005EB4500BEFBF0F001306FF394
:100BC0001F300005ECD1012008E005EB4500BEFB1D
:100BD000F0F001306FF31F3040F4004040EA0C00A9
:100BE000C8610868D4E9072320F0C0001043184307
:100BF0000860886848F2FF3204F10C0790438CCFFC
:100C000018431043A6698860C86820F0FF00384385
:100C10003043C860086840F00100086000202021CF
:100C2000206484F83D10206384F83E0001B0F0BDDC
:100C3000B0B586B045F200410068C4F2000100245E
:100C400088420594CDE903440294019401D006B092
:100C5000B0BD43F630050094C4F20205286840F0A8
:100C600002002860286800F00200009000984FF40D
:100C7000407001901220CDE902040320049004206A
:100C8000059001F5D83001A9FFF72CFE00942869E2
:100C900040F400102861286900F4001000900098CA
:100CA00006B0B0BD40F2FE0040F69451C2F2000022
:100CB000C2F2000100780A68104408607047000022
:100CC00080B543F60040C4F20200016841F40071AF
:100CD0000160016841F480610160016841F4807144
:100CE0000160032000F060F80F2000F005F800F02C
:100CF0002BF8002080BD0000B0B540F2FE02C2F229
:100D0000000240F23C011278C2F200014FF47A7303
:100D10000968B3FBF2F20446B1FBF2F1084601F0B8
:100D20005BF90F2C4FF001050CD858B94FF0FF308C
:100D300021460022002500F027F840F20010C2F200
:100D4000000004602846B0BD82B0002043F6400198
:100D50000190C4F202014A6842F480424A604A6843
:100D600002F480420192019A0090086840F080509D
:100D70000860086800F080500090009802B070474A
:100D800080B503F03FFE80BD70B514460D460646A3
:100D900003F048FE2946224601F042FD0146304656
:100DA00003F048FE70BD000080B503F055FE80BD25
:100DB00070470000026800205162704710B5D0F8FB
:100DC00000C0DCF82400D9B1DCF82830B1F1010E04
:100DD00000EB13430CD00021002000BF0CEB81017D
:100DE000D1F804410130C1B28E4503EB1443F5D86C
:100DF00043EA02400CEB8E01C1F80401002010BD53
:100E000040EA0240CCF82800002010BD80B5D0F8A0
:100E1000080502F0F3FC80BD80B501EBC102D0F8FB
:100E2000083500EB8200C26C184602F051FC80BD10
:100E300080B501EBC102D0F8083500EB8200D0F894
:100E40008C22184602F09EFC80BD000080B5D0F8D0
:100E5000080502F0D5FC80BD80B501F00F0202EB61
:100E6000C20200EB820303F13C020906006858BF8E
:100E700003F51F72114603F0CFFB80BD10B5044689
:100E8000080601F00F0000EBC00104EB810205D45D
:100E900002F51F71002382F87D3204E0012302F184
:100EA0003C0182F83D3094F8BC240870012A04BF4C
:100EB000022010BD2068012284F8BC2403F0B4F89D
:100EC000002084F8BC0410BDB0B54268044601F0AF
:100ED0000F00904284BF0120B0BD090609D400EB89
:100EE000C00104EB810202F51F71002382F87D32FC
:100EF00008E000EBC00104EB8102012302F13C0198
:100F000082F83D3094F8BC240025012A8D700870C9
:100F100004BF0220B0BD2068012284F8BC2403F085
:100F200051FA284684F8BC54B0BD0000B0B505465F
:100F3000080601F00F0000EBC00105EB810C05D4A1
:100F40000CF51F7100248CF87D4204E001240CF1A3
:100F50003C018CF83D404C780870002CCA600B7145
:100F600018BF0881022B04BF0020487195F8BC040B
:100F7000012804BF0220B0BD2868012285F8BC24E6
:100F800002F092FF002085F8BC04B0BD80B501F0EE
:100F90000F0C0CEBCC0100EB810ECEF89432002349
:100FA000CEF89C328EF87D320369CEF88C22012B6C
:100FB0008EF87CC208BFCEF8902200680EF51F7133
:100FC000DAB2BCF1000F03D003F04CFA002080BD70
:100FD00003F04CF9002080BDB0B50446406801F034
:100FE0000F05854284BF0120B0BD080609D401EB7E
:100FF000C10004EB800000F51F71002280F87D2203
:1010000008E005EBC50004EB8000012200F13C0183
:1010100080F83D2094F8BC04012201288A700D70EC
:1010200004BF0220B0BD206884F8BC2403F0F2F9AC
:101030002DB92068217C04F2C44203F095F9002008
:1010400084F8BC04B0BD000010B501F00F0C0CEB2F
:10105000CC0100EB810E714601F83CCF8B6100237F
:101060000B62036901244C70012B0A6108BFCEF8A2
:1010700050200068DAB2BCF1000F03D003F0F2F99F
:10108000002010BD03F0F2F8002010BD2DE9F04F54
:1010900083B006688346304603F066FB10B103B0A8
:1010A000BDE8F08FDBF8000003F08CFB0028F6D0E1
:1010B000D6F80808C0F30D21DBF80000CBF8FC14CB
:1010C00003F080FB800705D5DBF80000416901F0E3
:1010D00002014161DBF8000006F5006703F072FBD6
:1010E000C00640D5DBF80000816921F01001816164
:1010F000346AC4F34340062804F00F051CD00228CC
:101100002BD147F6F070044027D005EBC5000BEB60
:101110008005D5F88C122209304603F057FBD5F82C
:101120008C02D5F89C1200EB1410C5F88C0201EB70
:101130001410C5F89C0210E00BF2C441304608229E
:1011400003F044FB05EBC5000BEB8000D0F89C12CC
:10115000C4F30A121144C0F89C12DBF80000816944
:1011600041F010018161DBF80000CDE9017603F068
:1011700029FB00035ED5DBF8000003F001FB00282B
:1011800058D0064602984FF0000900F5306440F24E
:101190007F25002717E000BF0220A0605FEA8A6079
:1011A00044BF2020A0605FEA8A4044BF4FF4005053
:1011B000A0600137B9EB560F4FEA560604F1200440
:1011C00005F1240536D0F007F3D0DBF800005FFA14
:1011D00087F8414603F0EEFA8246C00705D00120A9
:1011E000A0605846394601F05FFB5FEA0A7005D5FA
:1011F0000820A0605846394601F030FB5FEACA601B
:1012000044BF1020A0605FEA8A70C7D50298406989
:10121000000604D50199486840F4806048601BF8D6
:1012200005000128B8D1584641460BF8059000F05A
:101230000DFAB1E7DBF8000003F0C4FA400372D501
:10124000DBF8000003F094FA00286CD006460BF29D
:10125000C440009002980BF13F0800F510644FF075
:10126000000900270AE000BF0137B9EB560F4FEA2B
:10127000560604F1200408F1240854D0F007F3D0F6
:10128000DBF800005FFA87FA514603F081FA054661
:10129000C00723D0019A07F00F00516B012303FA16
:1012A00000F021EA00005063A360DBF81000012881
:1012B00010D1D8F80900D8F80D100844C8F80D006E
:1012C00047B9D8F8150028B9DBF80000009A0121C9
:1012D00003F04AF858465146FFF79EFD280744BFE1
:1012E0000820A060E80644BF1020A060680644BF44
:1012F0004020A060A8070FD50298394603F0FEF9F8
:1013000098F80000012805D15846514688F8009009
:1013100000F096F90220A0602806A5D55846394667
:1013200001F02EFBA0E7DBF8000003F04BFADDE94B
:101330000198B0F1FF3F1ADCD9F8040020F0010059
:10134000C9F804009BF8F404012807D100208BF8A9
:10135000F40458460021FFF72BFD02E0584600F048
:1013600075FADBF80000416901F000414161DBF8EA
:10137000000003F027FA00050CD5D9F80800C007D3
:1013800002D0584600F0ACFADBF80000416901F4E5
:1013900000614161DBF8000003F014FAC00460D57D
:1013A000D9F80400102120F00100C9F80400DBF88E
:1013B000000003F0A3F9DBF80400F8B1DBF8041037
:1013C00008F5106000224FF67F3300BF8360076886
:1013D000013227F400170760C0F80832D0F8007215
:1013E0008A4227F40017C0F80072D0F8007247F064
:1013F0000067C0F8007200F12000E7D3D9F81C00A4
:1014000040F00110C9F81C00DBF8300040B1D9F8F9
:10141000840040F00B00C9F8840009F1440008E0A2
:10142000D9F8140042F22B010843C9F8140009F15D
:10143000100001680BF2C44241F00B010160D9F8C1
:10144000000020F4FE60C9F80000DBF800009BF803
:10145000101002F089FFDBF80000416901F48051AF
:101460004161DBF8000003F0ADF980041CD5DBF826
:10147000000002F065FDDBF8000003F067F9DBF81F
:101480000040CBF80C0000F0F5FA9BF80C20014668
:10149000204603F00FFA584600F0C4F9DBF80000CC
:1014A000416901F400514161DBF8000003F08AF961
:1014B000000708D5584600F0CFF9DBF80000416975
:1014C00001F008014161DBF8000003F07BF9000640
:1014D0001ED5D8F8180020F08000C8F81800DBF8F6
:1014E0000400022814D3012440F2A32507E000BF22
:1014F000DBF804000134844205F1240508D21BF80E
:1015000005000128F4D1E1B25846FFF7A5FCEFE74A
:10151000DBF8000003F056F9C00229D5DBF804001F
:1015200002281FD308F512640BF164050126012778
:1015300008E000BFDBF8040001372034874205F1E2
:1015400024050FD22068B0F1FF3FF3DC2878012892
:10155000F0D147F08000C1B2584605F8016CFFF7A2
:101560007BFCE7E7DBF80000416901F48011416191
:10157000DBF8000003F026F980023AD5DBF804001E
:10158000022830D308F532600BF5297101220123BE
:1015900008E000BFDBF8047001332030BB4201F1EA
:1015A000240120D20768B7F1FF3FF3DC0E78012E4B
:1015B000F0D1DBF8FC6407F4803706F00106B7428F
:1015C000E8D101F8012CD8F8187047F08007C8F866
:1015D0001870D8F814703F06DCD4D9F8040040F431
:1015E0000070C9F80400DBF80000416901F4001143
:1015F0004161DBF8000003F0E5F8400008D55846EB
:10160000FFF704FCDBF80000416901F08041416113
:10161000DBF8000003F0D6F840077FF540ADDBF8BB
:1016200000004468600702D55846FFF70FFCDBF85E
:10163000000041682143416003B0BDE8F08F000025
:1016400080B5D0F8080502F033F980BD80B5D0F838
:10165000080502F041F980BD2DE9F04F8BB098B339
:101660000446056890F8BD0428B9002084F8BC043D
:10167000204600F093F8032084F8BD04E86BC00511
:101680005CBF00202061206802F0E8FD206804F1C2
:101690001C0A0A90D4E90C5004F1040E9AE8C00721
:1016A0009EE80E58CDE9085003A880E8C0030A98C8
:1016B0008DE80058CDF81CA002F052FC30B1022099
:1016C00084F8BD04012564E0012562E02068002162
:1016D000002503F0A1F86168C1B161680120002311
:1016E000002200BF03EBC30304EB830787F83C2011
:1016F000D3B20132A7F84430D3B2994287F83D0003
:1017000087F84050C7E912557D65EBD8A1B100209C
:101710000023002203EBC30304EB830787F87C223A
:101720000132D3B2994287F87D0287F88002C7E977
:10173000A200C7F89402EDD8A06822680A90D4E904
:101740000C5004F1140E04F1240AD4E903379EE886
:1017500040589AE80007CDE9085002A880E80058F0
:1017600010460A9ACDE90076CDE90589CDF81CA08E
:1017700002F0C4FC20B1022084F8BD04012508E079
:101780000025012084F8385084F8BD04206802F058
:10179000A5FC28460BB0BDE8F08F0000B0B586B0C0
:1017A00000680024B0F1A04F0594CDE903440294F1
:1017B000019401D006B0B0BD43F630050094C4F2E8
:1017C0000205286801A940F001002860286800F09F
:1017D0000100009000984FF4C05001900220CDE924
:1017E0000204032004900A2005900020C4F20200A5
:1017F000FFF778F86868002140F080006860009486
:101800006869002240F480406861686900F48040A3
:10181000009000984320FFF7B7FA4320FFF7B0FA93
:1018200006B0B0BD10B50446C06828B1022818BF84
:10183000FEF7A4FD012100E00021D4F8080502F024
:10184000BDF8D4F8080502F06FF810BD80B5D0F8E7
:10185000080502F09BF880BD80B5D0F8080502F0BD
:101860009FF880BD10B5044690F8BC04012804BF61
:10187000022010BD012084F8BC0484F838102068D0
:1018800002F0FEFF002084F8BC0410BD80B5D0F843
:10189000082500F2C441104602F09CF880BD00000B
:1018A00010B5044690F8BC04012804BF022010BD06
:1018B000A16A20680122012984F8BC2406D1A1690B
:1018C000012903D0816B41F48031816302F0E8FE8D
:1018D000206802F0F3FB002084F8BC0410BD000077
:1018E00010B50446D0F8080502F0B0F82068D0F82A
:1018F000001E41F00101C0F8001E206A002808BF48
:1019000010BD4EF61050CEF20000016841F0060105
:10191000016010BD2DE9F041002800F08B8043F6F6
:101920000808C4F202080446D8F8F8030D4600F08F
:101930000700884207D288F8F853D8F8F80300F077
:101940000700A84276D12068810717D5410705D541
:10195000D8F8001041F4E051C8F80010010705D58F
:10196000D8F8001041F46041C8F80010D8F8001011
:10197000A26821F0F0011143C8F80010C0073FD160
:10198000D8F8F80300F00700A84207D988F8F85300
:10199000D8F8F80300F00700A8424BD120684107AF
:1019A00007D5D8F80010E26821F4E0511143C8F8D7
:1019B0000010000708D5D8F80000216920F4604025
:1019C00040EAC100C8F8000000F07EF8D8F8001026
:1019D00044F6FC22C1F30311C0F60002515C40F250
:1019E0003C0220FA01F140F20010C2F2000000684F
:1019F000C2F200021160FFF77FF90020BDE8F0811C
:101A00006068811E022907D258F8081C89015CBF52
:101A10000120BDE8F08110E0012807D158F8081C2A
:101A200089035CBF0120BDE8F08106E058F8081C7E
:101A3000890702D40120BDE8F081D8F8001021F018
:101A400003010843C8F80000FFF720F8064641F2FA
:101A5000883700BFD8F80000616800F00C00B0EBD8
:101A6000810F8DD0FFF712F8801BB842F2D9032006
:101A7000BDE8F08140F23C00C2F20000006870470F
:101A800080B5FFF7F7FF43F60801C4F202010968C9
:101A900044F60C32C1F38221C0F60002515CC8400A
:101AA00080BD000080B5FFF7E5FF43F60801C4F2F2
:101AB0000201096844F60C32C1F34231C0F600025B
:101AC000515CC84080BD000010B543F60404C4F268
:101AD0000204606800F00C0008280AD0042819BF2E
:101AE00042F20040C0F2F40047F64000C0F27D1020
:101AF00010BD206821682368490247F64001C0F202
:101B00007D1100F03F02C3F388105CBF42F2004138
:101B1000C0F2F401A1FB00010023FEF751FB216894
:101B20000222C1F3014102EB4101B0FBF1F010BD13
:101B30002DE9F04182B0002800F0A2800446007830
:101B400043F60006C007C4F2020643D0B06800F0B6
:101B50000C00042805D1306880033BD56068C8BB01
:101B60008EE0B06800F00C00082802D170684002D6
:101B7000F1D46568B5F5A02F0AD0B5F5803F0BD03C
:101B8000306820F480303060306820F4802006E037
:101B9000306840F480203060306840F4803030603D
:101BA000FEF774FF002D054611D000BF306880039A
:101BB00010D4FEF76BFF401B6428F7D922E100BF69
:101BC000FEF764FF401B64284FF0030055D83068CF
:101BD0008003F5D4207880071AD5B06810F00C0F78
:101BE00009D0B06800F00C00082840F08A807068C6
:101BF000400200F186803068800702D5E068012845
:101C00003ED13068216920F0F80040EAC100306020
:101C10002078000738D4207840074CD4A5695DB3FC
:101C2000B06800F00C00082840F09E80012D27D0FD
:101C30007068E16900F480028A4221D1216A00F0D3
:101C40003F028A421CD147F6C071626A0140B1EB83
:101C5000821F15D1A26A0023CFF6FF7303EBC232B5
:101C600000F440316FF30F02914209D1E16A00F0B4
:101C70007060B0EB016F03D1002002B0BDE8F081CD
:101C8000012002B0BDE8F0816069002840F2000048
:101C9000C4F2472057D00121C0F8801EFEF7F6FE9F
:101CA000054600BF706F8007B5D4FEF7EFFE401BFE
:101CB0000228F7D9A6E0306C10F080580AD1002035
:101CC0000190306C40F080503064306C00F08050F7
:101CD0000190019847F20007C4F200073868C00578
:101CE00024D4386840F480703860FEF7CFFE054693
:101CF0003868C0051AD4FEF7C9FE401B0228F7D980
:101D000080E0E068002851D00020C4F24720012183
:101D10000160FEF7BBFE0546306880073FF571AFF6
:101D2000FEF7B4FE401B0228F6D96BE0A568052D2E
:101D300050D0012D52D0306F20F001003067306F4D
:101D400020F004004DE00021C0F8801EFEF79EFE4A
:101D5000054600BF706F80077FF55DAFFEF796FE0A
:101D6000401B0228F6D94DE00027C4F24727002087
:101D70003866FEF78BFE022D05460BD130688001D8
:101D800058D5FEF783FE401B02284FF00300F5D91B
:101D900073E700BF306880017FF56EAFFEF776FE17
:101DA000401B02284FF00300F4D966E70020C4F27C
:101DB000472000210160FEF769FE05463068800774
:101DC0007FF526AFFEF762FE401B02284FF00300AE
:101DD000F4D952E7306F40F004003067306F40F0C4
:101DE00001003067FEF752FE002D054641F28837AC
:101DF00014D000BF306F800713D4FEF747FE401B9E
:101E0000B842F7D9032002B0BDE8F081FEF73EFEEC
:101E1000401BB8424FF003003FF62FAF306F8007F2
:101E2000F4D4B8F1000F7FF4F9AE306C20F080509C
:101E30003064F3E604F11C052FCD08430021CFF6F2
:101E4000FF7140EA821001EBC3316FF30F0140EAEA
:101E500005600843706001203866FEF717FE0446EF
:101E6000306880013FF508AFFEF710FE001B022826
:101E70004FF00300F4D900E770B538B10446406A6A
:101E800030B10020206104F1140007E0012070BD92
:101E90006068B0F5827F03D004F11C00002101606E
:101EA0000026A66294F8510020B9204684F85060BC
:101EB00000F03CF8022084F8510094E80F0001F48F
:101EC0008271056802F4044225F040050560114462
:101ED00003F400622369114403F0020263691144B0
:101EE00003F00102A369E569114403F4007211448F
:101EF00005F03802256A114405F08002A56A1143F5
:101F000005F4005211430160626A042101EA1341A1
:101F100002F0100211444160C16921F40061C16105
:101F20000120666584F85100304670BD2DE9F0430C
:101F300087B043F600050068C4F200050026A842F9
:101F40000696CDE904660396029602D007B0BDE876
:101F5000F08343F630000196C4F20200016902AC3E
:101F600041F48041016101694FF0020801F48041B0
:101F700001910199019601684FF0030941F00401B4
:101F800001600168052701F00401019101990196A2
:101F9000016841F0020101600068214600F0020082
:101FA000019001980C20029005F5E830CDE90386F8
:101FB000CDF814900697FEF795FC4FF48060CDE9BC
:101FC000020805F5E6302146CDE904690697FEF7DB
:101FD00089FC07B0BDE8F08380B500F03FFD80BD0F
:101FE0007047000070470000B0B582B00368044637
:101FF0001868D9685A6900F02F05202D01F02005D6
:1020000005D125B1204600F0E1FD02B0B0BD5FEA88
:10201000007C1EBF02F0010E01F4907212EB0E0262
:1020200048D1226B0840C1063BD5012A39D1002096
:10203000019018680190586801900198586940060D
:1020400040D4A08DE18DE28D002A1CBF401A5FEACA
:10205000004101D102B0B0BD216851E8031F2268E0
:1020600021F4907142E80313002BF5D1216851E867
:10207000051F226821F0010142E80513002BF5D16C
:10208000202184F83E100021216300BF216851E81F
:10209000031F226821F0100142E80313002BF5D141
:1020A00052E0010656D44006D4D5204600F080FD0B
:1020B00002B0B0BDC20718BF11F480724FD1420701
:1020C00053D459E0A06B016849688AB2002AC1D094
:1020D000A38D9A42BED2E185C069B0F5807F30D031
:1020E000206850E8030F216820F4807041E8030263
:1020F000002AF5D1206850E8050F216820F0010082
:1021000041E80502002AF5D1206850E8050F216852
:1021100020F0400041E80502002AF5D1202084F893
:102120003E000020206300BF206850E8030F2168B4
:1021300020F0100041E80302002AF5D1A06BFEF761
:102140003DFAA08DE18D401A81B22046FFF748FF8D
:1021500002B0B0BD204600F009FE02B0B0BD226C56
:1021600042F001022264420706D5BEF1000F03D0FF
:10217000226C42F002022264820706D5BEF1000FF3
:1021800003D0226C42F004022264BCF1000F06D599
:102190005EEA050203D0226C42F008022264226C3F
:1021A000002A3FF457AF0840800602D5204600F0D1
:1021B0000DFD20684069216C00F0400001F008012D
:1021C000401827D0204600F0CBFC2068406940062C
:1021D0001BD500BF206850E8050F216820F04000A3
:1021E00041E80502002AF5D1A06B70B142F65131E9
:1021F000C0F600010165FEF721FA00283FF42AAF7E
:10220000A06B016D884702B0B0BD2046FFF7EAFE23
:1022100002B0B0BD2046FFF7E5FE0020206402B00A
:10222000B0BD0000002804BF0120704710B504466F
:1022300090F83D0028B9002084F83C00204600F0CA
:1022400021F8242084F83D002068C16821F4005161
:10225000C160204600F01CFD2068016921F4904116
:102260000161416921F02A014161C16841F40051D5
:10227000C16000202021206484F83D1084F83E10C5
:1022800010BD00002DE9F04387B0044641F2000084
:102290002168C4F20100002681420696CDE9046659
:1022A0000396029602D007B0BDE8F08343F63001F2
:1022B0000196C4F202014A6946F2884842F01002CF
:1022C0004A614A6900F5704002F010020192019AD9
:1022D00001960A68C4F2020842F001020A60096825
:1022E00001F00101019101994FF4C06102910221B5
:1022F000CDE90316032105910721069102A9FEF7F6
:10230000F1FA40F29465C2F200054FF480704FF08C
:1023100000674FF48069C5E906602846C5E9008773
:10232000C5E90266C5E90496C5E90866FEF75EFAE6
:10233000002818BFFEF722F8A563AC6340F2F465ED
:1023400008F13000C2F200054021C5E9000705F19F
:102350000800002280E806022846C5E90522C5E9F2
:1023600007226A62FEF742FA002818BFFEF706F855
:102370002520002100226563AC63FEF705FD2520C2
:10238000FEF7FEFC07B0BDE8F083000070470000D8
:1023900070470000002804BF0120704710B50446B4
:1023A00090F83D0028B9002084F83C00204600F059
:1023B00019F8022084F83D00204600F00DFD206849
:1023C000016921F480410161416921F02A014161E3
:1023D000C16841F40051C16000200121206484F8EB
:1023E0003D1010BD2DE9F04387B044F20045006870
:1023F000C4F200050026A8420696CDE904660396BD
:10240000029602D007B0BDE8F08343F63000019693
:10241000C4F20200016902AC41F4003101610169BA
:102420004FF0020801F40031019101990196016811
:102430004FF0030941F0010101600168072701F035
:102440000101019101990196016841F008010160C3
:102450000068214600F008000190019810200290C9
:1024600005F5DE30CDE90386CDF814900697FEF72A
:1024700039FA6020CDE9020805F5E4302146CDE9BE
:1024800004690697FEF72EFA07B0BDE8F083000056
:10249000FEE7000010B5002A08BF10BD02394FF05A
:1024A000370C4FF0000E00BF0CEB1074B0F1204F52
:1024B0004FEA107338BF03F1300401F8024F0001F6
:1024C000013A81F801E0EFD110BD000080B540F283
:1024D000446046F20041C2F20000C4F20001002351
:1024E000102280E80E00C0E90333C0E9053383837E
:1024F000FDF764FF002808BF80BDFDF73FFF000027
:1025000080B540F26C6046F60001C2F20000C4F2F1
:1025100000010023102280E80E00C0E90333C0E967
:1025200005338383FDF74AFF002808BF80BDFDF710
:1025300025FF000080B582B00020019043F63000F6
:10254000C4F202000168002241F4800101600068C9
:10255000002100F48000019001984420FEF714FC53
:102560004420FEF70DFC462000210022FEF70CFC63
:102570004620FEF705FC02B080BD00002DE9F04FBB
:1025800087B0002743F630000697CDE90477CDE900
:1025900002770197C4F20200016841F2000541F0A0
:1025A000100101600168C4F2020501F010010191FF
:1025B000019901970168002241F0800101600168E2
:1025C0004FF4847601F0800101910199019701682F
:1025D00041F004010160016801F0040101910199D9
:1025E0000197016841F001010160016801F00101FA
:1025F000019101990197016841F0020101600168B0
:1026000001F00201019101990197016841F008016F
:10261000016000684FF4847100F008000190019897
:102620002846FEF72DFA28464FF4604101224FF468
:10263000604B4FF00108FEF723FAA5F580642046B1
:1026400080210022FEF71CFACDE9026802AE4FF0AD
:10265000020A284631460497CDF814A0FEF742F945
:102660004FF4E05002904FF4881928463146CDE9E6
:102670000398FEF737F928463146CDE902B8CDE98F
:10268000048AFEF72FF90820CDE9020920463146D9
:102690000497FEF727F98020CDE90208204631464D
:1026A000CDE9047AFEF71EF907B0BDE8F08F00000F
:1026B00080B540F2547045F20041C2F20000C4F20D
:1026C000000148F2A06200234FF4804CC0F20102E6
:1026D00080E80E00C0E9033CC0E90533C0E90733D8
:1026E000FEF7DAF9002808BF80BDFDF747FE0000BD
:1026F00080B540F6B44043F60001C2F20000C4F2D7
:1027000000014FF4827200234FF4007C80E80E0039
:102710000A21C0E90333C0E9053CC361C0E90833BD
:10272000C0E90A31FFF7A8FB002808BF80BDFDF70C
:1027300025FE000080B540F60C5041F20001C2F2C7
:102740000000C4F2010100234FF00C0C4FF4E13201
:1027500080E80E00C0E90333C0E905C3C361FFF799
:1027600061FD002808BF80BDFDF708FE80B540F67A
:10277000505044F20041C2F20000C4F200010023B4
:102780004FF00C0C4FF4E13280E80E00C0E9033347
:10279000C0E905C3C0E90733FFF7FCFD002808BF07
:1027A00080BDFDF7EBFD000080B540F2683040F2DF
:1027B0002001C2F20000C2F20001002200F060FF1E
:1027C000002818BFFDF7DAFD40F2683040F2400102
:1027D000C2F20000C2F2000101F05EF9002818BF49
:1027E000FDF7CCFD40F2683040F2BC01C2F20000BF
:1027F000C2F2000100F060FC002818BFFDF7BEFD2A
:1028000040F26830C2F2000001F008FA002818BF58
:10281000FDF7B4FD80BD0000FEE70000FEE700000C
:1028200000F0070080F00703042B28BF04234FF0BB
:10283000FF3C03380CFA03F338BF00209943814072
:102840000CFA00F022EA00000843704780B540F21D
:10285000A870C2F20000FEF719FC80BD70B50446F6
:10286000006843F20B06056C00EB4110D0F8081B22
:10287000C4F65476B54207D311F400411EBF00F5EB
:1028800030604FF4004181602046FEF7FFFFB54203
:1028900009D32069012818BF70BD206804F2C44222
:1028A000012101F061FD70BD70B5044600680E465F
:1028B00000EB4111036CD1F8082B256901F530615B
:1028C000012D27D1150737D4950650D412F0280FC3
:1028D00018BF70BD43F20B05C4F65475AB4202D36A
:1028E00012F4004231D106EBC60204EB8202D2F8A8
:1028F000983209696FF3DF41A3EB0101C2F89C1222
:10290000AEB9D2F89432ABB3D2F88C020844C2F814
:102910008C020CE043F20B05C4F65475FF35AB4254
:1029200017D1100411D4900644BF20208860F1B262
:102930002046FEF77DFA70BD43F20B00C4F65470DA
:10294000834213D312F4004010D04FF4004088604B
:1029500070BD3EB9D4F8941221B904F2C4420021EA
:1029600001F002FDF1B22046FEF762FA70BD2020B0
:10297000886070BD04F2C442012101F0F5FCD6E785
:102980002DE9F04F85B0064601EBC10006EB800053
:10299000054655F8547F2C4654F8082F974254D3D7
:1029A0008346D6F800C05BF8483FBA1A9A4288BFFF
:1029B0001A460291CDF810C00CEB4111D1F818392C
:1029C00003329BB2B3EB920F2ED300F14C08029866
:1029D00001F510615FFA80FA039100BF2068296851
:1029E000814221D9DBF80020A1EB00099145D8F8FC
:1029F0000010377C88BF914604981FFA89F352462D
:102A0000009701F0E3FFD8F8000021684844C8F8B7
:102A1000000001EB09002060039809F103018069BF
:102A200080B2B0EB910FD9D2286821688842029811
:102A30000BD8049B00F00F000121D3F8342801FAD1
:102A400000F022EA0000C3F8340805B0BDE8F08FBA
:102A5000704700007047000000887047B0B501382B
:102A60000024B4EB106F1CBF0120B0BD4EF2100566
:102A7000CEF2000568604FF0FF300F2101F0DAFF61
:102A80000720AC6028602046B0BD000080B5FEF78E
:102A900009F980BD70B592B006AC20463021FDF733
:102AA000C7FB002543F640000595CDE90355CDE968
:102AB00001550095C4F202000168022641F08051E0
:102AC0000160006800F080500090009847F200001C
:102AD0000095C4F20000016841F480410160006883
:102AE00000F4804000900098012006904FF4803060
:102AF00007904FF480000D9019200E904FF4A870AD
:102B0000CDE90F060720119020460C96FFF710F82C
:102B100088B90F20CDE901064FF4A05004904FF47E
:102B20008050059001A805210395FEF7F3FE0028CB
:102B300004BF12B070BDFDF721FC00004EF68850B6
:102B4000CEF20000016841F470010160704700009E
:102B500080B5806B0021C185C184FFF743FA80BD39
:102B6000016851E8031F026821F4907142E80313E1
:102B7000002BF5D1016851E8051F026821F0010121
:102B800042E80513002BF5D1016B01290AD100BFE2
:102B9000016851E8031F026821F0100142E80313A5
:102BA000002BF5D1202180F83E10002101637047F1
:102BB00080B50168CA6822F04002CA60202180F80E
:102BC0003D10FFF7E5FB80BD7047000080B582B087
:102BD00090F83E1022291ED18268B2F5805F02D1A2
:102BE0000169002948D0816AB2F5805F07D00AB92F
:102BF000026922B10268526802F07F0201E00268B5
:102C000052680A700121826A11448162C18D0139C2
:102C10000A04C18501D002B080BD0168CA6822F0F3
:102C20002002CA60CA6822F48072CA604A6922F02F
:102C300001024A61202180F83E10016B012923D155
:102C400000210163016851E8031F026821F01001AF
:102C500042E80313002BF5D101680A68D20606D5B5
:102C6000002201920A680192496801910199818DBF
:102C7000FFF7B6F902B080BD0168826A49686FF358
:102C80005F2111800221BEE7FFF780FB02B080BD0B
:102C900010B504460068D4E902C22369016921F431
:102CA000405111430161626943EA0C01E369114338
:102CB000C268194349F20C639A431143C1604169E8
:102CC000A26921F4407141F20043114340F4806253
:102CD000C4F201039A42416102D1FEF7E3FE01E032
:102CE000FEF7CEFEE16963681922B1F5004FA0FB43
:102CF00002011CD15A00DB0FFDF762FA48F21F51A6
:102D0000C5F2EB11A0FB01235A096FF0630302FB2C
:102D10000300322303EBC000A0FB01014FF4F87065
:102D200000EA111000EB0210C1F342111AE09A0000
:102D30009B0FFDF745FA48F21F51C5F2EB11A0FBBE
:102D400001235A096FF0630302FB0300322303EBF4
:102D50000010A0FB0101F02000EA511000EB02106E
:102D6000C1F3431122680843906010BD90F83D10F4
:102D7000212923D18168B1F5805F01D1016931B189
:102D8000016A02684B1C03620978516007E0016A1E
:102D9000036831F8022B6FF35F225A600162C18C25
:102DA00001390A04C18418BF70470068C16821F066
:102DB0008001C160C16841F04001C16070470000FE
:102DC00010B540F60C54C2F200042046FFF70CF98F
:102DD0002046FFF7F9FE10BD70B504460068D4E93F
:102DE00002C2D4F810E0C16804F1180621F00C0109
:102DF000C160016968CE21F47C51194329433143F4
:102E0000114341F400610161C16849F20C629143D0
:102E1000626941EA0C0141EA0E01114341F40041AB
:102E2000C160416941F2004340F48062C4F2010391
:102E300021F440719A42416102D1FEF733FE01E074
:102E4000FEF71EFED4E900431921A0FB01015A0040
:102E5000DB0FFDF7B5F948F21F51C5F2EB11A0FBEE
:102E600001235A096FF0630302FB0300322303EBD3
:102E7000C000A0FB01014FF4F87000EA111000EB54
:102E80000210C1F342110844A06070BDD0F8D41202
:102E9000002200EB8100D0F8C012002081F8502001
:102EA0007047000080B5D0F8D41200EB8100D0F854
:102EB000C01239B1D0F8C402C26808784978904786
:102EC000002080BD032080BD70B58121044600F044
:102ED000F7FB002520460221A56300F0F1FBD4F8A2
:102EE000D402C4F88C5104EB8000D0F8C01289B130
:102EF000D0F8C40280688047D4F8D40204F5307654
:102F000056F8200000F0C8FFD4F8D40246F820504C
:102F1000C4F8BC52002070BDB0B5D0F8D41200EB9C
:102F20008100D0F8C05265B1E96C0024012906D1B6
:102F3000D0F8C4026978C26828789047EC642046CB
:102F4000B0BD0320B0BD0000014640F2B0000A222F
:102F5000C2F200000A80704770B540F27806C2F2F3
:102F6000000604463046812100F004FB0546304649
:102F7000022100F0FFFA1DB14021A9800121A971B1
:102F800018B1402181800121817140F2780029210E
:102F9000C2F20000218070BD70B540F27806C2F226
:102FA000000604463046812100F0E4FA054630462A
:102FB000022100F0DFFA1DB14021A9800521A9718D
:102FC00018B1402181800521817140F278002921CA
:102FD000C2F20000218070BD70B540F27806C2F2E6
:102FE000000604463046812100F0C4FA054630460A
:102FF000022100F0BFFA1DB14021A9800121A97171
:1030000018B1402181800121817140F2780029218D
:10301000C2F20000218070BD70B50446542000F05B
:103020003DFFD4F8D412054604EB810000F5307062
:1030300075B30560207CC4F8BC5200284FF0010035
:1030400008BF05206087A4F88E0120468121032255
:103050004023012600F054FC204602210322402395
:10306000268700F04DFCD4F8D402A4F88C6104EB60
:103070008000D0F8C4020026406885F85060804780
:10308000204602212A46402300F046FC304670BD0F
:1030900000210160022070BD80B5D0F8D41200EB91
:1030A0008101D1F8C0222AB10221402300F034FC72
:1030B000002080BD032080BD00290FBF0320D0F871
:1030C000D42200EB8200C0F8C41218BF0020704761
:1030D00080B5D0F8D43200EB8303D3F8C0327BB193
:1030E00094460A4690F89C1203291CBF002080BD1C
:1030F00093F8501000294FF0010103D0084680BD1D
:10310000032080BD83F850108121634600F0A8FCA5
:103110000021084680BD000010B582B0D0F8D4224E
:1031200000EB8203D3F8C0C20022BCF1000FADF85F
:10313000062017D00A7812F0600215D0202A2CD170
:103140004A78023A092A35D8DFE802F0052D3434EE
:1031500034343438555A0CF14401012200F0DAF8C5
:1031600000221DE003221BE091F801E0BEF10B0FED
:1031700030D80022DFE80EF006142E2E2E2E322E2E
:103180002E2E495490F89C22032A52D10DF10601AB
:10319000022200F0BFF8002202E000F097F80322BC
:1031A000104602B010BD0CF14001012200F0B2F84F
:1031B0000022F5E700F08AF80322F1E7CA8801232C
:1031C0006146CCF84C30402A28BF402200F088F8F5
:1031D0000022E5E700F07AF80322E1E7CA78212A25
:1031E00033D0222A3AD1CA88D3F8C4121E2A0968D9
:1031F00028BF1E2234E0C8780022CCF84400CFE774
:1032000088780022CCF84000CAE790F89C22032A74
:1032100013D10CF14801012200F07CF80022BFE735
:1032200090F89C22032A0CD188780022CCF8480020
:10323000B6E700F04BF80322B2E700F047F80322AC
:10324000AEE700F043F80322AAE7CA8840F2A401DF
:10325000C2F20001092A28BF092201E00022002150
:1032600000F058F800229BE780B5D0F8B8225268E9
:103270009047002818BF032080BD000080B590F85B
:103280009C22013A022A09D84988012918BF80BD29
:103290000021C0F8A41200F04BF880BD00F016F831
:1032A00080BD0000002070470020704780B51346A5
:1032B0000A46002100F030FB002080BD80B5134697
:1032C0000A46002100F0CCFB002080BD10B5802113
:1032D000044600F0ABFB2046002100F0A7FB10BD28
:1032E00080B513460A460321C0F894120021C0E9B4
:1032F000563300F011FB002080BD000080B5052191
:10330000C0F8941200210022002300F005FB0020E9
:1033100080BD000080B513460A460221C0F8941211
:103320000021C0E9063300F09BFB002080BD0000B7
:1033300080B50421C0F8941200210022002300F07F
:103340008FFB002080BD000010B540F21014C2F2C7
:1033500000040A4602A0214600F062F9204610BD92
:10336000437573746F6D2048494420436F6E6669DE
:103370006700000040F2CC001222C2F200000A8076
:103380007047000010B540F21014C2F200040A4663
:1033900002A0214600F044F9204610BD4375737425
:1033A0006F6D2048494420496E746572666163659B
:1033B0000000000040F2E0000422C2F200000A8097
:1033C0007047000010B540F21014C2F200040A4623
:1033D00002A0214600F024F9204610BD53544D6947
:1033E00063726F656C656374726F6E6963730000FE
:1033F00010B540F21014C2F200040A4602A02146A1
:1034000000F00EF9204610BD53544D333220437561
:1034100073746F6D2048756D616E20696E7465728E
:10342000666163650000000080B51A200880FCF723
:10343000ABFF40F2E400C2F2000080BD80B5C98855
:10344000012910D190F89C124A1E022A04D20022AF
:10345000014641F8082F02E0032904D1011D012291
:10346000FFF758FF80BDFFF731FF80BDB0B582B0D8
:10347000044648880D464FF0FF3101EB1021002231
:103480000629ADF8062061D8DFE801F004140860D1
:1034900060212A00D4F8B402026841E0C0B20528D5
:1034A00054D8DFE800F003292D313539D4F8B402BF
:1034B000426834E0217CD4F8B80200290CBF816A4C
:1034C000C16A0DF1060088470146022012E0207C07
:1034D000E0BBD4F8B802416B0DF10600884723E049
:1034E000207C98BBD4F8B802016B0DF10600884728
:1034F00001460720487018E0D4F8B40282680EE054
:10350000D4F8B402C2680AE0D4F8B402026906E052
:10351000D4F8B402426902E0D4F8B4028269AAB1D4
:10352000207C0DF10601904701460120A8B1EA88F0
:10353000AAB1BDF80600B8B1904238BF0246204695
:10354000ADF80620FFF7E6FE02B0B0BD2046FFF75B
:10355000BDFE002100200028E9D102B0B0BD204608
:10356000FFF7E6FE02B0B0BD2046FFF7AFFE02B0A7
:10357000B0BD000070B582B0044642880078824237
:103580001AD90D466188ADF80600814214D90DF1B3
:103590000606204605E000BFBDF80610628891428D
:1035A0000AD2314600F01CF841780529F4D181781F
:1035B000A942F1D102B070BD002002B070BD000080
:1035C000017849B1411E00208A780130002A01F1BA
:1035D0000101F9D1C0B270470020C0B270470000AD
:1035E00002780B88104413440B80704780B590F824
:1035F0009C22013A022A0FD8C98802290CD1D0F89E
:10360000A4120322002908BF0122014641F80C2F11
:103610000222FFF77FFE80BDFFF758FE80BD00004D
:1036200070B5F0B1164605460C46FFF7C9FF0221FA
:1036300001EB400030802070032060702878002863
:1036400008BF70BD691E0222002300BFD6B2A0557C
:1036500046F00100235488780232002801F101016C
:10366000F4D170BD032884BF0320704740F20031BD
:10367000C000C0F2013121FA00F0C0B27047000072
:10368000002804BF0320704780B50023C0F8B8327B
:10369000C0F8C4320029C0F8D03218BFC0F8B41244
:1036A000012180F89C12027000F0BAF880BD000081
:1036B00080B5D0F8C802FDF707FCFFF7D3FF80BD47
:1036C00080B5D0F8C802FDF7D9FBFFF7CBFF80BD6E
:1036D000B0B5044689B194F89C0203284FD1D4F8C0
:1036E000B8024269002A4AD00020C4F8D402204619
:1036F0009047002808BF0020B0BDD4F894020228EB
:1037000036D1D4E9071081420DD90B1A2046114653
:103710001A46E361FFF7D2FD204600210022002374
:1037200000F0FAF824E00FD1A16981420CD3D4F85B
:103730009802814208D22046002100220025FFF78E
:10374000BDFDC4F89852E7E794F89C02032808D11D
:10375000D4F8B802C16821B10020C4F8D4022046D0
:1037600088472046802100F061F92046FFF7C6FD1A
:1037700094F8A00200281CBF002084F8A0020020BA
:10378000B0BD000010B5044669B194F89C0203284E
:103790001DD1D4F8B80282690020CAB1C4F8D4029D
:1037A0002046904714E0D4F89402032824D1D4E9A9
:1037B0005703984210D9C01AC4F85C01984238BF28
:1037C0000346204611461A46FFF770FD14E000201C
:1037D000002808BF002010BD94F89C02032808D1DF
:1037E000D4F8B802016921B10020C4F8D4022046FF
:1037F00088472046FFF79CFD002010BD0020704741
:1038000080B5012180F89C12D0F8B81231B14A6815
:1038100001799047002818BF032080BD002080BD9B
:1038200010B5017809B1002010BD40F2A871C2F2B4
:103830000001C1F80805C0F8C8124FF0A0400422EA
:10384000C1E9000202200022C1E90302C1E9060227
:103850000846C1E90822C1E90B22FDF7FDFE002858
:1038600018BFFCF78BFD40F2A874C2F2000420469A
:103870008021FDF79FFA204600214022FDF79EFAA5
:10388000204601218022FDF799FA002010BD00009A
:10389000D0F8C80201F07F0202EBC20200EB820006
:1038A00000F13E02090658BF00F27E2210787047F0
:1038B00080B5D0F8D42200EB8202D2F8B82242B10F
:1038C00090F89C32032B02D1126A02B1904700207B
:1038D00080BD032080BD000080B5D0F8D42200EB6D
:1038E0008202D2F8B82242B190F89C32032B02D166
:1038F000526A02B19047002080BD032080BD0000C5
:1039000080B59446D0F8C8021A466346FDF70EFB10
:10391000FFF7A8FE80BD000080B5D0F8C802FDF713
:1039200035FBFFF79FFE80BDF0B581B00126002575
:1039300080F89C62C0F8945204464560D0F8B80202
:10394000C4F8A45284F8A05250B142683AB120465B
:10395000002190470546002818BF032500E00025F8
:1039600020460021002240234027FFF7C9FF2046C0
:10397000802100224023A4F86461C4F86071FFF73D
:10398000BFFFA6842846276201B0F0BD90F89C12C4
:10399000042904BF90F89D1280F89C120020704703
:1039A00080B590F89C12032906D1D0F8B81219B14D
:1039B000C969002918BF8847002080BD0246002041
:1039C0001174704780B5D0F8C802FDF74BFFFFF7C0
:1039D00049FE80BDB0B500F2AA250446284600F095
:1039E00047F80120C4F8940294F8AA02B4F8B0226F
:1039F00000F01F010229C4F8982207D001290AD03B
:103A000071B92046294600F00DF9B0BD204629467F
:103A100000F044F9B0BD2046294600F0FFF9B0BDE2
:103A200000F08001204600F001F8B0BD80B5D0F86C
:103A3000C802FDF7D1FAFFF715FE80BD80B5D0F8BA
:103A4000C802FDF72DFFFFF70DFE80BD014690F87F
:103A50009C02042281F89D02002081F89C2270477C
:103A600080B5D0F8C802FDF7EFFAFFF7FBFD80BD87
:103A7000B0B50C4609780546017060786870A01CE6
:103A8000FEF7EAFF6880201DFEF7E6FFA880A01D74
:103A9000FEF7E2FFE880B0BD10B582B0044600201A
:103AA000ADF80600B1B1D4F8D42204F52E70C4F8F4
:103AB000B81250F82200C16A21B10DF10600884702
:103AC000C4F8D002D4F8D8020130C4F8D8020020DB
:103AD00002B010BD032002B010BD0000B0B58A884E
:103AE000044642B9C88830B948887F2803D894F87A
:103AF0009C12032903D12046FFF7E8FBB0BD00F07C
:103B00007F052046294684F89E52FFF75BFF20463A
:103B1000FFF70EFC002D14BF0220012084F89C0248
:103B2000B0BD000080B5D0F8B82212B1126890473D
:103B300080BD002080BD0000B0B50446488840F23A
:103B40000C15C2F2000510F0FE0F287004D02046BC
:103B5000FFF7BCFB0320B0BD94F89C22C1B2032A3E
:103B60000CD0022A22D189B320466160FFF7DAFF28
:103B7000054680B32046FFF7A9FB15E0F9B1606860
:103B8000884223D0C1B22046FFF76EFB2978204639
:103B90006160FFF7C7FF054628B32046FFF796FB95
:103BA00021792046FFF760FB022018E02046FFF74E
:103BB0008DFB29782046FFF757FB0320B0BD02207C
:103BC00084F89C0220466160FFF74EFB2046FFF719
:103BD000AFFB0020B0BD2046FFF7AAFB032084F80E
:103BE0009C022846B0BD2046FFF7A2FB2846B0BD88
:103BF00080B54A88022A07D0012A0BD10121C0F8DA
:103C0000A412FFF795FB80BD497980F8A012FFF759
:103C10008FFB80BDFFF75AFB80BD000080B5FFF72A
:103C20000DFF80BD80B50A7812F060020CD0402AEA
:103C300001D0202A16D1D0F8D42200EB8202D2F88B
:103C4000B8229268904780BD4A78092A0AD8DFE8EE
:103C500002F0050D091109152009191DFFF7C6FC11
:103C6000002080BDFFF732FB002080BDFFF706FB80
:103C7000002080BDFFF7BCFF002080BDFFF72EFFB6
:103C8000002080BDFFF7DAFB002080BDFFF754FF66
:103C900080BDFFF7EBFB002080BD000070B50E4635
:103CA0000978357911F0600104460CD0402901D023
:103CB000202922D120462946FFF7F4FA4FF00005CB
:103CC000F8B1284670BD707830B3012842D003287F
:103CD00072D194F89C02032840D1708848B945F00D
:103CE0008000802805D0F08818B920462946FFF7C3
:103CF0009DFE2046FFF71CFB61E02046FFF7E6FA39
:103D00005DE0D4F8B802C4F8D4528268002AD8D052
:103D100020463146904770BD94F89C0203282CD071
:103D2000022849D145F08000802845D105F07F0068
:103D300000EB800004EB800000F114012A0658BF5C
:103D400000F5AA710025204602220D60FFF7E2FA75
:103D5000284670BD94F89C02032833D002282BD14A
:103D600045F08000802827D020462946FFF75EFED8
:103D700020468021FFF75AFE21E005F00F0101EBFC
:103D8000810115F0800004EB810114BF898CB1F82A
:103D9000641189B105F07F0101EB810104EB810120
:103DA00001F11406002845F0800008BF01F5AA764D
:103DB000802825D100202AE02046FFF787FA002539
:103DC000284670BD70880028F9D1680603D02046C7
:103DD0002946FFF76DFC2046FFF7AAFA2046294640
:103DE000FFF760FA00284FF000057FF46AAFD4F8BF
:103DF000B802C4F8D4528268002A7FF489AF60E721
:103E000020462946FFF744FD0028D3D0012030602A
:103E1000204631460222FFF77DFAD0E770B50D4605
:103E20000978044611F0600118BF40290ED194F8BA
:103E30009C020138022803D8A88810F0FE0F0DD08C
:103E40002046FFF743FA0026304670BD2029EED009
:103E50002046FFF73BFA0026304670BDC1B220462F
:103E6000FFF722FA10B1032676B1F5E7D4F8B802CD
:103E70008268002AF7D00020C4F8D40220462946E0
:103E800090470646002EE7D1E8880028E4D1204676
:103E9000FFF74EFA304670BD7047000040F2103018
:103EA000C2F200007047000080B54B780A78012B01
:103EB00002F00F0324D14FF0010CD0F81CE80CFAEB
:103EC00003F343EA0E03C0F81C3800F5106C5301ED
:103ED0005CF80300000431D4C86891F804E06FF383
:103EE000DF2053F80C1040EA8250084340EA8E402D
:103EF00040F0805040F4004043F80C00002080BDAA
:103F00004FF4803CD0F81CE80CFA03F343EA0E03AC
:103F1000C0F81C3800F53060520183581B040DD4E2
:103F2000CB6891F804C011586FF3DF23194341EABD
:103F30008C4141F0805141F400411150002080BD7E
:103F40000146D0F8000940F2FF729043C1F8000921
:103F5000D1F8040840F480720020C1F804287047AA
:103F600070B50699049D0129044619D1A06B4FF63E
:103F7000BF7120F48030A063E068CFF6BD710840C7
:103F8000E060E0680D9920F440100129E06003D161
:103F9000E06840F48010E060204600F01DF80FE07B
:103FA000E0680A9E40F04000E060204600F014F80F
:103FB000A16B002E14BF21F4803141F48031A16344
:103FC000012D18BF70BDA16841F00601A160A16874
:103FD00041F02001A16070BD81B040F64051C0F2B7
:103FE00003010022009200BF009A01320092009A61
:103FF0008A4215D80269B2F1FF3FF5DC0022009237
:10400000026942F001020261009A01320092009AB4
:104010008A4205D80269D207F6D1002001B0704764
:10402000032001B07047000010B54B7891F800E014
:1040300047F6000C012BCEF6334C00EB4E1108D1A5
:10404000D1F80039B3F1FF3F01F510630DDD012414
:104050001FE0D1F8002B01F53063B2F1FF3F0CF106
:10406000707C0CDD4FF4803413E01968012441F0BA
:1040700000611960196841F08041196009E0196810
:104080004FF4803441F000611960196841F08041BB
:1040900019600EF00F02D0F83C1804FA02F29143B6
:1040A000C0F83C18D0F81C189143C0F81C181868C8
:1040B00000EA0C010020196010BD00000146D0F894
:1040C000000E20F00300C1F8000ED1F8040820F023
:1040D00002020020C1F80428704700000146D0F811
:1040E000000E20F00300C1F8000ED1F8040840F0E3
:1040F00002020020C1F80428704700002DE9F04FAB
:1041000081B00446DDF844A00C98DDF828900D46F7
:104110004121002244F8212001315029FAD1BAF17D
:10412000000F07D0A16B21F40011A163A16B41F432
:10413000002110E0D4F8041841F00201C4F804187A
:10414000A16B41F40011A163A16B21F40021A163D3
:10415000A16B21F480214FF00008A163C4F8008E08
:10416000D4F80018002BC4F8001818BF0123012848
:1041700018BF03232046194600F094FB2046102167
:1041800000F0BCFA8346204600F092FAC4F810888A
:10419000C4F81488C4F81C8885B304F510614FF680
:1041A0007F3200230E684FF09047002B08BF4FF07E
:1041B000006707EAE67701330F60C1F810808A6074
:1041C0009D4201F12001EDD104F530614FF0000C6A
:1041D0004FF67F33002600BF0F684FF09042002E4D
:1041E00008BF4FF0006202EAE77201360A60C1F8C8
:1041F00010C08B60B54201F12001EDD1D4F8101848
:10420000B9F1000F21F48071C4F810186FF08041EB
:10421000C4F81880616103D1A16941F01001A16166
:10422000A16943F60002C8F23C0211430D9AA16154
:104230001AB1A16941F00801A161BAF1010F05D1DC
:10424000A16941F0804141F00401A16150EA0B00F5
:1042500018BF012001B0BDE8F08F00000146806862
:1042600020F0010200208A6070470000F0B54B7812
:1042700091F800C0012B23D18E6900EB4C1E002564
:104280004FF6FF74DEF81079CFF6F875CEF207041A
:10429000002E0EF510633FD03D401D611D69254085
:1042A0001D61CD6804F10054AE4288BF8D611D6967
:1042B00045F400251D618D691E692C40344333E0AF
:1042C00000EB4C13D3F8100B6FF31200C3F8100B74
:1042D000D3F8100B6FF3DC40C3F8100B8F6903F5B4
:1042E0003063002F1CBFCF688F61CF684FF6FF701F
:1042F000CF611E69CEF2070046F400261E6100F170
:1043000000501E6938403043012A186114D10869F1
:10431000002818BF58610FE03C401C611C6944F440
:1043200000241C611C692C40012A1C610BD14869C6
:10433000002818BFCEF814094FF00441186808434C
:1043400018600020F0BDDEF8002942F00442CEF8EB
:10435000002989690029F4D00CF00F01012202FA2A
:1043600001F100F63403E9E7D0F840C043F20B0353
:10437000C4F654739C4503D3D0F8003B002B1ED4E5
:104380000023C0F8103BD0F8103B012943F4002370
:10439000C0F8103BD0F8103B43F01803C0F8103BB6
:1043A000D0F8103B43F0C043C0F8103B07D1C0F831
:1043B000142BD0F8001B41F08021C0F8001B002016
:1043C000704700004B780A78012B11D100F510607E
:1043D0005201835823F400138350097901F0FE0140
:1043E000022915D1115841F0805111500020704719
:1043F00000F530605201835823F40013835009798B
:1044000001F0FE01022903D1115841F080511150F1
:10441000002070474A780978012A0ED100EB41123A
:10442000D2F80009002902F5106114D0002812D436
:10443000086820F0804008600DE000EB4112D2F8DF
:10444000000B002902F5306105D0002803D408686C
:1044500020F080400860086840F4001200200A60E4
:1044600070470000F0B581B04B7894460A78012B74
:1044700030D1D1F818E000EB4213D3F81059BEF157
:10448000000F03F510644BD06FF312052561256909
:104490006FF3DC452561CD6827690EEB0506013E0B
:1044A000B6FBF5F50026C1F6F87606EAC5453D43AC
:1044B0002561754626696FF3DF45354325610D7922
:1044C000012D38D1256925F0C0452561256945F0C4
:1044D00000552FE000EB4212D2F8103B6FF31203AD
:1044E000C2F8103BD2F8103B6FF3DC43C2F8103B2C
:1044F0008D69CB68002D02F5306258D0EF18013F6E
:10450000B7FBF3F7BEB27343CB610026C1F6F87672
:10451000156906EAC7472F436FF3DF4317614DE084
:104520006FF3DC452561256945F400252561256982
:104530006FF312052561BCF1010F1BD14A69002AF6
:1045400018BFC3F81429097901290CD1D0F808083B
:10455000D3F80019C0054FF0805058BF4FF00050FD
:104560000843C3F80009D3F8000940F00440C3F839
:10457000000940E000F5106354011D5945F0044561
:104580001D510D79012D39D1D0F80858E658ED05A7
:104590004FF0805558BF4FF000553543E55009693D
:1045A0001FFA8EF3CDF800C000F010FA23E017696F
:1045B0006FF3DF433B4313614FF400231769BCF1F2
:1045C000010F43EA0703136103D10B69002B18BFE6
:1045D0005361097901290AD1D0F808081168C0058A
:1045E0004FF0805058BF4FF00050084310601068E3
:1045F00040F004401060002001B0F0BDBEF1000F9B
:10460000F9D002F00F010122D0F8343802FA01F19A
:104610001943C0F83418EEE781B0002200924A78BE
:10462000012A1BD1097800F5106049014258B2F106
:10463000FF3F2EDC0A5842F000620A500A5842F04E
:1046400080420A5042F21072009B01330093009B9B
:10465000934221D80B58002BF6D41AE0097800F5C4
:10466000306049014258B2F1FF3F12DC0A5842F073
:1046700000620A500A5842F080420A5042F2107218
:10468000009B01330093009B934205D80B58002BED
:10469000F6D4002001B07047012001B0704700003F
:1046A0000146806840F0010200208A6070470000E7
:1046B00081B040F64051C0F203010022009200BFD9
:1046C000009A01320092009A8A4213D80269B2F12C
:1046D000FF3FF5DC0022009210220261009A0132B5
:1046E0000092009A8A4205D80269D206F6D40020C8
:1046F00001B07047032001B07047000081B040F660
:104700004052C0F203020023009300BF009B01331C
:104710000093009B934215D80369B3F1FF3FF5DC8A
:104720008901002320310093016100BF009901310C
:1047300000910099914205D801698906F6D40020BC
:1047400001B07047032001B070470000D0F808089E
:1047500010F0060F04BF0020704780074FF00200E2
:1047600058BF0F2070470000406900F001007047FB
:10477000D0F81818D0F81C08084080B27047000024
:10478000D0F81818D0F81C080840000C704700003A
:10479000D0F810C8D0F8343801F00F0223FA02F232
:1047A000D20100EB4110D2B2D0F8080942EA0C0164
:1047B0000840704700EB4111D1F8081BD0F81408ED
:1047C00008407047416980690840704780B5002300
:1047D000B3EB920F02F003030BD0920804394FF4AD
:1047E000805C00BF50F80CE0013A41F804EFF9D1C9
:1047F000043173B14FF4805250F802C0002200BF60
:104800002CFA02F0013B01F8010B180402F1080236
:10481000F6D1084680BD000070B50446C06820F09F
:10482000C040E06099B1012928D1E068002540F03E
:104830000050E06001202E46FCF740F8204601358C
:10484000FFF792FF302E13D80128F3D110E0E06873
:10485000002540F08040E06001202E46FCF72EF855
:1048600020460135FFF780FF302E01D80028F3D114
:10487000A5F13200B0FA80F0400970BD012070BD92
:104880000246D0F8000801F07F0120F4FE60C2F873
:104890000008D2F8000840EA01110020C2F8001810
:1048A000704700000246D0F8000801430020C2F81B
:1048B00000187047022A02460DD145F24030CFF66B
:1048C000277043F200530844C0F20C0398420DD203
:1048D0004FF4705001E04FF41050D16821F4705142
:1048E000D160D16801430020D160704741F640603B
:1048F000CFF61B7044F240230844C0F20F039842E5
:1049000002D24FF46050E8E7A1F5740044F68073DA
:10491000A0F51050C0F21203984202D24FF450504A
:10492000DBE7A1F183704DF22063A0F5E740C0F210
:104930001303984202D24FF44050CEE74BF260602E
:10494000CFF6E5604EF260330844C0F21603984299
:1049500002D24FF43050C0E74DF20030CFF6CE60B7
:1049600047F240730844C0F21B03984202D24FF44E
:104970002050B2E745F6C030CFF6B36049F2C0131D
:104980000844C0F22103984202D24FF41050A4E729
:10499000A1F1B77047F22053A0F55850C0F2380388
:1049A000984202D24FF4005097E745F2E040CFF62C
:1049B000596049F6E0430144C0F241034FF4C0504E
:1049C000994238BF4FF4E05087E70000DDF800C09F
:1049D000BCF1000F12D103F1030C0023B3EB9C0FC9
:1049E0000CD04FEA9C0300F5805C1203043900BF31
:1049F00051F8040F013B42F80C00F9D10020704738
:104A0000FEE70000002848BF704700F01F010122A8
:104A100002FA01F14EF200124009CEF2000242F811
:104A2000201070474EF60C50CEF200000068C0F324
:104A3000022070474EF6145300F00F02CEF200032E
:104A400009011A4400F16043B0F1FF3FC8BF03F50C
:104A500064421170704700004EF60C51CEF2000116
:104A60000A684FF6FF031A4060F30A2242F08060A2
:104A700040F0FD700860704790B0FCF721F9FEF738
:104A800009F8FDF77BFDFDF755FDFDF753FEFDF73A
:104A90001DFDFDF735FDFDF70BFEFDF729FEFDF7CA
:104AA00065FEFDF781FE6C4620464021FBF7C0FB0A
:104AB00040F26835C2F2000504E000BF4FF4FA602E
:104AC000FBF7FCFE284621464022FEF701FB0028AA
:104AD000F4D19DF8000001308DF80000EEE702E00F
:104AE00008C8121F08C1002AFAD170477047002079
:104AF00001E001C1121F002AFBD170470000000035
:104B0000000000000102030406070809000000007D
:104B100001020304384B00080000002008010000D7
:104B2000DE4A0008404C00080801002090100000F8
:104B3000EE4A00080000000006FFFF0901A1011570
:104B40000026FF00750895400902810209039102C1
:104B50000A00FFB102C0000075330008B533000839
:104B6000C5330008F1330008293400084933000830
:104B7000853300080024F40019300008C92E00080D
:104B80001931000800000000192F00088D2E0008C0
:104B9000A52E00080000000000000000000000003A
:104BA000992F0008592F0008D92F0008492F000815
:104BB00009022900010100C03209040000020300BB
:104BC0000000092111010001221E00070581034098
:104BD0000001070502034000010000000921110146
:104BE0000001221E000000000A0600020000004032
:104BF0000100000000000020B1020008AD02000822
:104C0000B502000812010002000000408304515761
:104C10000002010203010000040309041A0300005A
:104C20000000000000000000000000000000000084
:104C30000000000000000100100000000000000063
:040000050800018965
:00000001FF
